:020000040800F2
:1000000000000220B12B0008912A0008932A000862
:10001000952A0008972A0008992A00080000000085
:10002000000000000000000000000000D16C00088B
:100030009B2A000800000000616D00089D2A00084E
:10004000012C0008012C0008012C0008012C0008DC
:10005000012C0008B52A0008012C0008012C00081A
:10006000012C0008012C0008012C0008012C0008BC
:10007000012C0008012C0008012C0008012C0008AC
:10008000012C0008012C0008012C0008012C00089C
:10009000012C0008012C0008012C0008012C00088C
:1000A000B92A0008C52A0008012C0008012C000804
:1000B000012C0008012C0008C92A0008012C0008A6
:1000C000012C0008012C0008012C0008012C00085C
:1000D000012C0008012C0008012C0008D52A00087A
:1000E000012C0008012C0008012C0008012C00083C
:1000F000012C0008E12A0008012C0008012C00084E
:10010000012C0008012C0008012C0008012C00081B
:10011000012C0008012C0008012C0008012C00080B
:10012000012C0008012C0008012C0008012C0008FB
:10013000012C0008012C0008012C0008012C0008EB
:10014000012C0008012C0008012C0008012C0008DB
:10015000012C0008012C0008012C0008012C0008CB
:10016000012C0008012C0008012C0008012C0008BB
:10017000012C0008012C0008012C000800000000E0
:08018000012C0008012C00080D
:1001900010B5054C237833B9044B13B10448AFF3C1
:1001A00000800123237010BD000200200000000029
:1001B0007CB2000808B5034B1BB103490348AFF3F9
:1001C000008008BD00000000040200207CB200088E
:1001D00001F0FF01102A2BDB10F0070F08D010F8F8
:1001E000013B013A8B422DD010F0070F42B3F6D1FC
:1001F000F0B441EA012141EA014122F007047FF015
:1002000000070023F0E80256083C85EA010586EA6B
:10021000010685FA47F5A3FA87F586FA47F6A5FAA7
:1002200087F68EB9EED1F0BC01F0FF0102F00702B3
:1002300032B110F8013B013A83EA010313B1F8D15E
:100240000020704701387047002D06BF354603383F
:10025000073815F0010F07D1013015F4807F02BF78
:10026000013015F4C03F0130F0BC0138704700BFC9
:10027000034613F8012B002AFBD1181A01387047E6
:1002800081F0004102E000BF83F0004330B54FEA47
:1002900041044FEA430594EA050F08BF90EA020FB4
:1002A0001FBF54EA000C55EA020C7FEA645C7FEA47
:1002B000655C00F0E2804FEA5454D4EB5555B8BF6A
:1002C0006D420CDD2C4480EA020281EA030382EADB
:1002D000000083EA010180EA020281EA0303362D6D
:1002E00088BF30BD11F0004F4FEA01314FF4801C40
:1002F0004CEA113102D0404261EB410113F0004F52
:100300004FEA03334CEA133302D0524263EB430308
:1003100094EA050F00F0A780A4F10104D5F1200EA6
:100320000DDB02FA0EFC22FA05F2801841F1000101
:1003300003FA0EF2801843FA05F359410EE0A5F1D5
:1003400020050EF1200E012A03FA0EFC28BF4CF006
:10035000020C43FA05F3C01851EBE37101F00045BC
:1003600007D54FF0000EDCF1000C7EEB00006EEBC9
:100370000101B1F5801F1BD3B1F5001F0CD3490853
:100380005FEA30004FEA3C0C04F101044FEA4452AA
:1003900012F5800F80F09A80BCF1004F08BF5FEA31
:1003A000500C50F1000041EB045141EA050130BD11
:1003B0005FEA4C0C404141EB0101013C28BFB1F523
:1003C000801FE9D291F0000F04BF01460020B1FA6E
:1003D00081F308BF2033A3F10B03B3F120020CDA41
:1003E0000C3208DD02F1140CC2F10C0201FA0CF01F
:1003F00021FA02F10CE002F11402D8BFC2F1200C84
:1004000001FA02F120FA0CFCDCBF41EA0C01904039
:10041000E41AA2BF01EB0451294330BD6FEA040482
:100420001F3C1CDA0C340EDC04F11404C4F120026D
:1004300020FA04F001FA02F340EA030021FA04F37F
:1004400045EA030130BDC4F10C04C4F1200220FAD6
:1004500002F001FA04F340EA0300294630BD21FA14
:1004600004F0294630BD94F0000F83F4801306BFDA
:1004700081F480110134013D4EE77FEA645C18BFCE
:100480007FEA655C29D094EA050F08BF90EA020F65
:1004900005D054EA000C04BF1946104630BD91EA5D
:1004A000030F1EBF0021002030BD5FEA545C05D160
:1004B0004000494128BF41F0004130BD14F580049F
:1004C0003CBF01F5801130BD01F0004545F0FE4113
:1004D00041F470014FF0000030BD7FEA645C1ABF48
:1004E000194610467FEA655C1CBF0B46024650EA7F
:1004F000013406BF52EA033591EA030F41F40021AB
:1005000030BD00BF90F0000F04BF0021704730B530
:100510004FF4806404F132044FF000054FF0000105
:1005200050E700BF90F0000F04BF0021704730B5C6
:100530004FF4806404F1320410F0004548BF40429B
:100540004FF000013EE700BF42004FEAE2014FEAF0
:1005500031014FEA02701FBF12F07F4393F07F4FCB
:1005600081F06051704732F07F4208BF704793F0CE
:100570007F4F04BF41F40021704730B54FF46074E1
:1005800001F0004521F000411CE700BF50EA0102E4
:1005900008BF704730B54FF000050AE050EA01028D
:1005A00008BF704730B511F0004502D5404261EBFD
:1005B00041014FF4806404F132045FEA915C3FF43E
:1005C000D8AE4FF003025FEADC0C18BF03325FEADB
:1005D000DC0C18BF033202EBDC02C2F1200300FA8C
:1005E00003FC20FA02F001FA03FE40EA0E0021FAB1
:1005F00002F11444BDE600BF70B54FF0FF0C4CF49F
:10060000E06C1CEA11541DBF1CEA135594EA0C0F50
:1006100095EA0C0F00F0DEF82C4481EA030621EA8B
:100620004C5123EA4C5350EA013518BF52EA0335C6
:1006300041F4801143F4801338D0A0FB02CE4FF078
:100640000005E1FB02E506F00042E0FB03E54FF0A8
:100650000006E1FB03569CF0000F18BF4EF0010EA0
:10066000A4F1FF04B6F5007F64F5407404D25FEA9C
:100670004E0E6D4146EB060642EAC62141EA55514F
:100680004FEAC52040EA5E504FEACE2EB4F1FD0C91
:1006900088BFBCF5E06F1ED8BEF1004F08BF5FEA0F
:1006A000500E50F1000041EB045170BD06F00046C1
:1006B00046EA010140EA020081EA0301B4EB5C046E
:1006C000C2BFD4EB0C0541EA045170BD41F4801166
:1006D0004FF0000E013C00F3AB8014F1360FDEBF8B
:1006E000002001F0004170BDC4F10004203C35DA67
:1006F0000C341BDC04F11404C4F1200500FA05F3EA
:1007000020FA04F001FA05F240EA020001F000428A
:1007100021F0004110EBD37021FA04F642EB060100
:100720005EEA430E08BF20EAD37070BDC4F10C042A
:10073000C4F1200500FA04F320FA05F001FA04F2EE
:1007400040EA020001F0004110EBD37041F10001DA
:100750005EEA430E08BF20EAD37070BDC4F12005E5
:1007600000FA05F24EEA020E20FA04F301FA05F24D
:1007700043EA020321FA04F001F0004121FA04F2F5
:1007800020EA020000EBD3705EEA430E08BF20EAC5
:10079000D37070BD94F0000F0FD101F000464000FF
:1007A00041EB010111F4801F08BF013CF7D041EA81
:1007B000060195F0000F18BF704703F00046520085
:1007C00043EB030313F4801F08BF013DF7D043EA56
:1007D0000603704794EA0C0F0CEA135518BF95EA0C
:1007E0000C0F0CD050EA410618BF52EA4306D1D193
:1007F00081EA030101F000414FF0000070BD50EAB2
:10080000410606BF1046194652EA430619D094EA3B
:100810000C0F02D150EA013613D195EA0C0F05D125
:1008200052EA03361CBF104619460AD181EA030179
:1008300001F0004141F0FE4141F470014FF0000031
:1008400070BD41F0FE4141F4780170BD70B54FF0CC
:10085000FF0C4CF4E06C1CEA11541DBF1CEA13554C
:1008600094EA0C0F95EA0C0F00F0A7F8A4EB05042E
:1008700081EA030E52EA03354FEA013100F0888025
:100880004FEA03334FF0805545EA131343EA1263EE
:100890004FEA022245EA111545EA10654FEA0026A3
:1008A0000EF000419D4208BF964244F1FD0404F55C
:1008B000407402D25B084FEA3202B61A65EB0305B8
:1008C0005B084FEA32024FF480104FF4002CB6EB75
:1008D000020E75EB030E22BFB61A754640EA0C00F5
:1008E0005B084FEA3202B6EB020E75EB030E22BF35
:1008F000B61A754640EA5C005B084FEA3202B6EB76
:10090000020E75EB030E22BFB61A754640EA9C0034
:100910005B084FEA3202B6EB020E75EB030E22BF04
:10092000B61A754640EADC0055EA060E18D04FEAC2
:10093000051545EA16754FEA06164FEAC30343EA62
:1009400052734FEAC2025FEA1C1CC0D111F4801F2F
:100950000BD141EA00014FF000004FF0004CB6E728
:1009600011F4801F04BF01430020B4F1FD0C88BFC7
:10097000BCF5E06F3FF6AFAEB5EB030C04BFB6EBD2
:10098000020C5FEA500C50F1000041EB045170BDC5
:100990000EF0004E4EEA113114EB5C04C2BFD4EBF2
:1009A0000C0541EA045170BD41F480114FF0000E76
:1009B000013C90E645EA060E8DE60CEA135594EAF2
:1009C0000C0F08BF95EA0C0F3FF43BAF94EA0C0FF5
:1009D0000AD150EA01347FF434AF95EA0C0F7FF46A
:1009E00025AF104619462CE795EA0C0F06D152EABE
:1009F00003353FF4FDAE1046194622E750EA4106A2
:100A000018BF52EA43067FF4C5AE50EA41047FF4B2
:100A10000DAF52EA43057FF4EBAE12E74FF0FF3C17
:100A200006E000BF4FF0010C02E000BF4FF0010CE8
:100A30004DF804CD4FEA410C7FEA6C5C4FEA430C61
:100A400018BF7FEA6C5C1BD001B050EA410C0CBFB0
:100A500052EA430C91EA030F02BF90EA020F002012
:100A6000704710F1000F91EA030F58BF994208BF79
:100A700090422CBFD8176FEAE37040F00100704736
:100A80004FEA410C7FEA6C5C02D150EA013C07D18D
:100A90004FEA430C7FEA6C5CD6D152EA033CD3D0D8
:100AA0005DF8040B704700BF8446104662468C46D2
:100AB0001946634600E000BF01B5FFF7B7FF002805
:100AC00048BF10F1000F01BD4DF808EDFFF7F4FF2E
:100AD0000CBF012000205DF808FB00BF4DF808EDB9
:100AE000FFF7EAFF34BF012000205DF808FB00BFDC
:100AF0004DF808EDFFF7E0FF94BF012000205DF8FE
:100B000008FB00BF4DF808EDFFF7CEFF94BF0120B2
:100B100000205DF808FB00BF4DF808EDFFF7C4FFAB
:100B200034BF012000205DF808FB00BF4FEA410CF4
:100B30007FEA6C5C02D150EA013C0AD14FEA430CD7
:100B40007FEA6C5C02D152EA033C02D14FF0000014
:100B500070474FF0010070474FEA410212F5001252
:100B600015D211D56FF47873B3EB625212D94FEAF4
:100B7000C12343F0004343EA505311F0004F23FADE
:100B800002F018BF404270474FF00000704750EA33
:100B9000013005D111F0004008BF6FF000407047F0
:100BA0004FF00000704700BF4A0011D212F500124A
:100BB00011D20DD56FF47873B3EB62520ED44FEAB5
:100BC000C12343F0004343EA505323FA02F0704735
:100BD0004FF00000704750EA013002D14FF0FF3073
:100BE00070474FF0000070474FEA4102B2F1E04316
:100BF00024BFB3F5001CDCF1FE5C0DD901F0004C04
:100C00004FEAC0024CEA5070B2F1004F40EB830053
:100C100008BF20F00100704711F0804F21D113F17F
:100C20003872BCBF01F00040704741F480114FEAB8
:100C30005252C2F11802C2F1200C10FA0CF320FA41
:100C400002F018BF40F001004FEAC1234FEAD3235E
:100C500003FA0CFC40EA0C0023FA02F34FEA4303C8
:100C6000CCE77FEA625307D150EA01331EBF4FF051
:100C7000FE4040F44000704701F0004040F0FE406C
:100C800040F40000704700BF53B94AB9002908BFBB
:100C900000281CBF4FF0FF314FF0FF3000F06AB961
:100CA000ADF1080C6DE904CE00F006F8DDF804E0C3
:100CB000DDE9022304B070472DE9F047089D0C469A
:100CC000002B4ED194468C458646B2FA82F262D908
:100CD0004AB1C2F12003914020FA03F30CFA02FC5E
:100CE000194300FA02FE4FEA1C471FFA8CF6B1FBCB
:100CF000F7F44FEA1E4307FB141143EA014304FBD8
:100D000006F199420AD91CEB030304F1FF3080F08D
:100D10001281994240F20F81023C6344591A1FFA32
:100D20008EF3B1FBF7F007FB101143EA014300FB20
:100D300006F69E420AD91CEB030300F1FF3180F056
:100D4000FC809E4240F2F980634402389B1B40EADB
:100D5000044000211DB1D3400022C5E90032BDE8A6
:100D6000F0878B4205D90DB1C5E900010021084685
:100D7000F5E7B3FA83F1002946D1A34202D39042AA
:100D8000C0F0F080861A64EB03030120002DE6D04A
:100D9000C5E90063E3E7002A40F09080A1EB0C0472
:100DA0004FEA1C481FFA8CF70121B4FBF8F64FEA12
:100DB0001E4308FB164443EA044307FB06F098422F
:100DC00008D91CEB030306F1FF3402D2984200F26B
:100DD000CD8026461C1A1FFA8EF3B4FBF8F008FBF0
:100DE000104443EA044300FB07F79F4208D91CEB79
:100DF000030300F1FF3402D29F4200F2B08020468C
:100E0000DB1B40EA0640A5E7C1F120068B4022FA31
:100E100006F71F4320FA06FC04FA01F343EA0C0329
:100E2000F44000FA01F8380C4FEA1349B4FBF0FE25
:100E30001FFA87FC00FB1E4449EA04440EFB0CF930
:100E4000A14502FA01F20AD93C190EF1FF3A80F0ED
:100E50008480A14540F28180AEF1020E3C44A4EBB7
:100E600009041FFA83F9B4FBF0F300FB134449EAC9
:100E7000044403FB0CFCA44507D93C1903F1FF30E3
:100E800067D2A44565D9023B3C4443EA0E40A0FB2F
:100E90000293A4EB0C049C42CE469C4651D34ED008
:100EA00055B1B8EB0E0364EB0C0404FA06F6CB4024
:100EB0001E43CC40C5E90064002150E7C2F1200385
:100EC00020FA03F10CFA02FC24FA03F394400C43D9
:100ED0004FEA1C4800FA02FE1FFA8CF7B3FBF8F049
:100EE00008FB1031230C43EA014300FB07F1994250
:100EF00008D91CEB030300F1FF362CD299422AD902
:100F0000023863445B1AA4B2B3FBF8F108FB113357
:100F100044EA034401FB07F3A34208D91CEB040491
:100F200001F1FF3613D2A34211D902396444E41A05
:100F300041EA004139E70446F0E6084606E7C845BD
:100F4000AED2B9EB020E63EB070C0138A8E73146CD
:100F5000EDE7034699E73046D4E7D6467FE763449A
:100F600002384DE70646234608460FE7023E634433
:100F700030E700BF704700BF08B5054C20464FF46E
:100F8000806102F0CCFB4FF4FA6004F046FCF5E718
:100F9000001002402DE9F04300249FB010222146AA
:100FA00006A8059406F05FFE102221460BA80A94BD
:100FB00006F059FE1022214610A80F9406F053FEA9
:100FC0001022214615A8149406F04DFE1022214649
:100FD0001AA8199406F047FE314D324F00262A8890
:100FE000314905A806F0DCFD05AA0A21002001F020
:100FF000D1FE2E4BD3E9008949464046FFF7ACFDB0
:101000000446FFF78FFA02460B4640464946FFF773
:101010003BF932463B46FFF7EFFAFFF79DFD80EACA
:10102000E073A3EBE073224621490AA806F0B8FD5D
:101030000AAA1421002001F0ADFE1E4B1E4A1B8897
:1010400012681E490FA806F0ABFD0FAA1E21002052
:1010500001F0A0FE1A4B1B4A1B8812881A4914A8DB
:1010600006F09EFD14AA2821002001F093FE174AE5
:10107000174913790293D3780193937800935378A7
:10108000127819A806F08CFD19AA3221002001F06F
:1010900081FE01F0E5FD642004F0BFFB9FE700BF87
:1010A0004202002000408F4098B2000878020020E1
:1010B000A4B200084802002020020020B2B20008BA
:1010C0003802002040020020C0B20008AF02002019
:1010D000CFB2000870B53C211948194E194D03F0E4
:1010E0005CFA3C21184803F058FA01F045FF044629
:1010F00001F042FF001B0A281DD9134B30681C6801
:10110000426A616A2B68B1F5FA4FC6BFC1F58031FA
:101110005B1A5B180D492B60B2F5FA4F0B68CABF1A
:10112000C2F580329B1A9B180B60002363624362F6
:1011300001F022FF0446322004F06FFBD8E700BF25
:10114000F003002094020020A80300209002002059
:1011500000B595B02C22002109A806F084FD1422C8
:10116000002103A806F07FFD0023194A0193116CAA
:1011700041F080511164126C02F080520192019A88
:10118000144A0293116841F48041116012680E9371
:1011900002F480420292029A022208920120102256
:1011A000CDE90B0208A802F0D3FE014608B172B6E1
:1011B000FEE70F23CDE90330CDE90500079003A832
:1011C00003F0A2F808B172B6FEE715B05DF804FBB3
:1011D000003802400070004080B59CB001F0A6FECF
:1011E000FFF7B6FF1422002113A806F03CFD0024EF
:1011F000A64B00941A6BA64842F010021A631A6BB1
:1012000002F010020092009A01941A6B42F08002E0
:101210001A631A6B02F080020192019A02941A6B0F
:1012200042F001021A631A6B02F001020292029A62
:1012300003941A6B42F002021A631A6B02F0020264
:101240000392039A04941A6B42F008021A631A6B11
:1012500002F008020492049A05941A6B42F0040208
:101260001A631B6B03F00403059322464FF4BC6121
:10127000059B02F04FFA874822463C2102F04AFAC9
:10128000854822464FF4806102F044FA22468348A2
:101290004FF4005102F03EFA01264FF4BC637C4843
:1012A00013A9CDE91336CDE9154402F05BF93C23CF
:1012B000CDE9133677481594022313A9169302F04B
:1012C00051F94FF48063744813A9CDE913364FF4F4
:1012D0008075CDE9154402F045F94FF488136F4845
:1012E000159413A9CDE913534FF4005702F03AF9BE
:1012F0006A4813A9CDE91376CDE9154402F032F915
:101300006748DFF8B8C1674B0462C0E900C34FF417
:101310008043C0E90244C0E90434C0E9064402F055
:1013200009FB054608B172B6FEE70146102208A87F
:1013300006F099FC1C2229460CA8CDE9065506F0BA
:1013400092FC2022294613A806F08DFC564C5748E3
:10135000A560A023C4E900034FF47A73C4E9033500
:10136000204680236561A36103F092FA08B172B64A
:10137000FEE74FF4805308A92046089303F0C5FC0C
:1013800008B172B6FEE7204603F0AEFA08B172B6B5
:10139000FEE7CDE9060006A9204603F045FE08B1A8
:1013A00072B6FEE76023CDE90C30CDE910000E9057
:1013B00012900C220CA9204603F078FB08B172B6FB
:1013C000FEE7CDE91300CDE91500CDE917071A9026
:1013D00013A9204603F066FE054608B172B6FEE783
:1013E000204601F0EBFA324C29461C2214A806F0E4
:1013F0003AFC4FF6FF774FF08043CDE90C55C4E936
:101400000035C4E90375A560A5614FF003080A25FE
:1014100013A92046CDF84C801596179519961B9563
:1014200003F0BAFA08B172B6FEE7CDE90C000CA9D8
:10143000204603F0F9FD044608B172B6FEE7014606
:101440001C2214A806F00FFC1A481B4B046113A9B8
:10145000CDE90C44C0E90034C0E902478461CDF80D
:101460004C801596179519961B9503F095FA08B1BF
:1014700072B6FEE700230F480CA9CDE90C3303F048
:10148000D3FD0546E0B172B6FEE700BF003802406A
:10149000001002400000024000040240000C024024
:1014A00080040020A08601003804002000000140D4
:1014B000F0030020A8030020000400400054004076
:1014C0000146CDE90C00102213A806F0CCFB9A4C83
:1014D0009A49A5600F23C4E9001320464FF6FF7315
:1014E000C4E90335A56103F02BFA08B172B6FEE733
:1014F000CDE90C000CA9204603F096FD024608B188
:1015000072B6FEE70123CDE914301390169013A9AB
:10151000204603F05DFB054608B172B6FEE70146C2
:10152000102208A806F09FFB1C2229460CA8CDE932
:10153000065506F098FB2022294613A806F093FBD7
:101540007F4C804BA560C4E90035204641F61F431F
:10155000C4E90335C4E9055503F09AF908B172B638
:10156000FEE74FF4805308A92046089303F0CDFB13
:1015700008B172B6FEE7204603F0B6F908B172B6BC
:10158000FEE7CDE9060006A9204603F04DFD024620
:1015900008B172B6FEE76023CDE90C30CDE90E004C
:1015A000CDE9100012900CA9204603F07FFA08B193
:1015B00072B6FEE704220CA9204603F077FA08B1C0
:1015C00072B6FEE700234FF400525D48179313A94B
:1015D000CDE91333CDE9153318921A9303F062FD68
:1015E00008B172B6FEE7584E584A30614FF4E13305
:1015F000C6E900230C23C6E90200C6E90530F06104
:10160000304603F039FE054608B172B6FEE7504C8D
:10161000DFF8B0810146102213A806F024FB4D4BE1
:10162000A56001272046C4E900352561257684F8A8
:101630002050E562C4F82880E560E76184F8305006
:10164000676101F0B3FC08B172B6FEE7CDE913079C
:10165000159013A9204601F03FFE054608B172B669
:10166000FEE73D4C0146102213A806F0FCFA3B4B66
:10167000A5602046C4E90035C4E90A8525612576C0
:1016800084F82050E560E76184F83050676101F02C
:101690008DFC08B172B6FEE7159013A92046CDE97E
:1016A000137701F019FE044608B172B6FEE701F0A7
:1016B00091FB2B490522304604F027F804F03AF854
:1016C000284A2948214604F061F8284B284A186026
:1016D0002146284804F05AF8274B284A186021462A
:1016E000274804F053F8274B274A1860214627481B
:1016F00004F04CF8264B274A18602146264804F08F
:1017000045F8264B264A18602146264804F03EF844
:10171000254B264A18602146254804F037F8254B0A
:10172000254A18602146254804F030F8244B1860FB
:1017300004F012F8FEE700BF60030020000800403C
:101740001803002000040140D4020020004800409B
:101750001C05002000200140D4040020002101408D
:10176000AF0200203CB40008790F0008D00200202E
:1017700018B40008311B0008CC020020F4B30008A4
:10178000950F0008C8020020D0B30008F923000814
:10179000C4020020ACB3000879190008C002002080
:1017A00088B30008791F0008BC02002064B3000859
:1017B000D5100008B802002040B30008D125000869
:1017C000B40200200100000F08B5052203490448B7
:1017D00003F09BFF034B01221A6008BDAF020020FB
:1017E000D40200201C020020034B1B6800225A6216
:1017F0005A6A8242FCD37047600300200000000058
:101800002DE9F041067F012E054610D13C4C2168A0
:1018100079B902F01BFF3B4B266018602B681A6AEF
:1018200022F00A021A621A6A42F002021A62BDE843
:10183000F0810129FBD1002102F008FF324B2D6815
:10184000186000236B622F4B1A68304B904247DDC3
:10185000801A18801888DFF8C880FEF763FE22A37C
:10186000D3E90023FEF7C8FE0022294BFEF7C4FE91
:10187000FFF79AF9274B80B21880FEF753FE1CA39E
:10188000D3E90023FEF7B8FE0646D8F800000F465D
:10189000FEF75AFE18A3D3E90023FEF7ADFE024679
:1018A0000B4630463946FEF7F1FCFFF79DF907EE8F
:1018B000900AFDEEE77A184BC8F8000017EE902A60
:1018C0001A80002323602B6A23F00A032B622B6A01
:1018D0002B62124B1A68D36823F00203D360A6E789
:1018E000B8DA801A0138B4E7006F8104C58FA13FD0
:1018F0009A9999999999B93FCDCCCCCCCCCCEC3F65
:10190000600200205C0200205802002056020020E5
:101910000000E03F5402002042020020600300204B
:101920000800002010B50B4C01224FF40051204656
:1019300001F0F0FE1420FFF757FF4FF40051002292
:10194000204601F0E7FE044B1A68D36843F0020317
:10195000D36010BD000C024060030020044B012244
:101960001A60044B9222C8201A8003F056BF00BFB1
:10197000980200201000002008B51048104D114EAC
:10198000114C002103F0CEFAFFF7CCFF2B8896ED27
:10199000007A07EE903AF8EEE77AF4EEC77AF1EEC5
:1019A00010FA06DB2368012B03D100232360FFF725
:1019B000D5FF0A2003F031FFE6E700BF60030020F7
:1019C0000C000020080000205002002038B504461A
:1019D0000D4659B3002822DD01222348102101F0D1
:1019E00099FE00222021204801F094FE84EAE47050
:1019F000A0EBE470B0F5FA6F29DCB0F5FA7F29DCD2
:101A0000C8282ADC64282BDC184A1368022803F152
:101A100001031360CCBF4FF4FA70002038BD0022E0
:101A20001148102101F076FE0122DBE7002807DDD6
:101A300001220D48082101F06DFE2A460421D2E75B
:101A40000A460948082101F065FE0122F6E740F642
:101A5000B830E3E74FF4FA60E0E74FF4AF60DDE75A
:101A60004FF47A70DAE700BF000002409C020020C9
:101A700038B500222B4B054651EC100BFEF7BCFD90
:101A8000FFF76AF8044665B3002823DD01222648E3
:101A9000102101F03FFE00222021234801F03AFEF0
:101AA00084EAE470A0EBE470B0F5967F2ADCC828E5
:101AB0002BDC96282CDC64282DDC0A282EDC1B4A23
:101AC0001368012803F101031360CCBF4FF41670B3
:101AD000002038BD00221448102101F01BFE012215
:101AE000DAE7002807DA01220F48082101F012FE88
:101AF0002A460421D1E72A460B48082101F00AFEB4
:101B00000122F6E740F6B830E3E74FF4FA60E0E789
:101B10004FF4C860DDE74FF4AF60DAE74FF47A7056
:101B2000D7E700BF00002440000002409C020020D4
:101B30002DE9F84F00249C4D9C4E9D4F9D482C80D4
:101B40002146348003F0ECF904219A4803F0E8F9C7
:101B50000C21384603F0E4F93B68974892221A6456
:101B60001021012201F0D6FD93482246202101F0E8
:101B7000D1FD91480122082101F0CCFD8E4822467A
:101B8000042101F0C7FD4FF47A7003F046FE8B4B41
:101B90008B49B3F800803B68C3F84080894BD1E99A
:101BA0000001D3E90023FEF76FFBB8F17E0F8246F8
:101BB0008B4652D84BEC10AB0120FFF759FFFEF7D4
:101BC000B1FC75A3D3E90023FEF716FDFEF7ECFF89
:101BD00080B22880FEF7A6FC71A3D3E90023FEF7AC
:101BE0000BFDFEF7E1FF00223080002350465946EE
:101BF000FEF792FF0246002829D001226E480821F4
:101C000001F088FD002204216B4801F083FD6E4B3A
:101C10001B6853B100232B8033806C4B1A686C4BCC
:101C20001A606C4B1A686C4B1A60624B32881B68E6
:101C30005A632A889A63012003F0EFFD674B1A6804
:101C4000B2F57A7FA3DD40F2E9321A609FE75A4885
:101C5000082101F05FFD0122D5E7B8F1BD0F26D9BB
:101C60004BEC10AB0020FFF703FF308080B2FEF793
:101C700059FC4BA3D3E90023FEF7BEFCFEF794FF0B
:101C800000222880002350465946FEF727FF0246CF
:101C900038B101224848102101F03CFD00222021EA
:101CA000B2E74548102101F035FD0122F7E7DFF8E2
:101CB0002091DFF81881D9F80000D8F80030002111
:101CC000C01AFFF783FEFEF72DFC33A3D3E90023F0
:101CD000FEF792FCFEF768FFD8F80020D9F8003034
:101CE00028809B1A3C4A10683A4A1268801A83EA94
:101CF000E37180EAE072A1EBE371A2EBE072914242
:101D000003F16303CCBF013404F1FF340121C62B7E
:101D100098BF0024FFF75AFED9F80020D8F8003009
:101D200020449A4230804FF000024FF080435046EA
:101D300059461CDAFEF7F0FE00BB00224FF040438C
:101D400050465946FEF7CAFEA0B9254B0022504620
:101D50005946FEF751FC234B0022FEF777FD224B3C
:101D60000022FEF793FAFEF71FFF80B203E0FEF7B2
:101D7000D3FE28B17F20114B188048E7A520FAE751
:101D800000224FF0404350465946FEF7A7FE002878
:101D9000F4D1164B0022DAE7F4FDD478E926F13FBE
:101DA000E17A14AE47E1E23FA2020020A002002047
:101DB000380400201803002000000240100000201A
:101DC000800200207802002098020020900200206B
:101DD00088020020940200208C0200209C02002037
:101DE000000033400000144000406240000033C057
:101DF0000E4B1A68142A10B54FF0010014DD0C4A7E
:101E000010600C4A002414800B4A1C6014800B4A9A
:101E100011680B4A11600B4A11680B4A4FF4967017
:101E2000116003F0FAFC204610BD00BF9C020020A8
:101E300098020020A2020020A002002090020020B0
:101E400088020020940200208C0200200000000084
:101E500038B551EC100B20A3D3E90023FEF7CCFBDF
:101E6000154B922204464FF496701A800D4603F0EB
:101E7000D4FC124A00231360114A1360114A124B1A
:101E80001360124A20461360294609A3D3E90023B0
:101E9000FEF7FCF9FEF760FE0D4B18600D4B186065
:101EA000FFF7A6FF0028FBD138BD00BFAFF30080CD
:101EB00000000000804FF240100000209802002037
:101EC0009C02002094020020F824010090020020CF
:101ED0008C020020880200200000000000C0524058
:101EE0000E4B70B5FA224FF4E17055EC104B1A808E
:101EF00003F093FC0A4A0B4E002313600A4AD6E90A
:101F00000001136022462B46FEF7BEF9C6E9000128
:101F1000FFF76EFF0028FBD170BD00BF100000204E
:101F200098020020800200209C0200200E4B70B519
:101F30005F224FF4E17055EC104B1A8003F06DFCFA
:101F40000A4A0B4E002313600A4AD6E900011360C7
:101F500022462B46FEF79AF9C6E90001FFF748FF33
:101F60000028FBD170BD00BF1000002098020020A7
:101F7000800200209C0200202DE99F48AA4CDFF837
:101F800008A341238DF80F30452323704D23637040
:101F90005023A3700FF28829D9E900895423E370F4
:101FA00059232371DAF80030A04E012B66D1A04DE1
:101FB00000232B602378532B08D0493BDBB2102B36
:101FC0005CD89C4A22FA03F3DB0757D5617801F00D
:101FD000FB03422B52D1E378A2780A20303B303AFF
:101FE0004343642000FB02332279303A13444229F0
:101FF00008BF5B420A202B6003F00FFC2378493BAB
:10200000102B3BD8DFE813F0110097003A00D50001
:102010003A003A003A003A003A00CD0024003A0073
:10202000AB00C3003A003A00B300834A01231360B7
:10203000824A1360824B834AD3ED007AFCEEE77A42
:1020400017EE903A9BB213807F4A12889A4206D9C3
:102050002868FEF767FA41EC100BFFF7F9FE012341
:102060003360442323704F2363704E23A3704523B2
:10207000E3700A202123237103F0CFFB3268012A89
:1020800055D16D4F3B680025012BCAF8005040F038
:102090009880642003F0C1FB6A4B1B88312B00F24F
:1020A0009C806A4B1B68A3F59233F83B07EE903A8D
:1020B000674B1B68A3F59233F83B07EE103AF8EE36
:1020C000E77AB8EEC77A77EE877AB6EE007A67EEEF
:1020D000877AB5EE007A67EE877A9FED5E7AC7EE73
:1020E000877A17EE900AFEF72FFA42464B46FEF724
:1020F00083FAFEF731FD80EAE072A2EBE072564B04
:102100001A6000233B605549554805F049FD4FF4DE
:10211000967003F082FB5248FEF7AAF850494FF63A
:10212000FF7382B24F4803F0D5F800233360642078
:1021300003F073FB36E74C4A012313604B4A1360EC
:102140003F4B404AD3ED007AFCEEE77A17EE903A27
:102150009BB213803C4A12889A4280D878E7444B5D
:1021600001221A60434B1A88434B1B886EE7434A8F
:10217000012313603E4A13603E4A11883E4A12888A
:10218000881A0928DCBF3E48036091425FE73A4B5A
:1021900019221A80364B01221A60364B1B88192BE4
:1021A00055E72868FEF7BEF941EC100BFFF798FEE3
:1021B00055E72868FEF7B6F941EC100BFFF7B6FEBD
:1021C0004DE7294F3B68012B09D1642003F025FB23
:1021D0001C4B1B88312B3FF664AF2A468FE7DFF894
:1021E0009CB0DBF80030012B7CD1642003F015FBA0
:1021F000234A244F1368012B48D11E4B1B88272BE1
:1022000081BF1D4909885B1A9DB200233D80136080
:1022100000233A88CBF8003075E700BFAFF30080A9
:10222000A46477349C6B3440AF020020A8020020E5
:10223000A40200200B320100240200203002002002
:102240003C02002036020020000000209002002006
:10225000940200200080BD4320020020DFB200086D
:10226000AC020020D4020020280200202C02002012
:1022700050020020540200200C0000204C020020DC
:1022800044020020480200201C0200201B4B1B6857
:10229000A3F59233F83B07EE903A194B1B68A3F570
:1022A0009233F83B07EE103AF8EEE77AB8EEC77AC9
:1022B00077EE877AB6EE007A67EE877AB5EE007A27
:1022C00067EE877A9FED0F7AC7EE877A17EE900A4E
:1022D000FEF73AF942464B46FEF78EF9FEF764FCEC
:1022E000388095E74FF49670019203F096FA019AC0
:1022F0004FF6FF730DF10F0114E700BF90020020AD
:10230000940200200080BD4373B50C4E0C4A0D4D65
:1023100010700C460A233178009301239940284617
:1023200001F0B0FB317814230093224602234900C8
:10233000284601F081FC02B070BD00BF0E000020F5
:10234000640200208004002007B5074B074A517043
:10235000197810701423009349000223044801F0F7
:1023600091FB03B05DF804FB0E0000206402002026
:102370008004002008B500210620FFF7E5FF0A20B1
:1023800003F04BFA80210320FFF7DEFF0A2003F061
:1023900044FA07210846FFF7D7FF0A2003F03DFA69
:1023A00001210620FFF7D0FF0A2003F036FA202192
:1023B0007F20FFF7C9FF0A2003F02FFA2F21012009
:1023C000FFF7C2FF0A2003F028FA00210846FFF7B2
:1023D000BBFF0A2003F021FA00217F20FFF7B4FFA2
:1023E0000A2003F01AFA07200021FFF7ADFFBDE82D
:1023F00008400A2003F011BA2DE9F74FFFF7BAFFA2
:1024000000233220ADF8043003F007FA4FF47A7657
:1024100000240025012003F000FA01A93720FFF76E
:1024200073FFBDF80400C0BAFEF77CF88946804609
:1024300000F0A2FD42464B4620462946FDF726FF06
:1024400004460D4600F098FD013EE3D1204BDFF835
:1024500084B0002220462946FEF7F8F906460F46CA
:1024600000F08AFD0FF26009D9E9008982466420F4
:1024700003F0D3F901A93720FFF746FFBDF80400A8
:10248000C0BAFEF74FF832463B46FDF7FDFE0D465B
:10249000044600F071FDA0EB0A00FEF733F8424657
:1024A0004B46FEF7D3F922462B46FEF7A5F8DBE9AB
:1024B0000023FDF7EBFECBE9000100F05DFD824655
:1024C000D5E700BFAFF30080000000000004D0405B
:1024D00000408F407802002070B5374C374D384EA1
:1024E000204600F009FE0A21204600F09EFE20460C
:1024F00000F0EEFE2880204600F07CFE2888FEF7E3
:1025000011F823A3D3E90023FEF776F804463068D8
:102510000D46FEF719F820A3D3E90023FEF76CF867
:1025200002460B4620462946FDF7B0FEFEF75CFB4F
:1025300007EE900AFDEEE77A224B306017EE902A04
:102540001A80FEF701F841EC100B07F0ADFC14A364
:10255000D3E9002351EC100BFEF74EF812A3D3E998
:102560000023FDF793FE9FED120B41EC110B07F0DA
:10257000D9FC51EC100BFEF737FB07EE900A124B1B
:10258000FDEEE77A186017EE902A104B1A8070BDA6
:10259000333333333333C33F333333333333EB3FAB
:1025A000AAF1D24D6210FCBFA8C64B3789411C402E
:1025B00000000000000024401C0500203402002020
:1025C00004000020400200203C02002038020020CD
:1025D000F8B51A4D1A4E1B4F0024FFF77DFF2B68EC
:1025E0008BB1092C0FDD338897ED007A07EE903A16
:1025F000F8EEE77AF4EEC77AF1EE10FA03D500238D
:102600002B60FFF7ABF9104B1A688AB1092C0FDD6C
:10261000328897ED007A07EE902AF8EEE77AF4EE2A
:10262000C77AF1EE10FA03DB00221A60FFF796F981
:102630000A20013403F0F1F8CFE700BF3002002098
:10264000000000203C0200202C02002013B5134B98
:10265000002400945A6C42F480425A645A6C02F48A
:1026600080420092009A01941A6C42F080521A64DF
:102670001B6C03F08053019322460F216FF0010081
:10268000019B00F0CBFE05210846224600F0C6FE65
:10269000052002B0BDE8104000F0F2BE0038024054
:1026A00010B514228AB0044600210DEB020005F09B
:1026B000DAFA23681E4A93421FD11E4B0021019172
:1026C0005A6C42F480725A645A6C02F4807201921D
:1026D000019A02911A6B42F001021A631B6B03F01C
:1026E00001030293029B012305931348032305A9C9
:1026F000069300F037FF0AB010BD104A9342FAD19A
:102700000C4B002103915A6C42F400725A645A6CCB
:1027100002F400720392039A04911A6B42F00102D0
:102720001A631B6B03F001030493049B0223DBE792
:10273000002001400038024000000240002101401A
:1027400030B5044689B01422002103A805F08BFAA5
:102750002268144B9A4222D1134C1448002501954B
:10276000236B43F002032363236B03F00203019303
:10277000019B4FF440721223CDE90323032104236C
:10278000CDE9061303A900F0EDFE0295236C43F496
:1027900000132364236C03F400130293029B09B01B
:1027A00030BD00BF00540040003802400004024029
:1027B00010B5044688B01422002103A805F053FA8E
:1027C0002368254A93421DD1244B002400945A6C5F
:1027D00042F001025A645B6C03F0010322460521BA
:1027E00000931820009B00F019FE182000F048FE0E
:1027F00019202246052100F011FE192000F040FEAC
:1028000008B010BD164A9342FAD1144B1548002463
:1028100001945A6C42F002025A645A6C02F00202AD
:102820000192019A02941A6B42F004021A631B6B24
:1028300003F004030293C022029B0223CDE9032389
:1028400003A90323079300F08DFE2D2022460521C6
:1028500000F0E4FD2D20D1E70000014000380240E7
:10286000000401400008024070B514228AB00446FA
:1028700000210DEB020005F0F6F92368B3F1804F5B
:1028800037D103F50E33002400941A6C294842F026
:1028900001021A641A6C02F001020092009A01947B
:1028A0001A6B42F001021A631A6B02F001020192E4
:1028B000019A02941A6B42F002021A631B6B03F036
:1028C00002030293029B02264FF40043012505A94F
:1028D000CDE90536099500F045FE0823CDE905361A
:1028E000CDE907441448099505A900F03BFE0AB05C
:1028F00070BD124A9342FAD1114B0E480021039148
:102900001A6C42F002021A641A6C02F0020203927C
:10291000039A04911A6B42F001021A631B6B03F0D5
:1029200001030493049BC0220223CDE905230993EC
:1029300005A9DAE70000024000040240000400405C
:102940000038024010B5044688B01422002103A8C4
:1029500005F089F92268174B9A4228D103F50C3308
:10296000002401941A6C144842F004021A641A6C90
:1029700002F004020192019A02941A6B42F00802DA
:102980001A631B6B03F0080302934FF48052029BFF
:1029900003A90223CDE90323079300F0E3FD1E20E2
:1029A0002246052100F03AFD1E2000F069FD08B026
:1029B00010BD00BF00080040000C024010B50446E6
:1029C00086B01422002101A805F04DF922680E4BB3
:1029D0009A4216D1002300930C4B0D481A6B42F01B
:1029E00010021A631B6B03F010030093009B4FF45B
:1029F00080420223CDE9012301A90123059300F0C0
:102A0000B1FD06B010BD00BF00000140003802401B
:102A10000010024010B5044688B01422002103A81B
:102A200005F021F92268184B9A422BD103F5F833AF
:102A3000002401941A6C154842F480221A641A6C1E
:102A400002F480220192019A02941A6B42F004026D
:102A50001A631B6B03F0040302934FF44062029B62
:102A60000223CDE9032303210723CDE9061303A99C
:102A700000F078FD27202246052100F0CFFC27201A
:102A800000F0FEFC08B010BD004800400008024005
:102A9000FEE7FEE7FEE7FEE7FEE7704708B500F059
:102AA0005FFA03F087FE012803D0BDE8084004F078
:102AB00089B908BD70470000014801F0E1BD00BFC1
:102AC00038040020FFF7F8BF014801F0D9BD00BF6E
:102AD00060030020014802F0B7BC00BFD402002010
:102AE000014801F0CDBD00BF180300200120704750
:102AF00008B505F061F9162303604FF0FF3008BDFB
:102B000008B505F059F916230360FEE770B50D46C8
:102B100014460E46731B9C4201DC204670BDAFF389
:102B2000008006F8010BF5E770B50D4614460E4619
:102B3000731B9C4201DC204670BD16F8010BAFF3FD
:102B40000080F5E74FF0FF3070474FF400534B60C3
:102B50000020704701207047002070470B4A116821
:102B600010B5034609B90A491160106809490A4CB1
:102B70000344091B8B4206D905F01EF90C230360A0
:102B80004FF0FF3010BD1360FCE700BF640500206C
:102B9000A05400200000022000040000034AD2F8E4
:102BA000883043F47003C2F88830704700ED00E0CD
:102BB000DFF834D00D480E490E4A002302E0D45805
:102BC000C4500433C4188C42F9D30B4A0B4C002375
:102BD00001E013600432A242FBD3FFF7DFFF05F0F0
:102BE000F1F8FEF7F9FA704700000220000000201B
:102BF00000020020A0C20008000200209C54002017
:102C0000FEE7000070B50A46044601B101221348F0
:102C1000124E4FF4807100F07DFD08250022202126
:102C2000304600F077FD23064CBF012200224021F0
:102C3000304600F06FFD013D01222021304600F0BA
:102C400069FD640015F0FF05E4B2E7D1BDE870400E
:102C5000024801224FF4807100F05CBD0010024078
:102C600070B50F4EB02400212046FFF7CBFF0021A6
:102C70000846FFF7C7FF00211020FFF7C3FF00251C
:102C800016F8350001210135FFF7BCFF802DF7D183
:102C90000134E4B2B82C06F10106E4D170BD00BFE6
:102CA000680500200023084810B41C4600221918AB
:102CB00001F832400132802AFAD10133082BF5D1D4
:102CC0005DF8044BFFF7CCBF68050020030610B584
:102CD00012D43F2910D801F00703C3F107030124E0
:102CE0009C40C908064BC1F10701C9B203EBC00003
:102CF000435C12B12343435410BD23EA0403FAE7B3
:102D0000680500202DE9F74F1F46203A1F4B9DF81C
:102D100030B0D2B203EB021300931D4B02EB420220
:102D200003EB82038146884601930C460026B74296
:102D300002D103B0BDE8F08F0C2F21D1019B9D5D26
:102D400004F108035FFA83FA2B0658BFBBFA8BF233
:102D5000214604F101044CBF5A4652094846E4B2E8
:102D6000FFF7B4FFA4EB08026D00BA42EDB209D13F
:102D700009F101005FFA80F9C24601365446D6E7F0
:102D8000009BDCE7A245DFD1F7E700BF78B400087D
:102D900068BA0008F7B504460D46561E012716F816
:102DA000013F0BB903B0F0BD7A2C82BF1035EDB2F4
:102DB00000243A2D03D9FFF775FF00252C46009714
:102DC000204632780C2329460834FFF79BFFE4B2F3
:102DD000E5E7000010B501F09FF8404B404C1A6F3A
:102DE00022F001021A671A6F22F004021A6701F03A
:102DF000A1F800228021204600F08CFC642000F025
:102E0000C1F801222046802100F084FC0021AE2080
:102E1000FFF7F8FE0021D520FFF7F4FE0021502037
:102E2000FFF7F0FE0021A820FFF7ECFE00213F2075
:102E3000FFF7E8FE0021D320FFF7E4FE002108465B
:102E4000FFF7E0FE00214020FFF7DCFE00218D208F
:102E5000FFF7D8FE00211420FFF7D4FE0021202028
:102E6000FFF7D0FE00210220FFF7CCFE0021A120B9
:102E7000FFF7C8FE0021C020FFF7C4FE0021DA20C2
:102E8000FFF7C0FE00211220FFF7BCFE00218120C9
:102E9000FFF7B8FE0021EF20FFF7B4FE0021D92094
:102EA000FFF7B0FE0021F120FFF7ACFE0021DB2090
:102EB000FFF7A8FE00213020FFF7A4FE0021A42088
:102EC000FFF7A0FE0021A620FFF79CFE0021AF2007
:102ED000FFF798FEBDE81040FFF7E4BE003802405F
:102EE0000010024038B50E4B1A784FF47A73B3FBDA
:102EF000F2F30C4A05461068B0FBF3F000F0CEFA8E
:102F0000044658B90F2D09D8024629464FF0FF3024
:102F100000F084FA044B20461D6038BD0120FCE718
:102F200018000020140000201C00002008B50B4BE6
:102F30001A6842F400721A601A6842F480621A60D9
:102F40001A6842F480721A60032000F055FA0F20CC
:102F5000FFF7C8FFFFF77AFB002008BD003C0240E6
:102F6000034A044B11681B780B441360704700BF81
:102F70006809002018000020014B1868704700BF46
:102F80006809002038B50446FFF7F6FF631C1CBF34
:102F9000054B1B78054618BFE418FFF7EDFF431BF0
:102FA000A342FAD338BD00BF1800002038B504464C
:102FB000002800F09B80056C25B9FFF771FB656464
:102FC00084F83C50236CDB0600F18E80236C23F4E4
:102FD000885323F0020343F002032364444B5A68EE
:102FE00022F440325A605A6861680A435A60236882
:102FF00021695A6822F480725A605A6842EA0122B2
:103000005A605A68A16822F040725A605A680A43AE
:103010005A609A68E16822F400629A609A680A43EA
:103020009A603449A26A8A4252D0996821F070614C
:10303000996099680A439A609A68E16A22F040525E
:103040009A609A680A439A609A6822F002029A602B
:103050009A68217E42EA41029A6094F82020002A70
:103060003ED05A68616A42F400625A605A6822F49B
:1030700060425A605A68013942EA41325A60DA6A5B
:10308000E16922F47002DA62DA6A013942EA015235
:10309000DA629A6822F400729A609A6894F83010A2
:1030A00042EA41229A609A68616922F480629A60D9
:1030B0009A68002042EA81229A606064236C23F0BF
:1030C000030343F001032364002384F83C3038BD3C
:1030D0009A6822F070629A609A6822F04052B2E7D1
:1030E0005A6822F40062C9E70120EDE70120EEE70B
:1030F000002301400100000F82B00023019390F8EB
:103100003C30012B69D0012380F83C3003689A6879
:10311000D2070BD59A68D1071AD4036C43F0100379
:103120000364436C43F0010343644CE09A682C4908
:1031300042F001029A602B4A1268B2FBF1F202EBF4
:1031400042020192019A002AE4D0019A013AF8E77A
:10315000026C22F4E06222F0010242F48072026406
:103160005A68520541BF026C22F4405242F4805228
:103170000264026C12F480521CBF426C22F0060200
:103180004264002280F83C206FF022021A60164A46
:10319000516811F01F0F15491CD18B4207D001F562
:1031A00080718B420CD1526812F01F0F0BD19A68BC
:1031B00012F0405F07D19A6842F080429A6002E0C4
:1031C0000B498B4202D0002002B07047526812F0C7
:1031D000100FEBE78B42F6D1E9E70220F4E700BFDE
:1031E00040420F0014000020002301400020014055
:1031F0000022014090F83C30012B14D003689A68FB
:1032000022F001029A609B68DB0707D4036C23F469
:10321000885323F0010343F001030364002380F883
:103220003C30184670470220704703689A68520580
:1032300070B504460D460BD59B68DE0508D5036CBA
:1032400043F020030364002380F83C30012070BD6C
:10325000FFF792FE064623681A6891070CD56FF0B7
:1032600012021A60226C42F4007222649A6812F010
:10327000405F17D00020EAE7681CEDD065B92368ED
:103280001B6813F00203E6D1226C84F83C3042F054
:10329000040222640320DAE7FFF76EFE801BA842D7
:1032A000EDD8D8E7227E002AE4D1DA6A12F4700F52
:1032B00002D09B685A05DDD4236C23F48073236409
:1032C000236CDB04D6D4236C43F001032364D1E7E1
:1032D0000368D86C70470000F7B50023019390F89D
:1032E0003C30012B05467CD0012380F83C30086837
:1032F0002B688E68092884B230D904EB4402DF6859
:103300001E3A4FF0070C0CFA02FC27EA0C07DF60AC
:10331000DF6806FA02F23A43DA604968062901EBEF
:1033200081022AD8596B053A1F26964021EA0601E8
:103330005963596B04FA02F20A435A632A4A9342C8
:1033400007D1122834D1D2F8043343F48003C2F8F1
:103350000433002085F83C0003B0F0BD1A6900EB8F
:10336000400C072707FA0CF722EA07021A611A69CC
:1033700006FA0CF616431E61CFE70C294FF01F0129
:103380000BD81E6B233A914026EA01011963196B91
:1033900004FA02F20A431A63D0E7DE6A413A914026
:1033A00026EA0101D962D96A94400C43DC62C5E780
:1033B000A0F11003012BCCD80C4A5368102843F419
:1033C00000035360C5D10A4B0A4A1B68B3FBF2F3F2
:1033D0000A2253430193019B002BBAD0019B013B6E
:1033E000F8E70220B8E700BF0020014000230140B9
:1033F0001400002040420F000749CA6822F4E0622E
:103400000302120403F4E063120C134343F0BF639E
:1034100043F40033CB60704700ED00E0164B30B54D
:10342000DC68C4F30224C4F10703251D042B28BF64
:103430000423062D4FF0FF358CBF033C002405FA12
:1034400003F321EA0303A54022EA0502A340002872
:1034500043EA0203ACBF00F16040084A4FEA03139D
:10346000B8BF00F00F00DBB2AABF00F561401354F3
:1034700080F8003330BD00BF00ED00E014ED00E047
:10348000002807DB4109044A00F01F0001238340A4
:1034900042F82130704700BF00E100E00138B0F190
:1034A000807F0BD24FF0E023054A5861F02182F86B
:1034B00023100020072298611A617047012070478D
:1034C00000ED00E070B50446866DFFF755FD94F8F9
:1034D0003530022B054606D080236365012000238A
:1034E00084F8343070BD23681A6822F016021A601E
:1034F0005A6922F080025A61226C0AB9A26C1AB190
:103500001A6822F008021A601A6822F001021A6092
:103510002368186810F0010007D1E26D3F23934043
:10352000B360012384F83530D9E7FFF725FD401B50
:103530000528EDD920230320636584F83500CEE704
:1035400090F83530022B03D080234365012070476B
:103550000268052380F83530136823F001031360F7
:10356000002070472DE9F74FDFF8A491664A002349
:103570000D6801249C4004EA0506AC4340F0AF808E
:103580004D68032705F003044FEA430807FA08FCD7
:10359000671E012F6FEA0C0C34D8876807EA0C0EFF
:1035A000CF6807FA08F747EA0E078760476827EAF7
:1035B000060EC5F300179F4047EA0E074760C7682D
:1035C00007EA0C0E8F6807FA08F747EA0E07022C85
:1035D000C76019D14FEAD30A00EB8A0A03F0070B40
:1035E000DAF820704FEA8B0B4FF00F0E0EFA0BFE3D
:1035F00027EA0E0E0F6907FA0BF747EA0E07CAF81B
:10360000207001E0032CDAD1076804FA08F407EA15
:103610000C073C4315F4403F046060D00024019443
:10362000D9F8444044F48044C9F84440D9F84440AF
:1036300023F0030707F1804704F4804407F59C3723
:10364000019403F0030C019CD7F808E04FEA8C0CBE
:103650000F2404FA0CF42EEA040E2C4CA04245D0A0
:1036600004F58064A04243D004F58064A04241D0B8
:1036700004F58064A0423FD004F58064A0423DD0B0
:1036800004F58064A0423BD004F58064A04239D0A8
:1036900004F58064A04214BF0824072404FA0CF443
:1036A00044EA0E04BC609468F74315F4801F0CBF15
:1036B0003C4034439460D46815F4001F0CBF3C4078
:1036C0003443D460546815F4003F0CBF3C4034438D
:1036D00054601468ED0354BF3C403443146001331C
:1036E000102B7FF445AF03B0BDE8F08F0024D5E781
:1036F0000124D3E70224D1E70324CFE70424CDE754
:103700000524CBE70624C9E7003C01400000024045
:10371000003802400AB1816170470904FBE7436940
:1037200001EA030221EA030141EA02418161704793
:1037300001684B6913F480634FF0000210D06FF4FE
:1037400080634B612023026380F83D3080F83E2087
:10375000036C80F83C2043F00403036401207047AD
:10376000184670472DE9F84606460F4691461D4615
:103770004FEA114A3368BAF1010F0CBF5C699C69CA
:1037800027EA0404A4B2B4FA84F46409A14501D080
:10379000002017E06A1CEED0FFF7EEFB089BC01A72
:1037A000A84201D8002DE5D100232022336386F8FA
:1037B0003D2086F83E30326C86F83C3042F02002E4
:1037C00032640120BDE8F8862DE9F04104460F4639
:1037D000164698462568686927EA000080B2C0B19D
:1037E0006B695A0517D52B6843F400732B606FF48F
:1037F00080636B6120220023236384F83D2084F8DA
:103800003E30236C43F004032364002384F83C30EF
:103810000120BDE8F081731CDDD0FFF7ADFBA0EB0C
:103820000800B04201D8002ED4D100232022236307
:1038300084F83D2084F83E30236C1343E4E770B5F0
:1038400004460D46164623685B691B0601D5002019
:103850001AE02046FFF76CFFA8B96A1CF3D0FFF707
:103860008BFB801BA84201D8002DECD10023202225
:10387000236384F83D2084F83E30226C84F83C3089
:1038800042F020022264012070BD70B504460D464E
:10389000164623685B695B0701D500201AE02046C5
:1038A000FFF746FFA8B96A1CF3D0FFF765FB801B42
:1038B000A84201D8002DECD100232022236384F8F4
:1038C0003D2084F83E30226C84F83C3042F02002E7
:1038D0002264012070BD70B504460D46164621686D
:1038E0004B6913F0400301D0002011E04A69D20671
:1038F0000FD56FF010024A612022236384F83D2027
:1039000084F83E30236C2364002384F83C3001208B
:1039100070BDFFF731FB801BA84201D8002DDED11E
:1039200000232022236384F83D2084F83E30236C5A
:103930001343E8E770B5044608B9012070BD90F85C
:103940003D3003F0FF021BB980F83C20FEF7F8FE83
:10395000242384F83D3023681A6822F001021A609B
:103960001A6842F400421A601A6822F400421A608F
:1039700000F064FD3F4B65689D4294BF3E4B3F4B5A
:1039800098428CBF00230123002BD6D12268394EE8
:1039900051683B4BB0FBF3F321F03F011943B542B3
:1039A000516088BF4FF49676116A88BF734321F047
:1039B0003F0184BF4FF47A76B3FBF6F301330B4338
:1039C0001362D169431E2B4821F44F41854221F0F7
:1039D000FF0132D86D0040F6FC70B3FBF5F3013304
:1039E000034242D0C3F30B031943D161D4E907303A
:1039F0001168034321F0C0010B4313609168D4E9BF
:103A0000030321F40341034321F0FF010B439360BF
:103A1000D4E90530D168034321F0FF010B43D360A3
:103A2000136843F00103136000202023206484F80E
:103A30003D30206384F83E0080E7A06850B905EB74
:103A40004505B3FBF5F30133C3F30B037BB143F43B
:103A50000043C9E719206843B3FBF0F30133C3F314
:103A60000B0323B143F44043BEE70423BCE7012327
:103A7000BAE700BFA08601007F841E00FF083D005A
:103A800040420F002DE9F043044685B098460C9F54
:103A90000D469146FFF770FA94F83D30202B06460C
:103AA00004D00225284605B0BDE8F08300905E49A9
:103AB000192301222046FFF755FE0028F1D194F882
:103AC0003C30012BEDD02168012384F83C300B6899
:103AD000DA075EBF0B6843F001030B600B6823F449
:103AE00000630B60212384F83D30102384F83E30BE
:103AF00000232364A4F82A80638D23854B4BE36263
:103B0000E36AC4F82490082B04D0012B02D013F5EB
:103B1000803F04D10B6843F480730B6002E0236B99
:103B2000122BF7D0002200963B464FF001112046A1
:103B3000FFF718FE226840B11368DB0501D40125A8
:103B4000B0E74FF400732364F9E72369B3F5804FBE
:103B500021D105F0FE051561354933463A46204628
:103B6000FFF732FE05460028E9D1236803905A6921
:103B700003929B690393039B238DF3B921680A6821
:103B800042F400720A60202284F83D2084F83C3020
:103B900084F83E3086E7EB1103F0060343F0F003B0
:103BA0001361244933463A462046FFF70DFE0028AC
:103BB000C5D12368EDB21D61CEE7324639462046B5
:103BC000FFF73DFE40B1236C042BB8D12268136887
:103BD00043F400731360B2E7636A20681A4612F870
:103BE000011B01616262628D013A92B26285228D8F
:103BF000D0F814C0511E89B21CF0040F21850AD0E0
:103C000049B15978016102336362638D013B9BB214
:103C1000023A63852285324639462046FFF735FE53
:103C20000028A9D0CFE700BF020010000000FFFF6E
:103C300002000100080001002DE9F043044689B0AC
:103C40009846109F0E469146FFF796F994F83D303E
:103C5000202B054604D00226304609B0BDE8F0838B
:103C600000909A49192301222046FFF77BFD002886
:103C7000F1D194F83C30012BEDD02168012384F878
:103C80003C300B68DB075EBF0B6843F001030B6041
:103C90000B6823F400630B60222384F83D3010236B
:103CA00084F83E3000232364A4F82A80638D2385A2
:103CB000874BE362E36A0A68C4F8249042F48062A6
:103CC000082B0A6004D0012B02D013F5803F04D1E9
:103CD0000B6843F480730B6002E0236B112BF7D069
:103CE0003B46009500224FF001112046FFF73AFDB8
:103CF000236838B11B68D80544BF4FF400732364B0
:103D00000126A9E72269B2F5804F27D146F00106C6
:103D1000F6B21E616F492B463A462046FFF754FD26
:103D200006460028ECD1238D2168002B4BD103904F
:103D30004B6903938B690393039B0B6843F40073F4
:103D40000B60DFF89881238D002B64D1202284F84A
:103D50003D2084F83C3084F83E307DE74FEAE61899
:103D600008F0060848F0F0021A615B492B463A4613
:103D70002046FFF729FD0028C2D123685549F6B235
:103D80001E613A462B462046FFF71EFD02460028DC
:103D9000B6D12368079059690791996907910799E6
:103DA000196841F480711960204600953B464FF038
:103DB0000111FFF7D7FC226808B113689BE748F0B0
:103DC000F1031361A6E7012B0AD10B6823F480638A
:103DD0000B6004904B6904938B690493049BACE7DC
:103DE000022B0B680DD123F480630B600B6843F446
:103DF00000630B6005904B6905938B690593059BE8
:103E00009FE743F480630B6006904B6906938B69D0
:103E10000693069B95E7032B62D8012B16D12A4601
:103E200039462046FFF757FD00287FF469AF236825
:103E30001A69636A1A70636A01336362238D013BF6
:103E40002385638D013B9BB263857CE7022B009544
:103E50003B464FF00002414620461AD1FFF782FC54
:103E600000287FF44DAF23681A6842F400721A608C
:103E70001A69636A1A70626A531C6362238D013B7C
:103E80002385638D013B9BB2638523681B69537057
:103E9000D1E7FFF767FC024600287FF431AF2368C3
:103EA000196821F4806119601969636A1970636A7D
:103EB00001336362238D013B2385638D013B9BB2FC
:103EC0006385414600953B462046C7E70200100047
:103ED0000000FFFF020001000800010004000100D3
:103EE0002A4639462046FFF7F6FC00287FF408AF43
:103EF00023681A69636A1A70626A531C6362238DAD
:103F0000013B2385638D013B9BB26385236859691F
:103F100049077FF518AFB9E7044B01221A62044B39
:103F200082B01B680193019B02B0704700000E42F3
:103F300000700040044B00221A62044B82B01B68E0
:103F40000193019B02B0704700000E4200700040D8
:103F50002DE9F341044640B30368DE0710D423681B
:103F60009D075BD42368190700F19D8023685A07D9
:103F700000F1BD80A369002B40F0248100202CE0DB
:103F80008D4B9A6802F00C02042A07D09A6802F05E
:103F90000C02082A0BD15B68590208D5864B1B68B6
:103FA0009A03DCD56368002BD9D1012015E0636842
:103FB000814DB3F5803F13D12B6843F480332B60E0
:103FC000FEF7DAFF7C4E054633689B03C7D4FEF745
:103FD000D3FF401B6428F7D9032002B0BDE8F0816D
:103FE000B3F5A02F04D12B6843F480232B60E3E7C3
:103FF0002A6822F480322A602A6822F480222A6009
:10400000002BDDD1FEF7B8FF06462B689F03A6D52F
:10401000FEF7B2FF801B6428F7D9DDE7664B9A688C
:1040200012F00C0F07D09A6802F00C02082A11D186
:104030005B685D020ED4604A1368990702D5E36895
:10404000012BB2D11368216923F0F80343EAC103BD
:10405000136087E7E268594BB2B101221A60FEF79C
:104060008BFF554D06462B689B0707D52B682269A9
:1040700023F0F80343EAC2032B6073E7FEF77CFFEB
:10408000801B0228EFD9A7E71A60FEF775FF4A4E9A
:10409000054633689F077FF565AFFEF76DFF401B50
:1040A0000228F6D998E76269444B82B10122C3F82D
:1040B000802EFEF761FF404E0546736F9B073FF56C
:1040C00055AFFEF759FF401B0228F6D984E7C3F825
:1040D000802EFEF751FF384E0546736F9F077FF520
:1040E00045AFFEF749FF401B0228F6D974E7324B73
:1040F0001A6C12F0805228D101921A6C42F0805250
:104100001A641B6C03F080530193019B01272C4D13
:104110002B68D8051BD5A368274D012B27D12B6F02
:1041200043F001032B67FEF727FF234E054641F2BC
:104130008838336F9A0739D5002F3FF41BAF1E4ADA
:10414000136C23F08053136414E70027DFE72B6818
:1041500043F480732B60FEF70FFF06462B68D905EA
:10416000D9D4FEF709FF801B0228F7D934E7052BC5
:1041700004D12B6F43F004032B67D0E72A6F22F0A2
:1041800001022A672A6F22F004022A67002BCAD193
:10419000FEF7F2FE41F2883806462B6F9B07CBD51F
:1041A000FEF7EAFE801B4045F7D915E7FEF7E4FE6F
:1041B000401B4045BDD90FE7003802400000474290
:1041C00000700040374DAA6802F00C02082A3ED069
:1041D000022B354B4FF000021A662BD1FEF7CCFEB6
:1041E00006462B6899011FD4D4E907321343626A4B
:1041F00043EA8213E26A43EA0263A26A5208013A7E
:1042000043EA02436B60284B264D01221A66FEF7F3
:10421000B3FE04462B689A013FF5B0AEFEF7ACFE44
:10422000001B0228F6D9D7E6FEF7A6FE801B02285F
:10423000D7D9D1E6FEF7A0FE04462B689B017FF597
:104240009DAEFEF799FE001B0228F6D9C4E6012BAD
:104250003FF4ABAE6B68E26903F4800191427FF4F6
:10426000A4AE216A03F03F028A427FF49EAE616AE7
:1042700047F6C0721A40B2EB811F7FF496AEA26A75
:10428000520803F44031013AB1EB024F7FF48DAE96
:10429000E26A03F07063B3EB026F14BF01200020E9
:1042A0009BE600BF0038024000004742134908B5B2
:1042B0008B6803F00C03042B1CD0082B1CD14A681C
:1042C0004B68496813F4800314BF0D480D48C1F3CF
:1042D000881118BF002302F03F02A1FB0001FCF788
:1042E000D3FC064B5B68C3F3014301335B00B0FBB7
:1042F000F3F008BD0248FCE70248FAE70038024044
:1043000040787D010024F4002DE9F0410D4604467B
:1043100010B90120BDE8F081434B1A6802F0070292
:104320008A4228D321688F072DD4C80740D43E4B3A
:104330001A6802F00702AA4265D8226851076BD4B6
:10434000130707D5394A2169936823F4604343EA88
:10435000C1039360FFF7AAFF344B354A9B68C3F350
:104360000313D35CD840334B1860334B1868FEF707
:10437000B9FD0020CEE7CAB21A701B6803F007032C
:104380008B42C6D1CEE7294B11F0040F1EBF9A68AD
:1043900042F4E0529A600E0742BF9A6842F46042CB
:1043A0009A609A68A06822F0F00202439A60BCE723
:1043B00062681E4B012A1CD11B6813F4003FA8D071
:1043C0001A4EB36823F003031343B360FEF7D4FD22
:1043D00041F288380746B368626803F00C03B3EB18
:1043E000820FA4D0FEF7C8FDC01B4045F3D90320BF
:1043F00090E7911E01291B6802D813F0007FDEE7C9
:1044000013F0020FDBE7EAB21A701B6803F0070330
:10441000AB427FF47EAF90E70449E0688B6823F4F9
:10442000E05303438B608BE7003C024000380240BE
:1044300068B40008140000201C000020044B054A4A
:104440009B68C3F38223D35C034A1068D84070474B
:104450000038024060B4000814000020044B054AF4
:104460009B68C3F34233D35C034A1068D84070475B
:104470000038024060B4000814000020036A23F0F2
:1044800001030362036A70B5446882690D6822F013
:1044900073022A438D6823F002032B430E4DA8427A
:1044A00002D00E4EB04210D1CE6823F00803334341
:1044B000A84223F0040302D0084DA84205D1D1E957
:1044C000055624F4407435432C43446082614A68A5
:1044D0004263036270BD00BF000001400004014060
:1044E000036A23F480730362036A70B54468C26987
:1044F0000D6822F073022A438D6823F4007343EAA7
:104500000523114DA84203D005F58065A84214D1BA
:10451000CD6823F4006343EA05230B4DA84223F43E
:10452000806303D005F58065A84206D1D1E9055620
:1045300024F44054354344EA05144460C2614A6897
:10454000C263036270BD00BF00000140036A23F430
:1045500080530362036A30B54468C2690D6822F46F
:10456000E64242EA05228D6823F4005343EA05330C
:10457000084DA84203D005F58065A84204D14D69D5
:1045800024F4804444EA85144460C2614A680264A9
:10459000036230BD00000140704730B5034690F81B
:1045A0003E0093F83F2093F8425093F84340C0B246
:1045B000D2B2EDB2E4B2C1B9012845D1012D13D177
:1045C000022283F83E2083F842201A68116A21F003
:1045D00001011162116A41F0010111621A68136848
:1045E00043F001031360002030BD042911D1012ADA
:1045F0002AD1012C28D1022283F83F2083F84320BE
:104600001A68116A21F010011162116A41F010015B
:10461000E3E7012818D1012AE6D1012DE4D1012CCC
:10462000E2D1022283F83E2083F83F2083F8422023
:1046300083F843201A68116A21F001011162116A9E
:1046400041F001011162DCE70120CDE7082910D01B
:1046500004D841B1042909D0002070470C29FBD1AE
:104660000368186C70470368586B70470368986B51
:1046700070470368D86B7047704770477047704742
:1046800003681A69910710B504460ED5DA689207D7
:104690000BD56FF002021A61012202779B699B071A
:1046A00077D0FDF7ADF80023237723681A69500708
:1046B00010D5DA6851070DD56FF004021A61022295
:1046C00022779B6913F4407F204668D0FDF798F865
:1046D0000023237723681A6912070FD5DA681007B9
:1046E0000CD56FF008021A6104222277DB69990762
:1046F00020465AD0FDF784F80023237723681A69EF
:10470000D20610D5DA68D0060DD56FF010021A6106
:1047100008222277DB6913F4407F20464BD0FDF757
:104720006FF80023237723681A69D10708D5DA6860
:10473000D20705D56FF001021A612046FFF79CFFF2
:1047400023681A69100608D5DA68110605D56FF0D6
:1047500080021A61204600F0CCFC23681A695206D8
:1047600008D5DA68500605D56FF040021A61204678
:10477000FFF785FF23681A69910622D5DA68920649
:104780001FD56FF0200220461A61BDE8104000F0EE
:10479000AFBCFFF772FF2046FFF770FF83E7FFF71C
:1047A0006CFF2046FFF76AFF92E7FFF766FF20469F
:1047B000FFF764FFA0E7FFF760FF2046FFF75EFF0B
:1047C000AFE710BD304A0368904212D0B0F1804F7D
:1047D0000FD0A2F57C4290420BD002F5806290424D
:1047E00007D002F58062904203D002F578429042F1
:1047F00019D14A6823F070031343234A904229D009
:10480000B0F1804F26D0A2F57C42904222D002F532
:10481000806290421ED002F5806290421AD002F56A
:104820007842904216D0194A904213D002F5806225
:1048300090420FD002F5806290420BD0A2F59832E0
:10484000904207D002F58062904203D002F5806268
:10485000904203D1CA6823F4407313434A6923F09A
:104860008003134303608B68C3620B688362064B4B
:10487000984203D003F58063984201D10B6903632A
:1048800001234361704700BF000001400040014028
:1048900010B5044630B390F83D3003F0FF021BB969
:1048A00080F83C20FDF784FF0223206884F83D3027
:1048B000211DFFF787FF012384F84630002084F88C
:1048C0003E3084F83F3084F8403084F8413084F83A
:1048D000423084F8433084F8443084F8453084F81A
:1048E0003D3010BD0120FCE710B5044630B390F810
:1048F0003D3003F0FF021BB980F83C20FFF74CFE6F
:104900000223206884F83D30211DFFF75BFF01235F
:1049100084F84630002084F83E3084F83F3084F834
:10492000403084F8413084F8423084F8433084F8D1
:10493000443084F8453084F83D3010BD0120FCE758
:1049400010B5044630B390F83D3003F0FF021BB9B8
:1049500080F83C20FDF7F6FF0223206884F83D3004
:10496000211DFFF72FFF012384F84630002084F833
:104970003E3084F83F3084F8403084F8413084F889
:10498000423084F8433084F8443084F8453084F869
:104990003D3010BD0120FCE7F8B50D460446002867
:1049A0004CD090F83D3003F0FF021BB980F83C205A
:1049B000FDF75AFF2146022384F83D3051F8040BDD
:1049C000836823F4804323F007038360FFF7FAFE34
:1049D00081682A688369AE69076A1143AA6823F46B
:1049E000407323F0030342EA06221A432B69EE695F
:1049F0001B0143EA0623EE6833432E6A22F47C420D
:104A000022F0FC0243EA063313436E696A68816050
:104A100027F0AA0742EA06128361174301230762BF
:104A200084F84630002084F83E3084F83F3084F823
:104A3000423084F8433084F83D30F8BD0120FCE773
:104A4000036A23F010030362036A70B54468826945
:104A50000D6822F4E64242EA05228D6823F0200325
:104A600043EA0513104DA84203D005F58065A8421E
:104A700014D1CD6823F0800343EA05130A4DA84200
:104A800023F0400303D005F58065A84206D1D1E9A3
:104A9000055624F44064354344EA85044460826149
:104AA0004A688263036270BD0000014038B590F827
:104AB0003C30012B04464FD00120082A84F83C00EA
:104AC0003AD006D8BAB1042A26D0002384F83C3064
:104AD00038BD0C2AF9D12068FFF738FDC3690A698F
:104AE00043F40063C361C36923F48063C361C36992
:104AF00043EA02232EE02068FFF7C0FC83690A69BD
:104B000043F008038361836923F0040383618369AD
:104B1000134383610020D8E72068FFF791FF836982
:104B20000A6943F400638361836923F480638361CA
:104B3000836943EA0223ECE72068FFF7D1FCC369ED
:104B40000A6943F00803C361C36923F00403C36126
:104B5000C3691343C361DDE70220B9E770B5046A96
:104B60001A4E24F001040462B0428469056A29D017
:104B7000B0F1804F26D0A6F57C46B04222D006F593
:104B80008066B0421ED006F58066B0421AD006F5A7
:104B90007846B04216D006F57056B04212D0A6F54F
:104BA0009436B0420ED044F001021B0122F0F00214
:104BB000DBB2134301F00A0125F00A0211438361BD
:104BC000016270BD24F003042243EEE700000140BF
:104BD000F8B590F83C30012B05460C4600F0898072
:104BE000012085F83C0092B92868CB68D1E9001211
:104BF000FFF7B4FF8369A26823F00C038361836924
:104C0000134383610020002385F83C30F8BD042A5B
:104C100024D12B68186A20F01000D1E90027C96858
:104C2000186298691E6A20F4407040EA0720090360
:104C300020F4704089B21201014302F0A00226F074
:104C4000A000024399611A629A69A16822F4406245
:104C50009A619A6942EA01229A61D3E7082A22D12D
:104C60002B681E6A26F48076D1E90020C9681E628E
:104C7000DF691E6A27F003073843090120F0F000BE
:104C8000C9B21202014302F4206226F420600243FA
:104C9000D9611A62DA69A16822F00C02DA61DA6974
:104CA0000A43DA61AEE70C2AADD12B68186A20F40A
:104CB0008050D1E90027C9681862D8691E6A20F4BB
:104CC000407040EA0720090320F4704089B21203C3
:104CD000014302F4204226F420400243D9611A62C3
:104CE000DA69A16822F44062DA61DA6942EA0122F3
:104CF000D7E702208AE710B584680A4324F47F448A
:104D000042EA03222243826010BD38B590F83C305D
:104D1000012B04464FF0020000F08E8084F83D0025
:104D20000122206884F83C20836823F47F4323F029
:104D3000770383600B68602B4FD032D8402B64D050
:104D400016D8202B0DD00AD833F0100109D001233A
:104D500084F83D30002384F83C30104638BD302BB9
:104D6000F5D1826822F07002134343F0070328E074
:104D7000502BECD14A68CD68016A036A23F0010325
:104D80000362836921F00A0123F0F00343EA05136B
:104D90000A4383610262836823F0700343F0570380
:104DA0000FE0B3F5805F0DD0B3F5005F0CD0702B32
:104DB000CDD1CB68D1E90121FFF79DFF836843F096
:104DC000770383600022C2E7CB68D1E90121FFF7B6
:104DD00092FF836843F48043F3E7036A4D68C96830
:104DE00023F0100303628269036A22F4704223F005
:104DF000A00343EA051342EA013282610362836839
:104E000023F0700343F06703DBE74A68CD68016A6B
:104E1000036A23F001030362836921F00A0123F08E
:104E2000F00343EA05130A4383610262836823F0B7
:104E3000700343F04703C4E702468EE7036A01F0BC
:104E40001F0110B501248C4023EA04030362036AA6
:104E50008A401A43026210BD08B539B990F83E3055
:104E6000013B18BF012373B1012023E0042902D1C3
:104E700090F83F30F4E7082902D190F84030EFE78E
:104E800090F84130ECE70223A9B980F83E30006881
:104E90000122FFF7D3FF1F4A904218D01E4B9842C1
:104EA00015D0B0F1804F19D1836803F00703062BAA
:104EB0002BD1002008BD042902D180F83F30E6E75D
:104EC00008290CBF80F8403080F84130DFE7436CA0
:104ED000904243F400434364E6D0E2E70F4B98422C
:104EE000E2D003F580639842DED003F580639842F8
:104EF000DAD003F578439842D6D003F57053984240
:104F0000D2D0A3F594339842CED0036843F0010386
:104F10000360CEE7000001400004014000040040AF
:104F2000FFF79ABF08B500293ED190F83E2090F8CF
:104F30004230D2B2012ADBB272D1012B70D10223EE
:104F4000002947D1026880F83E3080F84230D368AB
:104F500043F00203D36000680122FFF76FFF314B7B
:104F600098421AD0B0F1804F17D0A3F57C439842F5
:104F700013D003F5806398420FD003F58063984205
:104F80000BD003F57843984207D003F5705398424D
:104F900003D0A3F5943398423DD1836803F007030F
:104FA000062B38D1002008BD042905D190F83F20F8
:104FB00090F84330D2B2BDE708290BBF90F84020EB
:104FC00090F8412090F8443090F845300CBFD2B2B0
:104FD000D2B2AFE7042908D1026880F83F3080F8E8
:104FE0004330D36843F00403B4E7082908D10268CA
:104FF00080F8403080F84430D36843F00803A9E7D4
:105000000C2980F8413080F8453009D10268D36816
:1050100043F010039EE7036843F001030360C1E718
:105020000120C0E70000014030B590F83C30012B72
:1050300002464FF0020032D0136882F83D005C68EF
:105040000D68986824F070042C435C60144CA342F3
:105050001AD0B3F1804F17D0A4F57C44A34213D0EB
:1050600004F58064A3420FD004F58064A3420BD002
:1050700004F57844A34207D004F57054A34203D04A
:10508000A4F59434A34204D1496820F08000014380
:1050900099600123002082F83D3082F83C0030BD49
:1050A0000000014090F83C30012B02461ED0CB6836
:1050B000886823F440730343486823F48063034300
:1050C000086823F400630343086923F4805303430F
:1050D0004869C96923F40053034323F480430B4315
:1050E000116800204B6482F83C0070470220704732
:1050F00070477047026802F10C0353E8003F23F445
:1051000090730C3242E8003102680029F2D102F1BA
:10511000140353E8003F23F0010302F1140C4CE8A0
:1051200000310029F3D1036B012B0BD102F10C03E9
:1051300053E8003F23F0100302F10C0C4CE800315F
:105140000029F3D1202380F83E3000230363704709
:105150000268C16838B5136923F440530B431361E7
:10516000054683680069D168034368690343E869B9
:1051700021F4164121F00C0103430B43D360536922
:10518000A96923F440730B4353611F4B9A4203D028
:1051900003F580639A4224D1FFF760F9EA69192187
:1051A000B2F5004FD5E90043A0FB01011CD1DA188C
:1051B0004FF0000545EB0503FBF766FD6422B0FBED
:1051C000F2F102FB1103DB003233B3FBF2F303F025
:1051D00007025B0002EB011203F4F8731344A360AF
:1051E00038BDFFF72BF9D9E79A009B0FFBF74CFD71
:1051F0006422B0FBF2F102FB11031B013233B3FB5B
:10520000F2F303EB0113EAE700100140F8B504469E
:105210000E4617461D462268136836EA030301D17D
:10522000002028E06B1CF7D025B1FDF7A5FEC01BC0
:105230008542F0D2226802F10C0353E8003F23F4C8
:10524000D0730C3242E8003021680028F2D101F11D
:10525000140353E8003F23F0010301F1140040E878
:105260000032002AF3D1202384F83D3084F83C201A
:1052700084F83E300320F8BD10B5044640B390F8E2
:105280003D3003F0FF021BB980F83C20FDF7C2FB64
:105290002268242384F83D30D36823F40053D3607C
:1052A0002046FFF755FF23681A6922F490421A61DD
:1052B0005A6922F02A025A61DA6842F40052DA602E
:1052C00000202023206484F83D3084F83E3010BD57
:1052D0000120FCE72DE9F843984690F83D30202B5B
:1052E00004460E46174648D1002944D0002A42D031
:1052F00090F83C30012B40D0012380F83C30002551
:105300002123056480F83D30FDF736FEA368A784AD
:10531000B3F5805F8146E78403D123690BB9354635
:105320001E46002384F83C30E38C9BB253B94346BD
:105330004A4640212046FFF769FF50B9202384F8F0
:105340003D3007E043464A4680212046FFF75EFF96
:1053500010B10320BDE8F88322684EB935F8023B4E
:10536000C3F308035360E18C013989B2E184DBE7C0
:1053700016F8013BF6E70120ECE70220EAE7704768
:10538000704708B5806B0023C385C384FFF7F8FF1F
:1053900008BD704790F83E30222B07B541D1816897
:1053A0000268836AB1F5805F3ED1016900293ED170
:1053B0005268C2F3080223F8022B8362C38D013BBB
:1053C0009BB2C385002B2CD10268D16821F020014B
:1053D000D160D16821F48071D160516921F001015F
:1053E0005161202280F83E20026B012A026828D1F8
:1053F000036302F10C0353E8003F23F0100302F1B2
:105400000C0C4CE800310029F3D11368DB0605D5FC
:1054100001911368019353680193019B818DFFF7FC
:10542000B8FF03B05DF804FB39B9016929B95268C6
:10543000D2B21A70836A0133BFE7526802F07F026A
:10544000F7E7FCF7C1F9ECE703681A6873B51607CC
:10545000D9685D69044608D1960668D58D0666D57B
:1054600002B0BDE87040FFF795BF05F0010001F400
:10547000907505435BD0D60705D5CD0542BF236C9B
:1054800043F001032364530704D518B1236C43F0A0
:1054900002032364960704D518B1236C43F0040378
:1054A0002364150707D501F0200303431EBF236CB7
:1054B00043F008032364236C002B32D0920604D5FA
:1054C0008B0602D52046FFF765FF26687369226CBC
:1054D00003F0400302F0080253EA0205204622D0FE
:1054E000FFF708FE73695E0618D5226802F11403FF
:1054F00053E8003F23F04003143242E80031002912
:10550000F3D1A06B50B1724B0365FEF719F840B1AF
:10551000A06B036D02B0BDE8704018472046FFF74E
:105520002FFF02B070BDFFF72BFF2564F9E7206B5A
:10553000012840F09180D50640F18E80C80640F1E8
:105540008B80002201921A6801925A680192019A96
:105550005A6952064CD5A16B0A68526892B2002A69
:10556000DFD0A08D9042DCD9E285CA69B2F5807F98
:1055700036D003F10C0252E8002F22F4807203F1BE
:105580000C0040E800210029F3D103F1140252E895
:10559000002F22F0010203F1140040E8002100294D
:1055A000F3D103F1140252E8002F22F0400203F17C
:1055B000140040E800210029F3D1202284F83E2085
:1055C000216303F10C0252E8002F22F0100203F1D4
:1055D0000C0040E800210029F3D1A06BFDF772FF19
:1055E000E38DA18DC91A89B22046FFF7D2FE98E754
:1055F000E28DE08DA18D80B292B2002891D0891AFF
:1056000089B200298DD003F10C0252E8002F22F458
:10561000907203F10C0545E800200028F3D103F156
:10562000140252E8002F22F0010203F1140545E8AC
:1056300000200028F3D1202284F83E20206303F1CB
:105640000C0252E8002F22F0100203F10C0545E88D
:1056500000200028F3D1C7E7160628D50D0626D569
:1056600094F83D20212A7FF45CAFA168226AB1F54D
:10567000805F17D12169A9B932F8021BC1F3080173
:1056800059602262E28C013A92B2E284002A7FF4ED
:1056900048AFDA6822F08002DA60DA6842F040024D
:1056A000DA603EE7511C216212785A60EAE7500640
:1056B0007FF537AF4A067FF534AFDA6822F0400253
:1056C000DA60202384F83D302046FFF758FE28E7B3
:1056D00083530008C285002382852222036480F858
:1056E0003E20026980F83C30816203681AB1DA68B2
:1056F00042F48072DA605A6942F001025A61DA6853
:1057000042F02002DA600020704770B490F83E60EA
:10571000202E0DD149B142B190F83C40012C07D068
:105720000024046370BCFFF7D5BF012070BC704734
:105730000220FBE7EFF305832BB9064B186828B965
:1057400001221A6070476FF0050070474FF0FF307C
:10575000704700BFBC10002010B5EFF305845CB9A2
:10576000084B1A68012A0AD1074AD47702221A6024
:1057700000F08EFD204610BD6FF00500FBE74FF0F6
:10578000FF30F8E7BC10002000ED00E0F0B587B076
:10579000144600220B460592EFF30582CAB9C0B148
:1057A0006CB3A569002D08BF1825691E3729AC46C2
:1057B0002AD86168C90727D466696EB1B208D4E9EE
:1057C000027E216857B1BEF1A70F02D9246904B146
:1057D000E6B9059807B0F0BD8022F0E7BEF1000FF2
:1057E000F7D12469002CF4D105ACCDE900C492B204
:1057F00000F020FD01281CBF00230593E9E72146A6
:105800004FF0180C8022EFE71046E3E7CDE901479F
:10581000009500F0D7FC0590DBE708B5EFF30582B3
:1058200022B908B100F09CFE002008BD6FF0050011
:10583000FBE70000034B0360034B0B608023136006
:10584000704700BF14100020140E0020034B0360AB
:10585000034B0B604FF48073136070476C0D002096
:105860006C09002000F108034FF0FF32C0E9022369
:1058700043600361002303607047002303617047A6
:1058800043684B609A688A60516099600368086158
:1058900001330360704730B50C68631C0AD103699B
:1058A0005A684A6091608B605960036808610133EF
:1058B000036030BD00F10802134652681568A54226
:1058C000FAD9EDE7D0E9011203698A60516059689D
:1058D000814208BF5A60002202611A68013A1A60C8
:1058E0001868704710B5044601F004FAA46B01F083
:1058F00021FAB4FA84F0400910BD70B51646026C66
:10590000856B044642B906689EB9806800F062FF64
:10591000A6600135A56370BD6EB9406802F079FAE2
:105920006368226C1344A2686360934224BF2368B7
:1059300063600020EDE7C06802F06BFA226CE36858
:1059400051429B1A2268E36093423EBFA3685B18F2
:10595000E360022EEDD10DB1013DEAE72846D8E71C
:10596000034610B41A6C08466AB1DC68996814449E
:105970008C4228BF1968DC6028BFD960D9685DF8FF
:10598000044B02F046BA5DF8044B704770B504460C
:1059900001F0B0F994F8455004F124066DB2002DE1
:1059A00014DCFF2384F8453001F0C4F901F0A2F9BA
:1059B00094F8445004F110066DB2002D12DCFF2360
:1059C00084F84430BDE8704001F0B4B9636A002B3C
:1059D000E7D0304600F060FE08B100F0E5FE013D82
:1059E0006DB2DCE72369002BE9D0304600F054FEAD
:1059F00008B100F0D9FE013D6DB2DEE738B50D46C5
:105A0000044640B94FF0500383F31188BFF36F8F02
:105A1000BFF34F8FFEE701F06DF9D4E90F31226833
:105A200062604B43D0185B1A1A44A060FF23002029
:105A3000A063E26084F8443084F84530A5B9236956
:105A400073B104F1100000F027FE48B14FF0E023DD
:105A50004FF08052C3F8042DBFF34F8FBFF36F8F09
:105A600001F068F9012038BD04F11000FFF7FAFEDB
:105A700004F12400FFF7F6FEF2E737B50D461C46A9
:105A800040B94FF0500383F31188BFF36F8FBFF31A
:105A90004F8FFEE743B94FF0500383F31188BFF3F4
:105AA0006F8FBFF34F8FFEE74AB191B94FF05003AC
:105AB00083F31188BFF36F8FBFF34F8FFEE741B1C0
:105AC0004FF0500383F31188BFF36F8FBFF34F8FF5
:105AD000FEE750230193019B502B08D04FF0500359
