:020000040800F2
:1000000000000220B523000805230008072300088C
:10001000092300080B2300080D230008000000003E
:10002000000000000000000000000000915F0008D8
:100030000F230008000000002160000811230008C1
:1000400005240008052400080524000805240008EC
:1000500005240008292300080524000805240008B9
:1000600005240008052400080524000805240008CC
:1000700005240008052400080524000805240008BC
:1000800005240008052400080524000805240008AC
:10009000052400080524000805240008052400089C
:1000A0002D23000839230008052400080524000832
:1000B00005240008052400083D2300080524000845
:1000C000052400080524000805240008052400086C
:1000D0000524000805240008052400084923000819
:1000E000052400080524000805240008052400084C
:1000F00005240008552300080524000805240008ED
:10010000052400080524000805240008052400082B
:10011000052400080524000805240008052400081B
:10012000052400080524000805240008052400080B
:1001300005240008052400080524000805240008FB
:1001400005240008052400080524000805240008EB
:1001500005240008052400080524000805240008DB
:1001600005240008052400080524000805240008CB
:1001700005240008052400080524000800000000EC
:08018000052400080524000815
:1001900010B5054C237833B9044B13B10448AFF3C1
:1001A00000800123237010BD6800002000000000C3
:1001B000186E000808B5034B1BB103490348AFF3A1
:1001C000008008BD000000006C000020186E0008D0
:1001D00001F0FF01102A2BDB10F0070F08D010F8F8
:1001E000013B013A8B422DD010F0070F42B3F6D1FC
:1001F000F0B441EA012141EA014122F007047FF015
:1002000000070023F0E80256083C85EA010586EA6B
:10021000010685FA47F5A3FA87F586FA47F6A5FAA7
:1002200087F68EB9EED1F0BC01F0FF0102F00702B3
:1002300032B110F8013B013A83EA010313B1F8D15E
:100240000020704701387047002D06BF354603383F
:10025000073815F0010F07D1013015F4807F02BF78
:10026000013015F4C03F0130F0BC0138704700BFC9
:1002700081F0004102E000BF83F0004330B54FEA57
:1002800041044FEA430594EA050F08BF90EA020FC4
:100290001FBF54EA000C55EA020C7FEA645C7FEA57
:1002A000655C00F0E2804FEA5454D4EB5555B8BF7A
:1002B0006D420CDD2C4480EA020281EA030382EAEB
:1002C000000083EA010180EA020281EA0303362D7D
:1002D00088BF30BD11F0004F4FEA01314FF4801C50
:1002E0004CEA113102D0404261EB410113F0004F62
:1002F0004FEA03334CEA133302D0524263EB430319
:1003000094EA050F00F0A780A4F10104D5F1200EB6
:100310000DDB02FA0EFC22FA05F2801841F1000111
:1003200003FA0EF2801843FA05F359410EE0A5F1E5
:1003300020050EF1200E012A03FA0EFC28BF4CF016
:10034000020C43FA05F3C01851EBE37101F00045CC
:1003500007D54FF0000EDCF1000C7EEB00006EEBD9
:100360000101B1F5801F1BD3B1F5001F0CD3490863
:100370005FEA30004FEA3C0C04F101044FEA4452BA
:1003800012F5800F80F09A80BCF1004F08BF5FEA41
:10039000500C50F1000041EB045141EA050130BD21
:1003A0005FEA4C0C404141EB0101013C28BFB1F533
:1003B000801FE9D291F0000F04BF01460020B1FA7E
:1003C00081F308BF2033A3F10B03B3F120020CDA51
:1003D0000C3208DD02F1140CC2F10C0201FA0CF02F
:1003E00021FA02F10CE002F11402D8BFC2F1200C94
:1003F00001FA02F120FA0CFCDCBF41EA0C0190404A
:10040000E41AA2BF01EB0451294330BD6FEA040492
:100410001F3C1CDA0C340EDC04F11404C4F120027D
:1004200020FA04F001FA02F340EA030021FA04F38F
:1004300045EA030130BDC4F10C04C4F1200220FAE6
:1004400002F001FA04F340EA0300294630BD21FA24
:1004500004F0294630BD94F0000F83F4801306BFEA
:1004600081F480110134013D4EE77FEA645C18BFDE
:100470007FEA655C29D094EA050F08BF90EA020F75
:1004800005D054EA000C04BF1946104630BD91EA6D
:10049000030F1EBF0021002030BD5FEA545C05D170
:1004A0004000494128BF41F0004130BD14F58004AF
:1004B0003CBF01F5801130BD01F0004545F0FE4123
:1004C00041F470014FF0000030BD7FEA645C1ABF58
:1004D000194610467FEA655C1CBF0B46024650EA8F
:1004E000013406BF52EA033591EA030F41F40021BB
:1004F00030BD00BF90F0000F04BF0021704730B541
:100500004FF4806404F132044FF000054FF0000115
:1005100050E700BF90F0000F04BF0021704730B5D6
:100520004FF4806404F1320410F0004548BF4042AB
:100530004FF000013EE700BF42004FEAE2014FEA00
:1005400031014FEA02701FBF12F07F4393F07F4FDB
:1005500081F06051704732F07F4208BF704793F0DE
:100560007F4F04BF41F40021704730B54FF46074F1
:1005700001F0004521F000411CE700BF50EA0102F4
:1005800008BF704730B54FF000050AE050EA01029D
:1005900008BF704730B511F0004502D5404261EB0D
:1005A00041014FF4806404F132045FEA915C3FF44E
:1005B000D8AE4FF003025FEADC0C18BF03325FEAEB
:1005C000DC0C18BF033202EBDC02C2F1200300FA9C
:1005D00003FC20FA02F001FA03FE40EA0E0021FAC1
:1005E00002F11444BDE600BF70B54FF0FF0C4CF4AF
:1005F000E06C1CEA11541DBF1CEA135594EA0C0F61
:1006000095EA0C0F00F0DEF82C4481EA030621EA9B
:100610004C5123EA4C5350EA013518BF52EA0335D6
:1006200041F4801143F4801338D0A0FB02CE4FF088
:100630000005E1FB02E506F00042E0FB03E54FF0B8
:100640000006E1FB03569CF0000F18BF4EF0010EB0
:10065000A4F1FF04B6F5007F64F5407404D25FEAAC
:100660004E0E6D4146EB060642EAC62141EA55515F
:100670004FEAC52040EA5E504FEACE2EB4F1FD0CA1
:1006800088BFBCF5E06F1ED8BEF1004F08BF5FEA1F
:10069000500E50F1000041EB045170BD06F00046D1
:1006A00046EA010140EA020081EA0301B4EB5C047E
:1006B000C2BFD4EB0C0541EA045170BD41F4801176
:1006C0004FF0000E013C00F3AB8014F1360FDEBF9B
:1006D000002001F0004170BDC4F10004203C35DA77
:1006E0000C341BDC04F11404C4F1200500FA05F3FA
:1006F00020FA04F001FA05F240EA020001F000429B
:1007000021F0004110EBD37021FA04F642EB060110
:100710005EEA430E08BF20EAD37070BDC4F10C043A
:10072000C4F1200500FA04F320FA05F001FA04F2FE
:1007300040EA020001F0004110EBD37041F10001EA
:100740005EEA430E08BF20EAD37070BDC4F12005F5
:1007500000FA05F24EEA020E20FA04F301FA05F25D
:1007600043EA020321FA04F001F0004121FA04F205
:1007700020EA020000EBD3705EEA430E08BF20EAD5
:10078000D37070BD94F0000F0FD101F0004640000F
:1007900041EB010111F4801F08BF013CF7D041EA91
:1007A000060195F0000F18BF704703F00046520095
:1007B00043EB030313F4801F08BF013DF7D043EA66
:1007C0000603704794EA0C0F0CEA135518BF95EA1C
:1007D0000C0F0CD050EA410618BF52EA4306D1D1A3
:1007E00081EA030101F000414FF0000070BD50EAC2
:1007F000410606BF1046194652EA430619D094EA4C
:100800000C0F02D150EA013613D195EA0C0F05D135
:1008100052EA03361CBF104619460AD181EA030189
:1008200001F0004141F0FE4141F470014FF0000041
:1008300070BD41F0FE4141F4780170BD70B54FF0DC
:10084000FF0C4CF4E06C1CEA11541DBF1CEA13555C
:1008500094EA0C0F95EA0C0F00F0A7F8A4EB05043E
:1008600081EA030E52EA03354FEA013100F0888035
:100870004FEA03334FF0805545EA131343EA1263FE
:100880004FEA022245EA111545EA10654FEA0026B3
:100890000EF000419D4208BF964244F1FD0404F56C
:1008A000407402D25B084FEA3202B61A65EB0305C8
:1008B0005B084FEA32024FF480104FF4002CB6EB85
:1008C000020E75EB030E22BFB61A754640EA0C0005
:1008D0005B084FEA3202B6EB020E75EB030E22BF45
:1008E000B61A754640EA5C005B084FEA3202B6EB86
:1008F000020E75EB030E22BFB61A754640EA9C0045
:100900005B084FEA3202B6EB020E75EB030E22BF14
:10091000B61A754640EADC0055EA060E18D04FEAD2
:10092000051545EA16754FEA06164FEAC30343EA72
:1009300052734FEAC2025FEA1C1CC0D111F4801F3F
:100940000BD141EA00014FF000004FF0004CB6E738
:1009500011F4801F04BF01430020B4F1FD0C88BFD7
:10096000BCF5E06F3FF6AFAEB5EB030C04BFB6EBE2
:10097000020C5FEA500C50F1000041EB045170BDD5
:100980000EF0004E4EEA113114EB5C04C2BFD4EB02
:100990000C0541EA045170BD41F480114FF0000E86
:1009A000013C90E645EA060E8DE60CEA135594EA02
:1009B0000C0F08BF95EA0C0F3FF43BAF94EA0C0F05
:1009C0000AD150EA01347FF434AF95EA0C0F7FF47A
:1009D00025AF104619462CE795EA0C0F06D152EACE
:1009E00003353FF4FDAE1046194622E750EA4106B2
:1009F00018BF52EA43067FF4C5AE50EA41047FF4C3
:100A00000DAF52EA43057FF4EBAE12E74FF0FF3C27
:100A100006E000BF4FF0010C02E000BF4FF0010CF8
:100A20004DF804CD4FEA410C7FEA6C5C4FEA430C71
:100A300018BF7FEA6C5C1BD001B050EA410C0CBFC0
:100A400052EA430C91EA030F02BF90EA020F002022
:100A5000704710F1000F91EA030F58BF994208BF89
:100A600090422CBFD8176FEAE37040F00100704746
:100A70004FEA410C7FEA6C5C02D150EA013C07D19D
:100A80004FEA430C7FEA6C5CD6D152EA033CD3D0E8
:100A90005DF8040B704700BF8446104662468C46E2
:100AA0001946634600E000BF01B5FFF7B7FF002815
:100AB00048BF10F1000F01BD4DF808EDFFF7F4FF3E
:100AC0000CBF012000205DF808FB00BF4DF808EDC9
:100AD000FFF7EAFF34BF012000205DF808FB00BFEC
:100AE0004DF808EDFFF7E0FF94BF012000205DF80E
:100AF00008FB00BF4DF808EDFFF7CEFF94BF0120C3
:100B000000205DF808FB00BF4DF808EDFFF7C4FFBB
:100B100034BF012000205DF808FB00BF4FEA41020E
:100B200012F5001215D211D56FF47873B3EB62523F
:100B300012D94FEAC12343F0004343EA505311F066
:100B4000004F23FA02F018BF404270474FF00000F8
:100B5000704750EA013005D111F0004008BF6FF036
:100B6000004070474FF00000704700BF4A0011D2AC
:100B700012F5001211D20DD56FF47873B3EB6252F7
:100B80000ED44FEAC12343F0004343EA505323FA03
:100B900002F070474FF00000704750EA013002D178
:100BA0004FF0FF3070474FF00000704753B94AB91B
:100BB000002908BF00281CBF4FF0FF314FF0FF3065
:100BC00000F06AB9ADF1080C6DE904CE00F006F84A
:100BD000DDF804E0DDE9022304B070472DE9F047B9
:100BE000089D0C46002B4ED194468C458646B2FAA1
:100BF00082F262D94AB1C2F12003914020FA03F394
:100C00000CFA02FC194300FA02FE4FEA1C471FFAD5
:100C10008CF6B1FBF7F44FEA1E4307FB141143EACD
:100C2000014304FB06F199420AD91CEB030304F1CA
:100C3000FF3080F01281994240F20F81023C634400
:100C4000591A1FFA8EF3B1FBF7F007FB101143EAB4
:100C5000014300FB06F69E420AD91CEB030300F198
:100C6000FF3180F0FC809E4240F2F98063440238FC
:100C70009B1B40EA044000211DB1D3400022C5E97E
:100C80000032BDE8F0878B4205D90DB1C5E90001FE
:100C900000210846F5E7B3FA83F1002946D1A342C3
:100CA00002D39042C0F0F080861A64EB0303012067
:100CB000002DE6D0C5E90063E3E7002A40F090800C
:100CC000A1EB0C044FEA1C481FFA8CF70121B4FB7E
:100CD000F8F64FEA1E4308FB164443EA044307FBB9
:100CE00006F0984208D91CEB030306F1FF3402D248
:100CF000984200F2CD8026461C1A1FFA8EF3B4FBF0
:100D0000F8F008FB104443EA044300FB07F79F4256
:100D100008D91CEB030300F1FF3402D29F4200F21A
:100D2000B0802046DB1B40EA0640A5E7C1F1200663
:100D30008B4022FA06F71F4320FA06FC04FA01F35F
:100D400043EA0C03F44000FA01F8380C4FEA134967
:100D5000B4FBF0FE1FFA87FC00FB1E4449EA044482
:100D60000EFB0CF9A14502FA01F20AD93C190EF169
:100D7000FF3A80F08480A14540F28180AEF1020EFE
:100D80003C44A4EB09041FFA83F9B4FBF0F300FB25
:100D9000134449EA044403FB0CFCA44507D93C195D
:100DA00003F1FF3067D2A44565D9023B3C4443EAD6
:100DB0000E40A0FB0293A4EB0C049C42CE469C4642
:100DC00051D34ED055B1B8EB0E0364EB0C0404FACA
:100DD00006F6CB401E43CC40C5E90064002150E735
:100DE000C2F1200320FA03F10CFA02FC24FA03F307
:100DF00094400C434FEA1C4800FA02FE1FFA8CF79D
:100E0000B3FBF8F008FB1031230C43EA014300FB6D
:100E100007F1994208D91CEB030300F1FF362CD2ED
:100E200099422AD9023863445B1AA4B2B3FBF8F1A1
:100E300008FB113344EA034401FB07F3A34208D93A
:100E40001CEB040401F1FF3613D2A34211D902397D
:100E50006444E41A41EA004139E70446F0E60846F2
:100E600006E7C845AED2B9EB020E63EB070C0138BA
:100E7000A8E73146EDE7034699E73046D4E7D64682
:100E80007FE7634402384DE70646234608460FE7EE
:100E9000023E634430E700BF704700BF08B5054C11
:100EA00020464FF4806101F016FE4FF4FA6003F023
:100EB0000EFEF5E7001002402DE9F04700248EB049
:100EC0001022214605A8049405F0D0FA10222146EC
:100ED0000AA8099405F0CAFADFF88CA01E4F1F4D2E
:100EE0000026DAE9008949464046FFF717FE044626
:100EF000FFF710FB02460B4640464946FFF7BCF998
:100F000032463B46FFF770FBFFF708FE80EAE073CE
:100F1000A3EBE0732246294604A805F087FA04AA49
:100F20000A21002001F038FB0D4A0E491379029383
:100F3000D3780193937800935378127809A805F039
:100F400075FA09AA1421002001F026FB01F08AFAA3
:100F5000642003F0BCFDC4E700408F40306E000801
:100F6000E40000203E6E0008B000002070B53C2177
:100F70000E480E4E0E4D02F0ECFC01F0FFFB044655
:100F800001F0FCFB001B0A28FAD931682B684A6A79
:100F9000B2F5FA4FC6BFC2F580329B1A9B182B6080
:100FA00000234B6201F0EAFB0446E9E7DC01002084
:100FB000CC00002070B53C210E480E4E0E4D02F0C4
:100FC000C8FC01F0DBFB044601F0D8FB001B0A283B
:100FD000FAD931682B684A6AB2F5FA4FC6BFC2F532
:100FE00080329B189B1A2B6000234B6201F0C6FBDA
:100FF0000446E9E724020020C800002000B595B0AF
:101000002C22002109A805F031FA1422002103A89E
:1010100005F02CFA0023194A0193116C41F080511C
:101020001164126C02F080520192019A144A0293E8
:10103000116841F48041116012680E9302F48042FD
:101040000292029A0222089201201022CDE90B029C
:1010500008A802F059F9014608B172B6FEE70F235D
:10106000CDE90330CDE90500079003A802F028FB85
:1010700008B172B6FEE715B05DF804FB0038024017
:101080000070004080B59CB001F052FBFFF7B6FF46
:101090001422002113A805F0E9F90024A64B0094BE
:1010A0001A6BA64842F010021A631A6B02F0100283
:1010B0000092009A01941A6B42F080021A631A6B34
:1010C00002F080020192019A02941A6B42F001022E
:1010D0001A631A6B02F001020292029A03941A6BCD
:1010E00042F002021A631A6B02F002020392039AA0
:1010F00004941A6B42F008021A631A6B02F0080299
:101100000492049A05941A6B42F004021A631B6B52
:1011100003F00403059322464FF4BC61059B01F0E4
:10112000D5FC874822463C2101F0D0FC8548224668
:101130004FF4806101F0CAFC224683484FF400510D
:1011400001F0C4FC01264FF4BC637C4813A9CDE92F
:101150001336CDE9154401F0E1FB3C23CDE913360C
:1011600077481594022313A9169301F0D7FB4FF487
:101170008063744813A9CDE913364FF48075CDE927
:10118000154401F0CBFB4FF488136F48159413A955
:10119000CDE913534FF4005701F0C0FB6A4813A97F
:1011A000CDE91376CDE9154401F0B8FB6748DFF8C7
:1011B000B8C1674B0462C0E900C34FF48043C0E983
:1011C0000244C0E90434C0E9064401F08FFD05463D
:1011D00008B172B6FEE70146102208A805F046F9EC
:1011E0001C2229460CA8CDE9065505F03FF920221E
:1011F000294613A805F03AF9564C5748A560A02394
:10120000C4E900034FF47A73C4E903352046802310
:101210006561A36102F018FD08B172B6FEE74FF4F4
:10122000805308A92046089302F04BFF08B172B61C
:10123000FEE7204602F034FD08B172B6FEE7CDE9C4
:10124000060006A9204603F049F808B172B6FEE789
:101250006023CDE90C30CDE910000E9012900C22E5
:101260000CA9204602F0FEFD08B172B6FEE7CDE9FA
:101270001300CDE91500CDE917071A9013A92046F0
:1012800003F06AF8054608B172B6FEE7204600F0A2
:10129000CFFF324C29461C2214A805F0E7F84FF680
:1012A000FF774FF08043CDE90C55C4E90035C4E920
:1012B0000375A560A5614FF003080A2513A9204610
:1012C000CDF84C801596179519961B9502F040FDA8
:1012D00008B172B6FEE7CDE90C000CA9204602F079
:1012E000FDFF044608B172B6FEE701461C2214A8B1
:1012F00005F0BCF81A481B4B046113A9CDE90C4456
:10130000C0E90034C0E902478461CDF84C801596ED
:10131000179519961B9502F01BFD08B172B6FEE7F2
:1013200000230F480CA9CDE90C3302F0D7FF054686
:10133000E0B172B6FEE700BF003802400010024084
:101340000000024000040240000C0240B4020020F1
:10135000A08601006C020020000001402402002051
:10136000DC01002000040040005400400146CDE9AB
:101370000C00102213A805F079F86E4C6E49A56098
:101380000F23C4E9001320464FF6FF73C4E9033569
:10139000A56102F0B1FC08B172B6FEE7CDE90C0020
:1013A0000CA9204602F09AFF024608B172B6FEE789
:1013B0000123CDE914301390169013A9204602F0B2
:1013C000E3FD054608B172B6FEE70146102208A803
:1013D00005F04CF81C2229460CA8CDE9065505F06D
:1013E00045F82022294613A805F040F8534C544BE9
:1013F000A560C4E90035204641F61F43C4E9033522
:10140000C4E9055502F020FC08B172B6FEE74FF4BE
:10141000805308A92046089302F053FE08B172B623
:10142000FEE7204602F03CFC08B172B6FEE7CDE9CB
:10143000060006A9204602F051FF024608B172B626
:10144000FEE76023CDE90C30CDE90E00CDE91000B8
:1014500012900CA9204602F005FD08B172B6FEE715
:1014600004220CA9204602F0FDFC08B172B6FEE78A
:1014700000234FF400523148179313A9CDE91333D9
:10148000CDE9153318921A9302F066FF08B172B6CF
:10149000FEE72C4D2C4A28614FF4E133C5E90023C7
:1014A0000C23C5E90200C5E90530E861284603F0D0
:1014B0003DF8044608B172B6FEE701F08DF8234905
:1014C0000522284603F07BFA03F08EFA204A2148D1
:1014D000214603F0B5FA204B204A186021462048E7
:1014E00003F0AEFA1F4B204A186021461F4803F054
:1014F000A7FA1F4B1F4A186021461F4803F0A0FAA5
:101500001E4B1F4A186021461E4803F099FA1E4BD5
:101510001E4A186021461E4803F092FA1D4B1E4ACF
:10152000186021461D4803F08BFA1D4B186003F02C
:101530006DFAFEE794010020000800404C010020F5
:10154000000401400801002000480040E4000020A1
:10155000886F00089D0E000804010020646F0008D9
:10156000E917000800010020406F0008B90E0008CC
:10157000FC0000201C6F0008811E0008F8000020FD
:10158000F86E0008311C0008F4000020D46E00083A
:101590006D0F0008F0000020B06E0008B50F0008C5
:1015A000EC00002008B505220349044803F007FABF
:1015B000034B01221A6008BDE4000020080100204E
:1015C000840000200000000070B5067F012E044654
:1015D00010D1254D296871B902F014FA234B2E6001
:1015E000186023681A6A22F00A021A621A6A42F024
:1015F00002021A6270BD0129FCD1002102F002FA38
:101600001B4B2468186000236362184B1A68194B3F
:10161000904220DD801A18801888FEF77BFF10A307
:10162000D3E90023FEF7E0FF134B0022FEF7DCFFB7
:10163000FFF79CFA114B188000232B60236A23F0DC
:101640000A032362236A23620D4B1A68D36823F0CE
:101650000203D360CEE7DFDA801A0138DBE700BF90
:10166000006F8104C58FA13F9400002090000020EE
:101670008C0000208A0000200000E03F880000204D
:101680009401002038B504460D4659B3002822DDE8
:1016900001222348102101F019FA002220212048BC
:1016A00001F014FA84EAE470A0EBE470B0F5FA6F8C
:1016B00029DCB0F5FA7F29DCC8282ADC64282BDC79
:1016C000184A1368022803F101031360CCBF4FF4DA
:1016D000FA70002038BD00221148102101F0F6F9FF
:1016E0000122DBE7002807DD01220D48082101F077
:1016F000EDF92A460421D2E70A460948082101F0FB
:10170000E5F90122F6E740F6B830E3E74FF4FA6076
:10171000E0E74FF4AF60DDE74FF47A70DAE700BF3F
:1017200000000240D400002038B500222B4B0546B3
:1017300051EC100BFEF758FFFFF7F0F9044665B3C4
:10174000002823DD01222648102101F0BFF90022E4
:101750002021234801F0BAF984EAE470A0EBE47098
:10176000B0F5967F2ADCC8282BDC96282CDC642870
:101770002DDC0A282EDC1B4A1368012803F1010323
:101780001360CCBF4FF41670002038BD00221448FF
:10179000102101F09BF90122DAE7002807DA012283
:1017A0000F48082101F092F92A460421D1E72A4680
:1017B0000B48082101F08AF90122F6E740F6B8301B
:1017C000E3E74FF4FA60E0E74FF4C860DDE74FF479
:1017D000AF60DAE74FF47A70D7E700BF000024402B
:1017E00000000240D40000202DE9F84F00249C4D59
:1017F0009C4E9D4F9D482C802146348002F06CFD0C
:1018000004219A4802F068FD0C21384602F064FD7C
:101810003B68974892221A641021012201F056F980
:1018200093482246202101F051F9914801220821D4
:1018300001F04CF98E482246042101F047F94FF49B
:101840007A7003F044F98B4B8B49B3F800803B6806
:10185000C3F84080894BD1E90001D3E90023FEF7AA
:101860000BFDB8F17E0F82468B4652D84BEC10AB85
:101870000120FFF759FFFEF74DFE75A3D3E90023C2
:10188000FEF7B2FEFFF772F980B22880FEF742FE43
:1018900071A3D3E90023FEF7A7FEFFF767F9002243
:1018A0003080002350465946FFF72EF902460028A3
:1018B00029D001226E48082101F008F900220421F4
:1018C0006B4801F003F96E4B1B6853B100232B806A
:1018D00033806C4B1A686C4B1A606C4B1A686C4BFB
:1018E0001A60624B32881B685A632A889A63012007
:1018F00003F0EDF8674B1A68B2F57A7FA3DD40F28A
:10190000E9321A609FE75A48082101F0DFF8012206
:10191000D5E7B8F1BD0F26D94BEC10AB0020FFF78F
:1019200003FF308080B2FEF7F5FD4BA3D3E900231F
:10193000FEF75AFEFFF71AF90022288000235046CE
:101940005946FFF7C3F8024638B101224848102132
:1019500001F0BCF800222021B2E74548102101F037
:10196000B5F80122F7E7DFF82091DFF81881D9F800
:101970000000D8F800300021C01AFFF783FEFEF700
:10198000C9FD33A3D3E90023FEF72EFEFFF7EEF8DF
:10199000D8F80020D9F8003028809B1A3C4A1068FB
:1019A0003A4A1268801A83EAE37180EAE072A1EB96
:1019B000E371A2EBE072914203F16303CCBF013407
:1019C00004F1FF340121C62B98BF0024FFF75AFE13
:1019D000D9F80020D8F8003020449A4230804FF0E7
:1019E00000024FF08043504659461CDAFFF78CF84E
:1019F00000BB00224FF0404350465946FFF766F8BF
:101A0000A0B9254B002250465946FEF7EDFD234B69
:101A10000022FEF713FF224B0022FEF72FFCFFF7F8
:101A2000A5F880B203E0FFF76FF828B17F20114BD3
:101A3000188048E7A520FAE700224FF040435046BF
:101A40005946FFF743F80028F4D1164B0022DAE795
:101A5000F4FDD478E926F13FE17A14AE47E1E23FA4
:101A6000DA000020D80000206C0200204C01002089
:101A70000000024002000020B8000020B00000205A
:101A8000D0000020C8000020C0000020CC000020B2
:101A9000C4000020D40000200000334000001440A7
:101AA00000406240000033C00E4B1A68142A10B583
:101AB0004FF0010014DD0C4A10600C4A0024148021
:101AC0000B4A1C6014800B4A11680B4A11600B4AC8
:101AD00011680B4A4FF49670116002F0F8FF20462F
:101AE00010BD00BFD4000020D0000020DA0000208C
:101AF000D8000020C8000020C0000020CC0000203A
:101B0000C40000200000000038B551EC100B20A3E9
:101B1000D3E90023FEF768FD154B922204464FF4EB
:101B2000E1701A800D4602F0D2FF124A00231360C2
:101B3000114A1360114A124B1360124A2046136077
:101B4000294609A3D3E90023FEF798FBFEF7E6FF39
:101B50000D4B18600D4B1860FFF7A6FF0028FBD156
:101B600038BD00BFAFF3008000000000804FF2409E
:101B700002000020D0000020D4000020CC00002073
:101B8000F8240100C8000020C4000020C00000208C
:101B90000000000000C052400E4B70B5FA224FF416
:101BA000E17055EC104B1A8002F091FF0A4A0B4E7F
:101BB000002313600A4AD6E90001136022462B462F
:101BC000FEF75AFBC6E90001FFF76EFF0028FBD1C4
:101BD00070BD00BF02000020D0000020B80000202F
:101BE000D40000200E4B70B560224FF4E17055EC2C
:101BF000104B1A8002F06BFF0A4A0B4E0023136051
:101C00000A4AD6E90001136022462B46FEF736FB4E
:101C1000C6E90001FFF748FF0028FBD170BD00BFF7
:101C200002000020D0000020B8000020D4000020D6
:101C300083B5504C504E514D41238DF8073045230C
:101C400023704D2363705023A3705423E3705923F2
:101C500023713368012B2FD100232B602378472B6E
:101C600045D16378592B27D1A378522B24D1E3781F
:101C70004F2B21D12379522B1ED1E378A2780A2150
:101C8000303B303A4B43642101FB02332279303A36
:101C9000134462782B60422A08BF5B424FF00A006F
:101CA00008BF2B6002F013FF2378522B44D029D8B1
:101CB000472B51D04C2B47D0314FD7F80090B9F17A
:101CC000010F10D14FF000080A20C6F8008002F082
:101CD000FEFE2C484FF6FF734A460DF1070102F055
:101CE00053FCC7F800800A2002F0F1FEB1E7A3F12F
:101CF0005202012A01D94C2BDED1637803F0FB0399
:101D0000422BB9E7532BD7D12868FEF703FC41ECEF
:101D1000100BFFF7F9FE1A4B01221A6044232370BF
:101D20004F2363704E23A3704523E3700A202123C1
:101D3000237102F0CCFEBFE72868FEF7EBFB41EC15
:101D4000100BFFF729FFE6E72868FEF7E3FB41ECFD
:101D5000100BFFF747FFDEE7BFF34F8F0A490B4B2E
:101D6000CA6802F4E0621343CB60BFF34F8F00BF39
:101D7000FDE700BFE400002084000020DC0000201C
:101D8000E00000200801002000ED00E00400FA055A
:101D900073B50C4E0C4A0D4D10700C460A23317869
:101DA000009301239940284601F048F83178142324
:101DB0000093224602234900284601F019F902B097
:101DC00070BD00BF0000002098000020B402002079
:101DD00007B5074B074A5170197810701423009308
:101DE00049000223044801F029F803B05DF804FB20
:101DF0000000002098000020B402002008B5002157
:101E00000620FFF7E5FF0A2002F061FE8021032093
:101E1000FFF7DEFF0A2002F05AFE07210846FFF70F
:101E2000D7FF0A2002F053FE01210620FFF7D0FF62
:101E30000A2002F04CFE20217F20FFF7C9FF0A2074
:101E400002F045FE2F210120FFF7C2FF0A2002F019
:101E50003EFE00210846FFF7BBFF0A2002F037FED6
:101E600000217F20FFF7B4FF0A2002F030FE072098
:101E70000021FFF7ADFFBDE808400A2002F027BEB1
:101E80002DE9F74FFFF7BAFF00233220ADF80430F9
:101E900002F01DFE4FF47A7600240025012002F0A6
:101EA00016FE01A93720FFF773FFBDF80400C0BA82
:101EB000FEF730FB8946804600F060FC42464B4608
:101EC00020462946FEF7DAF904460D4600F056FC96
:101ED000013EE3D1204BDFF884B0002220462946A2
:101EE000FEF7ACFC06460F4600F048FC0FF2600916
:101EF000D9E900898246642002F0E9FD01A9372072
:101F0000FFF746FFBDF80400C0BAFEF703FB3246F8
:101F10003B46FEF7B1F90D46044600F02FFCA0EB5E
:101F20000A00FEF7E7FA42464B46FEF787FC2246D8
:101F30002B46FEF759FBDBE90023FEF79FF9CBE9BF
:101F4000000100F01BFC8246D5E700BFAFF3008024
:101F5000000000000004D04000408F40B00000208E
:101F600013B5134B002400945A6C42F480425A6417
:101F70005A6C02F480420092009A01941A6C42F06A
:101F800080521A641B6C03F08053019322460F2188
:101F90006FF00100019B00F01DFC05210846224660
:101FA00000F018FC052002B0BDE8104000F044BC71
:101FB0000038024030B5044689B01422002103A83D
:101FC00004F054FA2268144B9A4222D1134C14485C
:101FD00000250195236B43F002032363236B03F079
:101FE00002030193019B4FF440721223CDE90323B6
:101FF00003210423CDE9061303A900F08FFC029509
:10200000236C43F400132364236C03F40013029342
:10201000029B09B030BD00BF0054004000380240B0
:102020000004024010B5044688B01422002103A821
:1020300004F01CFA2368254A93421DD10024244B46
:1020400000945A6C42F001025A645B6C03F0010385
:102050002246214600931820009B00F0BBFB18206D
:1020600000F0EAFB19202246214600F0B3FB1920BC
:1020700000F0E2FB08B010BD164A9342FAD1144BAF
:102080001548002401945A6C42F002025A645A6CBA
:1020900002F002020192019A02941A6B42F00402C9
:1020A0001A631B6B03F004030293C022029B0223FA
:1020B000CDE9032303A90323079300F02FFC2D2070
:1020C0002246214600F086FB2D20D1E7000001408A
:1020D00000380240000401400008024070B514229C
:1020E0008AB0044600210DEB020004F0BFF923681A
:1020F000B3F1804F37D103F50E33002400941A6CEE
:10210000294842F001021A641A6C02F0010200929E
:10211000009A01941A6B42F001021A631A6B02F0E2
:1021200001020192019A02941A6B42F002021A63B0
:102130001B6B03F002030293029B02264FF4004341
:10214000012505A9CDE90536099500F0E7FB08232F
:10215000CDE90536CDE907441448099505A900F0F5
:10216000DDFB0AB070BD124A9342FAD1114B0E4802
:10217000002103911A6C42F002021A641A6C02F0F8
:1021800002020392039A04911A6B42F001021A634D
:102190001B6B03F001030493049BC0220223CDE9CF
:1021A0000523099305A9DAE7000002400004024074
:1021B000000400400038024010B5044688B01422E4
:1021C000002103A804F052F92268174B9A4228D143
:1021D00003F50C33002401941A6C144842F00402F5
:1021E0001A641A6C02F004020192019A02941A6BAA
:1021F00042F008021A631B6B03F0080302934FF4CA
:102200008052029B03A90223CDE90323079300F028
:1022100085FB1E202246052100F0DCFA1E2000F07E
:102220000BFB08B010BD00BF00080040000C0240CE
:1022300010B5044686B01422002101A804F016F956
:1022400022680E4B9A4216D1002300930C4B0D4886
:102250001A6B42F010021A631B6B03F01003009319
:10226000009B4FF480420223CDE9012301A9012301
:10227000059300F053FB06B010BD00BF0000014005
:10228000003802400010024010B5044688B0142205
:10229000002103A804F0EAF82268184B9A422BD1D7
:1022A00003F5F833002401941A6C154842F4802297
:1022B0001A641A6C02F480220192019A02941A6B39
:1022C00042F004021A631B6B03F0040302934FF401
:1022D0004062029B0223CDE9032303210723CDE9BA
:1022E000061303A900F01AFB27202246052100F05F
:1022F00071FA272000F0A0FA08B010BD0048004095
:1023000000080240FEE7FEE7FEE7FEE7FEE7704753
:1023100008B500F027FA03F0A7FB012803D0BDE8B9
:10232000084003F0AFBE08BD70470000014801F04F
:1023300083BB00BF6C020020FFF7F8BF014801F02B
:102340007BBB00BF94010020014802F0D7B900BF59
:1023500008010020014801F06FBB00BF4C010020C4
:102360000B4A116810B5034609B90A491160106893
:1023700009490A4C0344091B8B4206D904F0D4F8DE
:102380000C2303604FF0FF3010BD1360FCE700BF6B
:10239000080300204052002000000220000400003A
:1023A000034AD2F8883043F47003C2F8883070478B
:1023B00000ED00E0DFF834D00D480E490E4A00234E
:1023C00002E0D458C4500433C4188C42F9D30B4AE9
:1023D0000B4C002301E013600432A242FBD3FFF751
:1023E000DFFF04F0A7F8FEF74DFE70470000022063
:1023F0000000002064000020807A000868000020AF
:102400003C520020FEE7000070B50A46044601B1C8
:1024100001221348124E4FF4807100F057FB08253B
:1024200000222021304600F051FB23064CBF012240
:1024300000224021304600F049FB013D01222021CD
:10244000304600F043FB640015F0FF05E4B2E7D12D
:10245000BDE87040024801224FF4807100F036BBA5
:102460000010024070B50F4EB02400212046FFF747
:10247000CBFF00210846FFF7C7FF00211020FFF720
:10248000C3FF002516F8350001210135FFF7BCFF19
:10249000802DF7D10134E4B2B82C06F10106E4D165
:1024A00070BD00BF0C0300200023084810B41C4678
:1024B0000022191801F832400132802AFAD1013382
:1024C000082BF5D15DF8044BFFF7CCBF0C030020BF
:1024D000030610B512D43F2910D801F00703C3F149
:1024E000070301249C40C908064BC1F10701C9B28A
:1024F00003EBC000435C12B12343435410BD23EAF5
:102500000403FAE70C0300202DE9F74F1F46203A99
:102510001F4B9DF830B0D2B203EB021300931D4B5A
:1025200002EB420203EB82038146884601930C468C
:102530000026B74202D103B0BDE8F08F0C2F21D1A5
:10254000019B9D5D04F108035FFA83FA2B0658BFD7
:10255000BBFA8BF2214604F101044CBF5A465209E2
:102560004846E4B2FFF7B4FFA4EB08026D00BA429C
:10257000EDB209D109F101005FFA80F9C2460136D6
:102580005446D6E7009BDCE7A245DFD1F7E700BF62
:10259000C46F0008B4750008F7B504460D46561E12
:1025A000012716F8013F0BB903B0F0BD7A2C82BFAA
:1025B0001035EDB200243A2D03D9FFF775FF002541
:1025C0002C460097204632780C2329460834FFF722
:1025D0009BFFE4B2E5E7000010B500F079FE404B48
:1025E000404C1A6F22F001021A671A6F22F004029F
:1025F0001A6700F07BFE00228021204600F066FA78
:10260000642000F0C1F801222046802100F05EFA2B
:102610000021AE20FFF7F8FE0021D520FFF7F4FEE1
:1026200000215020FFF7F0FE0021A820FFF7ECFE6C
:1026300000213F20FFF7E8FE0021D320FFF7E4FE52
:1026400000210846FFF7E0FE00214020FFF7DCFEF6
:1026500000218D20FFF7D8FE00211420FFF7D4FEC3
:1026600000212020FFF7D0FE00210220FFF7CCFE42
:102670000021A120FFF7C8FE0021C020FFF7C4FE03
:102680000021DA20FFF7C0FE00211220FFF7BCFE78
:1026900000218120FFF7B8FE0021EF20FFF7B4FEF4
:1026A0000021D920FFF7B0FE0021F120FFF7ACFE9A
:1026B0000021DB20FFF7A8FE00213020FFF7A4FE59
:1026C0000021A420FFF7A0FE0021A620FFF79CFE1A
:1026D0000021AF20FFF798FEBDE81040FFF7E4BEF1
:1026E000003802400010024038B50E4B1A784FF403
:1026F0007A73B3FBF2F30C4A05461068B0FBF3F0B3
:1027000000F0A8F8044658B90F2D09D8024629460A
:102710004FF0FF3000F05EF8044B20461D6038BDDE
:102720000120FCE708000020040000200C0000202D
:1027300008B50B4B1A6842F400721A601A6842F42A
:1027400080621A601A6842F480721A60032000F0F6
:102750002FF80F20FFF7C8FFFFF702FC002008BD8D
:10276000003C0240034A044B11681B780B44136081
:10277000704700BF0C07002008000020014B1868BC
:10278000704700BF0C07002038B50446FFF7F6FF7E
:10279000631C1CBF054B1B78054618BFE418FFF7E8
:1027A000EDFF431BA342FAD338BD00BF0800002051
:1027B0000749CA6822F4E0620302120403F4E063EA
:1027C000120C134343F0BF6343F40033CB607047F4
:1027D00000ED00E0164B30B5DC68C4F30224C4F110
:1027E0000703251D042B28BF0423062D4FF0FF35BA
:1027F0008CBF033C002405FA03F321EA0303A54040
:1028000022EA0502A340002843EA0203ACBF00F11C
:102810006040084A4FEA0313B8BF00F00F00DBB274
:10282000AABF00F56140135480F8003330BD00BFEB
:1028300000ED00E014ED00E0002807DB4109044A48
:1028400000F01F000123834042F82130704700BF91
:1028500000E100E00138B0F1807F0BD24FF0E023BF
:10286000054A5861F02182F8231000200722986160
:102870001A6170470120704700ED00E070B5044612
:10288000866DFFF77BFF94F83530022B054606D0A6
:10289000802363650120002384F8343070BD2368F1
:1028A0001A6822F016021A605A6922F080025A61F0
:1028B000226C0AB9A26C1AB11A6822F008021A60D6
:1028C0001A6822F001021A602368186810F00100EB
:1028D00007D1E26D3F239340B360012384F8353084
:1028E000D9E7FFF74BFF401B0528EDD92023032034
:1028F000636584F83500CEE790F83530022B03D0BD
:1029000080234365012070470268052380F8353035
:10291000136823F001031360002070472DE9F74F7F
:10292000DFF8A491664A00230D6801249C4004EA64
:102930000506AC4340F0AF804D68032705F0030463
:102940004FEA430807FA08FC671E012F6FEA0C0CD8
:1029500034D8876807EA0C0ECF6807FA08F747EA09
:102960000E078760476827EA060EC5F300179F40E9
:1029700047EA0E074760C76807EA0C0E8F6807FA38
:1029800008F747EA0E07022CC76019D14FEAD30AAD
:1029900000EB8A0A03F0070BDAF820704FEA8B0B82
:1029A0004FF00F0E0EFA0BFE27EA0E0E0F6907FA14
:1029B0000BF747EA0E07CAF8207001E0032CDAD1C2
:1029C000076804FA08F407EA0C073C4315F4403F93
:1029D000046060D000240194D9F8444044F4804459
:1029E000C9F84440D9F8444023F0030707F1804771
:1029F00004F4804407F59C37019403F0030C019C18
:102A0000D7F808E04FEA8C0C0F2404FA0CF42EEAF5
:102A1000040E2C4CA04245D004F58064A04243D063
:102A200004F58064A04241D004F58064A0423FD008
:102A300004F58064A0423DD004F58064A0423BD000
:102A400004F58064A04239D004F58064A04214BF2C
:102A50000824072404FA0CF444EA0E04BC609468C9
:102A6000F74315F4801F0CBF3C4034439460D46896
:102A700015F4001F0CBF3C403443D460546815F477
:102A8000003F0CBF3C40344354601468ED0354BF16
:102A90003C40344314600133102B7FF445AF03B046
:102AA000BDE8F08F0024D5E70124D3E70224D1E765
:102AB0000324CFE70424CDE70524CBE70624C9E7A8
:102AC000003C014000000240003802400AB1816130
:102AD00070470904FBE7436901EA030221EA0301A5
:102AE00041EA02418161704701684B6913F48063D8
:102AF0004FF0000210D06FF480634B61202302631B
:102B000080F83D3080F83E20036C80F83C2043F094
:102B10000403036401207047184670472DE9F84606
:102B200006460F4691461D464FEA114A3368BAF1F0
:102B3000010F0CBF5C699C6927EA0404A4B2B4FAD3
:102B400084F46409A14501D0002017E06A1CEED08E
:102B5000FFF714FE089BC01AA84201D8002DE5D14A
:102B600000232022336386F83D2086F83E30326C05
:102B700086F83C3042F0200232640120BDE8F8863D
:102B80002DE9F04104460F461646984625686869C7
:102B900027EA000080B2C0B16B695A0517D52B68CF
:102BA00043F400732B606FF480636B612022002379
:102BB000236384F83D2084F83E30236C43F0040303
:102BC0002364002384F83C300120BDE8F081731CAD
:102BD000DDD0FFF7D3FDA0EB0800B04201D8002EF6
:102BE000D4D100232022236384F83D2084F83E3092
:102BF000236C1343E4E770B504460D46164623687C
:102C00005B691B0601D500201AE02046FFF76CFF28
:102C1000A8B96A1CF3D0FFF7B1FD801BA84201D808
:102C2000002DECD100232022236384F83D2084F87A
:102C30003E30226C84F83C3042F0200222640120B5
:102C400070BD70B504460D46164623685B695B0788
:102C500001D500201AE02046FFF746FFA8B96A1CFC
:102C6000F3D0FFF78BFD801BA84201D8002DECD1DB
:102C700000232022236384F83D2084F83E30226C18
:102C800084F83C3042F020022264012070BD70B50F
:102C900004460D46164621684B6913F0400301D0E7
:102CA000002011E04A69D2060FD56FF010024A6188
:102CB0002022236384F83D2084F83E30236C236473
:102CC000002384F83C30012070BDFFF757FD801BC6
:102CD000A84201D8002DDED100232022236384F8EE
:102CE0003D2084F83E30236C1343E8E770B504467A
:102CF00008B9012070BD90F83D3003F0FF021BB908
:102D000080F83C20FFF756F9242384F83D302368EF
:102D10001A6822F001021A601A6842F400421A602E
:102D20001A6822F400421A6000F064FD3F4B6568A7
:102D30009D4294BF3E4B3F4B98428CBF00230123E2
:102D4000002BD6D12268394E51683B4BB0FBF3F3D0
:102D500021F03F011943B542516088BF4FF4967688
:102D6000116A88BF734321F03F0184BF4FF47A7624
:102D7000B3FBF6F301330B431362D169431E2B48B7
:102D800021F44F41854221F0FF0132D86D0040F619
:102D9000FC70B3FBF5F30133034242D0C3F30B03E2
:102DA0001943D161D4E907301168034321F0C00110
:102DB0000B4313609168D4E9030321F403410343F7
:102DC00021F0FF010B439360D4E90530D168034340
:102DD00021F0FF010B43D360136843F0010313603C
:102DE00000202023206484F83D30206384F83E00D6
:102DF00080E7A06850B905EB4505B3FBF5F3013357
:102E0000C3F30B037BB143F40043C9E719206843C4
:102E1000B3FBF0F30133C3F30B0323B143F440439B
:102E2000BEE70423BCE70123BAE700BFA086010088
:102E30007F841E00FF083D0040420F002DE9F04353
:102E4000044685B098460C9F0D469146FFF796FCC8
:102E500094F83D30202B064604D00225284605B0C4
:102E6000BDE8F08300905E49192301222046FFF758
:102E700055FE0028F1D194F83C30012BEDD02168AB
:102E8000012384F83C300B68DA075EBF0B6843F01F
:102E900001030B600B6823F400630B60212384F8AB
:102EA0003D30102384F83E3000232364A4F82A80A8
:102EB000638D23854B4BE362E36AC4F82490082BAF
:102EC00004D0012B02D013F5803F04D10B6843F4EA
:102ED00080730B6002E0236B122BF7D00022009668
:102EE0003B464FF001112046FFF718FE226840B123
:102EF0001368DB0501D40125B0E74FF400732364A8
:102F0000F9E72369B3F5804F21D105F0FE0515617E
:102F1000354933463A462046FFF732FE054600283B
:102F2000E9D1236803905A6903929B690393039B39
:102F3000238DF3B921680A6842F400720A602022E6
:102F400084F83D2084F83C3084F83E3086E7EB116D
:102F500003F0060343F0F0031361244933463A4675
:102F60002046FFF70DFE0028C5D12368EDB21D6194
:102F7000CEE7324639462046FFF73DFE40B1236C8E
:102F8000042BB8D12268136843F400731360B2E7CE
:102F9000636A20681A4612F8011B01616262628D41
:102FA000013A92B26285228DD0F814C0511E89B2C6
:102FB0001CF0040F21850AD049B159780161023310
:102FC0006362638D013B9BB2023A63852285324680
:102FD00039462046FFF735FE0028A9D0CFE700BFCD
:102FE000020010000000FFFF0200010008000100C5
:102FF0002DE9F043044689B09846109F0E4691464D
:10300000FFF7BCFB94F83D30202B054604D0022688
:10301000304609B0BDE8F08300909A491923012297
:103020002046FFF77BFD0028F1D194F83C30012BBE
:10303000EDD02168012384F83C300B68DB075EBFCC
:103040000B6843F001030B600B6823F400630B6013
:10305000222384F83D30102384F83E30002323647B
:10306000A4F82A80638D2385874BE362E36A0A68AC
:10307000C4F8249042F48062082B0A6004D0012B2B
:1030800002D013F5803F04D10B6843F480730B60CA
:1030900002E0236B112BF7D03B46009500224FF046
:1030A00001112046FFF73AFD236838B11B68D805A7
:1030B00044BF4FF4007323640126A9E72269B2F5E7
:1030C000804F27D146F00106F6B21E616F492B46AC
:1030D0003A462046FFF754FD06460028ECD1238DE2
:1030E0002168002B4BD103904B6903938B690393A9
:1030F000039B0B6843F400730B60DFF89881238D0A
:10310000002B64D1202284F83D2084F83C3084F8E0
:103110003E307DE74FEAE61808F0060848F0F00276
:103120001A615B492B463A462046FFF729FD0028E5
:10313000C2D123685549F6B21E613A462B46204655
:10314000FFF71EFD02460028B6D123680790596993
:103150000791996907910799196841F4807119607D
:10316000204600953B464FF00111FFF7D7FC22683F
:1031700008B113689BE748F0F1031361A6E7012B40
:103180000AD10B6823F480630B6004904B690493AD
:103190008B690493049BACE7022B0B680DD123F4DD
:1031A00080630B600B6843F400630B6005904B6910
:1031B00005938B690593059B9FE743F480630B6040
:1031C00006904B6906938B690693069B95E7032B44
:1031D00062D8012B16D12A4639462046FFF757FD03
:1031E00000287FF469AF23681A69636A1A70636AFA
:1031F00001336362238D013B2385638D013B9BB2C9
:1032000063857CE7022B00953B464FF00002414668
:1032100020461AD1FFF782FC00287FF44DAF2368C7
:103220001A6842F400721A601A69636A1A70626A54
:10323000531C6362238D013B2385638D013B9BB24D
:10324000638523681B695370D1E7FFF767FC02466B
:1032500000287FF431AF2368196821F48061196078
:103260001969636A1970636A01336362238D013BD4
:103270002385638D013B9BB26385414600953B46A8
:103280002046C7E7020010000000FFFF0200010017
:1032900008000100040001002A4639462046FFF7D5
:1032A000F6FC00287FF408AF23681A69636A1A7075
:1032B000626A531C6362238D013B2385638D013B4E
:1032C0009BB263852368596949077FF518AFB9E751
:1032D000044B01221A62044B82B01B680193019BCC
:1032E00002B0704700000E4200700040044B002204
:1032F0001A62044B82B01B680193019B02B07047B5
:1033000000000E42007000402DE9F341044640B336
:103310000368DE0710D423689D075BD42368190770
:1033200000F19D8023685A0700F1BD80A369002B3E
:1033300040F0248100202CE08D4B9A6802F00C02B2
:10334000042A07D09A6802F00C02082A0BD15B68A5
:10335000590208D5864B1B689A03DCD56368002B9D
:10336000D9D1012015E06368814DB3F5803F13D1B9
:103370002B6843F480332B60FFF700FA7C4E054640
:1033800033689B03C7D4FFF7F9F9401B6428F7D9CA
:10339000032002B0BDE8F081B3F5A02F04D12B6863
:1033A00043F480232B60E3E72A6822F480322A600A
:1033B0002A6822F480222A60002BDDD1FFF7DEF993
:1033C00006462B689F03A6D5FFF7D8F9801B642813
:1033D000F7D9DDE7664B9A6812F00C0F07D09A68B0
:1033E00002F00C02082A11D15B685D020ED4604A1B
:1033F0001368990702D5E368012BB2D113682169DC
:1034000023F0F80343EAC103136087E7E268594BEE
:10341000B2B101221A60FFF7B1F9554D06462B688B
:103420009B0707D52B68226923F0F80343EAC20300
:103430002B6073E7FFF7A2F9801B0228EFD9A7E7FB
:103440001A60FFF79BF94A4E054633689F077FF5E0
:1034500065AFFFF793F9401B0228F6D998E7626938
:10346000444B82B10122C3F8802EFFF787F9404E0A
:103470000546736F9B073FF555AFFFF77FF9401B7C
:103480000228F6D984E7C3F8802EFFF777F9384E83
:103490000546736F9F077FF545AFFFF76FF9401B38
:1034A0000228F6D974E7324B1A6C12F0805228D1F8
:1034B00001921A6C42F080521A641B6C03F0805324
:1034C0000193019B01272C4D2B68D8051BD5A368C0
:1034D000274D012B27D12B6F43F001032B67FFF7FB
:1034E0004DF9234E054641F28838336F9A0739D596
:1034F000002F3FF41BAF1E4A136C23F0805313645C
:1035000014E70027DFE72B6843F480732B60FFF795
:1035100035F906462B68D905D9D4FFF72FF9801B5A
:103520000228F7D934E7052B04D12B6F43F00403AD
:103530002B67D0E72A6F22F001022A672A6F22F058
:1035400004022A67002BCAD1FFF718F941F2883824
:1035500006462B6F9B07CBD5FFF710F9801B404524
:10356000F7D915E7FFF70AF9401B4045BDD90FE72A
:10357000003802400000474200700040374DAA6802
:1035800002F00C02082A3ED0022B354B4FF000020D
:103590001A662BD1FFF7F2F806462B6899011FD463
:1035A000D4E907321343626A43EA8213E26A43EAC8
:1035B0000263A26A5208013A43EA02436B60284B55
:1035C000264D01221A66FFF7D9F804462B689A01A6
:1035D0003FF5B0AEFFF7D2F8001B0228F6D9D7E6C8
:1035E000FFF7CCF8801B0228D7D9D1E6FFF7C6F841
:1035F00004462B689B017FF59DAEFFF7BFF8001BCB
:103600000228F6D9C4E6012B3FF4ABAE6B68E26941
:1036100003F4800191427FF4A4AE216A03F03F02DB
:103620008A427FF49EAE616A47F6C0721A40B2EBDE
:10363000811F7FF496AEA26A520803F44031013A2A
:10364000B1EB024F7FF48DAEE26A03F07063B3EB2F
:10365000026F14BF012000209BE600BF003802402B
:1036600000004742134908B58B6803F00C03042B94
:103670001CD0082B1CD14A684B68496813F480039E
:1036800014BF0D480D48C1F3881118BF002302F084
:103690003F02A1FB0001FDF789FA064B5B68C3F30B
:1036A000014301335B00B0FBF3F008BD0248FCE7C7
:1036B0000248FAE70038024040787D010024F40017
:1036C0002DE9F0410D46044610B90120BDE8F08116
:1036D000434B1A6802F007028A4228D321688F07F9
:1036E0002DD4C80740D43E4B1A6802F00702AA4204
:1036F00065D8226851076BD4130707D5394A216969
:10370000936823F4604343EAC1039360FFF7AAFF81
:10371000344B354A9B68C3F30313D35CD840334B17
:103720001860334B1868FEF7DFFF0020CEE7CAB2FF
:103730001A701B6803F007038B42C6D1CEE7294BF2
:1037400011F0040F1EBF9A6842F4E0529A600E070F
:1037500042BF9A6842F460429A609A68A06822F078
:10376000F00202439A60BCE762681E4B012A1CD13A
:103770001B6813F4003FA8D01A4EB36823F003036C
:103780001343B360FEF7FAFF41F288380746B36887
:10379000626803F00C03B3EB820FA4D0FEF7EEFFD8
:1037A000C01B4045F3D9032090E7911E01291B68F7
:1037B00002D813F0007FDEE713F0020FDBE7EAB276
:1037C0001A701B6803F00703AB427FF47EAF90E7EB
:1037D0000449E0688B6823F4E05303438B608BE774
:1037E000003C024000380240B46F00080400002092
:1037F0000C000020044B054A9B68C3F38223D35C72
:10380000034A1068D840704700380240AC6F000887
:1038100004000020044B054A9B68C3F34233D35C89
:10382000034A1068D840704700380240AC6F000867
:1038300004000020036A23F001030362036A70B5E9
:10384000446882690D6822F073022A438D6823F070
:1038500002032B430E4DA84202D00E4EB04210D1AF
:10386000CE6823F008033343A84223F0040302D0B8
:10387000084DA84205D1D1E9055624F440743543DA
:103880002C43446082614A684263036270BD00BF9A
:103890000000014000040140036A23F480730362C6
:1038A000036A70B54468C2690D6822F073022A4346
:1038B0008D6823F4007343EA0523114DA84203D019
:1038C00005F58065A84214D1CD6823F4006343EA6E
:1038D00005230B4DA84223F4806303D005F58065D2
:1038E000A84206D1D1E9055624F44054354344EAB0
:1038F00005144460C2614A68C263036270BD00BFC0
:1039000000000140036A23F480530362036A30B568
:103910004468C2690D6822F4E64242EA05228D68D5
:1039200023F4005343EA0533084DA84203D005F5BC
:103930008065A84204D14D6924F4804444EA85148A
:103940004460C2614A680264036230BD0000014005
:10395000704730B5034690F83E0093F83F2093F847
:10396000425093F84340C0B2D2B2EDB2E4B2C1B912
:10397000012845D1012D13D1022283F83E2083F87E
:1039800042201A68116A21F001011162116A41F0A6
:10399000010111621A68136843F0010313600020EB
:1039A00030BD042911D1012A2AD1012C28D10222AB
:1039B00083F83F2083F843201A68116A21F0100130
:1039C0001162116A41F01001E3E7012818D1012AC0
:1039D000E6D1012DE4D1012CE2D1022283F83E2070
:1039E00083F83F2083F8422083F843201A68116A45
:1039F00021F001011162116A41F001011162DCE75D
:103A00000120CDE7082910D004D841B1042909D0FC
:103A1000002070470C29FBD10368186C70470368BD
:103A2000586B70470368986B70470368D86B704792
:103A3000704770477047704703681A69910710B55F
:103A400004460ED5DA6892070BD56FF002021A61B0
:103A5000012202779B699B0777D0FDF7B5FD002314
:103A6000237723681A69500710D5DA6851070DD5F6
:103A70006FF004021A61022222779B6913F4407FDF
:103A8000204668D0FDF7A0FD0023237723681A693C
:103A900012070FD5DA6810070CD56FF008021A610B
:103AA00004222277DB69990720465AD0FDF78CFD66
:103AB0000023237723681A69D20610D5DA68D00666
:103AC0000DD56FF010021A6108222277DB6913F41A
:103AD000407F20464BD0FDF777FD002323772368F6
:103AE0001A69D10708D5DA68D20705D56FF0010247
:103AF0001A612046FFF79CFF23681A69100608D553
:103B0000DA68110605D56FF080021A61204600F0D0
:103B10004AFC23681A69520608D5DA68500605D5AA
:103B20006FF040021A612046FFF785FF23681A698B
:103B3000910622D5DA6892061FD56FF02002204642
:103B40001A61BDE8104000F02DBCFFF772FF20465F
:103B5000FFF770FF83E7FFF76CFF2046FFF76AFF70
:103B600092E7FFF766FF2046FFF764FFA0E7FFF745
:103B700060FF2046FFF75EFFAFE710BD304A0368E5
:103B8000904212D0B0F1804F0FD0A2F57C4290420B
:103B90000BD002F58062904207D002F5806290421D
:103BA00003D002F57842904219D14A6823F070039D
:103BB0001343234A904229D0B0F1804F26D0A2F57A
:103BC0007C42904222D002F5806290421ED002F5E3
:103BD000806290421AD002F57842904216D0194A7B
:103BE000904213D002F5806290420FD002F58062BD
:103BF00090420BD0A2F59832904207D002F5806235
:103C0000904203D002F58062904203D1CA6823F447
:103C1000407313434A6923F08003134303608B68A6
:103C2000C3620B688362064B984203D003F580633E
:103C3000984201D10B69036301234361704700BFC0
:103C4000000001400040014010B5044630B390F838
:103C50003D3003F0FF021BB980F83C20FEF7E2F98B
:103C60000223206884F83D30211DFFF787FF0123E0
:103C700084F84630002084F83E3084F83F3084F8E1
:103C8000403084F8413084F8423084F8433084F87E
:103C9000443084F8453084F83D3010BD0120FCE705
:103CA00010B5044630B390F83D3003F0FF021BB965
:103CB00080F83C20FFF74CFE0223206884F83D305A
:103CC000211DFFF75BFF012384F84630002084F8B4
:103CD0003E3084F83F3084F8403084F8413084F836
:103CE000423084F8433084F8443084F8453084F816
:103CF0003D3010BD0120FCE710B5044630B390F80C
:103D00003D3003F0FF021BB980F83C20FEF754FA67
:103D10000223206884F83D30211DFFF72FFF012387
:103D200084F84630002084F83E3084F83F3084F830
:103D3000403084F8413084F8423084F8433084F8CD
:103D4000443084F8453084F83D3010BD0120FCE754
:103D5000F8B50D46044600284CD090F83D3003F0ED
:103D6000FF021BB980F83C20FEF7B8F92146022378
:103D700084F83D3051F8040B836823F4804323F02A
:103D800007038360FFF7FAFE81682A688369AE69DA
:103D9000076A1143AA6823F4407323F0030342EA3D
:103DA00006221A432B69EE691B0143EA0623EE68DB
:103DB00033432E6A22F47C4222F0FC0243EA0633AB
:103DC00013436E696A68816027F0AA0742EA061207
:103DD000836117430123076284F84630002084F88A
:103DE0003E3084F83F3084F8423084F8433084F821
:103DF0003D30F8BD0120FCE7036A23F010030362A5
:103E0000036A70B5446882690D6822F4E64242EAAA
:103E100005228D6823F0200343EA0513104DA842C4
:103E200003D005F58065A84214D1CD6823F0800346
:103E300043EA05130A4DA84223F0400303D005F5D9
:103E40008065A84206D1D1E9055624F44064354383
:103E500044EA8504446082614A688263036270BDFB
:103E60000000014038B590F83C30012B04464FD09B
:103E70000120082A84F83C003AD006D8BAB1042AB6
:103E800026D0002384F83C3038BD0C2AF9D12068B4
:103E9000FFF738FDC3690A6943F40063C361C3696E
:103EA00023F48063C361C36943EA02232EE02068E0
:103EB000FFF7C0FC83690A6943F0080383618369E3
:103EC00023F0040383618369134383610020D8E7EF
:103ED0002068FFF791FF83690A6943F400638361F7
:103EE000836923F480638361836943EA0223ECE7F7
:103EF0002068FFF7D1FCC3690A6943F00803C36176
:103F0000C36923F00403C361C3691343C361DDE7DD
:103F10000220B9E770B5046A1A4E24F00104046265
:103F2000B0428469056A29D0B0F1804F26D0A6F549
:103F30007C46B04222D006F58066B0421ED006F51F
:103F40008066B0421AD006F57846B04216D006F523
:103F50007056B04212D0A6F59436B0420ED044F05E
:103F600001021B0122F0F002DBB2134301F00A014F
:103F700025F00A0211438361016270BD24F003043D
:103F80002243EEE700000140F8B590F83C30012BE9
:103F900005460C4600F08980012085F83C0092B966
:103FA0002868CB68D1E90012FFF7B4FF8369A268E3
:103FB00023F00C0383618369134383610020002392
:103FC00085F83C30F8BD042A24D12B68186A20F00B
:103FD0001000D1E90027C968186298691E6A20F4A8
:103FE000407040EA0720090320F4704089B21201B2
:103FF000014302F0A00226F0A000024399611A6278
:104000009A69A16822F440629A619A6942EA01229F
:104010009A61D3E7082A22D12B681E6A26F480769B
:10402000D1E90020C9681E62DF691E6A27F0030714
:104030003843090120F0F000C9B21202014302F432
:10404000206226F420600243D9611A62DA69A1680D
:1040500022F00C02DA61DA690A43DA61AEE70C2A6F
:10406000ADD12B68186A20F48050D1E90027C968C7
:104070001862D8691E6A20F4407040EA07200903DC
:1040800020F4704089B21203014302F4204226F466
:1040900020400243D9611A62DA69A16822F44062C1
:1040A000DA61DA6942EA0122D7E702208AE710B52D
:1040B00084680A4324F47F4442EA03222243826054
:1040C00010BD38B590F83C30012B04464FF002008B
:1040D00000F08E8084F83D000122206884F83C20A6
:1040E000836823F47F4323F0770383600B68602B9E
:1040F0004FD032D8402B64D016D8202B0DD00AD800
:1041000033F0100109D0012384F83D30002384F8F6
:104110003C30104638BD302BF5D1826822F0700259
:10412000134343F0070328E0502BECD14A68CD68D5
:10413000016A036A23F001030362836921F00A0123
:1041400023F0F00343EA05130A43836102628368A4
:1041500023F0700343F057030FE0B3F5805F0DD0F9
:10416000B3F5005F0CD0702BCDD1CB68D1E9012124
:10417000FFF79DFF836843F0770383600022C2E767
:10418000CB68D1E90121FFF792FF836843F48043B4
:10419000F3E7036A4D68C96823F01003036282697C
:1041A000036A22F4704223F0A00343EA051342EAB3
:1041B000013282610362836823F0700343F0670376
:1041C000DBE74A68CD68016A036A23F001030362F2
:1041D000836921F00A0123F0F00343EA05130A433F
:1041E00083610262836823F0700343F04703C4E7EE
:1041F00002468EE7036A01F01F0110B501248C40CE
:1042000023EA04030362036A8A401A43026210BD70
:1042100008B539B990F83E30013B18BF012373B19E
:10422000012023E0042902D190F83F30F4E7082967
:1042300002D190F84030EFE790F84130ECE70223EC
:10424000A9B980F83E3000680122FFF7D3FF1F4A6A
:10425000904218D01E4B984215D0B0F1804F19D122
:10426000836803F00703062B2BD1002008BD042927
:1042700002D180F83F30E6E708290CBF80F84030D3
:1042800080F84130DFE7436C904243F400434364DD
:10429000E6D0E2E70F4B9842E2D003F58063984204
:1042A000DED003F580639842DAD003F57843984274
:1042B000D6D003F570539842D2D0A3F594339842E8
:1042C000CED0036843F001030360CEE70000014055
:1042D0000004014000040040FFF79ABF30B590F899
:1042E0003C30012B02464FF0020032D0136882F8B6
:1042F0003D005C680D68986824F070042C435C6095
:10430000144CA3421AD0B3F1804F17D0A4F57C44CB
:10431000A34213D004F58064A3420FD004F5806457
:10432000A3420BD004F57844A34207D004F570549F
:10433000A34203D0A4F59434A34204D1496820F0E9
:104340008000014399600123002082F83D3082F80B
:104350003C0030BD0000014090F83C30012B02468B
:104360001ED0CB68886823F440730343486823F465
:1043700080630343086823F400630343086923F45C
:10438000805303434869C96923F40053034323F46A
:1043900080430B43116800204B6482F83C00704757
:1043A0000220704770477047026802F10C0353E81F
:1043B000003F23F490730C3242E800310268002978
:1043C000F2D102F1140353E8003F23F0010302F19C
:1043D000140C4CE800310029F3D1036B012B0BD1F5
:1043E00002F10C0353E8003F23F0100302F10C0C20
:1043F0004CE800310029F3D1202380F83E3000231F
:10440000036370470268C16838B5136923F44053E9
:104410000B431361054683680069D16803436869EB
:104420000343E86921F4164121F00C0103430B43D7
:10443000D3605369A96923F440730B4353611F4B45
:104440009A4203D003F580639A4224D1FFF7E2F940
:10445000EA691921B2F5004FD5E90043A0FB01013B
:104460001CD1DA184FF0000545EB0503FCF79EFB65
:104470006422B0FBF2F102FB1103DB003233B3FB29
:10448000F2F303F007025B0002EB011203F4F8738E
:104490001344A36038BDFFF7ADF9D9E79A009B0F2D
:1044A000FCF784FB6422B0FBF2F102FB11031B0159
:1044B0003233B3FBF2F303EB0113EAE700100140E0
:1044C000F8B504460E4617461D462268136836EABC
:1044D000030301D1002028E06B1CF7D025B1FEF7C3
:1044E0004DF9C01B8542F0D2226802F10C0353E85B
:1044F000003F23F4D0730C3242E8003021680028DA
:10450000F2D101F1140353E8003F23F0010301F15C
:10451000140040E80032002AF3D1202384F83D3013
:1045200084F83C2084F83E300320F8BD10B50446E2
:1045300040B390F83D3003F0FF021BB980F83C20F7
:10454000FDF7A2FE2268242384F83D30D36823F4CB
:104550000053D3602046FFF755FF23681A6922F401
:1045600090421A615A6922F02A025A61DA6842F4CA
:104570000052DA6000202023206484F83D3084F863
:104580003E3010BD0120FCE72DE9F843984690F835
:104590003D30202B04460E46174648D1002944D012
:1045A000002A42D090F83C30012B40D0012380F803
:1045B0003C3000252123056480F83D30FEF7DEF80D
:1045C000A368A784B3F5805F8146E78403D123699C
:1045D0000BB935461E46002384F83C30E38C9BB271
:1045E00053B943464A4640212046FFF769FF50B978
:1045F000202384F83D3007E043464A468021204688
:10460000FFF75EFF10B10320BDE8F88322684EB9C2
:1046100035F8023BC3F308035360E18C013989B2DA
:10462000E184DBE716F8013BF6E70120ECE7022026
:10463000EAE77047704708B5806B0023C385C384E1
:10464000FFF7F8FF08BD704790F83E30222B07B502
:1046500041D181680268836AB1F5805F3ED101690A
:1046600000293ED15268C2F3080223F8022B83626C
:10467000C38D013B9BB2C385002B2CD10268D1684E
:1046800021F02001D160D16821F48071D16051699D
:1046900021F001015161202280F83E20026B012AA5
:1046A000026828D1036302F10C0353E8003F23F0B2
:1046B000100302F10C0C4CE800310029F3D113680F
:1046C000DB0605D501911368019353680193019BA3
:1046D000818DFFF7B8FF03B05DF804FB39B90169BC
:1046E00029B95268D2B21A70836A0133BFE752689F
:1046F00002F07F02F7E7FCF755FFECE703681A6862
:1047000073B51607D9685D69044608D1960668D561
:104710008D0666D502B0BDE87040FFF795BF05F085
:10472000010001F4907505435BD0D60705D5CD0592
:1047300042BF236C43F001032364530704D518B12F
:10474000236C43F002032364960704D518B1236C4D
:1047500043F004032364150707D501F02003034346
:104760001EBF236C43F008032364236C002B32D05C
:10477000920604D58B0602D52046FFF765FF266812
:104780007369226C03F0400302F0080253EA020549
:10479000204622D0FFF708FE73695E0618D522680E
:1047A00002F1140353E8003F23F04003143242E8BF
:1047B00000310029F3D1A06B50B1724B0365FEF7B5
:1047C0009BF840B1A06B036D02B0BDE87040184784
:1047D0002046FFF72FFF02B070BDFFF72BFF2564C7
:1047E000F9E7206B012840F09180D50640F18E80DA
:1047F000C80640F18B80002201921A6801925A6823
:104800000192019A5A6952064CD5A16B0A68526806
:1048100092B2002ADFD0A08D9042DCD9E285CA692D
:10482000B2F5807F36D003F10C0252E8002F22F45B
:10483000807203F10C0040E800210029F3D103F15C
:10484000140252E8002F22F0010203F1140040E8A4
:1048500000210029F3D103F1140252E8002F22F0C5
:10486000400203F1140040E800210029F3D1202286
:1048700084F83E20216303F10C0252E8002F22F05D
:10488000100203F10C0040E800210029F3D1A06BD5
:10489000FDF7F4FFE38DA18DC91A89B22046FFF719
:1048A000D2FE98E7E28DE08DA18D80B292B2002811
:1048B00091D0891A89B200298DD003F10C0252E8F7
:1048C000002F22F4907203F10C0545E80020002827
:1048D000F3D103F1140252E8002F22F0010203F198
:1048E000140545E800200028F3D1202284F83E205A
:1048F000206303F10C0252E8002F22F0100203F1B2
:104900000C0545E800200028F3D1C7E7160628D596
:104910000D0626D594F83D20212A7FF45CAFA168CE
:10492000226AB1F5805F17D12169A9B932F8021B5B
:10493000C1F3080159602262E28C013A92B2E2842A
:10494000002A7FF448AFDA6822F08002DA60DA6881
:1049500042F04002DA603EE7511C216212785A6050
:10496000EAE750067FF537AF4A067FF534AFDA68DD
:1049700022F04002DA60202384F83D302046FFF721
:1049800058FE28E737460008C28500238285222288
:10499000036480F83E20026980F83C30816203683D
:1049A0001AB1DA6842F48072DA605A6942F00102A0
:1049B0005A61DA6842F02002DA600020704770B471
:1049C00090F83E60202E0DD149B142B190F83C40A4
:1049D000012C07D00024046370BCFFF7D5BF012071
:1049E00070BC70470220FBE7EFF305832BB9064B41
:1049F000186828B901221A6070476FF005007047E7
:104A00004FF0FF30704700BF600E002010B5EFF38D
:104A100005845CB9084B1A68012A0AD1074AD47781
:104A200002221A6000F08EFD204610BD6FF00500D6
:104A3000FBE74FF0FF30F8E7600E002000ED00E0EC
:104A4000F0B587B0144600220B460592EFF30582BD
:104A5000CAB9C0B16CB3A569002D08BF1825691E7D
:104A60003729AC462AD86168C90727D466696EB170
:104A7000B208D4E9027E216857B1BEF1A70F02D96E
:104A8000246904B1E6B9059807B0F0BD8022F0E7CB
:104A9000BEF1000FF7D12469002CF4D105ACCDE9AB
:104AA00000C492B200F020FD01281CBF0023059332
:104AB000E9E721464FF0180C8022EFE71046E3E7C4
:104AC000CDE90147009500F0D7FC0590DBE708B57C
:104AD000EFF3058222B908B100F09CFE002008BD6A
:104AE0006FF00500FBE70000034B0360034B0B6016
:104AF00080231360704700BFB80D0020B80B002062
:104B0000034B0360034B0B604FF4807313607047DB
:104B1000100B00201007002000F108034FF0FF32B7
:104B2000C0E9022343600361002303607047002350
:104B30000361704743684B609A688A60516099606E
:104B40000368086101330360704730B50C68631C6B
:104B50000AD103695A684A6091608B6059600368A2
:104B600008610133036030BD00F10802134652684A
:104B70001568A542FAD9EDE7D0E9011203698A6008
:104B800051605968814208BF5A60002202611A6868
:104B9000013A1A601868704710B5044601F00AFA25
:104BA000A46B01F027FAB4FA84F0400910BD70B587
:104BB0001646026C856B044642B906689EB9806849
:104BC00000F062FFA6600135A56370BD6EB9406854
:104BD00001F0D6FC6368226C1344A26863609342C0
:104BE00024BF236863600020EDE7C06801F0C8FCC3
:104BF000226CE36851429B1A2268E36093423EBFF5
:104C0000A3685B18E360022EEDD10DB1013DEAE728
:104C10002846D8E7034610B41A6C08466AB1DC6827
:104C2000996814448C4228BF1968DC6028BFD96099
:104C3000D9685DF8044B01F0A3BC5DF8044B7047E4
:104C400070B5044601F0B6F994F8455004F1240615
:104C50006DB2002D14DCFF2384F8453001F0CAF951
:104C600001F0A8F994F8445004F110066DB2002D3B
:104C700012DCFF2384F84430BDE8704001F0BAB97B
:104C8000636A002BE7D0304600F060FE08B100F008
:104C9000E5FE013D6DB2DCE72369002BE9D030462B
:104CA00000F054FE08B100F0D9FE013D6DB2DEE720
:104CB00038B50D46044640B94FF0500383F31188D0
:104CC000BFF36F8FBFF34F8FFEE701F073F9D4E9A5
:104CD0000F31226862604B43D0185B1A1A44A060FF
:104CE000FF230020A063E26084F8443084F845305C
:104CF000A5B9236973B104F1100000F027FE48B193
:104D00004FF0E0234FF08052C3F8042DBFF34F8FD4
:104D1000BFF36F8F01F06EF9012038BD04F1100070
:104D2000FFF7FAFE04F12400FFF7F6FEF2E737B5CD
:104D30000D461C4640B94FF0500383F31188BFF372
:104D40006F8FBFF34F8FFEE743B94FF0500383F3EC
:104D50001188BFF36F8FBFF34F8FFEE74AB191B950
:104D60004FF0500383F31188BFF36F8FBFF34F8F62
:104D7000FEE741B14FF0500383F31188BFF36F8F0B
:104D8000BFF34F8FFEE750230193019B502B08D0B8
:104D90004FF0500383F31188BFF36F8FBFF34F8F32
:104DA000FEE70121002D08BF2246C4E90F0584F863
:104DB000461022602046019BFFF77AFF9DF81830CD
:104DC00084F84C30204603B030BD2DE9FF410F463A
:104DD00001921E46044640B94FF0500383F31188F8
:104DE000BFF36F8FBFF34F8FFEE751B9036C43B131
:104DF0004FF0500383F31188BFF36F8FBFF34F8FD2
:104E0000FEE7022E0BD1E36B012B08D04FF05003CD
:104E100083F31188BFF36F8FBFF34F8FFEE700F06E
:104E200023FE054630B300254FF0000801F0C2F81C
:104E3000A26BE36B9A4201D3022E27D13246394648
:104E40002046FFF7B4FE636A1BB104F1240000F0B2
:104E50007DFD48B14FF0E0234FF08052C3F8042DA0
:104E6000BFF34F8FBFF36F8F01F0C4F8012004B080
:104E7000BDE8F081019B002BD6D04FF0500383F3A7
:104E80001188BFF36F8FBFF34F8FFEE7019B1BB9F4
:104E900001F0B0F80020EAE715B902A800F096FD8D
:104EA00001F0A8F800F09EFB01F084F894F844307B
:104EB000FF2B08BF84F8448094F84530FF2B08BFCF
:104EC00084F8458001F096F801A902A800F08AFD57
:104ED00038BB01F06FF8A26BE36B9A420ED101F080
:104EE00089F8019904F1100000F0F8FC2046FFF762
:104EF000A7FE00F01BFC48B1012597E701F07AF806
:104F00002046FFF79DFE00F011FCF5E74FF0E0238F
:104F10004FF08052C3F8042DBFF34F8FBFF36F8F54
:104F2000EAE72046FFF78CFE00F000FCB2E72DE92F
:104F3000F843894617461E46044640B94FF05003D1
:104F400083F31188BFF36F8FBFF34F8FFEE751B923
:104F5000036C43B14FF0500383F31188BFF36F8F9D
:104F6000BFF34F8FFEE7022E0BD1E36B012B08D06E
:104F70004FF0500383F31188BFF36F8FBFF34F8F50
:104F8000FEE701F029F9EFF311884FF0500383F3A6
:104F90001188BFF36F8FBFF34F8FA26BE36B9A4201
:104FA00001D3022E1ED194F84550A36B6DB2324648
:104FB00049462046FFF7FBFD6B1C0ED1636A3BB1EF
:104FC00004F1240000F0C2FC10B10FB101233B60DA
:104FD000012088F31188BDE8F88301356DB284F8AB
:104FE0004550F5E70020F4E72DE9FF410E46019218
:104FF000044640B94FF0500383F31188BFF36F8F1D
:10500000BFF34F8FFEE751B9036C43B14FF050032C
:1050100083F31188BFF36F8FBFF34F8FFEE700F06C
:1050200023FD054618B300254FF0000800F0C2FF2D
:10503000A76B47B331462046013FFFF7EBFDA7635F
:10504000236973B104F1100000F080FC48B14FF007
:10505000E0234FF08052C3F8042DBFF34F8FBFF30E
:105060006F8F00F0C7FF012004B0BDE8F081019B05
:10507000002BD9D04FF0500383F31188BFF36F8F0B
:10508000BFF34F8FFEE7019B1BB900F0B3FF002079
:10509000EAE715B902A800F099FC00F0ABFF00F0B8
:1050A000A1FA00F087FF94F84430FF2B08BF84F882
:1050B000448094F84530FF2B08BF84F8458000F009
:1050C00099FF01A902A800F08DFC00BB2046FFF764
:1050D00063FDB0B1019904F1240000F0FFFB20460C
:1050E000FFF7AEFD00F022FB48B94FF0E0234FF090
:1050F0008052C3F8042DBFF34F8FBFF36F8F01258C
:1051000094E72046FFF79CFD00F010FBF7E72046F0
:10511000FFF796FD00F00AFB2046FFF73DFD002853
:10512000EDD0B4E730B5074A002352F8335002EB14
:10513000C3041DB942F83310606030BD0133082B41
:10514000F3D1FAE7640E002070B504460D4616460A
:1051500000F030FF94F84430FF2B04BF002384F8A4
:10516000443094F84530FF2B04BF002384F84530C9
:1051700000F040FFA36B2BB93246294604F124000E
:1051800000F0C6FB2046BDE87040FFF759BD0000A7
:105190002DE9F041044600F00DFF304B304E1A6807
:1051A000304F01321A603568002D4BD134601B68D6
:1051B000012B1FD1B84640460135FFF7ADFC382D15
:1051C00008F11408F7D1DFF8C480274D4046FFF7F7
:1051D000A3FC2846FFF7A0FC2448FFF79DFC2448C9
:1051E000FFF79AFC2348FFF797FC234BC3F8008096
:1051F000224B1D60224A136801331360214A636405
:105200001168E36A14208B4200FB037004F104016F
:1052100088BF1360FFF78EFC00F0ECFE1A4B1B6892
:1052200073B13368DA6AE36A9A4209D24FF0E02335
:105230004FF08052C3F8042DBFF34F8FBFF36F8F31
:10524000BDE8F081104B1A68E36A002AD2D13268B7
:10525000D26A9A4298BF3460CCE700BFC80E0020E3
:105260009C1300203C0F0020140F0020F80E00209B
:10527000E40E0020CC0E0020100F00200C0F0020A8
:10528000AC0E0020C00E0020BC0E0020280F002015
:10529000F8B5154B154D1C680646286804300F46B6
:1052A000FFF76AFC731C07D137B129681048BDE8C5
:1052B000F8400431FFF73EBC2B68A4195C6007D3AB
:1052C0000C4B18682968BDE8F8400431FFF73DBC75
:1052D000094B186829680431FFF737FC074B1A6837
:1052E000A24288BF1C60F8BDC40E00209C130020A1
:1052F000CC0E00200C0F0020100F0020A80E002064
:10530000064A13681968064B19B94FF0FF321A6044
:1053100070471268D268D2685268F8E7100F002010
:10532000A80E002010B50446543001F0A7F894F8F8
:10533000A5303BB9206B01F03BF82046BDE810409A
:1053400001F036B8012BF8D0022B08D04FF05003F3
:1053500083F31188BFF36F8FBFF34F8FFEE710BD4C
:1053600080B5134C134F144D236873B9134B1B684E
:10537000012BF8D94FF0E0234FF08052C3F8042DF1
:10538000BFF34F8FBFF36F8FEDE700F013FEFB68A5
:10539000DE68301DFFF7F0FB2B68013B2B602368B4
:1053A000013B236000F026FE3046FFF7BBFFDBE742
:1053B000E00E0020E40E0020C80E00203C0F00206C
:1053C0002DE9F047DDE909949600324607460D467F
:1053D000206BA521984601F049F8236B043E1E443A
:1053E00026F00706002D41D06B1E04F133020F3565
:1053F00013F8011F02F8011F09B1AB42F8D10023D5
:1054000084F84330089D372D28BF37254FF0000A18
:10541000E562E564201DC4F850A0FFF788FBC5F1E4
:10542000380504F11800FFF782FBC4F8A0A04C2255
:1054300051462461A561646284F8A4A004F154007B
:1054400001F014F80B4BA36503F16802D033E26559
:10545000236642463946304600F07EFD2060B9F1B1
:10546000000F01D0C9F80040BDE8F08784F834503F
:10547000C8E700BFF450002070B586B0DDE90B54DA
:1054800045B94FF0500383F31188BFF36F8FBFF31B
:105490004F8FFEE744B94FF0500383F31188BFF3F9
:1054A0006F8FBFF34F8FFEE7A8260596059EA82EA7
:1054B00008D04FF0500383F31188BFF36F8FBFF311
:1054C0004F8FFEE72563022584F8A55004AD0195B2
:1054D0000A9D02940095059EFFF772FF2046FFF794
:1054E00057FE049806B070BD2DE9F043074685B01D
:1054F000900088461646994600F0C2FE054620B93F
:105500004FF0FF3005B0BDE8F083A82000F0B8FEF2
:10551000044698B1002380F8A5300D9B05630193E4
:105520000C9B0290009332464B4641463846FFF7AB
:1055300047FF2046FFF72CFE0120E3E7284600F056
:1055400037FFDDE710B588B0002407AA06A905A833
:10555000CDE90544FFF7C8FA059B0293069B079A1D
:1055600019491A48CDE900432346FFF785FF40B3A8
:1055700000F01EFB012819D14FF0500383F311886E
:10558000BFF36F8FBFF34F8F114B124A1B68543319
:105590001360114B4FF0FF321A60104B1860104B24
:1055A0001C6008B0BDE8104000F094BD013008D187
:1055B0004FF0500383F31188BFF36F8FBFF34F8F0A
:1055C000FEE708B010BD00BF287A0008615300084C
:1055D0009C13002014000020A80E0020BC0E002008
:1055E000C40E0020024A136801331360704700BFE5
:1055F000A40E0020014B1868704700BFC40E0020A5
:105600003F4B1B682DE9F74F002B72D13D4B1C68B7
:1056100001341C60BCB93C4B1A68126842B14FF0AF
:10562000500383F31188BFF36F8FBFF34F8FFEE7F3
:10563000364A1968106818601160354A13680133DA
:105640001360FFF75DFE334D334E2B68334F9C42A2
:105650004FF0000B12D23A68D26A14214A43B25872
:10566000022A2F4A126828BF4FF0010B002A18BFE8
:105670004FF0010B584603B0BDE8F08FDFF888907B
:10568000DFF8A4A0D9F8002012681AB94FF0FF3251
:105690002A60E0E7D9F80020D268D2F80C80D8F868
:1056A00004108C4201D22960D5E708F104031846A2
:1056B0000193FFF761FAD8F8281019B108F1180022
:1056C000FFF75AFAD8F82C00DAF8001014238842B1
:1056D00088BFCAF80000019903FB0060FFF72AFAAF
:1056E0003868D8F82C10C26A914228BF4FF0010BDD
:1056F000C8E70C4A1368013313604FF0000BB9E799
:10570000A40E0020C40E0020100F00200C0F00205B
:10571000B00E0020A80E00203C0F00209C1300209B
:10572000B40E0020B80E0020C00E00202DE9F0417C
:10573000304C236843B94FF0500383F31188BFF313
:105740006F8FBFF34F8FFEE700F034FC2368013BFF
:10575000236024682CB1002400F04CFC2046BDE8F6
:10576000F081254B1B68002BF5D0244D244EDFF82B
:10577000A0801DE0EB68DC68271D04F11800FFF72E
:10578000FBF93846FFF7F8F9E36A326814209342D0
:1057900000FB0380394688BF3360FFF7CBF9194B14
:1057A000E26A1B68DB6A9A4202D3174B01221A6035
:1057B0002B68002BDED10CB1FFF7A2FD134D2C6836
:1057C00044B1114E0127FFF71BFF00B13760013CC8
:1057D000F9D12C600C4B1B68002BBCD04FF0E023A0
:1057E0004FF08052C3F8042DBFF34F8FBFF36F8F7C
:1057F0000124B1E7A40E0020C80E0020F80E0020FE
:10580000C00E00209C130020B40E0020B80E002013
:105810003C0F002008B550B94FF0E0234FF0805204
:10582000C3F8042DBFF34F8FBFF36F8F08BD0A4B32
:10583000196841B14FF0500383F31188BFF36F8FA4
:10584000BFF34F8FFEE7FFF7CDFEFFF721FDFFF718
:105850006DFF0028E0D0E9E7A40E0020194B1A687C
:10586000194B70B512B101221A6070BD174D1A6044
:105870002A681749142606FB02F3C818CC58ACB1A5
:1058800044680833646844600B449C4204BF636806
:105890004360142303FB02114B68D9680D4B196058
:1058A0002A601B680C4A54331360DEE742B94FF09C
:1058B000500383F31188BFF36F8FBFF34F8FFEE761
:1058C000013AD8E7A40E0020B40E0020C00E00203C
:1058D0003C0F00209C1300201400002010B50C4643
:1058E00040B94FF0500383F31188BFF36F8FBFF3BC
:1058F0004F8FFEE7054B19681831FFF726F9204650
:105900000121BDE81040FFF7C3BC00BF9C1300207D
:1059100038B50D46144640B94FF0500383F3118853
:10592000BFF36F8FBFF34F8FFEE7074B1968183136
:10593000FFF700F9002C21460CBF28464FF0FF303E
:10594000BDE83840FFF7A4BC9C13002038B5C368FD
:10595000DC6844B94FF0500383F31188BFF36F8FB5
:10596000BFF34F8FFEE704F118052846FFF704F94F
:10597000104B1B68DBB9251D2846FFF7FDF80E4AC2
:10598000E36A11688B4288BF13600C4A14202946D1
:1059900000FB0320FFF7CEF8094BE26A1B68DB6AC5
:1059A0009A4283BF074B01201860002038BD06488B
:1059B0002946EFE7A40E0020C00E00203C0F002077
:1059C0009C130020B40E0020F80E0020034B1B682F
:1059D0000360034B1B684360704700BFB00E00209C
:1059E000C40E002070B50C46054640B94FF0500378
:1059F00083F31188BFF36F8FBFF34F8FFEE741B979
:105A00004FF0500383F31188BFF36F8FBFF34F8FB5
:105A1000FEE700F0CFFA0F4B196823685A1C10D02C
:105A20000D482E6800686A68864201D08A420FD904
:105A3000881A83420AD95B1A134423602846FFF769
:105A4000C5FF002400F0D6FA204670BD0023236075
:105A50000124F7E7C40E0020B00E0020014B012204
:105A60001A607047B40E0020054B1B6833B1054B1C
:105A70001868B0FA80F04009400070470120704774
:105A8000BC0E0020A40E002038B508B9002038BD97
:105A90001B4B1C68844208D04FF0500383F31188DD
:105AA000BFF36F8FBFF34F8FFEE7236D43B94FF006
:105AB000500383F31188BFF36F8FBFF34F8FFEE75F
:105AC000E16AE26C013B91422365DFD0002BDDD11E
:105AD000251D2846FFF750F8E36CE362C3F1380256
