:020000040800F2
:1000000000000220811C00088D1B00088F1B0008C7
:10001000911B0008931B0008951B000800000000BE
:100020000000000000000000000000002155000852
:10003000971B000800000000B1550008991B00083C
:10004000D11C0008D11C0008D11C0008D11C0008DC
:10005000D11C0008D11C0008D11C0008D11C0008CC
:10006000D11C0008D11C0008D11C0008D11C0008BC
:10007000D11C0008D11C0008D11C0008D11C0008AC
:10008000D11C0008D11C0008D11C0008D11C00089C
:10009000D11C0008D11C0008D11C0008D11C00088C
:1000A000D11C0008D11C0008D11C0008D11C00087C
:1000B000D11C0008D11C0008D11C0008D11C00086C
:1000C000D11C0008D11C0008D11C0008D11C00085C
:1000D000D11C0008D11C0008D11C0008B11B00086D
:1000E000D11C0008D11C0008D11C0008D11C00083C
:1000F000D11C0008D11C0008D11C0008D11C00082C
:10010000D11C0008D11C0008D11C0008D11C00081B
:10011000D11C0008D11C0008D11C0008D11C00080B
:10012000D11C0008D11C0008D11C0008D11C0008FB
:10013000D11C0008D11C0008D11C0008D11C0008EB
:10014000D11C0008D11C0008D11C0008D11C0008DB
:10015000D11C0008D11C0008D11C0008D11C0008CB
:10016000D11C0008D11C0008D11C0008D11C0008BB
:10017000D11C0008D11C0008D11C000800000000A0
:08018000D11C0008D11C00088D
:1001900010B5054C237833B9044B13B10448AFF3C1
:1001A00000800123237010BDE0010020000000004A
:1001B000DC83000808B5034B1BB103490348AFF3C8
:1001C000008008BD00000000E4010020DC8300087E
:1001D00001F0FF01102A2BDB10F0070F08D010F8F8
:1001E000013B013A8B422DD010F0070F42B3F6D1FC
:1001F000F0B441EA012141EA014122F007047FF015
:1002000000070023F0E80256083C85EA010586EA6B
:10021000010685FA47F5A3FA87F586FA47F6A5FAA7
:1002200087F68EB9EED1F0BC01F0FF0102F00702B3
:1002300032B110F8013B013A83EA010313B1F8D15E
:100240000020704701387047002D06BF354603383F
:10025000073815F0010F07D1013015F4807F02BF78
:10026000013015F4C03F0130F0BC0138704700BFC9
:10027000034613F8012B002AFBD1181A01387047E6
:1002800081F0004102E000BF83F0004330B54FEA47
:1002900041044FEA430594EA050F08BF90EA020FB4
:1002A0001FBF54EA000C55EA020C7FEA645C7FEA47
:1002B000655C00F0E2804FEA5454D4EB5555B8BF6A
:1002C0006D420CDD2C4480EA020281EA030382EADB
:1002D000000083EA010180EA020281EA0303362D6D
:1002E00088BF30BD11F0004F4FEA01314FF4801C40
:1002F0004CEA113102D0404261EB410113F0004F52
:100300004FEA03334CEA133302D0524263EB430308
:1003100094EA050F00F0A780A4F10104D5F1200EA6
:100320000DDB02FA0EFC22FA05F2801841F1000101
:1003300003FA0EF2801843FA05F359410EE0A5F1D5
:1003400020050EF1200E012A03FA0EFC28BF4CF006
:10035000020C43FA05F3C01851EBE37101F00045BC
:1003600007D54FF0000EDCF1000C7EEB00006EEBC9
:100370000101B1F5801F1BD3B1F5001F0CD3490853
:100380005FEA30004FEA3C0C04F101044FEA4452AA
:1003900012F5800F80F09A80BCF1004F08BF5FEA31
:1003A000500C50F1000041EB045141EA050130BD11
:1003B0005FEA4C0C404141EB0101013C28BFB1F523
:1003C000801FE9D291F0000F04BF01460020B1FA6E
:1003D00081F308BF2033A3F10B03B3F120020CDA41
:1003E0000C3208DD02F1140CC2F10C0201FA0CF01F
:1003F00021FA02F10CE002F11402D8BFC2F1200C84
:1004000001FA02F120FA0CFCDCBF41EA0C01904039
:10041000E41AA2BF01EB0451294330BD6FEA040482
:100420001F3C1CDA0C340EDC04F11404C4F120026D
:1004300020FA04F001FA02F340EA030021FA04F37F
:1004400045EA030130BDC4F10C04C4F1200220FAD6
:1004500002F001FA04F340EA0300294630BD21FA14
:1004600004F0294630BD94F0000F83F4801306BFDA
:1004700081F480110134013D4EE77FEA645C18BFCE
:100480007FEA655C29D094EA050F08BF90EA020F65
:1004900005D054EA000C04BF1946104630BD91EA5D
:1004A000030F1EBF0021002030BD5FEA545C05D160
:1004B0004000494128BF41F0004130BD14F580049F
:1004C0003CBF01F5801130BD01F0004545F0FE4113
:1004D00041F470014FF0000030BD7FEA645C1ABF48
:1004E000194610467FEA655C1CBF0B46024650EA7F
:1004F000013406BF52EA033591EA030F41F40021AB
:1005000030BD00BF90F0000F04BF0021704730B530
:100510004FF4806404F132044FF000054FF0000105
:1005200050E700BF90F0000F04BF0021704730B5C6
:100530004FF4806404F1320410F0004548BF40429B
:100540004FF000013EE700BF42004FEAE2014FEAF0
:1005500031014FEA02701FBF12F07F4393F07F4FCB
:1005600081F06051704732F07F4208BF704793F0CE
:100570007F4F04BF41F40021704730B54FF46074E1
:1005800001F0004521F000411CE700BF50EA0102E4
:1005900008BF704730B54FF000050AE050EA01028D
:1005A00008BF704730B511F0004502D5404261EBFD
:1005B00041014FF4806404F132045FEA915C3FF43E
:1005C000D8AE4FF003025FEADC0C18BF03325FEADB
:1005D000DC0C18BF033202EBDC02C2F1200300FA8C
:1005E00003FC20FA02F001FA03FE40EA0E0021FAB1
:1005F00002F11444BDE600BF70B54FF0FF0C4CF49F
:10060000E06C1CEA11541DBF1CEA135594EA0C0F50
:1006100095EA0C0F00F0DEF82C4481EA030621EA8B
:100620004C5123EA4C5350EA013518BF52EA0335C6
:1006300041F4801143F4801338D0A0FB02CE4FF078
:100640000005E1FB02E506F00042E0FB03E54FF0A8
:100650000006E1FB03569CF0000F18BF4EF0010EA0
:10066000A4F1FF04B6F5007F64F5407404D25FEA9C
:100670004E0E6D4146EB060642EAC62141EA55514F
:100680004FEAC52040EA5E504FEACE2EB4F1FD0C91
:1006900088BFBCF5E06F1ED8BEF1004F08BF5FEA0F
:1006A000500E50F1000041EB045170BD06F00046C1
:1006B00046EA010140EA020081EA0301B4EB5C046E
:1006C000C2BFD4EB0C0541EA045170BD41F4801166
:1006D0004FF0000E013C00F3AB8014F1360FDEBF8B
:1006E000002001F0004170BDC4F10004203C35DA67
:1006F0000C341BDC04F11404C4F1200500FA05F3EA
:1007000020FA04F001FA05F240EA020001F000428A
:1007100021F0004110EBD37021FA04F642EB060100
:100720005EEA430E08BF20EAD37070BDC4F10C042A
:10073000C4F1200500FA04F320FA05F001FA04F2EE
:1007400040EA020001F0004110EBD37041F10001DA
:100750005EEA430E08BF20EAD37070BDC4F12005E5
:1007600000FA05F24EEA020E20FA04F301FA05F24D
:1007700043EA020321FA04F001F0004121FA04F2F5
:1007800020EA020000EBD3705EEA430E08BF20EAC5
:10079000D37070BD94F0000F0FD101F000464000FF
:1007A00041EB010111F4801F08BF013CF7D041EA81
:1007B000060195F0000F18BF704703F00046520085
:1007C00043EB030313F4801F08BF013DF7D043EA56
:1007D0000603704794EA0C0F0CEA135518BF95EA0C
:1007E0000C0F0CD050EA410618BF52EA4306D1D193
:1007F00081EA030101F000414FF0000070BD50EAB2
:10080000410606BF1046194652EA430619D094EA3B
:100810000C0F02D150EA013613D195EA0C0F05D125
:1008200052EA03361CBF104619460AD181EA030179
:1008300001F0004141F0FE4141F470014FF0000031
:1008400070BD41F0FE4141F4780170BD70B54FF0CC
:10085000FF0C4CF4E06C1CEA11541DBF1CEA13554C
:1008600094EA0C0F95EA0C0F00F0A7F8A4EB05042E
:1008700081EA030E52EA03354FEA013100F0888025
:100880004FEA03334FF0805545EA131343EA1263EE
:100890004FEA022245EA111545EA10654FEA0026A3
:1008A0000EF000419D4208BF964244F1FD0404F55C
:1008B000407402D25B084FEA3202B61A65EB0305B8
:1008C0005B084FEA32024FF480104FF4002CB6EB75
:1008D000020E75EB030E22BFB61A754640EA0C00F5
:1008E0005B084FEA3202B6EB020E75EB030E22BF35
:1008F000B61A754640EA5C005B084FEA3202B6EB76
:10090000020E75EB030E22BFB61A754640EA9C0034
:100910005B084FEA3202B6EB020E75EB030E22BF04
:10092000B61A754640EADC0055EA060E18D04FEAC2
:10093000051545EA16754FEA06164FEAC30343EA62
:1009400052734FEAC2025FEA1C1CC0D111F4801F2F
:100950000BD141EA00014FF000004FF0004CB6E728
:1009600011F4801F04BF01430020B4F1FD0C88BFC7
:10097000BCF5E06F3FF6AFAEB5EB030C04BFB6EBD2
:10098000020C5FEA500C50F1000041EB045170BDC5
:100990000EF0004E4EEA113114EB5C04C2BFD4EBF2
:1009A0000C0541EA045170BD41F480114FF0000E76
:1009B000013C90E645EA060E8DE60CEA135594EAF2
:1009C0000C0F08BF95EA0C0F3FF43BAF94EA0C0FF5
:1009D0000AD150EA01347FF434AF95EA0C0F7FF46A
:1009E00025AF104619462CE795EA0C0F06D152EABE
:1009F00003353FF4FDAE1046194622E750EA4106A2
:100A000018BF52EA43067FF4C5AE50EA41047FF4B2
:100A10000DAF52EA43057FF4EBAE12E74FF0FF3C17
:100A200006E000BF4FF0010C02E000BF4FF0010CE8
:100A30004DF804CD4FEA410C7FEA6C5C4FEA430C61
:100A400018BF7FEA6C5C1BD001B050EA410C0CBFB0
:100A500052EA430C91EA030F02BF90EA020F002012
:100A6000704710F1000F91EA030F58BF994208BF79
:100A700090422CBFD8176FEAE37040F00100704736
:100A80004FEA410C7FEA6C5C02D150EA013C07D18D
:100A90004FEA430C7FEA6C5CD6D152EA033CD3D0D8
:100AA0005DF8040B704700BF8446104662468C46D2
:100AB0001946634600E000BF01B5FFF7B7FF002805
:100AC00048BF10F1000F01BD4DF808EDFFF7F4FF2E
:100AD0000CBF012000205DF808FB00BF4DF808EDB9
:100AE000FFF7EAFF34BF012000205DF808FB00BFDC
:100AF0004DF808EDFFF7E0FF94BF012000205DF8FE
:100B000008FB00BF4DF808EDFFF7CEFF94BF0120B2
:100B100000205DF808FB00BF4DF808EDFFF7C4FFAB
:100B200034BF012000205DF808FB00BF4FEA410CF4
:100B30007FEA6C5C02D150EA013C0AD14FEA430CD7
:100B40007FEA6C5C02D152EA033C02D14FF0000014
:100B500070474FF0010070474FEA410212F5001252
:100B600015D211D56FF47873B3EB625212D94FEAF4
:100B7000C12343F0004343EA505311F0004F23FADE
:100B800002F018BF404270474FF00000704750EA33
:100B9000013005D111F0004008BF6FF000407047F0
:100BA0004FF00000704700BF53B94AB9002908BF91
:100BB00000281CBF4FF0FF314FF0FF3000F070B93C
:100BC000ADF1080C6DE904CE00F006F8DDF804E0A4
:100BD000DDE9022304B070472DE9F047089E0D4679
:100BE00004460F46002B4AD18A42944665D9B2FA90
:100BF00082F343B102FA03FCC3F120029F4020FAC2
:100C000002F217439C404FEA1C4E1FFA8CF5B7FBCB
:100C1000FEF1220C0EFB117742EA074201FB05F0C0
:100C200090420AD91CEB020201F1FF3780F01C81CF
:100C3000904240F2198102396244121AA4B2B2FB06
:100C4000FEF00EFB102244EA024400FB05F5A5422B
:100C50000AD91CEB040400F1FF3280F00781A542A1
:100C600040F204816444023840EA0140641B0021E0
:100C70001EB1DC400023C6E90043BDE8F0878B428B
:100C800008D9002E00F0ED800021C6E900050846D5
:100C9000BDE8F087B3FA83F1002949D1AB4202D312
:100CA000824200F2F880841A65EB030201201746A5
:100CB000002EE2D0C6E90047DFE702B9FFDEB2FA54
:100CC00082F3002B40F090808A1A4FEA1C471FFAEB
:100CD0008CFE0121B2FBF7F507FB1520220C42EA3E
:100CE00000420EFB05F0904208D91CEB020205F110
:100CF000FF3802D2904200F2CB804546121AA4B2CD
:100D0000B2FBF7F007FB102244EA02440EFB00FEA0
:100D1000A64508D91CEB040400F1FF3202D2A64517
:100D200000F2BB801046A4EB0E0440EA05409FE7AA
:100D3000C1F120078B4022FA07FC4CEA030C05FAAC
:100D400001F420FA07F3FD404FEA1C492343B5FBA9
:100D5000F9F81FFA8CFE09FB18551C0C44EA0544EF
:100D600008FB0EF5A54202FA01F200FA01F00BD9D8
:100D70001CEB040408F1FF3A80F08880A54240F2A1
:100D80008580A8F102086444641B9DB2B4FBF9F3AA
:100D900009FB134445EA044403FB0EFEA64508D9AB
:100DA0001CEB040403F1FF356CD2A6456AD9023B63
:100DB000644443EA0843A3FB0295A4EB0E04AC424F
:100DC000C846AE4656D353D056B1B0EB080264EBDA
:100DD0000E0404FA07F7CA40CC401743C6E9007472
:100DE00018460021BDE8F087C3F1200102FA03FC98
:100DF00020FA01F225FA01F19D402A434FEA1C47EF
:100E00001FFA8CFEB1FBF7F007FB1015110C41EA3D
:100E1000054100FB0EF58D4204FA03F408D91CEBE2
:100E2000010100F1FF382FD28D422DD902386144E3
:100E3000491B92B2B1FBF7F507FB151142EA0142DB
:100E400005FB0EF1914208D91CEB020205F1FF38B7
:100E500016D2914214D9023D6244521A45EA004129
:100E600038E73146304608E73946E6E61046FBE605
:100E70004845A9D2B9EB020865EB0C0E013BA3E78C
:100E80004546EAE72B4694E74046D1E7D0467BE764
:100E9000023D624432E708460AE76444023842E70A
:100EA000704700BF07B541230F4D104C8DF8073038
:100EB00001220DF107014FF6FF73284602F043FEB1
:100EC0009DF80730592B9ABF0133DBB241232046EE
:100ED0004FF480618DF8073001F065FA41F28830F7
:100EE00003F0CDF8E4E700BFC0030020001002408B
:100EF0007FB5124B01AC03F1080226461868596809
:100F0000254603C5083393422C46F7D118681B7950
:100F10002B710B4C28600023CDF81130059321462E
:100F2000304605F03AFB0A210846324600F098FFA9
:100F300000F0FEFE012003F0A2F8F0E7F8830008BD
:100F40000002002010B5074C0021204602F0A8FC4A
:100F50000421204602F0A4FCBDE8104002480C2108
:100F600002F09EBC78030020A002002070B53C2156
:100F70000E480E4E0E4D02F07BF901F063F8044668
:100F800001F060F8001B0A28FAD931682B684A6A18
:100F9000B2F5FA4FC6BFC2F580329B1A9B182B6080
:100FA00000234B6201F04EF80446E9E7E802002016
:100FB0000804002070B53C210E480E4E0E4D02F084
:100FC00057F901F03FF8044601F03CF8001B0A28ED
:100FD000FAD931682B684A6AB2F5FA4FC6BFC2F532
:100FE00080329B189B1A2B6000234B6201F02AF879
:100FF0000446E9E7300300202004002000B595B046
:101000002C22002109A805F048FA1422002103A887
:1010100005F043FA0023194A0193116C41F0805105
:101020001164126C02F080520192019A144A0293E8
:10103000116841F48041116012680E9302F48042FD
:101040000292029A0222089201201022CDE90B029C
:1010500008A801F0EBFD014608B172B6FEE70F23C8
:10106000CDE90330CDE90500079003A801F0B8FFF2
:1010700008B172B6FEE715B05DF804FB0038024017
:101080000070004000B59BB000F0B6FFFFF7B6FF60
:101090001422002111A805F000FA0024A24B0094AC
:1010A0001A6BA248A24D42F010021A631A6B02F0AA
:1010B00010020092009A01941A6B42F001021A6326
:1010C0001A6B02F001020192019A02941A6B42F02B
:1010D00004021A631A6B02F004020292029A039449
:1010E0001A6B42F002021A631B6B03F002030393B4
:1010F00022464FF4BC61039B01F050F98D48224613
:101100003C2101F04BF922468B484FF4806101F0FD
:1011100045F901264FF4BC63844811A9CDE9113685
:10112000CDE9134401F060F84FF48063824811A9BF
:10113000CDE91136CDE9134401F056F83C23CDE951
:1011400011367C481394022311A9149301F04CF832
:1011500021461C2212A805F0A0F94FF08043C5E9F2
:1011600000344FF6FF73C5E903340323119311A92B
:101170000A232846CDE90A44AC60AC611396159366
:101180001796199302F092F908B172B6FEE7CDE90D
:101190000A000AA9284602F085FB054608B172B686
:1011A000FEE70146102206A805F077F91C22294621
:1011B0000AA8CDE9045505F070F92022294611A8A6
:1011C00005F06BF95D4C5E4BA560C4E90035204627
:1011D00041F61F43C4E90335C4E9055502F00EF991
:1011E00008B172B6FEE74FF4805306A92046069375
:1011F00002F049FA08B172B6FEE7204602F02AF979
:1012000008B172B6FEE7CDE9040004A9204602F059
:1012100049FB024608B172B6FEE76023CDE90A3009
:10122000CDE90C00CDE90E0010900AA9204602F08D
:10123000C7F908B172B6FEE704220AA9204602F0F7
:10124000BFF908B172B6FEE7CDE91100CDE9130090
:1012500015904FF40053189011A92046169302F0F0
:101260005FFB054608B172B6FEE7204600F008FCB9
:101270003448DFF8DCC005614FF4E133C0E900C356
:101280000C23C0E90255C0E90535C56102F02CFC0C
:1012900008B172B6FEE700251C2229460AA82A4C8E
:1012A0002A4ECDE9065505F0F8F82022294611A866
:1012B00005F0F3F8A023C4E9006320464FF47A73E5
:1012C000C4E90335C4E90555A56002F0C3F808B1C7
:1012D00072B6FEE7CDE9060006A9204602F0E2FA62
:1012E00008B172B6FEE76023CDE90A30CDE90E0001
:1012F0000C9010900C220AA9204602F061F908B166
:1013000072B6FEE7CDE91100CDE9130015904FF458
:101310000053189011A92046169302F001FB0546D0
:10132000C0B172B6FEE700BF0038024000100240B4
:10133000E802002000000240000402407803002080
:1013400000040140C0030020A00200200000014072
:1013500000480040204600F093FB29461C2212A8BA
:1013600005F09BF83A4C3B4BA560C4E900354FF6BD
:10137000FF73C4E903350323CDE90A55A561119331
:101380000A25012311A92046139315951793199542
:1013900002F08CF808B172B6FEE7CDE90A000AA99E
:1013A000204602F07FFA08B172B6FEE72A4B2B49BD
:1013B0002B4A1862C3E900124FF48042C3E90200CD
:1013C000C3E90420C3E90600184601F019F90446F0
:1013D00008B172B6FEE700F063FD224922482A46B2
:1013E00002F0C9FD02F0D8FD204A2148214602F052
:1013F000FFFD204B204A18602146204802F0F8FDEE
:101400001F4B204A186021461F4802F0F1FD1F4B78
:101410001F4A186021461F4802F0EAFD1E4B1F4A72
:10142000186021461E4802F0E3FD1E4B1E4A18605C
:1014300021461E4802F0DCFD1D4B1E4A1860214665
:101440001D4802F0D5FD1D4B186002F0B7FDFEE708
:1014500030030020000400404C02002000540040F3
:10146000A086010000020020C00300207084000854
:10147000A50E000828020020DC840008F10E0008F8
:10148000100400204C840008450F0008FC010020D7
:10149000948400086D0F00082C020020B884000816
:1014A000B50F00083002002000850008F115000883
:1014B0002404002024850008F517000828040020D3
:1014C000034904484FF6FF730A2202F03CBB00BFF9
:1014D00000020020C003002073B50C4E0C4A0D4DD5
:1014E00010700C460A233178009301239940284656
:1014F00001F02EF93178142300932246022349008B
:10150000284601F0FDF902B070BD00BF00000020C8
:10151000380200204C02002007B5074B074A5170E3
:10152000197810701423009349000223044801F035
:101530000FF903B05DF804FB000000203802002022
:101540004C02002008B500210620FFF7E5FF0A2025
:1015500002F095FD80210320FFF7DEFF0A2002F054
:101560008EFD07210846FFF7D7FF0A2002F087FD0E
:1015700001210620FFF7D0FF0A2002F080FD202184
:101580007F20FFF7C9FF0A2002F079FD2F210120FB
:10159000FFF7C2FF0A2002F072FD00210846FFF7A4
:1015A000BBFF0A2002F06BFD00217F20FFF7B4FF94
:1015B0000A2002F064FD07200021FFF7ADFFBDE81F
:1015C00008400A2002F05BBD10B5084C4FF4806162
:1015D000204600F0E8FE4FF4FA7000F039FD204696
:1015E0004FF48061BDE8104000F0DDBE0004024011
:1015F0002DE9F04F85B0FFF7A5FF0023ADF80C30C3
:10160000642600240025322002F039FD03A937208A
:10161000FFF762FFBDF80C00C0BAFEF783FF0B4670
:101620000246CDE9002300F00DFDDDE90023204650
:101630002946FEF72BFE04460D4600F003FD013E51
:10164000E1D1214BDFF884B0002220462946FFF784
:10165000FDF806460F46FFF7B7FF00F0F3FC0FF268
:101660006009D9E900898246322002F008FD03A909
:101670003720FFF731FFBDF80C00C0BAFEF752FF6C
:1016800032463B46FEF700FE0D46044600F0DAFC0B
:10169000A0EB0A00FEF736FF42464B46FFF7D6F8AE
:1016A00022462B46FEF7A8FFDBE90023FEF7EEFDFE
:1016B000CBE9000100F0C6FC8246D5E7AFF300801D
:1016C000000000000004D04000005940200200202B
:1016D0001F4B2DE9F041D3E90045DFF87C8020461F
:1016E000D8E900232946FEF7CFFD02460B46FEF758
:1016F000CDFD184B06460F46002220462946FEF730
:101700007BFF11A3D3E90023FEF7C0FD02460B4681
:1017100030463946FEF7BAFD41EC100B06F016FED6
:10172000C8E90045DFF834802246D8E900012B469D
:1017300057EC106BFEF7AAFDC8E9000130463946A8
:10174000FFF70AFABDE8F0810000000000C0614028
:101750002002002000002A40180400201802002067
:1017600038B500211E481F4C1F4D02F099F8042186
:101770001B4802F095F81D480C2102F091F8002258
:101780000421204600F00AFE01220821204600F034
:1017900005FE00222021204600F000FE012210213B
:1017A000204600F0FBFD124B93ED000BFFF790FF7E
:1017B000592810DDDC2811DC28600C4B2A681B68D6
:1017C0001A64074B1B684FF47A725A630A209A63B3
:1017D00002F055FCD3E75A232B60EEE7DC23FBE74E
:1017E000780300200000024004000020A002002036
:1017F0002002002083B54123334D344C8DF807304F
:10180000002623782E60472B2ED16378592B43D1A5
:10181000A378522B40D1E3784F2B3DD12379522B23
:101820003AD1E378A2780A21303B303A4B43642125
:1018300001FB02332279303A134462782B60422A4A
:1018400008BF5B4240F6B83008BF2B6002F017FCBF
:101850002378472B13D0532B1ED12868FEF762FE46
:1018600041EC100BFFF77CFFA3F15202012A01D9D2
:101870004C2B11D1637803F0FB03422BD0E7BFF36D
:101880004F8F1349134BCA6802F4E0621343CB60D5
:10189000BFF34F8F00BFFDE70F4FD7F80080B8F1BF
:1018A000010F0CD14FF4967002F0E9FB0B484FF694
:1018B000FF7342460DF1070102F045F93E606420D6
:1018C00002F0DDFB9DE700BF0C04002000020020B9
:1018D00000ED00E00400FA0534020020C0030020FF
:1018E00082B00E4B00220092596C41F48041596441
:1018F000596C01F48041009100990192196C41F0FA
:10190000805119641B6C03F080530193019B0F21DC
:101910006FF0010002B000F0C1BB00BF0038024010
:1019200030B5044689B01422002103A804F0B5FDA7
:101930002268144B9A4222D1134C14480025019579
:10194000236B43F002032363236B03F00203019331
:10195000019B4FF440721223CDE90323032104239A
:10196000CDE9061303A900F03FFC0295236C43F474
:1019700000132364236C03F400130293029B09B049
:1019800030BD00BF00540040003802400004024057
:101990000268094B9A4282B00BD100230193074B96
:1019A0005A6C42F001025A645B6C03F0010301932C
:1019B000019B02B0704700BF0000014000380240A8
:1019C00070B5044688B01422002103A804F065FD18
:1019D0002368B3F1804F35D103F50E330024009412
:1019E0001A6C194842F001021A641A6C02F00102E2
:1019F0000092009A01941A6B42F001021A631A6B6A
:101A000002F001020192019A02941A6B42F0020262
:101A10001A631B6B03F002030293029B02264FF42E
:101A20000043012503A9CDE90336079500F0DCFB4F
:101A300008230648079503A9CDE90336CDE90544F7
:101A400000F0D2FB08B070BD00000240000402406C
:101A50000268094B9A4282B00BD100230193074BD5
:101A60005A6C42F002025A645B6C03F00203019369
:101A7000019B02B0704700BF0004014000380240E3
:101A800010B5044688B01422002103A804F005FD17
:101A900023681A4A934218D100230193184B19481E
:101AA0001A6B42F010021A631B6B03F010030193D0
:101AB0004FF48041019B0223CDE9031301230793D7
:101AC00003A900F091FB08B010BD0F4A9342FAD170
:101AD000002302930A4B0D481A6B42F004021A636A
:101AE0001B6B03F004030293029BC0220223CDE987
:101AF00003230323079303A9E3E700BF000001408A
:101B0000003802400010024000040140000802407A
:101B100010B5044688B01422002103A804F0BDFCCF
:101B20002268184B9A422BD103F5F8330024019414
:101B30001A6C154842F480221A641A6C02F480224E
:101B40000192019A02941A6B42F004021A631B6B11
:101B500003F0040302934FF44062029B0223CDE999
:101B6000032303210723CDE9061303A900F03CFB5F
:101B700027202246052100F091FA272000F0C0FA24
:101B800008B010BD0048004000080240FEE7FEE734
:101B9000FEE7FEE7FEE7704708B500F047FA03F0FE
:101BA00027FA012803D0BDE8084003F033BD08BD83
:101BB000014802F07DB800BFC0030020012070473B
:101BC00008B504F0BDFC162303604FF0FF3008BDDC
:101BD00008B504F0B5FC16230360FEE770B50D46AA
:101BE00014460E46731B9C4201DC204670BDAFF3C9
:101BF000008006F8010BF5E770B50D4614460E4659
:101C0000731B9C4201DC204670BD16F8010BAFF33C
:101C10000080F5E74FF0FF3070474FF400534B6002
:101C20000020704701207047002070470B4A116860
:101C300010B5034609B90A491160106809490A4CF0
:101C40000344091B8B4206D904F07AFC0C23036081
:101C50004FF0FF3010BD1360FCE700BF2C040020E4
:101C6000D05200200000022000040000034AD2F8F5
:101C7000883043F47003C2F88830704700ED00E00C
:101C8000DFF834D0FFF7F2FF0C480D490D4A00236E
:101C900002E0D458C4500433C4188C42F9D30A4A21
:101CA0000A4C002301E013600432A242FBD304F08B
:101CB0004DFCFFF7E7F9704700000220000000200C
:101CC000E001002054930008E0010020CC520020E5
:101CD000FEE7000070B50A46044601B10122134830
:101CE000124E4FF4807100F059FB0825002220218C
:101CF000304600F053FB23064CBF01220022402156
:101D0000304600F04BFB013D01222021304600F01F
:101D100045FB640015F0FF05E4B2E7D1BDE8704073
:101D2000024801224FF4807100F038BB00100240DD
:101D300070B50F4EB02400212046FFF7CBFF0021E5
:101D40000846FFF7C7FF00211020FFF7C3FF00255B
:101D500016F8350001210135FFF7BCFF802DF7D1C2
:101D60000134E4B2B82C06F10106E4D170BD00BF25
:101D7000300400200023084810B41C460022C1187B
:101D800001F832400132802AFAD10133082BF5D113
:101D90005DF8044BFFF7CCBF30040020030610B5FC
:101DA00012D43F2910D801F00703C3F1070301241F
:101DB0009C40C908064BC1F10701C9B203EBC00042
:101DC000435C12B12343435410BD23EA0403FAE7F2
:101DD000300400202DE9F74F1F46203A1E4B9DF896
:101DE00030B0D2B203EB021301931C4B02EB420260
:101DF00003EB82038146884600930C460026B742D7
:101E000002D103B0BDE8F08F0C2F0CBF009B019BEB
:101E10009D5D04F108035FFA83FA2B0658BFBBFAF5
:101E20008BF2214604F101044CBF5A465209484640
:101E3000E4B2FFF7B3FFA4EB08026D00BA42EDB2C3
:101E400007D109F101005FFA80F9C2460136544614
:101E5000D5E7A245E1D1F9E7D489000860850008FB
:101E6000F7B504460D46561E012716F8013F0BB97B
:101E700003B0F0BD7A2C82BF1035EDB200243A2DAC
:101E800003D9FFF777FF00252C46009720463278CC
:101E90000C2329460834FFF79DFFE4B2E5E7000074
:101EA00010B500F0A7FE404B404C1A6F22F0010223
:101EB0001A671A6F22F004021A6700F0A9FE0022C6
:101EC0008021204600F06AFA642000F0C1F8012267
:101ED0002046802100F062FA0021AE20FFF7FAFED2
:101EE0000021D520FFF7F6FE00215020FFF7F2FE7B
:101EF0000021A820FFF7EEFE00213F20FFF7EAFEB9
:101F00000021D320FFF7E6FE00210846FFF7E2FE9E
:101F100000214020FFF7DEFE00218D20FFF7DAFED2
:101F200000211420FFF7D6FE00212020FFF7D2FE6B
:101F300000210220FFF7CEFE0021A120FFF7CAFEFC
:101F40000021C020FFF7C6FE0021DA20FFF7C2FE05
:101F500000211220FFF7BEFE00218120FFF7BAFE0C
:101F60000021EF20FFF7B6FE0021D920FFF7B2FED7
:101F70000021F120FFF7AEFE0021DB20FFF7AAFED3
:101F800000213020FFF7A6FE0021A420FFF7A2FECB
:101F90000021A620FFF79EFE0021AF20FFF79AFE4A
:101FA000BDE81040FFF7E6BE0038024000100240D6
:101FB00038B50E4B1A784FF47A73B3FBF2F30C4A30
:101FC00005461068B0FBF3F000F0A8F8044658B9D5
:101FD0000F2D09D8024629464FF0FF3000F05EF879
:101FE000044B20461D6038BD0120FCE70C0000209A
:101FF000080000201000002008B50B4B1A6842F4BE
:1020000000721A601A6842F480621A601A6842F418
:1020100080721A60032000F02FF80F20FFF7C8FF2E
:10202000FFF75EFC002008BD003C0240034A044B61
:1020300011681B780B441360704700BF3008002004
:102040000C000020014B1868704700BF30080020CA
:1020500038B50446FFF7F6FF631C1CBF054B1B7821
:10206000054618BFE418FFF7EDFF431BA342FAD360
:1020700038BD00BF0C0000200749CA6822F4E062A6
:102080000302120403F4E063120C134343F0BF6332
:1020900043F40033CB60704700ED00E0164B30B5E1
:1020A000DC68C4F30224C4F10703251D042B28BFF8
:1020B0000423062D4FF0FF358CBF033C002405FAA6
:1020C00003F321EA0303A54022EA0502A340002806
:1020D00043EA0203ACBF00F16040084A4FEA031331
:1020E000B8BF00F00F00DBB2AABF00F56140135487
:1020F00080F8003330BD00BF00ED00E014ED00E0DB
:10210000002807DB044A4109012300F01F00834037
:1021100042F82130704700BF00E100E00138B0F123
:10212000807F0BD24FF0E023054A5861F02182F8FE
:1021300023100020072298611A6170470120704720
:1021400000ED00E070B50446866DFFF77BFF94F864
:102150003530022B054606D080236365012000231D
:1021600084F8343070BD23681A6822F016021A60B1
:102170005A6922F080025A61226C0AB9A26C1AB123
:102180001A6822F008021A601A6822F001021A6026
:1021900023681B6813F0010308D1E16D3F228A40D8
:1021A000B260012284F835201846D8E7FFF74AFFCD
:1021B000401B0528ECD920230320636584F83500F3
:1021C000CDE790F83530022B03D080234365012002
:1021D00070470268052380F83530136823F0010347
:1021E00013600020704700002DE9F74FDFF8A89139
:1021F000674A00230D6801249C4004EA050CAC43A7
:1022000040F0B1804D6805F003044FEA430803260F
:10221000671E06FA08F6012F6FEA060634D88768AB
:1022200007EA060ECF6807FA08F747EA0E07876045
:10223000476827EA0C0EC5F300179F4047EA0E07D0
:102240004760C76807EA060E8F6807FA08F747EA8B
:102250000E07022CC76019D14FEAD30A00EB8A0A95
:1022600003F0070BDAF820704FEA8B0B4FF00F0EDC
:102270000EFA0BFE27EA0E0E0F6907FA0BF747EA74
:102280000E07CAF8207001E0032CDAD1076804FABF
:1022900008F437403C4315F4403F046063D04FF0EE
:1022A000000ACDF804A0D9F844603A4C46F48046C0
:1022B000C9F84460D9F8446006F480460196019E4E
:1022C00023F0030606F1804606F59C3603F0030E64
:1022D000D6F808804FEA8E0E0F2707FA0EF7A042B5
:1022E00028EA070746D004F58064A04244D004F5EC
:1022F0008064A04242D004F58064A04240D004F53E
:102300008064A0423ED004F58064A0423CD004F535
:102310008064A0423AD004F58064A0420CBF072438
:10232000082404FA0EF43C43B46094686FEA0C0687
:10233000EF0254BF34404CEA04049460D468AF0206
:1023400054BF34404CEA0404D4605468AF0354BF13
:1023500034404CEA040454601468ED0354BF344024
:102360004CEA040414600133102B7FF443AF03B034
:10237000BDE8F08F5446D4E70124D2E70224D0E729
:102380000324CEE70424CCE70524CAE70624C8E7E3
:10239000003C014000000240003802400AB1816167
:1023A00070470904FBE7436901EA030221EA0301DC
:1023B00041EA02418161704701684B6913F480630F
:1023C0004FF0000210D06FF480634B612023026352
:1023D00080F83D3080F83E20036C80F83C2043F0CC
:1023E0000403036401207047184670472DE9F8463E
:1023F00006460F4691461D464FEA114A3368BAF128
:10240000010F0CBF5C699C6927EA0404A4B2B4FA0A
:1024100084F46409A14501D0002025E06A1CEED0B7
:10242000FFF710FE089BC01AA84201D8002DE5D185
:102430003368BAF1010F0CBF5B699B6927EA03039C
:102440009BB2B3FA83F35B099945D7D100232022CD
:10245000336386F83D2086F83E30326C86F83C3097
:1024600042F0200232640120BDE8F8862DE9F041F7
:1024700004460F46164698462568686927EA000014
:1024800080B2B8B16B695A0516D52B6843F4007356
:102490002B606FF480636B6120220023236384F838
:1024A0003D2084F83E30226C42F00402226484F81D
:1024B0003C300120BDE8F081731CDED0FFF7C2FD87
:1024C000A0EB0800B04201D8002ED5D123685A698C
:1024D00027EA020292B2002ACED0002320222363F0
:1024E00084F83D2084F83E30226C42F02002DDE783
:1024F00070B504460D46164623685B691B0601D578
:10250000002070BD2046FFF757FFC8B96A1CF3D002
:10251000FFF798FD801BA84201D8002DECD123685D
:102520005B6913F08003E7D12022236384F83D2008
:1025300084F83E30226C84F83C3042F02002226461
:102540000120DEE770B504460D46164623685B6938
:102550005B0701D5002070BD2046FFF72DFFC8B9ED
:102560006A1CF3D0FFF76EFD801BA84201D8002D36
:10257000ECD123685B6913F00403E7D120222363C5
:1025800084F83D2084F83E30226C84F83C3042F0E0
:10259000200222640120DEE770B504460D4616468F
:1025A00021684B6913F0400301D0002010E04A6914
:1025B000D2060ED56FF010024A612022236384F800
:1025C0003D2084F83E30226C226484F83C300120A7
:1025D00070BDFFF737FD801BA84201D8002DDFD169
:1025E00023685B6913F04003DAD12022236384F867
:1025F0003D2084F83E30226C42F02002E4E70000E7
:1026000070B5044608B9012070BD90F83D3003F064
:10261000FF021BB980F83C20FFF782F9242384F8DD
:102620003D3023681A6822F001021A601A6842F4E9
:1026300000421A601A6822F400421A6000F06AFD33
:102640003F4B65689D4294BF3E4B3F4B98428CBFC9
:1026500000230123002BD6D12268394E51683B4B11
:10266000B0FBF3F321F03F011943B542516088BF3D
:102670004FF49676116A88BF734321F03F0184BFFF
:102680004FF47A76B3FBF6F301330B431362D1694F
:10269000431E2B4821F44F41854221F0FF0132D8DF
:1026A0006D0040F6FC70B3FBF5F30133034242D0FA
:1026B000C3F30B031943D161D4E907301168034315
:1026C00021F0C0010B4313609168D4E9030321F4A6
:1026D0000341034321F0FF010B439360D4E905302C
:1026E000D168034321F0FF010B43D360136843F02B
:1026F0000103136000202023206484F83D30206310
:1027000084F83E0080E7A06850B905EB4505B3FBAF
:10271000F5F30133C3F30B037BB143F40043C9E783
:1027200019206843B3FBF0F30133C3F30B0323B168
:1027300043F44043BEE70423BCE70123BAE700BFEC
:10274000A08601007F841E00FF083D0040420F006C
:102750002DE9F043044685B098460C9F0D469146FE
:10276000FFF770FC94F83D30202B064604D002257C
:10277000284605B0BDE8F08300905D491923012289
:102780002046FFF733FE0028F1D194F83C30012BAE
:10279000EDD02168012384F83C300B68DA075EBF76
:1027A0000B6843F001030B600B6823F400630B60BC
:1027B000212384F83D30102384F83E300023236425
:1027C000A4F82A80638D23854A4BE362E36AC4F848
:1027D0002490082B04D0012B02D013F5803F04D1A4
:1027E0000B6843F480730B6002E0236B122BF7D06D
:1027F000002200963B464FF001112046FFF7F6FD00
:10280000226838B11368DB0544BF4FF400732364BA
:102810000125ADE72369B3F5804F21D105F0FE0511
:102820001561354933463A462046FFF71FFE0546F7
:102830000028EDD1236803905A6903929B690393A2
:10284000039B238DF3B921680A6842F400720A6081
:10285000202284F83D2084F83C3084F83E3087E71D
:10286000EB1103F0060343F0F003136123493346F1
:102870003A462046FFF7FAFD0028C9D12368EDB299
:102880001D61CEE7324639462046FFF731FE40B1A2
:10289000236C042BBCD12268136843F400731360CB
:1028A000B6E7636A20681A4612F8011B016162628A
:1028B000628D013A92B26285228DD0F814C0511E09
:1028C00089B21CF0040F21850AD049B15978016101
:1028D00002336362638D013B9BB2023A63852285BA
:1028E000324639462046FFF72DFE0028A9D0CFE713
:1028F000020010000000FFFF0200010008000100BC
:102900002DE9F043044689B09846109F0E46914643
:10291000FFF798FB94F83D30202B054604D00226A3
:10292000304609B0BDE8F08300909A49192301228E
:102930002046FFF75BFD0028F1D194F83C30012BD5
:10294000EDD02168012384F83C300B68DB075EBFC3
:102950000B6843F001030B600B6823F400630B600A
:10296000222384F83D30102384F83E300023236472
:10297000A4F82A80638D2385874BE362E36A0A68A3
:10298000C4F8249042F48062082B0A6004D0012B22
:1029900002D013F5803F04D10B6843F480730B60C1
:1029A00002E0236B112BF7D03B46009500224FF03D
:1029B00001112046FFF71AFD236838B11B68DD05B9
:1029C00044BF4FF4007323640126A9E72269B2F5DE
:1029D000804F27D146F00106F6B21E616F492B46A3
:1029E0003A462046FFF742FD06460028ECD1238DEB
:1029F0002168002B4BD103904B6903938B690393A0
:102A0000039B0B6843F400730B60DFF89881238D00
:102A1000002B64D1202284F83D2084F83C3084F8D7
:102A20003E307DE74FEAE61808F0060848F0F0026D
:102A30001A615B492B463A462046FFF717FD0028EE
:102A4000C2D123685549F6B21E613A462B4620464C
:102A5000FFF70CFD02460028B6D12368079059699C
:102A60000791996907910799196841F48071196074
:102A7000204600953B464FF00111FFF7B7FC226856
:102A800008B113689BE748F0F1031361A6E7012B37
:102A90000AD10B6823F480630B6004904B690493A4
:102AA0008B690493049BACE7022B0B680DD123F4D4
:102AB00080630B600B6843F400630B6005904B6907
:102AC00005938B690593059B9FE743F480630B6037
:102AD00006904B6906938B690693069B95E7032B3B
:102AE00062D8012B16D12A4639462046FFF754FDFD
:102AF00000287FF469AF23681A69636A1A70636AF1
:102B000001336362238D013B2385638D013B9BB2BF
:102B100063857CE7022B00953B464FF0000241465F
:102B200020461AD1FFF762FC00287FF44DAF2368DE
:102B30001A6842F400721A601A69636A1A70626A4B
:102B4000531C6362238D013B2385638D013B9BB244
:102B5000638523681B695370D1E7FFF747FC024682
:102B600000287FF431AF2368196821F4806119606F
:102B70001969636A1970636A009501336362238D72
:102B8000013B2385638D013B9BB2638541463B46F8
:102B90002046C7E7020010000000FFFF020001000E
:102BA00008000100040001002A4639462046FFF7CC
:102BB000F3FC00287FF408AF23681A69636A1A706F
:102BC000628D616A013A92B24B1C6285226863622F
:102BD000238D5069013B9BB2400723857FF517AFDA
:102BE000032B02BF136823F48063136013694B70D7
:102BF00085E700BF044B01221A62044B82B01B68B8
:102C00000193019B02B0704700000E42007000402B
:102C1000044B00221A62044B82B01B680193019B93
:102C200002B0704700000E42007000402DE9F341F1
:102C3000044640B30368DD0710D4236898075BD4CB
:102C400023681A0700F19D8023685B0700F1BD80AF
:102C5000A069002840F0248100202CE08D4B9A6868
:102C600002F00C02042A07D09A6802F00C02082A2B
:102C70000BD15B68590208D5864B1B689A03DCD5DB
:102C80006368002BD9D1012015E06368814DB3F54D
:102C9000803F13D12B6843F480332B60FFF7D2F9C8
:102CA0007C4E054633689B03C7D4FFF7CBF9401B26
:102CB0006428F7D9032002B0BDE8F081B3F5A02F56
:102CC00004D12B6843F480232B60E3E72A6822F4C5
:102CD00080322A602A6822F480222A60002BDDD10B
:102CE000FFF7B0F906462B689F03A6D5FFF7AAF9B0
:102CF000801B6428F7D9DDE7664B9A6812F00C0F49
:102D000007D09A6802F00C02082A11D15B685E02B3
:102D10000ED4604A13689D0702D5E368012BB2D137
:102D20001368216923F0F80343EAC103136087E7BE
:102D3000E268594BB2B101221A60FFF783F9554D91
:102D400006462B68980707D52B68226923F0F803FD
:102D500043EAC2032B6073E7FFF774F9801B022874
:102D6000EFD9A7E71A60FFF76DF94A4E05463368B9
:102D700099077FF565AFFFF765F9401B0228F6D983
:102D800098E76269444B82B10122C3F8802EFFF7B5
:102D900059F9404E0546736F9F073FF555AFFFF752
:102DA00051F9401B0228F6D984E7C3F8802EFFF7BB
:102DB00049F9384E0546736F98077FF545AFFFF721
:102DC00041F9401B0228F6D974E7324B1A6C12F015
:102DD000805228D101921A6C42F080521A641B6C06
:102DE00003F080530193019B01272C4D2B68D905DB
:102DF0001BD5A368274D012B27D12B6F43F001036F
:102E00002B67FFF71FF9234E054641F28838336FD1
:102E10009B0739D5002F3FF41BAF1E4A136C23F0DC
:102E20008053136414E70027DFE72B6843F48073B3
:102E30002B60FFF707F906462B68DA05D9D4FFF7B0
:102E400001F9801B0228F7D934E7052B04D12B6F39
:102E500043F004032B67D0E72A6F22F001022A67B0
:102E60002A6F22F004022A67002BCAD1FFF7EAF882
:102E700041F2883806462B6F9807CBD5FFF7E2F86A
:102E8000801B4045F7D915E7FFF7DCF8401B4045AC
:102E9000BDD90FE7003802400000474200700040F3
:102EA000364DAB6803F00C03082B3DD0344B0022A9
:102EB00002281A662BD1FFF7C5F806462B68990140
:102EC0001FD4D4E907321343626A43EA8213E26AE9
:102ED00043EA0263A26A5208013A43EA02436B6082
:102EE000274B264D01221A66FFF7ACF804462B68E3
:102EF0009A013FF5B1AEFFF7A5F8001B0228F6D9FD
:102F0000D8E6FFF79FF8801B0228D7D9D2E6FFF753
:102F100099F804462B689B017FF59EAEFFF792F867
:102F2000001B0228F6D9C5E601283FF4C4AE6B6841
:102F3000E26903F4800191427FF4A5AE216A03F0B7
:102F40003F028A427FF49FAE616A47F6C0721A4020
:102F5000B2EB811F7FF497AEA26A520803F44031AE
:102F6000013AB1EB024F7FF48EAEE26A03F0706378
:102F7000B3EB026F3FF470AE85E600BF003802404D
:102F800000004742134908B58B6803F00C03042B7B
:102F90001CD0082B1CD14A684B68496813F4800385
:102FA00014BF0D480D48C1F3881118BF002302F06B
:102FB0003F02A1FB0001FDF7F7FD064B5B68C3F381
:102FC000014301335B00B0FBF3F008BD0248FCE7AE
:102FD0000248FAE70038024040787D010024F400FE
:102FE0002DE9F0410D46044610B90120BDE8F081FD
:102FF000434B1A6802F007028A4228D321688F07E0
:103000002DD4C80740D43E4B1A6802F00702AA42EA
:1030100065D8226851076BD4130707D5394A21694F
:10302000936823F4604343EAC1039360FFF7AAFF68
:10303000344B354A9B68C3F30313D35CD840334BFE
:103040001860334B1868FEF7B3FF0020CEE7CAB212
:103050001A701B6803F007038B42C6D1CEE7294BD9
:1030600011F0040F1EBF9A6842F4E0529A600E07F6
:1030700042BF9A6842F460429A609A68A06822F05F
:10308000F00202439A60BCE762681E4B012A1CD121
:103090001B6813F4003FA8D01A4EB36823F0030353
:1030A0001343B360FEF7CEFF41F288380746B3689A
:1030B000626803F00C03B3EB820FA4D0FEF7C2FFEB
:1030C000C01B4045F3D9032090E7911E01291B68DE
:1030D00002D813F0007FDEE713F0020FDBE7EAB25D
:1030E0001A701B6803F00703AB427FF47EAF90E7D2
:1030F0000449E0688B6823F4E05303438B608BE75B
:10310000003C0240003802404885000808000020CA
:1031100010000020044B054A9B68C3F38223D35C54
:10312000034A1068D84070470038024058850008AC
:1031300008000020044B054A9B68C3F34233D35C6C
:10314000034A1068D840704700380240588500088C
:1031500008000020036A026A22F00102026270B5D0
:10316000446882690D6822F073022A438D6823F057
:1031700002032B430E4DA84202D00E4EB04210D196
:10318000CE6823F008033343A84223F0040302D09F
:10319000084DA84205D1D1E9055624F440743543C1
:1031A0002C43446082614A684263036270BD00BF81
:1031B0000000014000040140036A026A22F48072A8
:1031C000026270B54468C2690D6822F073022A4336
:1031D0008D6823F4007343EA0523114DA84203D000
:1031E00005F58065A84214D1CD6823F4006343EA55
:1031F00005230B4DA84223F4806303D005F58065B9
:10320000A84206D1D1E9055624F44054354344EA96
:1032100005144460C2614A68C263036270BD00BFA6
:1032200000000140036A026A22F48052026230B553
:103230004468C2690D6822F4E64242EA05228D68BC
:1032400023F4005343EA0533084DA84203D005F5A3
:103250008065A84204D14D6924F4804444EA851471
:103260004460C2614A680264036230BD00000140EC
:1032700030B5034690F83E0093F83F2093F8425053
:1032800093F84340C0B2D2B2EDB2E4B2C1B9012862
:1032900045D1012D13D1022283F83E2083F842202C
:1032A0001A68116A21F001011162116A41F00101ED
:1032B00011621A68136843F001031360002030BDE7
:1032C000042911D1012A2AD1012C28D1022283F804
:1032D0003F2083F843201A68116A21F0100111621F
:1032E000116A41F01001E3E7012818D1012AE6D163
:1032F000012DE4D1012CE2D1022283F83E2083F893
:103300003F2083F8422083F843201A68116A21F095
:1033100001011162116A41F001011162DCE7012033
:10332000CDE70000334A0368904212D0B0F1804FDD
:103330000FD0A2F57C4290420BD002F58062904201
:1033400007D002F58062904203D002F578429042A5
:1033500019D14A6823F070031343264A904229D0BA
:10336000B0F1804F26D0A2F57C42904222D002F5E7
:10337000806290421ED002F5806290421AD002F51F
:103380007842904216D01C4A904213D002F58062D7
:1033900090420FD002F5806290420BD0A2F5983295
:1033A000904207D002F58062904203D002F580621D
:1033B000904203D1CA6823F4407313434A6923F04F
:1033C0008003134303608B68C3620B688362094BFD
:1033D000984203D003F58063984201D10B690363DF
:1033E000012343610369DB0742BF036923F0010343
:1033F00003617047000001400040014010B50446E1
:1034000030B390F83D3003F0FF021BB980F83C2048
:10341000FEF71EFB0223206884F83D30211DFFF7D4
:1034200081FF012384F84630002084F83E3084F880
:103430003F3084F8403084F8413084F8423084F8DA
:10344000433084F8443084F8453084F83D3010BD72
:103450000120FCE710B5044630B390F83D3003F08E
:10346000FF021BB980F83C20FEF792FA0223206885
:1034700084F83D30211DFFF755FF012384F84630C5
:10348000002084F83E3084F83F3084F8403084F8DF
:10349000413084F8423084F8433084F8443084F872
:1034A000453084F83D3010BD0120FCE7F8B50D46ED
:1034B000044600284CD090F83D3003F0FF021BB9C1
:1034C00080F83C20FEF77CFA2146022384F83D3048
:1034D00051F8040B836823F4804323F007038360CF
:1034E000FFF720FF81682A688369AE69076A114384
:1034F000AA6823F4407323F0030342EA06221A4326
:103500002B69EE691B0143EA0623EE6833432E6AFA
:1035100022F47C4222F0FC0243EA063313436E6934
:103520006A68816027F0AA0742EA0612836117439E
:103530000123076284F84630002084F83E3084F886
:103540003F3084F8423084F8433084F83D30F8BD91
:103550000120FCE7036A026A22F01002026270B5E1
:10356000446882690D6822F4E64242EA05228D68C9
:1035700023F0200343EA0513104DA84203D005F5BC
:103580008065A84214D1CD6823F0800343EA051377
:103590000A4DA84223F0400303D005F58065A842F8
:1035A00006D1D1E9055624F44064354344EA850444
:1035B000446082614A688263036270BD000001401A
:1035C00070B590F83C30012B054650D00123082AF5
:1035D00080F83C303BD007D8C2B1042A27D0184627
:1035E000002385F83C3070BD0C2AF8D10068FFF745
:1035F00019FEC3690A6943F40063C361C36923F414
:103600008063C361C36943EA02232EE00068FFF7C9
:10361000A1FD83690A6943F008038361836923F08C
:10362000040383618369134383610020D8E7006842
:10363000FFF790FF83690A6943F40063836183693C
:1036400023F480638361836943EA0223ECE7006823
:10365000FFF7B2FDC3690A6943F00803C361C36998
:1036600023F00403C361C3691343C361DDE7022090
:10367000B9E710B58468114324F47F4441EA032379
:103680002343836010BD38B590F83C30012B0446CD
:103690004FF0020300F08E80012280F83D3080F868
:1036A0003C200068836823F47F4323F07703836022
:1036B0000B68602B4FD032D8402B64D016D8202B0B
:1036C0000DD00AD833F0100109D0012384F83D3021
:1036D000002384F83C30104638BD302BF5D1826889
:1036E00022F07002134343F0070328E0502BECD183
:1036F0004A68CD68016A036A23F0010303628369A3
:1037000021F00A0123F0F00343EA05130A43836121
:103710000262836823F0700343F057030FE0B3F5B0
:10372000805F0DD0B3F5005F0CD0702BCDD1CB688E
:10373000D1E90121FFF79DFF836843F077038360A0
:103740000022C2E7CB68D1E90121FFF792FF83682D
:1037500043F48043F3E7036A026A4D68C96822F0C4
:1037600010020262826923F0A00322F4704243EA4D
:10377000051342EA013282610362836823F0700319
:1037800043F06703DBE74A68CD68016A036A23F008
:1037900001030362836921F00A0123F0F00343EA85
:1037A00005130A4383610262836823F0700343F0C8
:1037B0004703C4E71A468EE7036A01F01F0110B5FC
:1037C00001248C4023EA04030362036A8A401A43FB
:1037D000026210BD08B529B990F83E30012B18D00F
:1037E00001202CE004290DD190F83F30013B18BF97
:1037F0000123002BF4D104294FF0020320D180F8DB
:103800003F3009E008290CBF90F8403090F8413073
:10381000ECE7022380F83E3000680122FFF7CCFF7E
:103820001C4A904213D01C4B984210D0B0F1804FEC
:1038300014D1836803F00703062B26D1002008BDAE
:1038400008290CBF80F8403080F84130E4E7436C31
:10385000904243F400434364EBD0E7E70F4B9842B8
:10386000E7D003F580639842E3D003F58063984284
:10387000DFD003F578439842DBD003F570539842CC
:10388000D7D0A3F594339842D3D0036843F0010313
:103890000360D3E700000140000401400004004041
:1038A000FFF798BF30B590F83C30012B4FF0020382
:1038B00032D080F83D3003680D685C689A6824F067
:1038C00070042C435C60154CA3421AD0B3F1804FB6
:1038D00017D0A4F57C44A34213D004F58064A3421E
:1038E0000FD004F58064A3420BD004F57844A342C2
:1038F00007D004F57054A34203D0A4F59434A34236
:1039000004D1496822F080020A439A60012380F8BA
:103910003D30002380F83C30184630BD00000140A7
:1039200090F83C30012B1FD0CB688A6823F4407399
:1039300013434A6823F4806313430A6823F4006343
:1039400013430A6923F4805313434A6923F4005351
:103950001343CA6923F4804313430268536400236A
:1039600080F83C301846704702207047026802F128
:103970000C0353E8003F23F490730C3242E800310B
:1039800002680029F2D102F1140353E8003F23F04A
:10399000010302F1140C4CE800310029F3D1036B50
:1039A000012B0BD102F10C0353E8003F23F010036D
:1039B00002F10C0C4CE800310029F3D1202380F8EF
:1039C00042300023036370470268C168136923F41F
:1039D00040530B4370B51361054683680069D16895
:1039E000034368690343E86921F4164121F00C019F
:1039F00003430B43D3605369A96923F440730B431A
:103A000053611F4B9A4203D003F580639A4223D13E
:103A1000FFF790FBEB691921B3F5004FD5E900469C
:103A2000A0FB01011BD1B2194FF000035B41FDF770
:103A3000BBF86422B0FBF2F102FB1103DB0032336E
:103A4000B3FBF2F303F007025B0002EB011203F495
:103A5000F8731344A36070BDFFF75CFBDAE7B200B4
:103A6000B30FFDF7A1F86422B0FBF2F102FB1103E2
:103A70001B013233B3FBF2F303EB0113EAE700BFA0
:103A800000100140F7B505460C4617461E462A6849
:103A9000136834EA030301D1002021E0701CF7D041
:103AA000FEF7D0FAC01B86421CD3DEB12B68DA6861
:103AB0005107ECD5802CEAD0402CE8D01A681207C8
:103AC000E5D5002401941A6801925B6801932846A9
:103AD000019BFFF74BFF08236B6485F840400120F2
:103AE00003B0F0BD0320FBE710B5044648B390F8DF
:103AF000413003F0FF021BB980F84020FEF708F8C0
:103B00002268242384F84130D36823F40053D3601F
:103B10002046FFF759FF23681A6922F490421A6180
:103B20005A6922F02A025A61DA6842F40052DA60D5
:103B300000202023606484F8413084F842306063C0
:103B400010BD0120FCE7F7B5174690F8412000931F
:103B5000202A04460E4640D1002940D0002F3ED0F6
:103B600021220025456480F84120FEF76BFAA16808
:103B7000009BA784B1F5805F0246E78403D12169E9
:103B800009B935460E46E18C89B249B94021204633
:103B9000FFF778FF202384F8413068B903B0F0BD07
:103BA00080212046CDE90023FFF76CFFDDE90023EB
:103BB00020B1202384F841300320EFE720684EB97C
:103BC00035F8021BC1F308014160E18C013989B26B
:103BD000E184D8E716F8011BF6E70220DEE70120B2
:103BE000DCE77047704708B5806B0023C385C3844A
:103BF000FFF7F8FF08BD704790F84230222B07B559
:103C000042D18168836A0268B1F5805F3FD1016962
:103C100000293FD15268C2F3080223F8022B8362C5
:103C2000C38D013B9BB2C385002B2DD10268D168A7
:103C300021F02001D160D16821F48071D1605169F7
:103C400021F001015161202280F842204363026B80
:103C5000012A026828D1036302F10C0353E8003FF4
:103C600023F0100302F10C0C4CE800310029F3D1D1
:103C70001368DB0605D5019113680193536801931E
:103C8000019B818DFFF7B7FF03B05DF804FB39B9E5
:103C9000016929B95268D2B21A70836A0133BEE74A
:103CA000526802F07F02F7E7FDF70AFCECE700003C
:103CB00003681A6873B51607D9685D69044608D1A8
:103CC000960668D58D0666D502B0BDE87040FFF750
:103CD00093BF05F0010001F4907505435BD0D60752
:103CE00005D5CD0542BF636C43F001036364530700
:103CF00004D518B1636C43F002036364960704D5DE
:103D000018B1636C43F004036364150707D501F031
:103D1000200303431EBF636C43F008036364636CBA
:103D2000002B32D0920604D58B0602D52046FFF731
:103D300063FF26687369626C03F0400302F00802B7
:103D400053EA0205204622D0FFF710FE73695E0693
:103D500018D5226802F1140353E8003F23F0400312
:103D6000143242E800310029F3D1E06B50B1744BBA
:103D70000365FEF726FA40B1E06B036D02B0BDE8C3
:103D8000704018472046FFF72DFF02B070BDFFF7C7
:103D900029FF6564F9E7206B012840F09580D5067E
:103DA00040F19280C80640F18F80002201921A688B
:103DB00001925A680192019A5A6952064ED5E16BF6
:103DC0000A68526892B2002ADFD0A08D9042DCD9F6
:103DD000E285CA69B2F5807F36D003F10C0252E861
:103DE000002F22F4807203F10C0040E8002100292A
:103DF000F3D103F1140252E8002F22F0010203F183
:103E0000140040E800210029F3D103F1140252E824
:103E1000002F22F0400203F1140040E800210029A5
:103E2000F3D1202284F84220216303F10C0252E8EE
:103E3000002F22F0100203F10C0040E800210029BD
:103E4000F3D1E06BFEF77EF902236363E38DA18D6E
:103E5000C91A89B22046FFF7CEFE96E7E28DE08DC3
:103E6000A18D80B292B200288FD0891A89B2002920
:103E70008BD003F10C0252E8002F22F4907203F170
:103E80000C0545E800200028F3D103F1140252E8A4
:103E9000002F22F0010203F1140545E8002000285C
:103EA000F3D1202284F84220206303F10C0252E86F
:103EB000002F22F0100203F10C0545E80020002835
:103EC000F3D102236363C5E7160628D50D0626D570
:103ED00094F84120212A7FF458AFA168226AB1F5F5
:103EE000805F17D12169A9B932F8021BC1F308011B
:103EF00059602262E28C013A92B2E284002A7FF495
:103F000044AFDA6822F08002DA60DA6842F04002F8
:103F1000DA603AE7511C216212785A60EAE75006EB
:103F20007FF533AF4A067FF530AFDA6822F0400202
:103F3000DA60202384F841302046FFF752FE24E760
:103F4000E73B0008C285002382850269436422237F
:103F500080F84230816203681AB1DA6842F48072F4
:103F6000DA605A6942F001025A61DA6842F02002CE
:103F7000DA600020704770B490F84260202E06D1BD
:103F800041B13AB10024046370BCFFF7DBBF0220EB
:103F900070BC70470120FBE7EFF305832BB9064B9C
:103FA000186828B901221A6070476FF00500704741
:103FB0004FF0FF30704700BF900A002010B5EFF3BC
:103FC00005845CB9084B1A68012A0AD1074AD477DC
:103FD00002221A6000F086FD204610BD6FF0050039
:103FE000FBE74FF0FF30F8E7900A002000ED00E01B
:103FF000F0B587B00B4600210591EFF30584CCB9ED
:10400000C0B16AB395698D4208BF1825691E37296A
:10401000AC462AD85168C90727D456696EB1B4088E
:10402000D2E9027E116857B1BEF15B0F02D9126965
:1040300002B1E6B9059807B0F0BD8024F0E7BEF103
:10404000000FF7D11269002AF4D105AACDE900C208
:10405000A2B200F01AFD01281CBF00230593E9E776
:1040600011464FF0180C8024EFE72046E3E7CDE936
:1040700001270095224600F0D0FC0590DAE710B544
:10408000EFF3058424B910B100F08AFE204610BD7C
:104090006FF00500FBE70000034B0360034B0B6070
:1040A00080231360704700BF340A002034080020CA
:1040B000034B0360034B0B604FF480731360704736
:1040C000940E0020940A002000F108034FF0FF3204
:1040D000C0E90223436003610023036070470023AB
:1040E0000361704743684B609A688A609A685160C0
:1040F00099600368086101330360704730B50C684C
:10410000631C0AD103695A684A6091608B605960E8
:10411000036808610133036030BD00F108021346F3
:1041200052681568A542FAD9EDE7D0E90112036992
:104130008A6051605968814208BF5A60002202615A
:104140001A68013A1A601868704710B5044601F001
:10415000F9F9A46B01F016FAB4FA84F0400910BD25
:10416000F8B51546026C866B044652B9076847BB22
:10417000806800F04DFFA76005460136A66328461B
:10418000F8BD65B9406802F010FA6368226C134408
:10419000A26863609342F0D323686360EDE7C06870
:1041A00002F003FA226CE36851429B1A2268E36032
:1041B00093423EBFA3685B18E360022D01D116B1A4
:1041C000013E0025D9E73546D7E7034610B41A6CFF
:1041D00008466AB1DC68996814448C4228BF1968A3
:1041E000DC6028BFD960D9685DF8044B02F0DDB906
:1041F0005DF8044B704770B5044601F0A3F994F8DC
:10420000455004F124066DB2002D14DCFF2384F820
:10421000453001F0B7F901F095F994F8445004F1F4
:1042200010066DB2002D12DCFF2384F84430BDE887
:10423000704001F0A7B9636A002BE7D0304600F068
:1042400045FE08B100F0CEFE013D6DB2DCE723690A
:10425000002BE9D0304600F039FE08B100F0C2FE74
:10426000013D6DB2DEE738B50D46044640B94FF06A
:10427000500383F31188BFF36F8FBFF34F8FFEE7B7
:1042800001F060F9D4E90F31226862604B43D01825
:104290005B1A1A44A060FF230020A063E26084F848
:1042A000443084F84530A5B9236973B104F1100096
:1042B00000F00CFE48B14FF0E0234FF08052C3F8FD
:1042C000042DBFF34F8FBFF36F8F01F05BF9012017
:1042D00038BD04F11000FFF7F7FE04F12400FFF7EA
:1042E000F3FEF2E713B51C4640B94FF0500383F3D9
:1042F0001188BFF36F8FBFF34F8FFEE743B94FF0C5
:10430000500383F31188BFF36F8FBFF34F8FFEE726
:104310004AB191B94FF0500383F31188BFF36F8F07
:10432000BFF34F8FFEE741B14FF0500383F3118885
:10433000BFF36F8FBFF34F8FFEE750230193019BB5
:10434000502B08D04FF0500383F31188BFF36F8FC9
:10435000BFF34F8FFEE7002908BF2246019B226072
:104360000123C4E90F0184F8463019462046FFF7BF
:104370007AFF9DF8103084F84C30204602B010BD12
:104380002DE9F04385B0884601921F46044640B9A6
:104390004FF0500383F31188BFF36F8FBFF34F8F3C
:1043A000FEE751B9036C43B14FF0500383F311881A
:1043B000BFF36F8FBFF34F8FFEE7022F0BD1E36B7D
:1043C000012B08D04FF0500383F31188BFF36F8F98
:1043D000BFF34F8FFEE700F00BFE064650B9019B7E
:1043E0004BB14FF0500383F31188BFF36F8FBFF3CE
:1043F0004F8FFEE700264FF0000937E0019D1DB901
:1044000001F0C0F8002052E016B902A800F0A2FDA9
:1044100001F0B8F800F0ACFB01F094F894F84430E7
:10442000FF2B08BF84F8449094F84530FF2B08BF59
:1044300084F8459001F0A6F801A902A800F096FDC5
:1044400000284AD101F07EF8A26BE36B9A4231D189
:1044500001F098F8019904F1100000F0FFFC2046EB
:10446000FFF7C9FE00F028FC60B3012601F06AF8EE
:10447000A26BE36B9A4201D3022FBFD13A46414669
:104480002046FFF76DFE636A1BB104F1240000F0C3
:104490001DFD48B14FF0E0234FF08052C3F8042DCA
:1044A000BFF34F8FBFF36F8F01F06CF8012005B0A1
:1044B000BDE8F08301F066F82046FFF79CFE00F0AF
:1044C000FBFBD2E74FF0E0234FF08052C3F8042DFE
:1044D000BFF34F8FBFF36F8FC7E72046FFF78BFE09
:1044E00000F0EAFB8EE72DE9F843894690461F4627
:1044F000044640B94FF0500383F31188BFF36F8F28
:10450000BFF34F8FFEE751B9036C43B14FF0500337
:1045100083F31188BFF36F8FBFF34F8FFEE7022F36
:104520000BD1E36B012B08D04FF0500383F31188BC
:10453000BFF36F8FBFF34F8FFEE701F019F9EFF371
:1045400011864FF0500383F31188BFF36F8FBFF3D1
:104550004F8FA26BE36B9A4201D3022F23D194F8C1
:104560004550A36B6DB23A4649462046FFF7F8FD29
:104570006B1C13D1636A0BB901200BE004F124001A
:1045800000F0A4FC0028F7D0B8F1000FF4D001200F
:10459000C8F8000086F31188BDE8F88301356DB2D4
:1045A00084F84550E8E70020F4E72DE9FF410F4685
:1045B0000192044640B94FF0500383F31188BFF3D2
:1045C0006F8FBFF34F8FFEE751B9036C43B14FF0CC
:1045D000500383F31188BFF36F8FBFF34F8FFEE754
:1045E00000F006FD064650B9019B4BB14FF0500359
:1045F00083F31188BFF36F8FBFF34F8FFEE7002661
:104600004FF000083DE0019D1DB900F0BBFF002008
:1046100056E016B902A800F09DFC00F0B3FF00F0D0
:10462000A7FA00F08FFF94F84430FF2B08BF84F8FE
:10463000448094F84530FF2B08BF84F8458000F093
:10464000A1FF01A902A800F091FC002841D1204659
:10465000FFF77BFDB8B3019904F1240000F0FEFBE5
:104660002046FFF7C8FD00F027FB48B94FF0E023D4
:104670004FF08052C3F8042DBFF34F8FBFF36F8FFD
:10468000012600F05FFFA56B002DBCD03946204607
:10469000013DFFF79AFDA563236973B104F1100092
:1046A00000F014FC48B14FF0E0234FF08052C3F803
:1046B000042DBFF34F8FBFF36F8F00F063FF012016
:1046C00004B0BDE8F0812046FFF795FD00F0F4FA54
:1046D000D6E72046FFF78FFD00F0EEFA2046FFF701
:1046E00034FD0028CCD092E710B5074A002352F8D9
:1046F00033402CB942F8331002EBC302506010BDB6
:104700000133082BF3D1FAE7F00E002070B5044610
:104710000D46164600F016FF94F84430FF2B04BFF8
:10472000002384F8443094F84530FF2B04BF002365
:1047300084F8453000F026FFA36B2BB9324629469A
:1047400004F1240000F0A4FB2046BDE87040FFF710
:1047500052BD00002DE9F041044600F0F3FE304B5D
:10476000304E1A68304F01321A603568002D4BD137
:1047700034601B68012B1FD1B84640460135FFF756
:10478000A3FC382D08F11408F7D1DFF8C480274DB9
:104790004046FFF799FC2846FFF796FC2448FFF7B0
:1047A00093FC2448FFF790FC2348FFF78DFC234B34
:1047B000C3F80080224B1D60224A13680133136046
:1047C000214A63641168E36A14208B4200FB037082
:1047D00004F1040188BF1360FFF784FC00F0D2FEEF
:1047E0001A4B1B6873B13368DA6AE36A9A4209D2DA
:1047F0004FF0E0234FF08052C3F8042DBFF34F8FEA
:10480000BFF36F8FBDE8F081104B1A68E36A002A8E
:10481000D2D13268D26A9A4298BF3460CCE700BFE6
:104820009C130020300F00203C0F0020C4130020F8
:10483000E413002010140020FC130020340F00208B
:10484000380F0020A8130020AC130020F81300201C
:10485000B0130020F8B5154B154D1C6806462868A6
:1048600004300F46FFF761FC731C07D137B129688C
:104870001048BDE8F8400431FFF734BC2B68A41998
:104880005C6007D30C4B18682968BDE8F840043118
:10489000FFF734BC094B186829680431FFF72EFC78
:1048A000074B1A68A24288BF1C60F8BD2414002080
:1048B000300F0020FC130020380F0020340F0020A0
:1048C000D8130020064A13681968064B19B94FF02F
:1048D000FF321A6070471268D268D2685268F8E7EF
:1048E000340F0020D813002010B590F8593004463A
:1048F0003BB9006B01F028F82046BDE8104001F0FC
:1049000023B8012BF9D0022B08D04FF0500383F3CA
:104910001188BFF36F8FBFF34F8FFEE710BD00000C
:1049200080B5134C134F144D236873B9134B1B6898
:10493000012BF8D94FF0E0234FF08052C3F8042D3B
:10494000BFF34F8FBFF36F8FEDE700F0FBFDFB6808
:10495000DE68301DFFF7E9FB2B68013B2B60236805
:10496000013B236000F00EFE3046FFF7BDFFDBE7A2
:10497000A0130020101400209C1300203C0F0020E6
:104980002DE9F047DDE909844FEA82094A460646E7
:104990000D46206BA5211F4601F07FFD236BA9F179
:1049A00004094B4423F00709A5B36B1E04F133023D
:1049B0000F3513F8011F02F8011F09B1AB42F8D1FE
:1049C000002384F84330089D372D28BF37254FF04A
:1049D000000AE562E564201DC4F850A0FFF77FFBE4
:1049E000C5F1380504F11800FFF779FBC4F854A0AD
:1049F0002461A561646284F858A03A46314648466D
:104A000000F074FD2060B8F1000F01D0C8F800403C
:104A1000BDE8F08784F83450D5E770B586B0DDE99D
:104A20000B5445B94FF0500383F31188BFF36F8FD8
:104A3000BFF34F8FFEE744B94FF0500383F3118863
:104A4000BFF36F8FBFF34F8FFEE75C260596059E81
:104A50005C2E08D04FF0500383F31188BFF36F8FA3
:104A6000BFF34F8FFEE72563022584F8595004AD4C
:104A700001950A9D02940095059EFFF781FF20464F
:104A8000FFF768FE049806B070BD2DE9F0430746B5
:104A900085B0900088461646994600F0BDFE054652
:104AA000E8B15C2000F0B8FE0446A8B1002380F80D
:104AB00059300D9B056301930C9B02900093324685
:104AC0004B4641463846FFF75BFF2046FFF742FE64
:104AD000012005B0BDE8F083284600F035FF4FF017
:104AE000FF30F6E710B588B0002407AA06A905A88C
:104AF000CDE90544FFF7D0FA059B0293069B079A80
:104B000016491748CDE900432346FFF786FF18B33F
:104B100000F014FB012814D14FF0500383F31188E7
:104B2000BFF36F8FBFF34F8F0E4B4FF0FF321A6002
:104B30000D4B18600D4B1C6008B0BDE8104000F034
:104B400091BD013008D14FF0500383F31188BFF3BA
:104B50006F8FBFF34F8FFEE708B010BDC48F000802
:104B600021490008D8130020F81300202414002045
:104B7000024A136801331360704700BFA41300207A
:104B8000014B1868704700BF241400203F4B1B687E
:104B90002DE9F74F002B73D13D4B1D6801351D608A
:104BA000BDB93C4B1A68126842B14FF0500383F311
:104BB0001188BFF36F8FBFF34F8FFEE7364A196836
:104BC000106818601160354A136801331360FFF7ED
:104BD00079FE334E334F3368DFF8D4809D424FF077
:104BE000000411D2D8F80030DB6A14225343FB587A
:104BF000022B2D4B1B6828BF0124002B18BF01245A
:104C0000204603B0BDE8F08FDFF88890DFF8A4A05D
:104C1000D9F800301B681BB94FF0FF333360E1E770
:104C2000D9F80030DB68D3F80CB0DBF804209542EB
:104C300001D23260D6E70BF1040108460191FFF77B
:104C400074FADBF82820019922B10BF11800FFF764
:104C50006CFA0199DBF82C00DAF80020142390425A
:104C600088BFCAF8000003FB0070FFF73BFAD8F8D2
:104C70000010DBF82C20CB6A9A4228BF0124C7E73A
:104C80000A4A1368013313600024B9E7A413002013
:104C900024140020340F0020380F0020DC130020E3
:104CA000D81300203C0F002028140020E01300201F
:104CB000300F0020AC130020F7B5314C236843B906
:104CC0004FF0500383F31188BFF36F8FBFF34F8F03
:104CD000FEE700F037FC2368013B236024682CB119
:104CE000002400F04FFC204603B0F0BD254B1B68AC
:104CF000002BF5D0244D254E254F1EE0EB68DC68D7
:104D000004F11800FFF711FA211D08460191FFF781
:104D10000CFAE36A326801991420934200FB037095
:104D200088BF3360FFF7DEF91A4BE26A1B68DB6A63
:104D30009A4202D3184B01221A602B68002BDDD156
:104D40000CB1FFF7BFFD154D2C6844B1124E012781
:104D5000FFF71CFF00B13760013CF9D12C600E4B0E
:104D60001B68002BBCD04FF0E0234FF08052C3F8FB
:104D7000042DBFF34F8FBFF36F8F0124B1E700BF46
:104D8000A41300209C130020E4130020AC13002087
:104D90003C0F0020300F002028140020E0130020DA
:104DA00008B550B94FF0E0234FF08052C3F8042DFE
:104DB000BFF34F8FBFF36F8F08BD0A4B196841B126
:104DC0004FF0500383F31188BFF36F8FBFF34F8F02
:104DD000FEE7FFF7CDFEFFF73DFDFFF76DFF002873
:104DE000E0D0E9E7A4130020174B1A68174B70B501
:104DF00012B101221A6070BD154D1A602A6815495A
:104E0000142606FB02F3C818CC588CB1446808334A
:104E1000646844600B449C4204BF6368436014238D
:104E200003FB02114B68D9680B4B19602A60E2E75B
:104E300042B94FF0500383F31188BFF36F8FBFF374
:104E40004F8FFEE7013ADCE7A4130020281400206E
:104E5000AC1300203C0F0020300F002010B50C4692
:104E600040B94FF0500383F31188BFF36F8FBFF346
:104E70004F8FFEE7054B19681831FFF73FF92046C1
:104E80000121BDE81040FFF7E5BC00BF300F002056
:104E900038B50D46144640B94FF0500383F31188DE
:104EA000BFF36F8FBFF34F8FFEE7074B19681831C1
:104EB000FFF718F9002C21460CBF28464FF0FF30B1
:104EC000BDE83840FFF7C6BC300F0020C36813B5FB
:104ED000DC6844B94FF0500383F31188BFF36F8F40
:104EE000BFF34F8FFEE704F1180108460191FFF769
:104EF0001CF9124B01991B68EBB9211D0846019161
:104F0000FFF713F90E4AE36A10680199834288BFDC
:104F100013600C4A142000FB0320FFF7E3F80A4B50
:104F2000E26A1B68DB6A9A4285BF084B01200020B9
:104F3000186002B010BD0648EFE700BFA4130020C0
:104F4000AC1300203C0F0020300F0020281400205C
:104F5000E4130020034B1B680360034B1B68436092
:104F6000704700BFDC1300202414002070B50C46ED
:104F7000054640B94FF0500383F31188BFF36F8F9C
:104F8000BFF34F8FFEE741B94FF0500383F3118811
:104F9000BFF36F8FBFF34F8FFEE700F0D3FA0F4BD5
:104FA000196823685A1C10D00D482E6800686A687A
:104FB000864201D08A420FD9881A83420AD95B1AE5
:104FC000134423602846FFF7C5FF002400F0DAFAF7
:104FD000204670BD002323600124F7E7241400203D
:104FE000DC130020014B01221A60704728140020B6
:104FF000054B1B6833B1054B1868B0FA80F04009C7
:105000004000704701207047F8130020A4130020CF
:1050100013B510B9002002B010BD1C4B1C688442AF
:1050200008D04FF0500383F31188BFF36F8FBFF3A5
:105030004F8FFEE7236D43B94FF0500383F3118880
:10504000BFF36F8FBFF34F8FFEE7E16AE26C013B66
:1050500091422365DED0002BDCD1211D0846019151
:10506000FFF763F8E36C0199E362C3F13802A261D0
:10507000074A1068834288BF1360064A142000FB69
:105080000320FFF72FF80120C5E700BF300F0020F5
:10509000AC1300203C0F0020F7B5114C00F052FA81
:1050A0002568BDB90F4F104E3846FFF70DF8304652
:1050B000FFF70AF80D4B0E4A1F600E4B10211E60C1
:1050C0000A200D4B0095FFF70DF9206010B10B4938
:1050D000FFF70AFB03B0BDE8F04000F053BA00BF91
:1050E00050150020D4140020E81400202C140020B7
:1050F000341400203014002000150020C98F00084F
:10510000914208B5416000610AD8D31A826993427E
:105110000DD2084B011D1868FEF7F0FF002008BDF6
:105120009A4201D2994202D2034B011DF3E70120BA
:10513000F5E700BF301400202C14002010B588B013
:10514000FFF7AAFF124B1B68B3B1002407AA06A9F8
:1051500005A8CDE90544FEF7ABFF059B0293069B2E
:10516000019302230093079A0A490B482346FFF74D
:1051700054FC0A4B186040B94FF0500383F3118878
:10518000BFF36F8FBFF34F8FFEE7012008B010BD54
:1051900050150020CE8F0008A5520008541500209D
:1051A0007FB5164604461A4640B94FF0500383F3C4
:1051B0001188BFF36F8FBFF34F8FFEE70D4D286847
:1051C00080B10529CDE9001602940DDCFFF710FF30
:1051D0000023022808BF089A286818BF1A466946A3
:1051E000FFF7CEF804B070BD00236946FFF77BF9E6
:1051F000F8E700BF501500202DE9FF47DFF8A08039
:105200000646FFF7BDFCD8F80030834205460BD9AF
:10521000214F4FF000093B681A686AB91F4A1168AC
:1052200039601360012300E0002328463360C8F88A
:10523000005004B0BDE8F087DB68DC68D3F800A05C
:10524000211D08460391FEF770FF236A2046984708
:1052500094F82830039913F0040FDCD0A369534469
:105260009A4505D2386863602461FEF747FFD2E7AC
:105270000023CDF80090524619462046FFF790FFD4
:105280000028C8D14FF0500383F31188BFF36F8F0C
:10529000BFF34F8FFEE700BF2C1400203014002016
:1052A000FC1400202DE9F0436E4D6F4E89B02B6841
:1052B000D3F80080B8F1000F35D0DB68D3F8008058
:1052C0000024FFF755FC04A8FFF796FF049B8146D6
:1052D000002B69D1002C4CD1404550D3FFF7ECFC9A
:1052E0002B68DB68DF68381DFEF71FFF97F8283052
:1052F00058071AD5B96943464A4641443846FFF72C
:10530000FFFEB0B100942346424621463846FFF7DF
:1053100047FF70B94FF0500383F31188BFF36F8FCD
:10532000BFF34F8FFEE70124CBE723F0010387F89B
:1053300028303B6A384698473068002204A9FFF7B6
:1053400034F90028B3D0049B0698002B2FDB069C71
:105350006369002B32D103A8FFF74EFF049B02467E
:10536000092BE9D8DFE803F02E2E2E575E762E2E7D
:10537000575E3E4B1B681C68B4FA84F464093068BD
:105380002246A8EB0901FFF7C1F9FFF795FC0028B9
:10539000D2D14FF0E0234FF08052C3F8042DBFF379
:1053A0004F8FBFF36F8FC7E7FFF786FCC4E7059BFE
:1053B00007999847049B002BBEDBC8E7201DFEF72A
:1053C000B4FEC8E794F82830A16943F0010384F8DB
:1053D0002830059B20461944FFF792FE0028ABD0E9
:1053E000236A2046984794F828305907A4D5A26923
:1053F000059900230A44009319462046FFF7D0FE82
:10540000002899D14FF0500383F31188BFF36F8FB9
:10541000BFF34F8FFEE794F8283023F0010384F8A0
:10542000283089E794F8283043F0010384F82830C5
:105430000599A16141B94FF0500383F31188BFF37F
:105440006F8FBFF34F8FFEE7034601442046FFF7FF
:1054500057FE71E794F828309A07DED4204600F012
:1054600073FA69E72C140020501500203014002036
:1054700008480068006880F308884FF0000080F357
:10548000148862B661B6BFF34F8FBFF36F8F00DF32
:1054900000BF000008ED00E0DFF80C00016841F4F7
:1054A000700101607047000088ED00E082B00023C9
:1054B00001930D4B1B68013308D04FF0500383F369
:1054C0001188BFF36F8FBFF34F8FFEE74FF050038C
:1054D00083F31188BFF36F8FBFF34F8F019B002BB6
:1054E000FCD002B0704700BF140000204FF0807362
:1054F00040F8043C074B40F80C3C21F001016FF0F0
:10550000020340F8081C40F8202C40F8243C4438A2
:10551000704700BFAD54000800000000000000000C
:10552000074B19680868B0E8F04F80F30988BFF3AB
:105530006F8F4FF0000080F311887047AFF3008049
:10554000300F00204FF0500383F31188BFF36F8FAB
:10555000BFF34F8F0A4A13680133012B13600ED13A
:105560004FF0E023D3F8043DDBB243B14FF05003DA
:1055700083F31188BFF36F8FBFF34F8FFEE7704740
:1055800014000020084A136843B94FF0500383F316
:105590001188BFF36F8FBFF34F8FFEE7013B13609E
:1055A0000BB983F31188704714000020000000003D
:1055B000EFF30980BFF36F8F154B1A681EF0100FC1
:1055C00008BF20ED108A20E9F04F10602DE9090096
:1055D0004FF0500080F31188BFF34F8FBFF36F8FF0
:1055E000FFF702FC4FF0000080F3118809BC196836
:1055F0000868B0E8F04F1EF0100F08BFB0EC108A3A
:1056000080F30988BFF36F8F704700BFAFF300804E
:10561000300F002008B54FF0500383F31188BFF31B
:105620006F8FBFF34F8FFFF7B1FA28B14FF0E02330
:105630004FF08052C3F8042D002383F3118808BD76
:105640004FF0E022002313619361054B4FF47A7110
:105650001B68B3FBF1F3013B5361072313617047F0
:10566000080000204FF0E02337B5D3F8001D3A4A78
:10567000914208D14FF0500383F31188BFF36F8F2D
:10568000BFF34F8FFEE7D3F8002D344B9A4208D179
:105690004FF0500383F31188BFF36F8FBFF34F8F29
:1056A000FEE72F4B1A78D2B20192FF221A701B78B4
:1056B0002C4ADBB28DF803309DF8033003F0500321
:1056C0001370294A0723136000219DF80300000688
:1056D00003F1FF340CD411B1032B136011D04FF040
:1056E000500383F31188BFF36F8FBFF34F8FFEE733
:1056F0009DF803305B00DBB28DF8033001212346B7
:10570000E3E74FF440731360019B154A4FF0E02428
:10571000DBB21370D4F8203D43F47003C4F8203D8D
:10572000D4F8203D43F07043C4F8203DFFF788FFD4
:105730000E4B00251D60FFF7AFFED4F8343F43F059
:105740004043C4F8343FFFF793FEFFF74DFBFFF7EC
:10575000ADFE284603B030BD71C20F4170C20F418B
:1057600000E400E0581500205C1500201400002023
:10577000EFF305830F2B0ED9114A9B5C114A127867
:105780009A4208D94FF0500383F31188BFF36F8F0B
:10579000BFF34F8FFEE74FF0E0230B4AD3F80C3DE9
:1057A000126803F4E063934208D94FF0500383F387
:1057B0001188BFF36F8FBFF34F8FFEE7704700BFB5
:1057C000F0E300E0581500205C15002010B5104BE8
:1057D0001A461B688342FBD354681119884201BFE3
:1057E0004168104609195160446801198B420CD177
:1057F000084909688B4203D05968214441601968FF
:105800000160904218BF106010BD1946F8E700BF54
:1058100078510020601500202DE9F0410446FFF783
:10582000A7F94249424D0B680BBB424A56071FBFBE
:10583000D01D20F0070002F57052131A0CBF4FF470
:105840007053024613443C4E083B23F007030020EC
:1058500070603260C3E90000981AC2E900300B6042
:10586000364B1860364B18604FF000432B602E68A3
:10587000264255D1002C46D004F1080360071CBF16
:1058800023F007030833002B4AD02D4F3C689C427D
:1058900046D3294A15686868984204D2D5F800C0F2
:1058A000BCF1000F15D10968A94239D02968D2F896
:1058B00000801160C21A102A12D9E81841070BD0D3
:1058C0004FF0500383F31188BFF36F8FBFF34F8FF7
:1058D000FEE72A466546DEE742606B60FFF776FF2B
:1058E0006A681649A41A1643164A08683C600023E1
:1058F0002B6013686E60844203F1010338BF0C60B3
:10590000136008F10804FFF7D7F963070AD04FF0D6
:10591000500383F31188BFF36F8FBFF34F8FFEE700
:105920000024F0E72046BDE8F08100BF60150020AC
:105930006451002064150020785100206C51002033
:10594000685100207051002010B5044690B31A4AE7
:1059500050F8043C1268134208D14FF0500383F30F
:105960001188BFF36F8FBFF34F8FFEE750F8081C0D
:1059700041B14FF0500383F31188BFF36F8FBFF332
:105980004F8FFEE723EA020340F8043CFFF7F0F8EC
:105990000A4A54F8043C1168A4F108000B4413604F
:1059A000FFF714FF064A1368BDE810400133136087
:1059B000FFF782B910BD00BF64510020685100207C
:1059C000745100202DE9FF4755EC104B002D0E4679
:1059D00019462B46BBBF05F100431D4600232D236E
:1059E0000B700D9BDDF830A0914623F02008BCBF62
:1059F00022461446B8F1460F05D0B8F1450F00D144
:105A00000136022100E0032103AB019302AB0093B6
:105A100045EC104B5346324600F05EFEB8F1470F9E
:105A2000074602D119F0010F22D0B8F1460F07EB5B
:105A3000060910D13B78302B0AD1002200232046E2
:105A40002946FBF741F818B9C6F10106CAF800600B
:105A5000DAF8003099440022002320462946FBF75B
:105A600033F808B1CDF80C903022039B4B4507D397
:105A7000039B0E9ADB1B3846136004B0BDE8F08729
:105A8000591C03911A70F0E7F7B503460029B8BF17
:105A9000494203F8022BB4BF2D222B220929427060
:105AA0002ADD0DF1070217460A26944691FBF6F50A
:105AB00006FB151430340CF8014C0C46632C02F133
:105AC000FF322946F1DC3031ACF1020402F8011C4E
:105AD000411C2246BA420AD30DF10902A2EB0C0284
