:020000040800F2
:1000000000000220212A0008712900087329000835
:1000100075290008772900087929000800000000E8
:10002000000000000000000000000000116D00084A
:100030007B29000800000000A16D00087D29000850
:10004000712A0008712A0008712A0008712A000824
:10005000712A000895290008712A0008712A0008F1
:10006000712A0008712A0008712A0008712A000804
:10007000712A0008712A0008712A0008712A0008F4
:10008000712A0008712A0008712A0008712A0008E4
:10009000712A0008712A0008712A0008712A0008D4
:1000A00099290008A5290008712A0008712A00086A
:1000B000712A0008712A0008A9290008712A00087D
:1000C000712A0008712A0008712A0008712A0008A4
:1000D000712A0008712A0008712A0008B529000851
:1000E000712A0008712A0008712A0008712A000884
:1000F000712A0008C1290008712A0008712A000825
:10010000712A0008712A0008712A0008712A000863
:10011000712A0008712A0008712A0008712A000853
:10012000712A0008712A0008712A0008712A000843
:10013000712A0008712A0008712A0008712A000833
:10014000712A0008712A0008712A0008712A000823
:10015000712A0008712A0008712A0008712A000813
:10016000712A0008712A0008712A0008712A000803
:10017000712A0008712A0008712A00080000000096
:08018000712A0008712A000831
:1001900010B5054C237833B9044B13B10448AFF3C1
:1001A00000800123237010BD7000002000000000BB
:1001B000A87B000808B5034B1BB103490348AFF304
:1001C000008008BD0000000074000020A87B00082B
:1001D000034613F8012B002AFBD1181A0138704787
:1001E00001F0FF01102A2BDB10F0070F08D010F8E8
:1001F000013B013A8B422DD010F0070F42B3F6D1EC
:10020000F0B441EA012141EA014122F007047FF004
:1002100000070023F0E80256083C85EA010586EA5B
:10022000010685FA47F5A3FA87F586FA47F6A5FA97
:1002300087F68EB9EED1F0BC01F0FF0102F00702A3
:1002400032B110F8013B013A83EA010313B1F8D14E
:100250000020704701387047002D06BF354603382F
:10026000073815F0010F07D1013015F4807F02BF68
:10027000013015F4C03F0130F0BC0138704700BFB9
:1002800081F0004102E000BF83F0004330B54FEA47
:1002900041044FEA430594EA050F08BF90EA020FB4
:1002A0001FBF54EA000C55EA020C7FEA645C7FEA47
:1002B000655C00F0E2804FEA5454D4EB5555B8BF6A
:1002C0006D420CDD2C4480EA020281EA030382EADB
:1002D000000083EA010180EA020281EA0303362D6D
:1002E00088BF30BD11F0004F4FEA01314FF4801C40
:1002F0004CEA113102D0404261EB410113F0004F52
:100300004FEA03334CEA133302D0524263EB430308
:1003100094EA050F00F0A780A4F10104D5F1200EA6
:100320000DDB02FA0EFC22FA05F2801841F1000101
:1003300003FA0EF2801843FA05F359410EE0A5F1D5
:1003400020050EF1200E012A03FA0EFC28BF4CF006
:10035000020C43FA05F3C01851EBE37101F00045BC
:1003600007D54FF0000EDCF1000C7EEB00006EEBC9
:100370000101B1F5801F1BD3B1F5001F0CD3490853
:100380005FEA30004FEA3C0C04F101044FEA4452AA
:1003900012F5800F80F09A80BCF1004F08BF5FEA31
:1003A000500C50F1000041EB045141EA050130BD11
:1003B0005FEA4C0C404141EB0101013C28BFB1F523
:1003C000801FE9D291F0000F04BF01460020B1FA6E
:1003D00081F308BF2033A3F10B03B3F120020CDA41
:1003E0000C3208DD02F1140CC2F10C0201FA0CF01F
:1003F00021FA02F10CE002F11402D8BFC2F1200C84
:1004000001FA02F120FA0CFCDCBF41EA0C01904039
:10041000E41AA2BF01EB0451294330BD6FEA040482
:100420001F3C1CDA0C340EDC04F11404C4F120026D
:1004300020FA04F001FA02F340EA030021FA04F37F
:1004400045EA030130BDC4F10C04C4F1200220FAD6
:1004500002F001FA04F340EA0300294630BD21FA14
:1004600004F0294630BD94F0000F83F4801306BFDA
:1004700081F480110134013D4EE77FEA645C18BFCE
:100480007FEA655C29D094EA050F08BF90EA020F65
:1004900005D054EA000C04BF1946104630BD91EA5D
:1004A000030F1EBF0021002030BD5FEA545C05D160
:1004B0004000494128BF41F0004130BD14F580049F
:1004C0003CBF01F5801130BD01F0004545F0FE4113
:1004D00041F470014FF0000030BD7FEA645C1ABF48
:1004E000194610467FEA655C1CBF0B46024650EA7F
:1004F000013406BF52EA033591EA030F41F40021AB
:1005000030BD00BF90F0000F04BF0021704730B530
:100510004FF4806404F132044FF000054FF0000105
:1005200050E700BF90F0000F04BF0021704730B5C6
:100530004FF4806404F1320410F0004548BF40429B
:100540004FF000013EE700BF42004FEAE2014FEAF0
:1005500031014FEA02701FBF12F07F4393F07F4FCB
:1005600081F06051704732F07F4208BF704793F0CE
:100570007F4F04BF41F40021704730B54FF46074E1
:1005800001F0004521F000411CE700BF50EA0102E4
:1005900008BF704730B54FF000050AE050EA01028D
:1005A00008BF704730B511F0004502D5404261EBFD
:1005B00041014FF4806404F132045FEA915C3FF43E
:1005C000D8AE4FF003025FEADC0C18BF03325FEADB
:1005D000DC0C18BF033202EBDC02C2F1200300FA8C
:1005E00003FC20FA02F001FA03FE40EA0E0021FAB1
:1005F00002F11444BDE600BF70B54FF0FF0C4CF49F
:10060000E06C1CEA11541DBF1CEA135594EA0C0F50
:1006100095EA0C0F00F0DEF82C4481EA030621EA8B
:100620004C5123EA4C5350EA013518BF52EA0335C6
:1006300041F4801143F4801338D0A0FB02CE4FF078
:100640000005E1FB02E506F00042E0FB03E54FF0A8
:100650000006E1FB03569CF0000F18BF4EF0010EA0
:10066000A4F1FF04B6F5007F64F5407404D25FEA9C
:100670004E0E6D4146EB060642EAC62141EA55514F
:100680004FEAC52040EA5E504FEACE2EB4F1FD0C91
:1006900088BFBCF5E06F1ED8BEF1004F08BF5FEA0F
:1006A000500E50F1000041EB045170BD06F00046C1
:1006B00046EA010140EA020081EA0301B4EB5C046E
:1006C000C2BFD4EB0C0541EA045170BD41F4801166
:1006D0004FF0000E013C00F3AB8014F1360FDEBF8B
:1006E000002001F0004170BDC4F10004203C35DA67
:1006F0000C341BDC04F11404C4F1200500FA05F3EA
:1007000020FA04F001FA05F240EA020001F000428A
:1007100021F0004110EBD37021FA04F642EB060100
:100720005EEA430E08BF20EAD37070BDC4F10C042A
:10073000C4F1200500FA04F320FA05F001FA04F2EE
:1007400040EA020001F0004110EBD37041F10001DA
:100750005EEA430E08BF20EAD37070BDC4F12005E5
:1007600000FA05F24EEA020E20FA04F301FA05F24D
:1007700043EA020321FA04F001F0004121FA04F2F5
:1007800020EA020000EBD3705EEA430E08BF20EAC5
:10079000D37070BD94F0000F0FD101F000464000FF
:1007A00041EB010111F4801F08BF013CF7D041EA81
:1007B000060195F0000F18BF704703F00046520085
:1007C00043EB030313F4801F08BF013DF7D043EA56
:1007D0000603704794EA0C0F0CEA135518BF95EA0C
:1007E0000C0F0CD050EA410618BF52EA4306D1D193
:1007F00081EA030101F000414FF0000070BD50EAB2
:10080000410606BF1046194652EA430619D094EA3B
:100810000C0F02D150EA013613D195EA0C0F05D125
:1008200052EA03361CBF104619460AD181EA030179
:1008300001F0004141F0FE4141F470014FF0000031
:1008400070BD41F0FE4141F4780170BD70B54FF0CC
:10085000FF0C4CF4E06C1CEA11541DBF1CEA13554C
:1008600094EA0C0F95EA0C0F00F0A7F8A4EB05042E
:1008700081EA030E52EA03354FEA013100F0888025
:100880004FEA03334FF0805545EA131343EA1263EE
:100890004FEA022245EA111545EA10654FEA0026A3
:1008A0000EF000419D4208BF964244F1FD0404F55C
:1008B000407402D25B084FEA3202B61A65EB0305B8
:1008C0005B084FEA32024FF480104FF4002CB6EB75
:1008D000020E75EB030E22BFB61A754640EA0C00F5
:1008E0005B084FEA3202B6EB020E75EB030E22BF35
:1008F000B61A754640EA5C005B084FEA3202B6EB76
:10090000020E75EB030E22BFB61A754640EA9C0034
:100910005B084FEA3202B6EB020E75EB030E22BF04
:10092000B61A754640EADC0055EA060E18D04FEAC2
:10093000051545EA16754FEA06164FEAC30343EA62
:1009400052734FEAC2025FEA1C1CC0D111F4801F2F
:100950000BD141EA00014FF000004FF0004CB6E728
:1009600011F4801F04BF01430020B4F1FD0C88BFC7
:10097000BCF5E06F3FF6AFAEB5EB030C04BFB6EBD2
:10098000020C5FEA500C50F1000041EB045170BDC5
:100990000EF0004E4EEA113114EB5C04C2BFD4EBF2
:1009A0000C0541EA045170BD41F480114FF0000E76
:1009B000013C90E645EA060E8DE60CEA135594EAF2
:1009C0000C0F08BF95EA0C0F3FF43BAF94EA0C0FF5
:1009D0000AD150EA01347FF434AF95EA0C0F7FF46A
:1009E00025AF104619462CE795EA0C0F06D152EABE
:1009F00003353FF4FDAE1046194622E750EA4106A2
:100A000018BF52EA43067FF4C5AE50EA41047FF4B2
:100A10000DAF52EA43057FF4EBAE12E74FF0FF3C17
:100A200006E000BF4FF0010C02E000BF4FF0010CE8
:100A30004DF804CD4FEA410C7FEA6C5C4FEA430C61
:100A400018BF7FEA6C5C1BD001B050EA410C0CBFB0
:100A500052EA430C91EA030F02BF90EA020F002012
:100A6000704710F1000F91EA030F58BF994208BF79
:100A700090422CBFD8176FEAE37040F00100704736
:100A80004FEA410C7FEA6C5C02D150EA013C07D18D
:100A90004FEA430C7FEA6C5CD6D152EA033CD3D0D8
:100AA0005DF8040B704700BF8446104662468C46D2
:100AB0001946634600E000BF01B5FFF7B7FF002805
:100AC00048BF10F1000F01BD4DF808EDFFF7F4FF2E
:100AD0000CBF012000205DF808FB00BF4DF808EDB9
:100AE000FFF7EAFF34BF012000205DF808FB00BFDC
:100AF0004DF808EDFFF7E0FF94BF012000205DF8FE
:100B000008FB00BF4DF808EDFFF7CEFF94BF0120B2
:100B100000205DF808FB00BF4DF808EDFFF7C4FFAB
:100B200034BF012000205DF808FB00BF4FEA4102FE
:100B300012F5001215D211D56FF47873B3EB62522F
:100B400012D94FEAC12343F0004343EA505311F056
:100B5000004F23FA02F018BF404270474FF00000E8
:100B6000704750EA013005D111F0004008BF6FF026
:100B7000004070474FF00000704700BF4A0011D29C
:100B800012F5001211D20DD56FF47873B3EB6252E7
:100B90000ED44FEAC12343F0004343EA505323FAF3
:100BA00002F070474FF00000704750EA013002D168
:100BB0004FF0FF3070474FF00000704753B94AB90B
:100BC000002908BF00281CBF4FF0FF314FF0FF3055
:100BD00000F070B9ADF1080C6DE904CE00F006F834
:100BE000DDF804E0DDE9022304B070472DE9F047A9
:100BF000089E0D4604460F46002B4AD18A42944671
:100C000065D9B2FA82F343B102FA03FCC3F12002C0
:100C10009F4020FA02F217439C404FEA1C4E1FFAF5
:100C20008CF5B7FBFEF1220C0EFB117742EA07426E
:100C300001FB05F090420AD91CEB020201F1FF37DB
:100C400080F01C81904240F2198102396244121AEC
:100C5000A4B2B2FBFEF00EFB102244EA024400FBF9
:100C600005F5A5420AD91CEB040400F1FF3280F01F
:100C70000781A54240F204816444023840EA014001
:100C8000641B00211EB1DC400023C6E90043BDE81F
:100C9000F0878B4208D9002E00F0ED800021C6E9D4
:100CA00000050846BDE8F087B3FA83F1002949D171
:100CB000AB4202D3824200F2F880841A65EB030251
:100CC00001201746002EE2D0C6E90047DFE702B94F
:100CD000FFDEB2FA82F3002B40F090808A1A4FEACE
:100CE0001C471FFA8CFE0121B2FBF7F507FB15200C
:100CF000220C42EA00420EFB05F0904208D91CEBA0
:100D0000020205F1FF3802D2904200F2CB80454644
:100D1000121AA4B2B2FBF7F007FB102244EA024415
:100D20000EFB00FEA64508D91CEB040400F1FF32BF
:100D300002D2A64500F2BB801046A4EB0E0440EAA6
:100D400005409FE7C1F120078B4022FA07FC4CEADF
:100D5000030C05FA01F420FA07F3FD404FEA1C49A1
:100D60002343B5FBF9F81FFA8CFE09FB18551C0C40
:100D700044EA054408FB0EF5A54202FA01F200FA26
:100D800001F00BD91CEB040408F1FF3A80F08880D5
:100D9000A54240F28580A8F102086444641B9DB21C
:100DA000B4FBF9F309FB134445EA044403FB0EFECC
:100DB000A64508D91CEB040403F1FF356CD2A64507
:100DC0006AD9023B644443EA0843A3FB0295A4EBBF
:100DD0000E04AC42C846AE4656D353D056B1B0EB23
:100DE000080264EB0E0404FA07F7CA40CC4017432C
:100DF000C6E9007418460021BDE8F087C3F1200160
:100E000002FA03FC20FA01F225FA01F19D402A437F
:100E10004FEA1C471FFA8CFEB1FBF7F007FB1015D9
:100E2000110C41EA054100FB0EF58D4204FA03F472
:100E300008D91CEB010100F1FF382FD28D422DD9CA
:100E400002386144491B92B2B1FBF7F507FB15115B
:100E500042EA014205FB0EF1914208D91CEB020265
:100E600005F1FF3816D2914214D9023D6244521A5C
:100E700045EA004138E73146304608E73946E6E6BC
:100E80001046FBE64845A9D2B9EB020865EB0C0E0B
:100E9000013BA3E74546EAE72B4694E74046D1E706
:100EA000D0467BE7023D624432E708460AE76444E5
:100EB000023842E7704700BF08B5054C20464FF4A2
:100EC000806102F072FB4FF4FA6004F0F2FBF5E788
:100ED000001002402DE9F04300249FB0102221466B
:100EE00006A8059406F086F9102221460BA80A945C
:100EF00006F080F91022214610A80F9406F07AF926
:100F00001022214615A8149406F074F910222146E7
:100F10001AA8199406F06EF9314D324F00262A882E
:100F2000314905A806F046F905AA0A21002001F07A
:100F300067FE2E4BD3E9008949464046FFF7F6FD90
:100F40000446FFF7EFFA02460B4640464946FFF7D4
:100F50009BF932463B46FFF74FFBFFF7E7FD80EA80
:100F6000E073A3EBE073224621490AA806F022F9B8
:100F70000AAA1421002001F043FE1E4B1E4A1B88C2
:100F800012881E490FA806F015F90FAA1E2100208D
:100F900001F036FE1A4B1B4A1B8812881A4914A806
:100FA00006F008F914AA2821002001F029FE174AAA
:100FB000174913790293D378019393780093537868
:100FC000127819A806F0F6F819AA3221002001F0CB
:100FD00017FE01F07DFD642004F06BFB9FE700BF6E
:100FE000B003002000408F40C07B0008A803002011
:100FF000CF7B0008C8030020C0030020DD7B000871
:101000006E0300206C030020EB7B0008A40000208E
:10101000F97B000870B53C211948194E194D03F0B1
:10102000FEF93C21184803F0FAF901F0DBFE044612
:1010300001F0D8FE001B0A281DD9134B30681C682C
:10104000426A616A2B68B1F5FA4FC6BFC1F58031BB
:101050005B1A5B180D492B60B2F5FA4F0B68CABFDB
:10106000C2F580329B1A9B180B60002363624362B7
:1010700001F0B8FE0446322004F01BFBD8E700BFA5
:10108000080200208C03002050020020740300207E
:1010900000B595B02C22002109A806F0ABF8142267
:1010A000002103A806F0A6F80023194A0193116C49
:1010B00041F080511164126C02F080520192019A49
:1010C000144A0293116841F48041116012680E9332
:1010D00002F480420292029A022208920120102217
:1010E000CDE90B0208A802F077FE014608B172B6FE
:1010F000FEE70F23CDE90330CDE90500079003A8F3
:1011000003F044F808B172B6FEE715B05DF804FBD1
:10111000003802400070004080B59CB001F03CFEF9
:10112000FFF7B6FF1422002113A806F063F800248D
:10113000A64B00941A6BA64842F010021A631A6B71
:1011400002F010020092009A01941A6B42F08002A1
:101150001A631A6B02F080020192019A02941A6BD0
:1011600042F001021A631A6B02F001020292029A23
:1011700003941A6B42F002021A631A6B02F0020225
:101180000392039A04941A6B42F008021A631A6BD2
:1011900002F008020492049A05941A6B42F00402C9
:1011A0001A631B6B03F00403059322464FF4BC61E2
:1011B000059B02F0F5F9874822463C2102F0F0F940
:1011C000854822464FF4806102F0EAF922468348BE
:1011D0004FF4005102F0E4F901264FF4BC637C485F
:1011E00013A9CDE91336CDE9154402F0FFF83C23ED
:1011F000CDE9133677481594022313A9169302F00C
:10120000F5F84FF48063744813A9CDE913364FF411
:101210008075CDE9154402F0E9F84FF488136F4862
:10122000159413A9CDE913534FF4005702F0DEF8DB
:101230006A4813A9CDE91376CDE9154402F0D6F832
:101240006748DFF8B8C1674B0462C0E900C34FF4D8
:101250008043C0E90244C0E90434C0E9064402F016
:10126000AFFA054608B172B6FEE70146102208A89B
:1012700005F0C0FF1C2229460CA8CDE9065505F053
:10128000B9FF2022294613A805F0B4FF564C574851
:10129000A560A023C4E900034FF47A73C4E90335C1
:1012A000204680236561A36103F034FA08B172B669
:1012B000FEE74FF4805308A92046089303F06BFC27
:1012C00008B172B6FEE7204603F050FA08B172B6D4
:1012D000FEE7CDE9060006A9204603F0EDFD08B1C2
:1012E00072B6FEE76023CDE90C30CDE910000E9018
:1012F00012900C220CA9204603F01AFB08B172B61A
:10130000FEE7CDE91300CDE91500CDE917071A90E6
:1013100013A9204603F00EFE054608B172B6FEE79B
:10132000204601F0BBFA324C29461C2214A805F0D5
:1013300061FF4FF6FF774FF08043CDE90C55C4E9CC
:101340000035C4E90375A560A5614FF003080A25BF
:1013500013A92046CDF84C801596179519961B9524
:1013600003F05CFA08B172B6FEE7CDE90C000CA9F7
:10137000204603F0A1FD044608B172B6FEE701461F
:101380001C2214A805F036FF1A481B4B046113A950
:10139000CDE90C44C0E90034C0E902478461CDF8CE
:1013A0004C801596179519961B9503F037FA08B1DE
:1013B00072B6FEE700230F480CA9CDE90C3303F009
:1013C0007BFD0546E0B172B6FEE700BF0038024083
:1013D000001002400000024000040240000C0240E5
:1013E0006C010020A0860100C00100200000014027
:1013F0000802002050020020000400400054004079
:101400000146CDE90C00102213A805F0F3FE9A4C1A
:101410009A49A5600F23C4E9001320464FF6FF73D5
:10142000C4E90335A56103F0CDF908B172B6FEE752
:10143000CDE90C000CA9204603F03EFD024608B1A0
:1014400072B6FEE70123CDE914301390169013A96C
:10145000204603F001FB054608B172B6FEE70146DF
:10146000102208A805F0C6FE1C2229460CA8CDE9CA
:10147000065505F0BFFE2022294613A805F0BAFE46
:101480007F4C804BA560C4E90035204641F61F43E0
:10149000C4E90335C4E9055503F03CF908B172B657
:1014A000FEE74FF4805308A92046089303F073FB2E
:1014B00008B172B6FEE7204603F058F908B172B6DB
:1014C000FEE7CDE9060006A9204603F0F5FC02463A
:1014D00008B172B6FEE76023CDE90C30CDE90E000D
:1014E000CDE9100012900CA9204603F021FA08B1B2
:1014F00072B6FEE704220CA9204603F019FA08B1DF
:1015000072B6FEE700234FF400525D48179313A90B
:10151000CDE91333CDE9153318921A9303F00AFD80
:1015200008B172B6FEE7584E584A30614FF4E133C5
:10153000C6E900230C23C6E90200C6E90530F061C4
:10154000304603F0E1FD054608B172B6FEE7504CA7
:10155000DFF8B0810146102213A805F04BFE4D4B79
:10156000A56001272046C4E900352561257684F869
:101570002050E562C4F82880E560E76184F83050C7
:10158000676101F049FC08B172B6FEE7CDE91307C7
:10159000159013A9204601F0E1FD054608B172B689
:1015A000FEE73D4C0146102213A805F023FE3B4BFD
:1015B000A5602046C4E90035C4E90A852561257681
:1015C00084F82050E560E76184F83050676101F0ED
:1015D00023FC08B172B6FEE7159013A92046CDE9A9
:1015E000137701F0BBFD044608B172B6FEE701F0C7
:1015F00027FB2B490522304603F0CFFF03F0E6FF1F
:10160000284A2948214604F00DF8284B284A18603A
:101610002146284804F006F8274B284A186021463E
:10162000274803F0FFFF274B274A18602146274829
:1016300003F0F8FF264B274A18602146264803F09E
:10164000F1FF264B264A18602146264803F0EAFFA0
:10165000254B264A18602146254803F0E3FF254B19
:10166000254A18602146254803F0DCFF244B18600A
:1016700003F0BEFFFEE700BF980200200008004014
:10168000E002002000040140280300200048004040
:10169000DC00002000200140240100200021014046
:1016A000A4000020D47C0008B90E0008B40000207B
:1016B000407D0008011A0008800300208C7C00088F
:1016C000D50E0008A00000201C7D0008792300082A
:1016D000D8000020647D000851180008B4030020E1
:1016E000B07C0008591E0008AC000020F87C0008FF
:1016F00015100008BC000020687C0008B124000818
:10170000980000200100000F08B505220349044895
:1017100003F043FF034B01221A6008BDA400002020
:101720002803002088030020034B1B6800225A6214
:101730005A6A8242FCD370479802002000000000E1
:1017400070B5067F012E044610D1254D296871B968
:1017500002F0BEFE234B2E60186023681A6A22F046
:101760000A021A621A6A42F002021A6270BD012964
:10177000FCD1002102F0ACFE1B4B24681860002352
:101780006362184B1A68194B904220DD801A18804A
:101790001888FEF7C7FE10A3D3E90023FEF72CFF3D
:1017A000134B0022FEF728FFFFF7E8F9114B1880D2
:1017B00000232B60236A23F00A032362236A236237
:1017C0000D4B1A68D36823F00203D360CEE7DFDA4B
:1017D000801A0138DBE700BF006F8104C58FA13F8D
:1017E0009C00002090000020940000208C0000202D
:1017F0000000E03FB00300209802002010B50B4C21
:1018000001224FF40051204601F0CAFE0A20FFF7E2
:101810008BFF4FF400510022204601F0C1FE044B23
:101820001A68D36843F00203D36010BD000C024075
:1018300098020020044B01221A60044B94224FF4BA
:1018400096701A8003F035BFB80000200A0000200F
:1018500008B50C480C4D0D4E0D4C002103F0AAFAB2
:10186000FFF7CCFF2A8833889A4206D82368012BD9
:1018700003D100232360FFF7DDFF642003F019FF8D
:10188000EEE700BF98020020B00300200C0000200B
:10189000B803002038B504460D4659B3002822DDB0
:1018A00001222548102101F07BFE00222021224840
:1018B00001F076FE84EAE472A2EBE472B2F5FA6F0C
:1018C0002DDCB2F5FA7F2DDCC82A2EDC642A2FDC51
:1018D0001A490B68022A03F101030B601BDD4FF468
:1018E000FA74204638BD00221348102101F058FE3A
:1018F0000122DBE7002807DD01220F48082101F063
:101900004FFE2A460421D2E70A460B48082101F07F
:1019100047FE0122F6E7002CE3D00024E1E740F681
:10192000B834DEE74FF4FA64DBE74FF4AF64D8E78E
:101930004FF47A74D5E700BF00000240A0030020F6
:1019400038B500222B4B054651EC100BFEF754FE28
:10195000FFF7ECF8044665B3002823DD0122264892
:10196000102101F01DFE00222021234801F018FE65
:1019700084EAE470A0EBE470B0F5967F2ADCC82816
:101980002BDC96282CDC64282DDC0A282EDC1B4A54
:101990001368012803F101031360CCBF4FF41670E4
:1019A000002038BD00221448102101F0F9FD012269
:1019B000DAE7002807DA01220F48082101F0F0FDDC
:1019C0002A460421D1E72A460B48082101F0E8FD08
:1019D0000122F6E740F6B830E3E74FF4FA60E0E7BB
:1019E0004FF4C860DDE74FF4AF60DAE74FF47A7088
:1019F000D7E700BF0000244000000240A003002001
:101A00002DE9F84F0024DFF8C882DFF8C892DFF82C
:101A1000C8B29F48A8F800402146A9F8004003F04A
:101A2000C7F904219A4803F0C3F90C21584603F082
:101A3000BFF9DBF80030974894221A641021012284
:101A400001F0AEFD93482246202101F0A9FD914806
:101A50000122082101F0A4FD8E482246042101F054
:101A60009FFD4FF47A7003F024FE8B4DDBF80030BD
:101A7000B5F800A0C3F840A08849894BD1E900011E
:101A8000D3E90023FEF700FCBAF17E0F06460F46AD
:101A900058D847EC106B0120FFF752FFFEF742FDCC
:101AA00077A3D3E90023FEF7A7FDFFF767F880B21D
:101AB000A8F80000FEF736FD73A3D3E90023FEF774
:101AC0009BFDFFF75BF80022A9F8000000233046D9
:101AD0003946FFF721F8024600282DD001226D4833
:101AE000082101F05DFD002204216A4801F058FD43
:101AF0006C4B1B6863B10023A8F80030A9F80030D4
:101B0000694B1A68694B1A60694B1A68694B1A600D
:101B10005F4BB9F800201B685A63B8F800209A633D
:101B2000012003F0C6FD644B1A68B2F57A7F9CDD94
:101B300040F2E9321A6098E75648082101F030FD7A
:101B40000122D1E7BAF1BD0F28D947EC106B002074
:101B5000FFF7F6FEA9F8000080B2FEF7E3FC4AA307
:101B6000D3E90023FEF748FDFFF708F80022A8F8A4
:101B70000000002330463946FEF7B0FF024638B178
:101B800001224448102101F00BFD00222021ACE786
:101B90004048102101F004FD0122F7E7DFF808A119
:101BA000424B1868DAF800300021C01AFFF772FEC5
:101BB000FEF7B8FC32A3D3E90023FEF71DFDFEF7C4
:101BC000DDFF3A4BDAF800201B68A8F800009B1AEA
:101BD000384A1068364A1268801A83EAE37180EA4C
:101BE000E072A1EBE371A2EBE072914203F16303B7
:101BF000CCBF013404F1FF340121C62B98BF00246F
:101C0000FFF748FE294B1A68DAF8003020449A4260
:101C1000A9F80000294B4FF000023046394620DA7F
:101C2000FEF77AFF08B1A72307E0254B00223046D4
:101C30003946FEF753FF10B181232B8058E7214B23
:101C4000002230463946FEF7D7FC1C4B0022FEF737
:101C5000FDFD1D4B0022FEF719FBFEF78FFF2880CC
:101C600046E7FEF759FF0028E6D1154B0022304623
:101C70003946FEF733FF0028D5D1144B0022E0E7A8
:101C8000F4FDD478E926F13FE17A14AE47E1E23F72
:101C9000E0020020000002400A000020980300201B
:101CA000A8030020B800002074030020780300205F
:101CB0008C03002090030020A003002000001440AB
:101CC000000014C00000334000806240000033C0B8
:101CD0008603002084030020C00100200E4B1A68F8
:101CE000142A10B54FF0010014DD0C4A10600C4AA4
:101CF000002414800B4A1C6014800B4A11680B4AA4
:101D000011600B4A11680B4A4FF49670116003F092
:101D1000D0FC204610BD00BFA0030020B80000206A
:101D20008603002084030020740300207803002031
:101D30008C0300209003002038B5194B94224FF4F7
:101D4000967055EC104B1A8003F0B3FC154A002333
:101D50001360154A1360154A154B1360154A204647
:101D6000136029460AA3D3E90023FEF745FC0AA322
:101D7000D3E90023FEF78AFAFEF7D8FE0E4B18606F
:101D80000E4B1860FFF7AAFF0028FBD138BD00BF3B
:101D90000000000000C0524000000000804FF240F0
:101DA0000A000020B8000020A00300208C030020BF
:101DB000F824010074030020900300207803002021
:101DC0000E4B70B5FA224FF4967055EC104B1A80FA
:101DD00003F06FFC0A4A0B4E002313600A4AD6E94F
:101DE0000001136022462B46FEF74EFAC6E90001B9
:101DF000FFF774FF0028FBD170BD00BF0A00002070
:101E0000B800002098030020A00300200E4B70B5FE
:101E10005F224FF4967055EC104B1A8003F049FC8A
:101E20000A4A0B4E002313600A4AD6E900011360E8
:101E300022462B46FEF72AFAC6E90001FFF74EFFBD
:101E40000028FBD170BD00BF0A000020B8000020B0
:101E500098030020A00300202DE99F48AE4CDFF836
:101E60000C9341238DF80F30452323704D2363706D
:101E70005023A370A6A7D7E900675423E370592322
:101E80002371D9F80030A54D012B79D1DFF8E0821C
:101E90000023C8F800302378A3F14902D2B20F2AF8
:101EA00009D89F4941FA02F2D20704D46278522A33
:101EB00010D04C2A0ED04C3BDBB20D2B60D842F236
:101EC000C16222FA03F3DB075AD5637803F0FB0300
:101ED000422B55D1E378A2780A21303B303A4B436C
:101EE000642101FB02332279303A13446278C8F846
:101EF0000030422A08BF5B424FF4967008BFC8F812
:101F0000003003F0D6FB2378493B102B38D8DFE8AC
:101F100013F0110037003700460137003700370053
:101F2000370037003D012000D90098003301370009
:101F3000A200C9007B4B01221A6063784C2B77D139
:101F4000794B7A4A1B886FF4F97C63441288934278
:101F500007DCD8F80000FEF7E5FA41EC100BFFF7BC
:101F6000EBFE01232B60442323704F2363704E2329
:101F7000A3704523E37064202123237103F099FBB0
:101F80002A68012A50D1DFF8D481D8F800304FF008
:101F9000000B012BC9F800B040F00A81642003F067
:101FA00088FB634B1B68A3F59233F83B07EE903A2E
:101FB000604B1B68A3F59233F83B07EE103AF8EE3E
:101FC000E77AB8EEC77A77EE877AB6EE007A67EEF0
:101FD000877AB5EE007A67EE877A9FED577AC7EE7B
:101FE000877A17EE900AFEF7AFFA32463B46FEF7C5
:101FF00003FBFEF7C3FD514BC8F800B082B21A8054
:102000004F49504805F0D6F84FF4967003F051FB55
:102010004C48FEF7DDF84B494FF6FF7382B24A4851
:1020200003F0A0F800232B60642003F042FB28E7B4
:10203000522B8ED13C4B454A1B886FF4F9700344F8
:1020400084E7434B01221A60424B1A88424B1B889B
:102050009A4286D97DE7414A01231360314A1360D1
:1020600063784C2B15D1304B304A1B886FF4F971D3
:102070000B441288934207DCD8F80000FEF752FAAE
:1020800041EC100BFFF758FE354B186804F084FA4A
:1020900067E7522BF0D1244B1B886FF4F97213447D
:1020A0002A4AE6E72F4A01231360294A1360294A86
:1020B0001188294A1288881A0928DCBF2A48036037
:1020C0009142C6E7DFF8ACA0DAF80030012B06D168
:1020D000234B186804F050F80023CAF80030D8F8F1
:1020E00000004042FEF71EFA41EC100BFFF724FE01
:1020F0006378522B04D1154B1A880B4B1A8030E7AA
:102100004C2B7FF42EAF094BF6E700BFAFF30080F6
:10211000A46477349C6B3440A4000020C0000020ED
:10212000FE77FFFF70030020080000206C030020F2
:10213000740300208C0300200080BD43C0030020F6
:10214000097C0008B0000020280300206E03002056
:10215000B8030020B00300200C000020C4030020BE
:1021600098000020CC030020BC030020880300203E
:102170007C030020040000203A4B19221A803A4BBD
:1021800001221A60394B1B88192B62E7D8F800002E
:10219000FEF7C8F941EC100BFFF712FEE1E6D8F8A4
:1021A0000000FEF7BFF941EC100BFFF72FFED8E659
:1021B000DFF8CCA0DAF80030012B48D1642003F01E
:1021C00078FA2B4ADFF8BC801368012B12D1274B19
:1021D0001B88272B81BF234909885B1A1FFA83FBC1
:1021E0000023A8F800B013600023B8F80020CAF854
:1021F000003005E71F4B1B68A3F59233F83B07EE51
:10220000903A1D4B1B68A3F59233F83B07EE103A4A
:10221000F8EEE77AB8EEC77A77EE877AB6EE007A0C
:1022200067EE877AB5EE007A67EE877A9FED137ACC
:10223000C7EE877A17EE900AFEF786F932463B46DC
:10224000FEF7DAF9FEF79AFCA8F80000CCE74FF4A5
:102250009670019203F02DFA019A4FF6FF730DF17B
:102260000F01DCE60C000020B8030020B0030020C2
:10227000BC030020740300208C0300200080BD43B9
:10228000CC030020C803002073B50C4E0C4A0D4D42
:1022900010700C460A233178009301239940284698
:1022A00001F036FB317814230093224602234900C3
:1022B000284601F005FC02B070BD00BF0000002000
:1022C000C40000206C01002007B5074B074A51707D
:1022D000197810701423009349000223044801F078
:1022E00017FB03B05DF804FB00000020C4000020D1
:1022F0006C01002008B500210620FFF7E5FF0A2049
:1023000003F0D7F980210320FFF7DEFF0A2003F056
:10231000D0F907210846FFF7D7FF0A2003F0C9F9D3
:1023200001210620FFF7D0FF0A2003F0C2F9202187
:102330007F20FFF7C9FF0A2003F0BBF92F210120FE
:10234000FFF7C2FF0A2003F0B4F900210846FFF7A7
:10235000BBFF0A2003F0ADF900217F20FFF7B4FF97
:102360000A2003F0A6F907200021FFF7ADFFBDE822
:1023700008400A2003F09DB92DE9F04F85B0FFF722
:10238000B9FF0023ADF80C3064260024002532206C
:1023900003F08FF903A93720FFF776FFBDF80C0093
:1023A000C0BAFEF7BFF80B460246CDE9002300F0A5
:1023B00019FDDDE9002320462946FDF767FF0446A5
:1023C0000D4600F00FFD013EE1D11F4BDFF87CB060
:1023D000002220462946FEF739FA06460F4600F04D
:1023E00001FD0FF25C09D9E900898246642003F0FF
:1023F00060F903A93720FFF747FFBDF80C00C0BA0A
:10240000FEF790F832463B46FDF73EFF0D46044688
:1024100000F0E8FCA0EB0A00FEF774F842464B46D9
:10242000FEF714FA22462B46FEF7E6F8DBE9002316
:10243000FDF72CFFCBE9000100F0D4FC8246D5E784
:10244000000000000004D04000005940A803002014
:1024500010B5094C204600F085FD0A21204600F009
:1024600026FE204600F076FE044B18802046BDE88C
:10247000104000F001BE00BFDC0000206C03002013
:1024800010B5094C204600F06DFD0A21204600F0F1
:102490000EFE204600F05EFE044B18802046BDE88C
:1024A000104000F0E9BD00BF240100206E030020B1
:1024B00008B5174C174E184D2368012B02D1306810
:1024C00004F06AF8FFF7C4FFFFF7DAFF6B784C2BD4
:1024D00014D1124B124A1B886FF4F9710B44128805
:1024E000934207DD0F4B1A68012A03D100221A60BC
:1024F000FFF7A0F9642003F0DCF8DDE7522BF9D1F7
:10250000064B1B886FF4F9721344074AE7E700BFD4
:102510000400002098000020A400002008000020F3
:102520006C030020700300206E03002013B5134BD2
:10253000002400945A6C42F480425A645A6C02F4AB
:1025400080420092009A01941A6C42F080521A6400
:102550001B6C03F08053019322460F216FF00100A2
:10256000019B00F09DFE05210846224600F098FEE2
:10257000052002B0BDE8104000F0C4BE00380240A3
:1025800010B514228AB0044600210DEB020004F0BD
:1025900031FE23681E4A93421FD11E4B0021019138
:1025A0005A6C42F480725A645A6C02F4807201923E
:1025B000019A02911A6B42F001021A631B6B03F03D
:1025C00001030293029B012305931348032305A9EA
:1025D000069300F00BFF0AB010BD104A9342FAD1E7
:1025E0000C4B002103915A6C42F400725A645A6CED
:1025F00002F400720392039A04911A6B42F00102F2
:102600001A631B6B03F001030493049B0223DBE7B3
:10261000002001400038024000000240002101403B
:1026200030B5044689B01422002103A804F0E2FD6D
:102630002268144B9A4222D1134C1448002501956C
:10264000236B43F002032363236B03F00203019324
:10265000019B4FF440721223CDE90323032104238D
:10266000CDE9061303A900F0C1FE0295236C43F4E3
:1026700000132364236C03F400130293029B09B03C
:1026800030BD00BF0054004000380240000402404A
:1026900010B5044688B01422002103A804F0AAFD56
:1026A0002368254A93421CD10022244B0092596C86
:1026B00041F0010159645B6C03F0010305210093B3
:1026C0001820009B00F0ECFD182000F01BFE1920E4
:1026D0000022052100F0E4FD192000F013FE08B0EF
:1026E00010BD174A9342FAD1144B164800240194A6
:1026F0005A6C42F002025A645A6C02F002020192D1
:10270000019A02941A6B42F004021A631B6B03F0E5
:1027100004030293C022029B0223CDE9032303A9F1
:102720000323079300F062FE2D202246052100F0CE
:10273000B7FD2D20D1E700BF000001400038024066
:10274000000401400008024070B514228AB004461B
:1027500000210DEB020004F04DFD2368B3F1804F22
:1027600037D103F50E33002400941A6C294842F047
:1027700001021A641A6C02F001020092009A01949C
:102780001A6B42F001021A631A6B02F00102019205
:10279000019A02941A6B42F002021A631B6B03F057
:1027A00002030293029B02264FF40043012505A970
:1027B000CDE90536099500F019FE0823CDE9053667
:1027C000CDE907441448099505A900F00FFE0AB0A9
:1027D00070BD124A9342FAD1114B0E480021039169
:1027E0001A6C42F002021A641A6C02F0020203929E
:1027F000039A04911A6B42F001021A631B6B03F0F7
:1028000001030493049BC0220223CDE9052309930D
:1028100005A9DAE70000024000040240000400407D
:102820000038024010B5044688B01422002103A8E5
:1028300004F0E0FC2268174B9A4228D103F50C33D0
:10284000002401941A6C144842F004021A641A6CB1
:1028500002F004020192019A02941A6B42F00802FB
:102860001A631B6B03F0080302934FF48052029B20
:1028700003A90223CDE90323079300F0B7FD1E202F
:102880002246052100F00CFD1E2000F03BFD08B0A3
:1028900010BD00BF00080040000C024010B5044607
:1028A00086B01422002101A804F0A4FC22680E4B7B
:1028B0009A4216D1002300930C4B0D481A6B42F03C
:1028C00010021A631B6B03F010030093009B4FF47C
:1028D00080420223CDE9012301A90123059300F0E1
:1028E00085FD06B010BD00BF000001400038024069
:1028F0000010024010B5044688B01422002103A83D
:1029000004F078FC2268184B9A422BD103F5F83377
:10291000002401941A6C154842F480221A641A6C3F
:1029200002F480220192019A02941A6B42F004028E
:102930001A631B6B03F0040302934FF44062029B83
:102940000223CDE9032303210723CDE9061303A9BD
:1029500000F04CFD27202246052100F0A1FC272095
:1029600000F0D0FC08B010BD004800400008024054
:10297000FEE7FEE7FEE7FEE7FEE7704708B500F07A
:1029800025FA03F02DFF012803D0BDE8084004F02C
:1029900039BA08BD70470000014801F0B3BD00BF5F
:1029A000C0010020FFF7F8BF014801F0ABBD00BF38
:1029B00098020020014802F08FBC00BF28030020CD
:1029C000014801F09FBD00BFE00200200B4A1168E2
:1029D00010B5034609B90A491160106809490A4C43
:1029E0000344091B8B4206D904F062FC0C230360EC
:1029F0004FF0FF3010BD1360FCE700BFD003002094
:102A0000085300200000022000040000034AD2F80E
:102A1000883043F47003C2F88830704700ED00E05E
:102A2000DFF834D00D480E490E4A002302E0D45896
:102A3000C4500433C4188C42F9D30B4A0B4C002306
:102A400001E013600432A242FBD3FFF7DFFF04F082
:102A500035FCFEF761FB70470000022000000020FB
:102A6000700000205C8800087000002004530020E3
:102A7000FEE7000070B50A46044601B10122134882
:102A8000124E4FF4807100F08BFD082500222021AA
:102A9000304600F085FD23064CBF01220022402174
:102AA000304600F07DFD013D01222021304600F03E
:102AB00077FD640015F0FF05E4B2E7D1BDE8704092
:102AC000024801224FF4807100F06ABD00100240FC
:102AD00070B50F4EB02400212046FFF7CBFF002138
:102AE0000846FFF7C7FF00211020FFF7C3FF0025AE
:102AF00016F8350001210135FFF7BCFF802DF7D115
:102B00000134E4B2B82C06F10106E4D170BD00BF77
:102B1000D40300200023084810B41C460022C1182A
:102B200001F832400132802AFAD10133082BF5D165
:102B30005DF8044BFFF7CCBFD4030020030610B5AB
:102B400012D43F2910D801F00703C3F10703012471
:102B50009C40C908064BC1F10701C9B203EBC00094
:102B6000435C12B12343435410BD23EA0403FAE744
:102B7000D40300202DE9F74F1F46203A1E4B9DF845
:102B800030B0D2B203EB021301931C4B02EB4202B2
:102B900003EB82038146884600930C460026B74229
:102BA00002D103B0BDE8F08F0C2F0CBF009B019B3E
:102BB0009D5D04F108035FFA83FA2B0658BFBBFA48
:102BC0008BF2214604F101044CBF5A465209484693
:102BD000E4B2FFF7B3FFA4EB08026D00BA42EDB216
:102BE00007D109F101005FFA80F9C2460136544667
:102BF000D5E7A245E1D1F9E714820008A07D0008DD
:102C0000F7B504460D46561E012716F8013F0BB9CD
:102C100003B0F0BD7A2C82BF1035EDB200243A2DFE
:102C200003D9FFF777FF00252C460097204632781E
:102C30000C2329460834FFF79DFFE4B2E5E70000C6
:102C400010B501F0ADF8404B404C1A6F22F0010274
:102C50001A671A6F22F004021A6701F0AFF8002217
:102C60008021204600F09CFC642000F0C1F8012285
:102C70002046802100F094FC0021AE20FFF7FAFEF0
:102C80000021D520FFF7F6FE00215020FFF7F2FECD
:102C90000021A820FFF7EEFE00213F20FFF7EAFE0B
:102CA0000021D320FFF7E6FE00210846FFF7E2FEF1
:102CB00000214020FFF7DEFE00218D20FFF7DAFE25
:102CC00000211420FFF7D6FE00212020FFF7D2FEBE
:102CD00000210220FFF7CEFE0021A120FFF7CAFE4F
:102CE0000021C020FFF7C6FE0021DA20FFF7C2FE58
:102CF00000211220FFF7BEFE00218120FFF7BAFE5F
:102D00000021EF20FFF7B6FE0021D920FFF7B2FE29
:102D10000021F120FFF7AEFE0021DB20FFF7AAFE25
:102D200000213020FFF7A6FE0021A420FFF7A2FE1D
:102D30000021A620FFF79EFE0021AF20FFF79AFE9C
:102D4000BDE81040FFF7E6BE003802400010024028
:102D500038B50E4B1A784FF47A73B3FBF2F30C4A82
:102D600005461068B0FBF3F000F0DAFA044658B9F3
:102D70000F2D09D8024629464FF0FF3000F090FA97
:102D8000044B20461D6038BD0120FCE714000020E4
:102D9000100000201800002008B50B4B1A6842F400
:102DA00000721A601A6842F480621A601A6842F46B
:102DB00080721A60032000F061FA0F20FFF7C8FF4D
:102DC000FFF7B4FB002008BD003C0240034A044B5F
:102DD00011681B780B441360704700BFD4070020B4
:102DE00014000020014B1868704700BFD407002072
:102DF00038B50446FFF7F6FF631C1CBF054B1B7874
:102E0000054618BFE418FFF7EDFF431BA342FAD3B2
:102E100038BD00BF1400002038B50446002800F07B
:102E20009B80056C25B9FFF7ABFB656484F83C50CB
:102E3000236CDB0600F18E80236C23F4885323F08F
:102E4000020343F002032364444B5A6822F44032E5
:102E50005A605A6861680A435A60236821695A684F
:102E600022F480725A605A6842EA01225A605A6813
:102E7000A16822F040725A605A680A435A609A6800
:102E8000E16822F400629A609A680A439A603449C1
:102E9000A26A8A4252D0996821F07061996099685B
:102EA0000A439A609A68E16A22F040529A609A68EE
:102EB0000A439A609A6822F002029A609A68217E18
:102EC00042EA41029A6094F82020002A3ED05A68D3
:102ED000616A42F400625A605A6822F460425A60A1
:102EE0005A68013942EA41325A60DA6AE16922F4E9
:102EF0007002DA62DA6A013942EA0152DA629A68E9
:102F000022F400729A609A6894F8301042EA4122E2
:102F10009A609A68616922F480629A609A680020D7
:102F200042EA81229A606064236C23F0030343F039
:102F300001032364002384F83C3038BD9A6822F0F2
:102F400070629A609A6822F04052B2E75A6822F49E
:102F50000062C9E70120EDE70120EEE70023014010
:102F60000100000F13B50023019390F83C30012BB2
:102F7000024672D00168012380F83C308B68D80784
:102F80000CD58B6813F001031AD1116C41F01001BC
:102F90001164516C41F0010151645CE08B68304870
:102FA00043F001038B602F4B1B68B3FBF0F303EB83
:102FB00043030193019B002BE3D0019B013BF8E706
:102FC000136C294C23F4E06323F0010343F4807372
:102FD00013644B685B0541BF136C23F4405343F407
:102FE00080531364136C13F4805318BF536C4FF069
:102FF000000018BF23F00603536482F83C006FF012
:1030000022031A4A0B60536813F01F0319D1A1421F
:1030100006D0174881420DD1526812F01F0F1AD105
:10302000886810F0405016D18B6843F080438B6065
:1030300002B010BD0F4881420DD1526812F0100F3E
:10304000EDE7A142F4D18B6813F04053F0D18A68C8
:1030500042F080428A600020EAE70220E8E700BFF1
:1030600040420F00100000200020014000230140DA
:10307000002101400022014090F83C30012B14D087
:1030800003689A6822F001029A609B68DB0707D404
:10309000036C23F4885323F0010343F0010303641A
:1030A000002380F83C3018467047022070470368C0
:1030B0009A68520570B504460D460BD59B68DE052F
:1030C00008D5036C43F020030364002380F83C30F0
:1030D000012070BDFFF786FE064623681A68910737
:1030E0000CD56FF012021A60226C42F40072226456
:1030F0009A6812F0405F17D00020EAE7681CEDD014
:1031000065B923681B6813F00203E6D1226C84F8CA
:103110003C3042F0040222640320DAE7FFF762FE4B
:10312000801BA842EDD8D8E7207E0028E4D1DA6AD7
:1031300012F4700F02D09B685A05DDD4236C23F47F
:1031400080732364236CDB04D6D4236C43F0010327
:103150002364BEE70368D86C70470000F7B500230E
:10316000019390F83C30012B64D0012380F83C306F
:103170000D6803688E68092DACB231D904EB4402A6
:10318000DF681E3A4FF0070C0CFA02FC27EA0C0726
:10319000DF60DF6806FA02F23A43DA60496806291E
:1031A00001EB81022BD8596B053A1F26964021EA84
:1031B00006015963596B04FA02F20A435A632B4A17
:1031C000934207D1122D37D1D2F8043343F4800350
:1031D000C2F80433002380F83C30184603B0F0BD39
:1031E0001A6905EB450C072707FA0CF722EA0702D4
:1031F0001A611A6906FA0CF616431E61CEE70C290D
:103200004FF01F010BD81E6B233A914026EA0101B3
:103210001963196B04FA02F20A431A63CFE7DE6AF4
:10322000413A914026EA0101D962D96A94400C439F
:10323000DC62C4E70220D1E7A5F11003012BC9D855
:103240000B4A5368102D43F400035360C2D1094B5D
:10325000094A1B68B3FBF2F30A2253430193019B13
:10326000002BB7D0019B013BF8E700BF00200140D5
:10327000002301401000002040420F000749CA68A7
:1032800022F4E0620302120403F4E063120C13431D
:1032900043F0BF6343F40033CB60704700ED00E0C0
:1032A000164B30B5DC68C4F30224C4F10703251DB6
:1032B000042B28BF0423062D4FF0FF358CBF033CA1
:1032C000002405FA03F321EA0303A54022EA0502DC
:1032D000A340002843EA0203ACBF00F16040084A63
:1032E0004FEA0313B8BF00F00F00DBB2AABF00F52E
:1032F0006140135480F8003330BD00BF00ED00E0A2
:1033000014ED00E0002807DB4109044A00F01F002B
:103310000123834042F82130704700BF00E100E004
:103320000138B0F1807F0BD24FF0E023054A58619D
:10333000F02182F823100020072298611A6170475B
:103340000120704700ED00E070B50446866DFFF780
:1033500049FD94F83530022B054606D0802363657D
:103360000120002384F8343070BD23681A6822F0ED
:1033700016021A605A6922F080025A61226C0AB958
:10338000A26C1AB11A6822F008021A601A6822F0B8
:1033900001021A6023681B6813F0010308D1E16D74
:1033A0003F228A40B260012284F835201846D8E7CF
:1033B000FFF718FD401B0528ECD920230320636587
:1033C00084F83500CDE790F83530022B03D0802308
:1033D0004365012070470268052380F83530136883
:1033E00023F0010313600020704700002DE9F74F20
:1033F000DFF8A891674A00230D6801249C4004EA85
:10340000050CAC4340F0B1804D6805F003044FEA71
:1034100043080326671E06FA08F6012F6FEA060620
:1034200034D8876807EA060ECF6807FA08F747EA34
:103430000E078760476827EA0C0EC5F300179F4008
:1034400047EA0E074760C76807EA060E8F6807FA63
:1034500008F747EA0E07022CC76019D14FEAD30AD2
:1034600000EB8A0A03F0070BDAF820704FEA8B0BA7
:103470004FF00F0E0EFA0BFE27EA0E0E0F6907FA39
:103480000BF747EA0E07CAF8207001E0032CDAD1E7
:10349000076804FA08F437403C4315F4403F0460E1
:1034A00063D04FF0000ACDF804A0D9F844603A4C3C
:1034B00046F48046C9F84460D9F8446006F4804672
:1034C0000196019E23F0030606F1804606F59C3620
:1034D00003F0030ED6F808804FEA8E0E0F2707FA86
:1034E0000EF7A04228EA070746D004F58064A04200
:1034F00044D004F58064A04242D004F58064A04228
:1035000040D004F58064A0423ED004F58064A0421F
:103510003CD004F58064A0423AD004F58064A04217
:103520000CBF0724082404FA0EF43C43B4609468EA
:103530006FEA0C06EF0254BF34404CEA0404946076
:10354000D468AF0254BF34404CEA0404D4605468D9
:10355000AF0354BF34404CEA040454601468ED03D4
:1035600054BF34404CEA040414600133102B7FF440
:1035700043AF03B0BDE8F08F5446D4E70124D2E74F
:103580000224D0E70324CEE70424CCE70524CAE7CD
:103590000624C8E7003C0140000002400038024019
:1035A0000AB1816170470904FBE7436901EA03023C
:1035B00021EA030141EA02418161704701684B69D8
:1035C00013F480634FF0000210D06FF480634B61FE
:1035D0002023026380F83D3080F83E20036C80F8A1
:1035E0003C2043F0040303640120704718467047F1
:1035F0002DE9F84606460F4691461D464FEA114A08
:103600003368BAF1010F0CBF5C699C6927EA0404B6
:10361000A4B2B4FA84F46409A14501D0002017E0F3
:103620006A1CEED0FFF7DEFB089BC01AA84201D847
:10363000002DE5D100232022336386F83D2086F853
:103640003E30326C86F83C3042F020023264012079
:10365000BDE8F8862DE9F04104460F461646984627
:103660002568686927EA000080B2B8B16B695A051D
:1036700016D52B6843F400732B606FF480636B6185
:1036800020220023236384F83D2084F83E30226CFE
:1036900042F00402226484F83C300120BDE8F0814D
:1036A000731CDED0FFF79EFBA0EB0800B04201D8F0
:1036B000002ED5D100232022236384F83D2084F8F6
:1036C0003E30226C42F02002E4E770B504460D461D
:1036D000164621684B6913F0400301D0002010E02A
:1036E0004A69D2060ED56FF010024A612022236388
:1036F00084F83D2084F83E30226C226484F83C300B
:10370000012070BDFFF76EFB801BA84201D8002D81
:10371000DFD100232022236384F83D2084F83E304B
:10372000226C42F02002E8E770B504460D461646CA
:1037300023685B691B0601D5002070BD2046FFF79A
:103740003DFFA8B96A1CF3D0FFF74CFB801BA842D1
:1037500001D8002DECD100232022236384F83D20E2
:1037600084F83E30226C84F83C3042F0200222641F
:103770000120E2E770B504460D46164623685B69F2
:103780005B0701D5002070BD2046FFF717FFA8B9E1
:103790006A1CF3D0FFF726FB801BA84201D8002D3E
:1037A000ECD100232022236384F83D2084F83E30AE
:1037B000226C84F83C3042F0200222640120E2E7CF
:1037C00070B5044608B9012070BD90F83D3003F093
:1037D000FF021BB980F83C20FEF722FF242384F867
:1037E0003D3023681A6822F001021A601A6842F418
:1037F00000421A601A6822F400421A6000F060FD6C
:103800003F4B65689D4294BF3E4B3F4B98428CBFF7
:1038100000230123002BD6D12268394E51683B4B3F
:10382000B0FBF3F321F03F011943B542516088BF6B
:103830004FF49676116A88BF734321F03F0184BF2D
:103840004FF47A76B3FBF6F301330B431362D1697D
:10385000431E2B4821F44F41854221F0FF0132D80D
:103860006D0040F6FC70B3FBF5F30133034242D028
:10387000C3F30B031943D161D4E907301168034343
:1038800021F0C0010B4313609168D4E9030321F4D4
:103890000341034321F0FF010B439360D4E905305A
:1038A000D168034321F0FF010B43D360136843F059
:1038B0000103136000202023206484F83D3020633E
:1038C00084F83E0080E7A06850B905EB4505B3FBDE
:1038D000F5F30133C3F30B037BB143F40043C9E7B2
:1038E00019206843B3FBF0F30133C3F30B0323B197
:1038F00043F44043BEE70423BCE70123BAE700BF1B
:10390000A08601007F841E00FF083D0040420F009A
:103910002DE9F043044685B098460C9F0D4691462C
:10392000FFF760FA94F83D30202B064604D00225BC
:10393000284605B0BDE8F08300905D4919230122B7
:103940002046FFF755FE0028F1D194F83C30012BBA
:10395000EDD02168012384F83C300B68DA075EBFA4
:103960000B6843F001030B600B6823F400630B60EA
:10397000212384F83D30102384F83E300023236453
:10398000A4F82A80638D23854A4BE362E36AC4F876
:103990002490082B04D0012B02D013F5803F04D1D2
:1039A0000B6843F480730B6002E0236B122BF7D09B
:1039B000002200963B464FF001112046FFF718FE0B
:1039C000226838B11368DB0544BF4FF400732364E9
:1039D0000125ADE72369B3F5804F21D105F0FE0540
:1039E0001561354933463A462046FFF733FE054612
:1039F0000028EDD1236803905A6903929B690393D1
:103A0000039B238DF3B921680A6842F400720A60AF
:103A1000202284F83D2084F83C3084F83E3087E74B
:103A2000EB1103F0060343F0F0031361234933461F
:103A30003A462046FFF70EFE0028C9D12368EDB2B2
:103A40001D61CEE7324639462046FFF76DFE40B194
:103A5000236C042BBCD12268136843F400731360F9
:103A6000B6E7636A20681A4612F8011B01616262B8
:103A7000628D013A92B26285228DD0F814C0511E37
:103A800089B21CF0040F21850AD049B1597801612F
:103A900002336362638D013B9BB2023A63852285E8
:103AA000324639462046FFF765FE0028A9D0CFE709
:103AB000020010000000FFFF0200010008000100EA
:103AC0002DE9F043044689B09846109F0E46914672
:103AD000FFF788F994F83D30202B054604D00226E4
:103AE000304609B0BDE8F08300909A4919230122BD
:103AF0002046FFF77DFD0028F1D194F83C30012BE2
:103B0000EDD02168012384F83C300B68DB075EBFF1
:103B10000B6843F001030B600B6823F400630B6038
:103B2000222384F83D30102384F83E3000232364A0
:103B3000A4F82A80638D2385874BE362E36A0A68D1
:103B4000C4F8249042F48062082B0A6004D0012B50
:103B500002D013F5803F04D10B6843F480730B60EF
:103B600002E0236B112BF7D03B46009500224FF06B
:103B700001112046FFF73CFD236838B11B68D805CA
:103B800044BF4FF4007323640126A9E72269B2F50C
:103B9000804F27D146F00106F6B21E616F492B46D1
:103BA0003A462046FFF756FD06460028ECD1238D05
:103BB0002168002B4BD103904B6903938B690393CE
:103BC000039B0B6843F400730B60DFF89881238D2F
:103BD000002B64D1202284F83D2084F83C3084F806
:103BE0003E307DE74FEAE61808F0060848F0F0029C
:103BF0001A615B492B463A462046FFF72BFD002809
:103C0000C2D123685549F6B21E613A462B4620467A
:103C1000FFF720FD02460028B6D1236807905969B6
:103C20000791996907910799196841F480711960A2
:103C3000204600953B464FF00111FFF7D9FC226862
:103C400008B113689BE748F0F1031361A6E7012B65
:103C50000AD10B6823F480630B6004904B690493D2
:103C60008B690493049BACE7022B0B680DD123F402
:103C700080630B600B6843F400630B6005904B6935
:103C800005938B690593059B9FE743F480630B6065
:103C900006904B6906938B690693069B95E7032B69
:103CA00062D8012B16D12A4639462046FFF70DFD72
:103CB00000287FF469AF23681A69636A1A70636A1F
:103CC00001336362238D013B2385638D013B9BB2EE
:103CD00063857CE7022B00953B464FF0000241468E
:103CE00020461AD1FFF784FC00287FF44DAF2368EB
:103CF0001A6842F400721A601A69636A1A70626A7A
:103D0000531C6362238D013B2385638D013B9BB272
:103D1000638523681B695370D1E7FFF769FC02468E
:103D200000287FF431AF2368196821F4806119609D
:103D30001969636A1970636A009501336362238DA0
:103D4000013B2385638D013B9BB2638541463B4626
:103D50002046C7E7020010000000FFFF020001003C
:103D600008000100040001002A4639462046FFF7FA
:103D7000ACFC00287FF408AF23681A69636A1A70E4
:103D8000626A531C6362238D013B2385638D013B73
:103D90009BB263852368596949077FF518AFB9E776
:103DA000044B01221A62044B82B01B680193019BF1
:103DB00002B0704700000E4200700040044B002229
:103DC0001A62044B82B01B680193019B02B07047DA
:103DD00000000E42007000402DE9F341044640B35C
:103DE0000368DD0710D4236898075BD423681A079B
:103DF00000F19D8023685B0700F1BD80A069002869
:103E000040F0248100202CE08D4B9A6802F00C02D7
:103E1000042A07D09A6802F00C02082A0BD15B68CA
:103E2000590208D5864B1B689A03DCD56368002BC2
:103E3000D9D1012015E06368814DB3F5803F13D1DE
:103E40002B6843F480332B60FEF7CCFF7C4E054695
:103E500033689B03C7D4FEF7C5FF401B6428F7D91E
:103E6000032002B0BDE8F081B3F5A02F04D12B6888
:103E700043F480232B60E3E72A6822F480322A602F
:103E80002A6822F480222A60002BDDD1FEF7AAFFE7
:103E900006462B689F03A6D5FEF7A4FF801B642867
:103EA000F7D9DDE7664B9A6812F00C0F07D09A68D5
:103EB00002F00C02082A11D15B685E020ED4604A3F
:103EC00013689D0702D5E368012BB2D113682169FD
:103ED00023F0F80343EAC103136087E7E268594B14
:103EE000B2B101221A60FEF77DFF554D06462B68E0
:103EF000980707D52B68226923F0F80343EAC20329
:103F00002B6073E7FEF76EFF801B0228EFD9A7E74F
:103F10001A60FEF767FF4A4E0546336899077FF53A
:103F200065AFFEF75FFF401B0228F6D998E762698C
:103F3000444B82B10122C3F8802EFEF753FF404E5E
:103F40000546736F9F073FF555AFFEF74BFF401BCC
:103F50000228F6D984E7C3F8802EFEF743FF384ED7
:103F60000546736F98077FF545AFFEF73BFF401B93
:103F70000228F6D974E7324B1A6C12F0805228D11D
:103F800001921A6C42F080521A641B6C03F0805349
:103F90000193019B01272C4D2B68D9051BD5A368E4
:103FA000274D012B27D12B6F43F001032B67FEF721
:103FB00019FF234E054641F28838336F9B0739D5E8
:103FC000002F3FF41BAF1E4A136C23F08053136481
:103FD00014E70027DFE72B6843F480732B60FEF7BC
:103FE00001FF06462B68DA05D9D4FEF7FBFE801BDD
:103FF0000228F7D934E7052B04D12B6F43F00403D3
:104000002B67D0E72A6F22F001022A672A6F22F07D
:1040100004022A67002BCAD1FEF7E4FE41F2883879
:1040200006462B6F9807CBD5FEF7DCFE801B40457C
:10403000F7D915E7FEF7D6FE401B4045BDD90FE77F
:10404000003802400000474200700040364DAB6827
:1040500003F00C03082B3DD0344B002202281A66D3
:104060002BD1FEF7BFFE06462B6899011FD4D4E979
:1040700007321343626A43EA8213E26A43EA026345
:10408000A26A5208013A43EA02436B60274B264D6D
:1040900001221A66FEF7A6FE04462B689A013FF538
:1040A000B1AEFEF79FFE001B0228F6D9D8E6FEF758
:1040B00099FE801B0228D7D9D2E6FEF793FE04466C
:1040C0002B689B017FF59EAEFEF78CFE001B02283D
:1040D000F6D9C5E601283FF4C4AE6B68E26903F483
:1040E000800191427FF4A5AE216A03F03F028A422B
:1040F0007FF49FAE616A47F6C0721A40B2EB811F2F
:104100007FF497AEA26A520803F44031013AB1EB52
:10411000024F7FF48EAEE26A03F07063B3EB026F7E
:104120003FF470AE85E600BF003802400000474211
:10413000134908B58B6803F00C03042B1CD0082B23
:104140001CD14A684B68496813F4800314BF0D48BA
:104150000D48C1F3881118BF002302F03F02A1FBF4
:104160000001FCF72BFD064B5B68C3F301430133F1
:104170005B00B0FBF3F008BD0248FCE70248FAE739
:104180000038024040787D010024F4002DE9F04120
:104190000D46044610B90120BDE8F081434B1A6872
:1041A00002F007028A4228D321688F072DD4C8075E
:1041B00040D43E4B1A6802F00702AA4265D8226832
:1041C00051076BD4130707D5394A2169936823F443
:1041D000604343EAC1039360FFF7AAFF344B354ABB
:1041E0009B68C3F30313D35CD840334B1860334B45
:1041F0001868FEF7ADFD0020CEE7CAB21A701B6842
:1042000003F007038B42C6D1CEE7294B11F0040F10
:104210001EBF9A6842F4E0529A600E0742BF9A6845
:1042200042F460429A609A68A06822F0F002024369
:104230009A60BCE762681E4B012A1CD11B6813F40C
:10424000003FA8D01A4EB36823F003031343B360B2
:10425000FEF7C8FD41F288380746B368626803F08C
:104260000C03B3EB820FA4D0FEF7BCFDC01B40458E
:10427000F3D9032090E7911E01291B6802D813F09F
:10428000007FDEE713F0020FDBE7EAB21A701B686B
:1042900003F00703AB427FF47EAF90E70449E06888
:1042A0008B6823F4E05303438B608BE7003C0240B0
:1042B00000380240887D000810000020180000200F
:1042C000044B054A9B68C3F38223D35C034A1068FE
:1042D000D840704700380240987D00081000002048
:1042E000044B054A9B68C3F34233D35C034A10680E
:1042F000D840704700380240987D00081000002028
:10430000036A23F001030362036A70B5446882699B
:104310000D6822F073022A438D6823F002032B43B9
:104320000E4DA84202D00E4EB04210D1CE6823F0FE
:1043300008033343A84223F0040302D0084DA842E7
:1043400005D1D1E9055624F4407435432C4344602B
:1043500082614A684263036270BD00BF0000014091
:1043600000040140036A23F480730362036A70B59A
:104370004468C2690D6822F073022A438D6823F4F1
:10438000007343EA0523114DA84203D005F580656B
:10439000A84214D1CD6823F4006343EA05230B4DF2
:1043A000A84223F4806303D005F58065A84206D1B6
:1043B000D1E9055624F44054354344EA05144460D9
:1043C000C2614A68C263036270BD00BF0000014061
:1043D000036A23F480530362036A30B54468C269F8
:1043E0000D6822F4E64242EA05228D6823F4005368
:1043F00043EA0533084DA84203D005F58065A8427D
:1044000004D14D6924F4804444EA85144460C261B7
:104410004A680264036230BD00000140704730B555
:10442000034690F83E0093F83F2093F8425093F8EB
:104430004340C0B2D2B2EDB2E4B2C1B9012845D115
:10444000012D13D1022283F83E2083F842201A68FE
:10445000116A21F001011162116A41F0010111623A
:104460001A68136843F001031360002030BD04296B
:1044700011D1012A2AD1012C28D1022283F83F2010
:1044800083F843201A68116A21F010011162116A41
:1044900041F01001E3E7012818D1012AE6D1012DEE
:1044A000E4D1012CE2D1022283F83E2083F83F20A0
:1044B00083F8422083F843201A68116A21F0010131
:1044C0001162116A41F001011162DCE70120CDE7C0
:1044D000082910D004D841B1042909D00020704720
:1044E0000C29FBD10368186C70470368586B704740
:1044F0000368986B70470368D86B704770477047C4
:104500007047704703681A69910710B504460ED5C5
:10451000DA6892070BD56FF002021A610122027766
:104520009B699B0777D0FDF70BF90023237723685E
:104530001A69500710D5DA6851070DD56FF00402DB
:104540001A61022222779B6913F4407F204668D0CB
:10455000FDF7F6F80023237723681A6912070FD5B1
:10456000DA6810070CD56FF008021A61042222776E
:10457000DB69990720465AD0FDF7E2F8002323773C
:1045800023681A69D20610D5DA68D0060DD56FF007
:1045900010021A6108222277DB6913F4407F20465B
:1045A0004BD0FDF7CDF80023237723681A69D10794
:1045B00008D5DA68D20705D56FF001021A612046E6
:1045C000FFF79CFF23681A69100608D5DA68110600
:1045D00005D56FF080021A61204600F0D2FC2368F6
:1045E0001A69520608D5DA68500605D56FF0400200
:1045F0001A612046FFF785FF23681A69910622D5C4
:10460000DA6892061FD56FF0200220461A61BDE8D5
:10461000104000F0B5BCFFF772FF2046FFF770FFB7
:1046200083E7FFF76CFF2046FFF76AFF92E7FFF78B
:1046300066FF2046FFF764FFA0E7FFF760FF204614
:10464000FFF75EFFAFE710BD304A0368904212D01B
:10465000B0F1804F0FD0A2F57C4290420BD002F512
:104660008062904207D002F58062904203D002F54A
:104670007842904219D14A6823F070031343234AC9
:10468000904229D0B0F1804F26D0A2F57C429042D2
:1046900022D002F5806290421ED002F580629042E4
:1046A0001AD002F57842904216D0194A904213D09F
:1046B00002F5806290420FD002F5806290420BD0EA
:1046C000A2F59832904207D002F58062904203D062
:1046D00002F58062904203D1CA6823F44073134309
:1046E0004A6923F08003134303608B68C3620B683D
:1046F0008362064B984203D003F58063984201D150
:104700000B69036301234361704700BF0000014050
:104710000040014010B5044630B390F83D3003F03E
:10472000FF021BB980F83C20FDF7B2FF022320688E
:1047300084F83D30211DFFF787FF012384F84630C0
:10474000002084F83E3084F83F3084F8403084F80C
:10475000413084F8423084F8433084F8443084F89F
:10476000453084F83D3010BD0120FCE710B504460B
:1047700030B390F83D3003F0FF021BB980F83C20C5
:10478000FFF74CFE0223206884F83D30211DFFF71F
:104790005BFF012384F84630002084F83E3084F823
:1047A0003F3084F8403084F8413084F8423084F857
:1047B000433084F8443084F8453084F83D3010BDEF
:1047C0000120FCE710B5044630B390F83D3003F00B
:1047D000FF021BB980F83C20FEF724F80223206872
:1047E00084F83D30211DFFF72FFF012384F8463068
:1047F000002084F83E3084F83F3084F8403084F85C
:10480000413084F8423084F8433084F8443084F8EE
:10481000453084F83D3010BD0120FCE7F8B50D4669
:10482000044600284CD090F83D3003F0FF021BB93D
:1048300080F83C20FDF788FF2146022384F83D30B4
:1048400051F8040B836823F4804323F0070383604B
:10485000FFF7FAFE81682A688369AE69076A114327
:10486000AA6823F4407323F0030342EA06221A43A2
:104870002B69EE691B0143EA0623EE6833432E6A77
:1048800022F47C4222F0FC0243EA063313436E69B1
:104890006A68816027F0AA0742EA0612836117431B
:1048A0000123076284F84630002084F83E3084F803
:1048B0003F3084F8423084F8433084F83D30F8BD0E
:1048C0000120FCE7036A23F010030362036A70B55A
:1048D000446882690D6822F4E64242EA05228D6846
:1048E00023F0200343EA0513104DA84203D005F539
:1048F0008065A84214D1CD6823F0800343EA0513F4
:104900000A4DA84223F0400303D005F58065A84274
:1049100006D1D1E9055624F44064354344EA8504C0
:10492000446082614A688263036270BD0000014096
:1049300070B590F83C30012B054650D00123082A71
:1049400080F83C303BD007D8C2B1042A27D01846A3
:10495000002385F83C3070BD0C2AF8D10068FFF7C1
:1049600037FDC3690A6943F40063C361C36923F473
:104970008063C361C36943EA02232EE00068FFF746
:10498000BFFC83690A6943F008038361836923F0EC
:10499000040383618369134383610020D8E70068BF
:1049A000FFF790FF83690A6943F4006383618369B9
:1049B00023F480638361836943EA0223ECE70068A0
:1049C000FFF7D0FCC3690A6943F00803C361C369F8
:1049D00023F00403C361C3691343C361DDE702200D
:1049E000B9E7000070B5046A1A4E24F001040462AD
:1049F000B0428469056A29D0B0F1804F26D0A6F56F
:104A00007C46B04222D006F58066B0421ED006F544
:104A10008066B0421AD006F57846B04216D006F548
:104A20007056B04212D0A6F59436B0420ED044F083
:104A300001021B0122F0F002DBB2134301F00A0174
:104A400025F00A0211438361016270BD24F0030462
:104A50002243EEE700000140F8B590F83C30012B0E
:104A600005460C4600F08B80012380F83C3092B95B
:104A70000068CB68D1E90012FFF7B4FF8369A26830
:104A800023F00C03836183691343836100200023B7
:104A900085F83C30F8BD042A24D10368186A20F058
:104AA0001000D1E90027C968186298691E6A20F4CD
:104AB000407040EA0720090320F4704089B21201D7
:104AC000014302F0A00226F0A000024399611A629D
:104AD0009A69A16822F440629A619A6942EA0122C5
:104AE0009A61D3E7082A22D103681E6A26F48076E9
:104AF000D1E90020C9681E62DF691E6A27F003073A
:104B00003843090120F0F000C9B21202014302F457
:104B1000206226F420600243D9611A62DA69A16832
:104B200022F00C02DA61DA690A43DA61AEE70C2A94
:104B300023D10368186A20F48050D1E90027C9689E
:104B40001862D8691E6A20F4407040EA0720090301
:104B500020F4704089B21203014302F4204226F48B
:104B600020400243D9611A62DA69A16822F44062E6
:104B7000DA61DA6942EA0122D7E7184687E70220BC
:104B800088E710B58468114324F47F4441EA032385
:104B90002343836010BD38B590F83C30012B0446A8
:104BA0004FF0020300F08E80012280F83D3080F843
:104BB0003C200068836823F47F4323F077038360FD
:104BC0000B68602B4FD032D8402B64D016D8202BE6
:104BD0000DD00AD833F0100109D0012384F83D30FC
:104BE000002384F83C30104638BD302BF5D1826864
:104BF00022F07002134343F0070328E0502BECD15E
:104C00004A68CD68016A036A23F00103036283697D
:104C100021F00A0123F0F00343EA05130A438361FC
:104C20000262836823F0700343F057030FE0B3F58B
:104C3000805F0DD0B3F5005F0CD0702BCDD1CB6869
:104C4000D1E90121FFF79DFF836843F0770383607B
:104C50000022C2E7CB68D1E90121FFF792FF836808
:104C600043F48043F3E7036A4D68C96823F01003F7
:104C700003628269036A22F4704223F0A00343EACC
:104C8000051342EA013282610362836823F07003F4
:104C900043F06703DBE74A68CD68016A036A23F0E3
:104CA00001030362836921F00A0123F0F00343EA60
:104CB00005130A4383610262836823F0700343F0A3
:104CC0004703C4E71A468EE7036A01F01F0110B5D7
:104CD00001248C4023EA04030362036A8A401A43D6
:104CE000026210BD08B529B990F83E30012B18D0EA
:104CF00001202CE004290DD190F83F30013B18BF72
:104D00000123002BF4D104294FF0020320D180F8B5
:104D10003F3009E008290CBF90F8403090F841304E
:104D2000ECE7022380F83E3000680122FFF7CCFF59
:104D30001C4A904213D01C4B984210D0B0F1804FC7
:104D400014D1836803F00703062B26D1002008BD89
:104D500008290CBF80F8403080F84130E4E7436C0C
:104D6000904243F400434364EBD0E7E70F4B984293
:104D7000E7D003F580639842E3D003F5806398425F
:104D8000DFD003F578439842DBD003F570539842A7
:104D9000D7D0A3F594339842D3D0036843F00103EE
:104DA0000360D3E70000014000040140000400401C
:104DB000FFF798BF08B50346002942D190F83E009E
:104DC00093F84220C0B20128D2B271D1012A70D129
:104DD000022200294BD1186883F83E2083F8422034
:104DE000C26842F00202C26018680122FFF76CFF3D
:104DF000304B98421AD0B0F1804F17D0A3F57C43C6
:104E0000984213D003F5806398420FD003F5806376
:104E100098420BD003F57843984207D003F57053BE
:104E2000984203D0A3F59433984204D1836803F0E9
:104E30000703062B03D0036843F00103036000203F
:104E400037E0042905D190F83F0093F84320C0B221
:104E5000B9E708290BBF90F8400093F8410093F898
:104E6000442093F845200CBFC0B2C0B2ABE7042980
:104E700008D1186883F83F2083F84320C26842F0C5
:104E80000402B0E7082908D1186883F8402083F8A5
:104E90004420C26842F00802A5E70C2983F84120AB
:104EA00083F8452005D11868C26842F010029AE7DD
:104EB000012008BD0000014030B590F83C30012BC6
:104EC0004FF0020332D080F83D3003680D685C6813
:104ED0009A6824F070042C435C60154CA3421AD0ED
:104EE000B3F1804F17D0A4F57C44A34213D004F54E
:104EF0008064A3420FD004F58064A3420BD004F574
:104F00007844A34207D004F57054A34203D0A4F51B
:104F10009434A34204D1496822F080020A439A6083
:104F2000012380F83D30002380F83C30184630BD26
:104F30000000014090F83C30012B1FD0CB688A68FC
:104F400023F4407313434A6823F4806313430A68CD
:104F500023F4006313430A6923F4805313434A691B
:104F600023F400531343CA6923F4804313430268B4
:104F70005364002380F83C30184670470220704785
:104F800070477047026802F10C0353E8003F23F4B6
:104F900090730C3242E8003102680029F2D102F12C
:104FA000140353E8003F23F0010302F1140C4CE812
:104FB00000310029F3D1036B012B0BD102F10C035B
:104FC00053E8003F23F0100302F10C0C4CE80031D1
:104FD0000029F3D1202380F83E300023036370477B
:104FE0000268C168136923F440530B4370B5136121
:104FF000054683680069D168034368690343E8692B
:1050000021F4164121F00C0103430B43D360536993
:10501000A96923F440730B4353611F4B9A4203D099
:1050200003F580639A4223D1FFF75AF9EB691921FE
:10503000B3F5004FD5E90046A0FB01011BD1B21921
:105040004FF000035B41FBF7B9FD6422B0FBF2F1C6
:1050500002FB1103DB003233B3FBF2F303F0070270
:105060005B0002EB011203F4F8731344A36070BDFC
:10507000FFF726F9DAE7B200B30FFBF79FFD6422D2
:10508000B0FBF2F102FB11031B013233B3FBF2F36D
:1050900003EB0113EAE700BF00100140F8B5044636
:1050A0000E4617461D462268136836EA030301D1EF
:1050B000002028E06B1CF7D025B1FDF793FEC01B44
:1050C0008542F0D2226802F10C0353E8003F23F43A
:1050D000D0730C3242E8003021680028F2D101F18F
:1050E000140353E8003F23F0010301F1140040E8EA
:1050F0000032002AF3D1202384F83D3084F83C208C
:1051000084F83E300320F8BD10B5044640B390F853
:105110003D3003F0FF021BB980F83C20FDF7EAFBAD
:105120002268242384F83D30D36823F40053D360ED
:105130002046FFF755FF23681A6922F490421A614E
:105140005A6922F02A025A61DA6842F40052DA609F
:1051500000202023206484F83D3084F83E3010BDC8
:105160000120FCE7F7B5174690F83D200093202A70
:1051700004460E4649D1002945D0002F43D090F86F
:105180003C20012A41D0012280F83C200025212228
:10519000056480F83D20FDF725FEA168009BA784EB
:1051A000B1F5805F0246E78403D1216909B935462C
:1051B0000E46002184F83C10E18C89B241B94021AF
:1051C0002046FFF76BFF60B9202384F83D3009E0EB
:1051D00080212046CDE90023FFF760FFDDE90023B1
:1051E00010B1032003B0F0BD20684EB935F8021BA2
:1051F000C1F308014160E18C013989B2E184DBE748
:1052000016F8011BF6E70120ECE70220EAE77047F9
:10521000704708B5806B0023C385C384FFF7F8FF90
:1052200008BD704790F83E30222B07B541D1816808
:10523000836A0268B1F5805F3ED1016900293ED1E1
:105240005268C2F3080223F8022B8362C38D013B2C
:105250009BB2C385002B2CD10268D16821F02001BC
:10526000D160D16821F48071D160516921F00101D0
:105270005161202280F83E20026B012A026828D169
:10528000036302F10C0353E8003F23F0100302F123
:105290000C0C4CE800310029F3D11368DB0605D56E
:1052A00001911368019353680193019B818DFFF76E
:1052B000B8FF03B05DF804FB39B9016929B9526838
:1052C000D2B21A70836A0133BFE7526802F07F02DC
:1052D000F7E7FCF719FAECE703681A6873B51607E5
:1052E000D9685D69044608D1960668D58D0666D5ED
:1052F00002B0BDE87040FFF795BF05F0010001F472
:10530000907505435BD0D60705D5CD0542BF236C0C
:1053100043F001032364530704D518B1236C43F011
:1053200002032364960704D518B1236C43F00403E9
:105330002364150707D501F0200303431EBF236C28
:1053400043F008032364236C002B32D0920604D56B
:105350008B0602D52046FFF765FF26687369226C2D
:1053600003F0400302F0080253EA0205204622D06F
:10537000FFF708FE73695E0618D5226802F1140370
:1053800053E8003F23F04003143242E80031002983
:10539000F3D1A06B50B1724B0365FEF714F840B126
:1053A000A06B036D02B0BDE8704018472046FFF7C0
:1053B0002FFF02B070BDFFF72BFF2564F9E7206BCC
:1053C000012840F09180D50640F18E80C80640F15A
:1053D0008B80002201921A6801925A680192019A08
:1053E0005A6952064CD5A16B0A68526892B2002ADB
:1053F000DFD0A08D9042DCD9E285CA69B2F5807F0A
:1054000036D003F10C0252E8002F22F4807203F12F
:105410000C0040E800210029F3D103F1140252E806
:10542000002F22F0010203F1140040E800210029BE
:10543000F3D103F1140252E8002F22F0400203F1ED
:10544000140040E800210029F3D1202284F83E20F6
:10545000216303F10C0252E8002F22F0100203F145
:105460000C0040E800210029F3D1A06BFDF76CFF90
:10547000E38DA18DC91A89B22046FFF7D2FE98E7C5
:10548000E28DE08DA18D80B292B2002891D0891A70
:1054900089B200298DD003F10C0252E8002F22F4CA
:1054A000907203F10C0545E800200028F3D103F1C8
:1054B000140252E8002F22F0010203F1140545E81E
:1054C00000200028F3D1202284F83E20206303F13D
:1054D0000C0252E8002F22F0100203F10C0545E8FF
:1054E00000200028F3D1C7E7160628D50D0626D5DB
:1054F00094F83D20212A7FF45CAFA168226AB1F5BF
:10550000805F17D12169A9B932F8021BC1F30801E4
:1055100059602262E28C013A92B2E284002A7FF45E
:1055200048AFDA6822F08002DA60DA6842F04002BE
:10553000DA603EE7511C216212785A60EAE75006B1
:105540007FF537AF4A067FF534AFDA6822F04002C4
:10555000DA60202384F83D302046FFF758FE28E724
:1055600013520008C285002382852222036480F83A
:105570003E20026980F83C30816203681AB1DA6823
:1055800042F48072DA605A6942F001025A61DA68C4
:1055900042F02002DA600020704770B490F83E605C
:1055A000202E10D161B15AB190F83C40012C0AD0A4
:1055B000012480F83C400024046370BCFFF7D2BF94
:1055C000012070BC70470220FBE70000EFF3058369
:1055D0002BB9064B186828B901221A6070476FF082
:1055E000050070474FF0FF30704700BF800A002071
:1055F00010B5EFF305845CB9084B1A68012A0AD18B
:10560000074AD47702221A6000F0FAFD204610BD46
:105610006FF00500FBE74FF0FF30F8E7800A00204D
:1056200000ED00E0F0B587B00B4600210591EFF3E7
:105630000584CCB9C0B16AB395698D4208BF1825FD
:10564000691E3729AC462AD85168C90727D456693C
:105650006EB1B408D2E9027E116857B1BEF1A70F4E
:1056600002D9126902B1E6B9059807B0F0BD8024ED
:10567000F0E7BEF1000FF7D11269002AF4D105AAB4
:10568000CDE900C2A2B200F049FD01281CBF0023F1
:105690000593E9E711464FF0180C8024EFE7204608
:1056A000E3E7CDE901270095224600F0FFFC0590D5
:1056B000DAE710B5EFF3058424B910B100F008FF64
:1056C000204610BD6FF00500FBE70000034B0360B0
:1056D000034B0B6080231360704700BFD809002084
:1056E000D8070020034B0360034B0B604FF480731B
:1056F00013607047840E0020840A002000F1080324
:105700004FF0FF32C0E902234360036100230360CE
:10571000704700230361704743684B609A688A6052
:105720009A685160996003680861013303607047AB
:1057300030B50C68631C0AD103695A684A609160ED
:105740008B605960036808610133036030BD00F16C
:105750000802134652681568A542FAD9EDE7D0E968
:10576000011203698A6051605968814208BF5A601A
:10577000002202611A68013A1A601868704710B571
:10578000044601F0D7FAA46B01F0F4FAB4FA84F0FD
:10579000400910BDF8B51546026C866B044652B937
:1057A000076847BB806801F02BF8A7600546013603
:1057B000A6632846F8BD65B9406801F0A5FD636899
:1057C000226C1344A26863609342F0D32368636041
:1057D000EDE7C06801F098FD226CE36851429B1A26
:1057E0002268E36093423EBFA3685B18E360022D2A
:1057F00001D116B1013E0025D9E73546D7E703466A
:1058000010B41A6C08466AB1DC68996814448C427A
:1058100028BF1968DC6028BFD960D9685DF8044BDF
:1058200001F072BD5DF8044B704770B5044601F09D
:1058300081FA94F8455004F124066DB2002D14DC71
:10584000FF2384F8453001F095FA01F073FA94F8DB
:10585000445004F110066DB2002D12DCFF2384F8D1
:105860004430BDE8704001F085BA636A002BE7D090
:10587000304600F023FF08B100F0ACFF013D6DB2EF
:10588000DCE72369002BE9D0304600F017FF08B1B0
:1058900000F0A0FF013D6DB2DEE738B50D460446CD
:1058A00040B94FF0500383F31188BFF36F8FBFF3FC
:1058B0004F8FFEE701F03EFAD4E90F3122686260B3
:1058C0004B43D0185B1A1A44A060FF230020A0634A
:1058D000E26084F8443084F84530A5B9236973B197
:1058E00004F1100000F0EAFE48B14FF0E0234FF061
:1058F0008052C3F8042DBFF34F8FBFF36F8F01F0B9
:1059000039FA012038BD04F11000FFF7F7FE04F169
:105910002400FFF7F3FEF2E713B51C4640B94FF041
:10592000500383F31188BFF36F8FBFF34F8FFEE7F0
:1059300043B94FF0500383F31188BFF36F8FBFF368
:105940004F8FFEE74AB191B94FF0500383F31188AE
:10595000BFF36F8FBFF34F8FFEE741B14FF050039E
:1059600083F31188BFF36F8FBFF34F8FFEE7502390
:105970000193019B502B08D04FF0500383F3118803
:10598000BFF36F8FBFF34F8FFEE7002908BF22469A
:10599000019B22600123C4E90F0184F846301946B7
:1059A0002046FFF77AFF9DF8103084F84C302046EF
:1059B00002B010BD2DE9F04385B0884601921F4624
:1059C000044640B94FF0500383F31188BFF36F8F43
:1059D000BFF34F8FFEE751B9036C43B14FF0500353
:1059E00083F31188BFF36F8FBFF34F8FFEE7022F52
:1059F0000BD1E36B012B08D04FF0500383F31188D8
:105A0000BFF36F8FBFF34F8FFEE700F0E9FE06464E
:105A100050B9019B4BB14FF0500383F31188BFF392
:105A20006F8FBFF34F8FFEE700264FF0000937E07E
:105A3000019D1DB901F09EF9002052E016B902A89F
:105A400000F080FE01F096F900F02AFC01F072F9F6
:105A500094F84430FF2B08BF84F8449094F8453004
:105A6000FF2B08BF84F8459001F084F901A902A832
:105A700000F074FE00284AD101F05CF9A26BE36BE0
:105A80009A4231D101F076F9019904F1100000F049
:105A9000DDFD2046FFF7C9FE00F0A6FC60B301263D
:105AA00001F048F9A26BE36B9A4201D3022FBFD1F8
:105AB0003A4641462046FFF76DFE636A1BB104F18A
:105AC000240000F0FBFD48B14FF0E0234FF080527E
:105AD000C3F8042DBFF34F8FBFF36F8F01F04AF966
