:020000040800F2
:1000000000000220B51F0008C91E0008CF1E00080E
:10001000D51E0008DB1E0008E11E000800000000DD
:10002000000000000000000000000000F18800084F
:10003000E71E000800000000418B0008F51E0008C4
:1000400005200008052000080520000805200008FC
:1000500005200008052000080520000805200008EC
:1000600005200008052000080520000805200008DC
:1000700005200008052000080520000805200008CC
:1000800005200008052000080520000805200008BC
:1000900005200008052000080520000805200008AC
:1000A000052000080520000805200008052000089C
:1000B000052000080520000805200008052000088C
:1000C000052000080520000805200008052000087C
:1000D000052000080520000805200008111F000861
:1000E000052000080520000805200008052000085C
:1000F000052000080520000805200008052000084C
:10010000052000080520000805200008052000083B
:10011000052000080520000805200008052000082B
:10012000052000080520000805200008052000081B
:10013000052000080520000805200008052000080B
:1001400005200008052000080520000805200008FB
:1001500005200008052000080520000805200008EB
:1001600005200008052000080520000805200008DB
:1001700005200008052000080520000800000000F8
:0801800005200008052000081D
:1001900010B5054C237833B9044B13B10448AFF3C1
:1001A00000800123237010BD6800002000000000C3
:1001B000E499000808B5034B1BB103490348AFF3AA
:1001C000008008BD000000006C000020E4990008D9
:1001D00001F0FF01102A2BDB10F0070F08D010F8F8
:1001E000013B013A8B422DD010F0070F42B3F6D1FC
:1001F000F0B441EA012141EA014122F007047FF015
:1002000000070023F0E80256083C85EA010586EA6B
:10021000010685FA47F5A3FA87F586FA47F6A5FAA7
:1002200087F68EB9EED1F0BC01F0FF0102F00702B3
:1002300032B110F8013B013A83EA010313B1F8D15E
:100240000020704701387047002D06BF354603383F
:10025000073815F0010F07D1013015F4807F02BF78
:10026000013015F4C03F0130F0BC0138704700BFC9
:1002700081F0004102E000BF83F0004330B54FEA57
:1002800041044FEA430594EA050F08BF90EA020FC4
:100290001FBF54EA000C55EA020C7FEA645C7FEA57
:1002A000655C00F0E2804FEA5454D4EB5555B8BF7A
:1002B0006D420CDD2C4480EA020281EA030382EAEB
:1002C000000083EA010180EA020281EA0303362D7D
:1002D00088BF30BD11F0004F4FEA01314FF4801C50
:1002E0004CEA113102D0404261EB410113F0004F62
:1002F0004FEA03334CEA133302D0524263EB430319
:1003000094EA050F00F0A780A4F10104D5F1200EB6
:100310000DDB02FA0EFC22FA05F2801841F1000111
:1003200003FA0EF2801843FA05F359410EE0A5F1E5
:1003300020050EF1200E012A03FA0EFC28BF4CF016
:10034000020C43FA05F3C01851EBE37101F00045CC
:1003500007D54FF0000EDCF1000C7EEB00006EEBD9
:100360000101B1F5801F1BD3B1F5001F0CD3490863
:100370005FEA30004FEA3C0C04F101044FEA4452BA
:1003800012F5800F80F09A80BCF1004F08BF5FEA41
:10039000500C50F1000041EB045141EA050130BD21
:1003A0005FEA4C0C404141EB0101013C28BFB1F533
:1003B000801FE9D291F0000F04BF01460020B1FA7E
:1003C00081F308BF2033A3F10B03B3F120020CDA51
:1003D0000C3208DD02F1140CC2F10C0201FA0CF02F
:1003E00021FA02F10CE002F11402D8BFC2F1200C94
:1003F00001FA02F120FA0CFCDCBF41EA0C0190404A
:10040000E41AA2BF01EB0451294330BD6FEA040492
:100410001F3C1CDA0C340EDC04F11404C4F120027D
:1004200020FA04F001FA02F340EA030021FA04F38F
:1004300045EA030130BDC4F10C04C4F1200220FAE6
:1004400002F001FA04F340EA0300294630BD21FA24
:1004500004F0294630BD94F0000F83F4801306BFEA
:1004600081F480110134013D4EE77FEA645C18BFDE
:100470007FEA655C29D094EA050F08BF90EA020F75
:1004800005D054EA000C04BF1946104630BD91EA6D
:10049000030F1EBF0021002030BD5FEA545C05D170
:1004A0004000494128BF41F0004130BD14F58004AF
:1004B0003CBF01F5801130BD01F0004545F0FE4123
:1004C00041F470014FF0000030BD7FEA645C1ABF58
:1004D000194610467FEA655C1CBF0B46024650EA8F
:1004E000013406BF52EA033591EA030F41F40021BB
:1004F00030BD00BF90F0000F04BF0021704730B541
:100500004FF4806404F132044FF000054FF0000115
:1005100050E700BF90F0000F04BF0021704730B5D6
:100520004FF4806404F1320410F0004548BF4042AB
:100530004FF000013EE700BF42004FEAE2014FEA00
:1005400031014FEA02701FBF12F07F4393F07F4FDB
:1005500081F06051704732F07F4208BF704793F0DE
:100560007F4F04BF41F40021704730B54FF46074F1
:1005700001F0004521F000411CE700BF50EA0102F4
:1005800008BF704730B54FF000050AE050EA01029D
:1005900008BF704730B511F0004502D5404261EB0D
:1005A00041014FF4806404F132045FEA915C3FF44E
:1005B000D8AE4FF003025FEADC0C18BF03325FEAEB
:1005C000DC0C18BF033202EBDC02C2F1200300FA9C
:1005D00003FC20FA02F001FA03FE40EA0E0021FAC1
:1005E00002F11444BDE600BF70B54FF0FF0C4CF4AF
:1005F000E06C1CEA11541DBF1CEA135594EA0C0F61
:1006000095EA0C0F00F0DEF82C4481EA030621EA9B
:100610004C5123EA4C5350EA013518BF52EA0335D6
:1006200041F4801143F4801338D0A0FB02CE4FF088
:100630000005E1FB02E506F00042E0FB03E54FF0B8
:100640000006E1FB03569CF0000F18BF4EF0010EB0
:10065000A4F1FF04B6F5007F64F5407404D25FEAAC
:100660004E0E6D4146EB060642EAC62141EA55515F
:100670004FEAC52040EA5E504FEACE2EB4F1FD0CA1
:1006800088BFBCF5E06F1ED8BEF1004F08BF5FEA1F
:10069000500E50F1000041EB045170BD06F00046D1
:1006A00046EA010140EA020081EA0301B4EB5C047E
:1006B000C2BFD4EB0C0541EA045170BD41F4801176
:1006C0004FF0000E013C00F3AB8014F1360FDEBF9B
:1006D000002001F0004170BDC4F10004203C35DA77
:1006E0000C341BDC04F11404C4F1200500FA05F3FA
:1006F00020FA04F001FA05F240EA020001F000429B
:1007000021F0004110EBD37021FA04F642EB060110
:100710005EEA430E08BF20EAD37070BDC4F10C043A
:10072000C4F1200500FA04F320FA05F001FA04F2FE
:1007300040EA020001F0004110EBD37041F10001EA
:100740005EEA430E08BF20EAD37070BDC4F12005F5
:1007500000FA05F24EEA020E20FA04F301FA05F25D
:1007600043EA020321FA04F001F0004121FA04F205
:1007700020EA020000EBD3705EEA430E08BF20EAD5
:10078000D37070BD94F0000F0FD101F0004640000F
:1007900041EB010111F4801F08BF013CF7D041EA91
:1007A000060195F0000F18BF704703F00046520095
:1007B00043EB030313F4801F08BF013DF7D043EA66
:1007C0000603704794EA0C0F0CEA135518BF95EA1C
:1007D0000C0F0CD050EA410618BF52EA4306D1D1A3
:1007E00081EA030101F000414FF0000070BD50EAC2
:1007F000410606BF1046194652EA430619D094EA4C
:100800000C0F02D150EA013613D195EA0C0F05D135
:1008100052EA03361CBF104619460AD181EA030189
:1008200001F0004141F0FE4141F470014FF0000041
:1008300070BD41F0FE4141F4780170BD70B54FF0DC
:10084000FF0C4CF4E06C1CEA11541DBF1CEA13555C
:1008500094EA0C0F95EA0C0F00F0A7F8A4EB05043E
:1008600081EA030E52EA03354FEA013100F0888035
:100870004FEA03334FF0805545EA131343EA1263FE
:100880004FEA022245EA111545EA10654FEA0026B3
:100890000EF000419D4208BF964244F1FD0404F56C
:1008A000407402D25B084FEA3202B61A65EB0305C8
:1008B0005B084FEA32024FF480104FF4002CB6EB85
:1008C000020E75EB030E22BFB61A754640EA0C0005
:1008D0005B084FEA3202B6EB020E75EB030E22BF45
:1008E000B61A754640EA5C005B084FEA3202B6EB86
:1008F000020E75EB030E22BFB61A754640EA9C0045
:100900005B084FEA3202B6EB020E75EB030E22BF14
:10091000B61A754640EADC0055EA060E18D04FEAD2
:10092000051545EA16754FEA06164FEAC30343EA72
:1009300052734FEAC2025FEA1C1CC0D111F4801F3F
:100940000BD141EA00014FF000004FF0004CB6E738
:1009500011F4801F04BF01430020B4F1FD0C88BFD7
:10096000BCF5E06F3FF6AFAEB5EB030C04BFB6EBE2
:10097000020C5FEA500C50F1000041EB045170BDD5
:100980000EF0004E4EEA113114EB5C04C2BFD4EB02
:100990000C0541EA045170BD41F480114FF0000E86
:1009A000013C90E645EA060E8DE60CEA135594EA02
:1009B0000C0F08BF95EA0C0F3FF43BAF94EA0C0F05
:1009C0000AD150EA01347FF434AF95EA0C0F7FF47A
:1009D00025AF104619462CE795EA0C0F06D152EACE
:1009E00003353FF4FDAE1046194622E750EA4106B2
:1009F00018BF52EA43067FF4C5AE50EA41047FF4C3
:100A00000DAF52EA43057FF4EBAE12E74FEA410225
:100A100012F5001215D211D56FF47873B3EB625250
:100A200012D94FEAC12343F0004343EA505311F077
:100A3000004F23FA02F018BF404270474FF0000009
:100A4000704750EA013005D111F0004008BF6FF047
:100A5000004070474FF00000704700BF53B94AB9DB
:100A6000002908BF00281CBF4FF0FF314FF0FF30B6
:100A700000F070B9ADF1080C6DE904CE00F006F895
:100A8000DDF804E0DDE9022304B070472DE9F0470A
:100A9000089E0D4604460F46002B4AD18A429446D2
:100AA00065D9B2FA82F343B102FA03FCC3F1200222
:100AB0009F4020FA02F217439C404FEA1C4E1FFA57
:100AC0008CF5B7FBFEF1220C0EFB117742EA0742D0
:100AD00001FB05F090420AD91CEB020201F1FF373D
:100AE00080F01C81904240F2198102396244121A4E
:100AF000A4B2B2FBFEF00EFB102244EA024400FB5B
:100B000005F5A5420AD91CEB040400F1FF3280F080
:100B10000781A54240F204816444023840EA014062
:100B2000641B00211EB1DC400023C6E90043BDE880
:100B3000F0878B4208D9002E00F0ED800021C6E935
:100B400000050846BDE8F087B3FA83F1002949D1D2
:100B5000AB4202D3824200F2F880841A65EB0302B2
:100B600001201746002EE2D0C6E90047DFE702B9B0
:100B7000FFDEB2FA82F3002B40F090808A1A4FEA2F
:100B80001C471FFA8CFE0121B2FBF7F507FB15206D
:100B9000220C42EA00420EFB05F0904208D91CEB01
:100BA000020205F1FF3802D2904200F2CB804546A6
:100BB000121AA4B2B2FBF7F007FB102244EA024477
:100BC0000EFB00FEA64508D91CEB040400F1FF3221
:100BD00002D2A64500F2BB801046A4EB0E0440EA08
:100BE00005409FE7C1F120078B4022FA07FC4CEA41
:100BF000030C05FA01F420FA07F3FD404FEA1C4903
:100C00002343B5FBF9F81FFA8CFE09FB18551C0CA1
:100C100044EA054408FB0EF5A54202FA01F200FA87
:100C200001F00BD91CEB040408F1FF3A80F0888036
:100C3000A54240F28580A8F102086444641B9DB27D
:100C4000B4FBF9F309FB134445EA044403FB0EFE2D
:100C5000A64508D91CEB040403F1FF356CD2A64568
:100C60006AD9023B644443EA0843A3FB0295A4EB20
:100C70000E04AC42C846AE4656D353D056B1B0EB84
:100C8000080264EB0E0404FA07F7CA40CC4017438D
:100C9000C6E9007418460021BDE8F087C3F12001C1
:100CA00002FA03FC20FA01F225FA01F19D402A43E1
:100CB0004FEA1C471FFA8CFEB1FBF7F007FB10153B
:100CC000110C41EA054100FB0EF58D4204FA03F4D4
:100CD00008D91CEB010100F1FF382FD28D422DD92C
:100CE00002386144491B92B2B1FBF7F507FB1511BD
:100CF00042EA014205FB0EF1914208D91CEB0202C7
:100D000005F1FF3816D2914214D9023D6244521ABD
:100D100045EA004138E73146304608E73946E6E61D
:100D20001046FBE64845A9D2B9EB020865EB0C0E6C
:100D3000013BA3E74546EAE72B4694E74046D1E767
:100D4000D0467BE7023D624432E708460AE7644446
:100D5000023842E7704700BF80B500AF01F086FB64
:100D600000F092F800F01CFB00F09CF900F042FA51
:100D700000F0ECFA00F014F900F0E8F900F0E2F805
:100D800001F0E8FA05F03AFC2A4A00212A4805F069
:100D90007FFC0346294A1360294A0021294805F0AF
:100DA00077FC0346284A1360284A0021284805F0AA
:100DB0006FFC0346274A1360274A0021274805F0A5
:100DC00067FC0346264A1360264A0021264805F0A0
:100DD0005FFC0346254A1360254A0021254805F09B
:100DE00057FC0346244A136005F02CFC234B93ED7B
:100DF000007BB0EE470AF0EE670A00F09DFC034668
:100E00001F4A13601E4B1B684A2B03DC1C4B4B22F2
:100E10001A6006E01A4B1B68D22B02DD184BD22257
:100E20001A60174B1A68174B1B681A640A2005F0E2
:100E3000C1FCDBE7689A0008B914000840020020F2
:100E40008C9A00082D16000844020020B09A000871
:100E50008D17000848020020D49A00080D180008D9
:100E60004C020020F89A0008951800085002002053
:100E70001C9B000821190008540200205802002081
:100E800004000020D800002080B594B000AF07F126
:100E9000200330220021184608F020F907F10C0346
:100EA00000221A605A609A60DA601A610023BB60FF
:100EB000224B1B6C214A43F0805313641F4B1B6C65
:100EC00003F08053BB60BB6800237B601C4B1B6836
:100ED0001B4A43F480431360194B1B6803F480439F
:100EE0007B607B6802233B620123FB6210233B6330
:100EF0000023BB6307F12003184602F0E3FE03461C
:100F0000002B01D000F0D6FD0F23FB6000233B61D6
:100F100000237B610023BB610023FB6107F10C030D
:100F20000021184603F046F90346002B01D000F0DB
:100F3000C1FD00BF5037BD4680BD00BF0038024034
:100F40000070004080B500AF124B134A1A60114B7D
:100F5000124A5A600F4B00229A600E4B0022DA6050
:100F60000C4B4FF480421A610A4B00225A61094B24
:100F700000229A61074B0022DA61064B00221A62B6
:100F8000044801F07DFE0346002B01D000F092FDE5
:100F900000BF80BD8400002000540040A0860100F6
:100FA00080B592B000AF07F1400300221A605A608A
:100FB00007F1240300221A605A609A60DA601A610D
:100FC0005A619A613B1D20220021184608F086F8DC
:100FD000324B334A1A60314BA0225A602F4B002209
:100FE0009A602E4B4FF47A72DA602C4B00221A6111
:100FF0002A4B00225A61294B00229A61274803F0AC
:1010000008FB0346002B01D000F054FD00233B6495
:1010100000237B6407F140031946204804F0EAF9F5
:101020000346002B01D000F045FD60237B620023C6
:10103000BB620023FB6200237B630023BB630023AE
:10104000FB6307F124030C221946144803F02CFD1E
:101050000346002B01D000F02DFD00237B60002310
:10106000BB600023FB6000233B6100237B614FF4E6
:101070000053BB6100233B623B1D1946074804F047
:1010800035FA0346002B01D000F014FD034800F0B0
:1010900069FE00BF4837BD4680BD00BFD8000020B4
:1010A0000000014080B58CB000AF07F10C03242292
:1010B0000021184608F012F83B1D00221A605A6001
:1010C000214B4FF080421A601F4B00225A601E4B8A
:1010D00000229A601C4B4FF6FF72DA601A4B002216
:1010E0001A61194B00229A610323FB6000233B61C4
:1010F00001237B610023BB610A23FB6100233B6268
:1011000001237B620023BB620A23FB6207F10C030D
:1011100019460D4803F094FB0346002B01D000F064
:10112000C9FC00237B600023BB603B1D19460648B9
:1011300004F060F90346002B01D000F0BBFC00BFB7
:101140003037BD4680BD00BF2001002080B58CB087
:1011500000AF07F10C0324220021184607F0BEFF60
:101160003B1D00221A605A60204B214A1A601F4B17
:1011700000225A601D4B00229A601C4B4FF6FF72F2
:10118000DA601A4B00221A61184B00229A6103237D
:10119000FB6000233B6101237B610023BB610A23C9
:1011A000FB6100233B6201237B620023BB620A23B5
:1011B000FB6207F10C0319460C4803F041FB0346A0
:1011C000002B01D000F076FC00237B600023BB6085
:1011D0003B1D1946054804F00DF90346002B01D0CC
:1011E00000F068FC00BF3037BD4680BD68010020BC
:1011F0000004004080B596B000AF07F1480300221C
:101200001A605A609A60DA6007F1400300221A609F
:101210005A6007F1240300221A605A609A60DA606B
:101220001A615A619A613B1D20220021184607F07D
:1012300055FF444B444A1A60424B00225A60414BCE
:1012400000229A603F4B41F61F42DA603D4B00227C
:101250001A613C4B00225A613A4B00229A6139488C
:1012600003F088F90346002B01D000F023FC4FF473
:101270008053BB6407F148031946324803F0D6FC9B
:101280000346002B01D000F015FC2E4803F0C1F9F5
:101290000346002B01D000F00DFC00233B6400232B
:1012A0007B6407F140031946264804F0A3F803467F
:1012B000002B01D000F0FEFB60237B620023BB62A9
:1012C0000023FB6200233B6300237B630023BB639B
:1012D0000023FB6307F1240300221946194803F099
:1012E000E3FB0346002B01D000F0E4FB07F12403ED
:1012F00004221946134803F0D7FB0346002B01D004
:1013000000F0D8FB00237B600023BB600023FB6060
:1013100000233B6100237B614FF40053BB6100233A
:101320003B623B1D1946074804F0E0F80346002BDA
:1013300001D000F0BFFB034800F014FD00BF583798
:10134000BD4680BDB00100200004014080B500AF63
:10135000114B124A1A60104B4FF4E1325A600E4B97
:1013600000229A600C4B0022DA600B4B00221A61BB
:10137000094B0C225A61084B00229A61064B00224D
:10138000DA61054804F004F90346002B01D000F0AF
:1013900091FB00BF80BD00BFF80100200048004065
:1013A00080B58AB000AF07F1140300221A605A60BA
:1013B0009A60DA601A6100233B613B4B1B6B3A4A2F
:1013C00043F010031363384B1B6B03F010033B61B6
:1013D0003B690023FB60344B1B6B334A43F0010332
:1013E0001363314B1B6B03F00103FB60FB680023AD
:1013F000BB602D4B1B6B2C4A43F0040313632A4B39
:101400001B6B03F00403BB60BB6800237B60264BAF
:101410001B6B254A43F002031363234B1B6B03F042
:1014200002037B607B6800224FF4BC611F4801F01F
:10143000F3FB00223C211E4801F0EEFB00224FF49A
:1014400080611C4801F0E8FB4FF4BC637B61012321
:10145000BB610023FB6100233B6207F114031946C3
:10146000124801F03DFA4FF480637B610123BB61B8
:101470000023FB6100233B6207F1140319460D486A
:1014800001F02EFA3C237B610123BB610023FB6149
:1014900002233B6207F114031946054801F020FAC4
:1014A00000BF2837BD4680BD003802400010024012
:1014B000000002400004024080B584B000AF7860B4
:1014C0004123FB7307F10F014FF6FF7301220B4815
:1014D00004F0AEF8FB7B592B04D8FB7B0133DBB265
:1014E000FB7301E04123FB734FF48061044801F07A
:1014F000ACFB41F2883005F05DF9E3E7F80100202C
:101500000010024080B584B002AF03463960FB7121
:101510000F4AFB7913700F4B1B789BB25B0099B29B
:101520000A23009301230A4A0B4801F0EDFC094B02
:101530001B789BB25B0099B21423009302233A6894
:10154000054801F0DFFD00BF0837BD4680BD00BF84
:1015500060020020000000208400002080B584B0DC
:1015600002AF03460A46FB711346BB710A4AFB7978
:101570001370094ABB795370084B1B789BB25B0010
:1015800099B2142300930223034A054801F0BCFCDE
:1015900000BF0837BD4680BD60020020000000206B
:1015A0008400002080B500AF00210620FFF7D6FFA1
:1015B0000A2005F0FFF880210320FFF7CFFF0A2063
:1015C00005F0F8F807210720FFF7C8FF0A2005F00B
:1015D000F1F801210620FFF7C1FF0A2005F0EAF823
:1015E00020217F20FFF7BAFF0A2005F0E3F82F2122
:1015F0000120FFF7B3FF0A2005F0DCF800210020EE
:10160000FFF7ACFF0A2005F0D5F800217F20FFF797
:10161000A5FF0A2005F0CEF800210720FFF79EFF66
:101620000A2005F0C7F800BF80BD0000B0B58EB03D
:1016300000AF786000233B6207F1240300221A60A8
:101640005A609A60DA600023FB6007F11003002201
:101650001A605A609A60DA60284BD3E90045274B3C
:10166000D3E9002310461946FFF7D0F90346184680
:10167000FEF750FF02460B4620462946FEF7FCFDCA
:1016800002460B46104619464FF000021C4BFEF76F
:10169000ABFF02460B4610461946FFF7B7F9034663
:1016A000002BB8BF5B427B63144BD3E90023104689
:1016B0001946FFF7ABF9024607F120031149184616
:1016C00007F0ECFC07F120031A461E210A2000F067
:1016D0000FFE0D4B1A6807F10C030C49184607F072
:1016E000DDFC07F10C031A4628210A2000F000FE59
:1016F00000F08AFC012005F05DF8ADE758020020FB
:1017000000408F403C9A000804000020489A0008DE
:1017100080B500AF4FF48061064801F096FA4FF4AF
:10172000FA7000F015FF4FF48061024801F08DFA65
:1017300000BF80BD0004024080B584B000AF87EDDB
:10174000000B114BFB60F868FEF7F6FED7E90023AB
:10175000FEF74AFF02460B461046194608A3D3E996
:101760000023FEF78BFD02460B4610461946FFF795
:101770004DF90346BB60BB6818461037BD4680BDB7
:101780000000000000C061400000404080B584B00F
:1017900000AF78604FF47A73FB810021184802F0A3
:1017A00087FF0421164802F083FF0C21154802F040
:1017B0007FFF13E000220421134801F02DFA0122DB
:1017C0000821114801F028FA002220210E4801F0DA
:1017D00023FA012210210C4801F01EFAFB8940F285
:1017E0004B429342E6D9064B1B68FA895A63044B75
:1017F0001B68FA899A630A2004F0DCFFEEE700BF59
:10180000B0010020D80000200000024080B586B062
:1018100000AF78603C211D4803F0B8F801237B61DC
:1018200000F08AFEF86000F087FE0246FB68D31ADB
:101830000A2BF8D9154B1B685B6ABB60BB68B3F514
:10184000FA4F06DD01237B61BB68C3F580333B6142
:1018500004E04FF0FF337B61BB683B617B69012B88
:1018600006D10B4B1A683B69D31A094A136005E08D
:10187000074B1A683B691344054A1360034B1B6806
:1018800000225A6200F058FEF860CCE720010020E8
:101890007802002080B586B000AF78603C211D48FA
:1018A00003F074F801237B6100F046FEF86000F05D
:1018B00043FE0246FB68D31A0A2BF8D9154B1B6866
:1018C0005B6ABB60BB68B3F5FA4F06DD01237B6141
:1018D000BB68C3F580333B6104E04FF0FF337B61AD
:1018E000BB683B617B69012B06D10B4B1A683B69D6
:1018F0001344094A136005E0074B1A683B69D31A81
:10190000054A1360034B1B6800225A6200F014FE64
:10191000F860CCE76801002074020020000000009D
:10192000B0B58AB000AF7860FFF73CFE00233B8182
:1019300000237B8100237B624FF000024FF0000305
:10194000C7E906234FF000024FF00003C7E9042364
:101950000023FB6048E0322004F02CFF07F108036D
:1019600019463720FFF7CEFD3B7A1B021AB27B7A6D
:101970001BB213437B81B7F90A301846FEF7CAFD44
:1019800004460D4600F0D8FD02467B6AD31A18467D
:10199000FEF7B0FD45A3D3E90023FEF74FFF024653
:1019A0000B4620462946FEF71FFE02460B46D7E9A6
:1019B0000401FEF763FC02460B46C7E90423B7F9AE
:1019C0000A301846FEF7A6FD02460B46D7E9060187
:1019D000FEF754FC02460B46C7E9062300F0ACFDB7
:1019E0007862FB680133FB60FB68632BB3DDF8684A
:1019F000FEF790FD02460B46D7E90601FEF71EFFF3
:101A000002460B46C7E90623FFF782FE00F094FD6D
:101A10007862322004F0CEFE07F108031946372021
:101A2000FFF770FD3B7A1B021AB27B7A1BB213439D
:101A30007B81B7F90A301846FEF76CFDD7E906231B
:101A4000FEF71AFC02460B4614461D4600F074FDD4
:101A500002467B6AD31A1846FEF74CFD13A3D3E95E
:101A60000023FEF7EBFE02460B4620462946FEF712
:101A7000BBFD02460B46104619460B4BD3E900232B
:101A8000FEF7FCFB02460B460749C1E90023B7F904
:101A90000A30FA68D31AFB6000F04EFD7862FB68EA
:101AA0000133FB60B5E700BF5802002000000000D2
:101AB0000004D04080B400AF72B600BFFEE7000063
:101AC00080B582B000AF00237B60124B5B6C114A83
:101AD00043F4804353640F4B5B6C03F480437B609F
:101AE0007B6800233B600B4B1B6C0A4A43F080531E
:101AF0001364084B1B6C03F080533B603B6800226F
:101B00000F216FF0010000F022FE00BF0837BD4634
:101B100080BD00BF0038024080B58AB000AF786059
:101B200007F1140300221A605A609A60DA601A61A1
:101B30007B681B68194A93422CD100233B61184BE8
:101B40001B6B174A43F002031363154B1B6B03F027
:101B500002033B613B694FF440737B611223BB611D
:101B60000023FB6103233B6204237B6207F1140320
:101B700019460C4800F0B4FE0023FB60084B1B6CB8
:101B8000074A43F400131364054B1B6C03F4001362
:101B9000FB60FB6800BF2837BD4680BD0054004095
:101BA000003802400004024080B485B000AF786085
:101BB0007B681B680B4A93420DD10023FB600A4BE4
:101BC0005B6C094A43F001035364074B5B6C03F001
:101BD0000103FB60FB6800BF1437BD465DF8047B62
:101BE000704700BF000001400038024080B58CB053
:101BF00000AF786007F11C0300221A605A609A60F7
:101C0000DA601A617B681B68B3F1804F4BD1002307
:101C1000BB613F4B1B6C3E4A43F0010313643C4BDA
:101C20001B6C03F00103BB61BB6900237B61384B74
:101C30001B6B374A43F001031363354B1B6B03F0F7
:101C400001037B617B6900233B61314B1B6B304A95
:101C500043F0020313632E4B1B6B03F002033B6143
:101C60003B694FF40043FB6102233B6200237B622C
:101C70000023BB620123FB6207F11C0319462548C0
:101C800000F02EFE0823FB6102233B6200237B62EF
:101C90000023BB620123FB6207F11C0319461E48A7
:101CA00000F01EFE30E07B681B681C4A93422BD17B
:101CB0000023FB60164B1B6C154A43F002031364B0
:101CC000134B1B6C03F00203FB60FB680023BB603B
:101CD0000F4B1B6B0E4A43F0010313630C4B1B6B42
:101CE00003F00103BB60BB68C023FB6102233B62BE
:101CF00000237B620023BB620223FB6207F11C030B
:101D00001946044800F0ECFD00BF3037BD4680BDE9
:101D1000003802400000024000040240000400407D
:101D200080B485B000AF78607B681B680B4A934233
:101D30000DD10023FB600A4B5B6C094A43F00203A0
:101D40005364074B5B6C03F00203FB60FB6800BF4E
:101D50001437BD465DF8047B704700BF00040140A6
:101D60000038024080B58AB000AF786007F11403F4
:101D700000221A605A609A60DA601A617B681B68F8
:101D8000244A93421FD100233B61234B1B6B224A01
:101D900043F010031363204B1B6B03F010033B61F4
:101DA0003B694FF480437B610223BB610023FB61ED
:101DB00000233B6201237B6207F114031946174895
:101DC00000F08EFD22E07B681B68154A93421DD10E
:101DD0000023FB60104B1B6B0F4A43F0040313639B
:101DE0000D4B1B6B03F00403FB60FB68C0237B619E
:101DF0000223BB610023FB6100233B6203237B6260
:101E000007F114031946074800F06AFD00BF2837A0
:101E1000BD4680BD00000140003802400010024075
:101E2000000401400008024080B58AB000AF78602D
:101E300007F1140300221A605A609A60DA601A618E
:101E40007B681B681D4A934234D100233B611C4BC5
:101E50001B6C1B4A43F480231364194B1B6C03F463
:101E600080233B613B690023FB60154B1B6B144ACD
:101E700043F004031363124B1B6B03F00403FB607A
:101E8000FB684FF440637B610223BB610023FB616D
:101E900003233B6207237B6207F1140319460948B9
:101EA00000F01EFD00220521272000F050FC272015
:101EB00000F069FC00BF2837BD4680BD00480040E7
:101EC000003802400008024080B400AFFEE780B452
:101ED00000AFFEE780B400AFFEE780B400AFFEE7DE
:101EE00080B400AFFEE780B400AF00BFBD465DF830
:101EF000047B704780B500AF00F00AFB06F068F87D
:101F00000346012B01D006F04FFE00BF80BD00004C
:101F100080B500AF024803F017FC00BF80BD00BFD2
:101F2000F801002080B586B000AF7860144A154BE8
:101F3000D31A7B617B693B61134B1B68002B02D179
:101F4000114B124A1A60104B1A687B6813443A69A5
:101F50009A4207D207F0CAF803460C221A604FF0E3
:101F6000FF3309E0084B1B68FB60074B1A687B686E
:101F70001344054A1360FB6818461837BD4680BDF8
:101F800000000220000400007C02002020510020FC
:101F900080B400AF064BD3F88830054A43F4700391
:101FA000C2F8883000BFBD465DF8047B704700BFB3
:101FB00000ED00E0DFF834D0FFF7EAFF0C480D49F0
:101FC0000D4A002302E0D458C4500433C4188C4294
:101FD000F9D30A4A0A4C002301E013600432A242FA
:101FE000FBD307F089F8FEF7B7FE70470000022028
:101FF000000000206800002000A600086800002003
:102000001C510020FEE7000080B582B000AF002325
:10201000FB7126E0FB79503BDBB20021184600F053
:102020002BF80021002000F027F80021102000F0FC
:1020300023F80023BB710DE0BA79FB790D49D2007A
:102040000A4413441B780121184600F015F8BB79A7
:102050000133BB7197F90630002BEDDAFB790133C0
:10206000FB71FB79072BD5D900BF00BF0837BD46F0
:1020700080BD00BF8002002080B584B000AF034661
:102080000A46FB711346BB71BB79002B06D00122B7
:102090004FF480711C4800F0BFFD05E000224FF4B2
:1020A0008071194800F0B8FD0023FB731EE0002288
:1020B0002021154800F0B0FD97F90730002B05DA14
:1020C00001224021104800F0A7FD04E00022402139
:1020D0000D4800F0A1FD012220210B4800F09CFDDD
:1020E000FB795B00FB71FB7B0133FB73FB7B072BF5
:1020F000DDD901224FF48071034800F08DFD00BF4F
:102100001037BD4680BD00BF0010024080B582B0D0
:1021100000AF0023FB7114E00023BB710AE0BA7921
:10212000FB790C49D2000A44134400221A70BB798F
:102130000133BB7197F90630002BF0DAFB790133DC
:10214000FB71FB79072BE7D9FFF75EFF00BF08376C
:10215000BD4680BD8002002080B485B000AF03463C
:10216000FB710B46BB7113467B710023FB7397F920
:102170000730002B41DBBB793F2B3ED8BB79DB0816
:10218000DBB2C3F10703BB73BB7903F007037B73B7
:102190007B7BC3F10703012202FA03F3FB737B7914
:1021A000002B12D0FA79BB7B1749D2000A441344A2
:1021B0001878FA79BB7BF97B0143C8B21249D20087
:1021C0000A44134402461A7018E0FA79BB7B0E49A0
:1021D000D2000A4413441B785AB297F90F30DB43FC
:1021E0005BB2134059B2FA79BB7BC8B20649D20040
:1021F0000A44134402461A7000E000BF1437BD467B
:102200005DF8047B704700BF8002002090B585B068
:1022100000AF0446084611461A462346FB710346A2
:10222000BB710B467B7113463B71BB793B737B796A
:10223000203B7B710023BB734DE03B790C2B0BD112
:102240007A79B97B284813465B0013449B0003440A
:102250000B441B78FB7307E07A79BB7B234912019F
:102260000A4413441B78FB7300237B732DE097F91A
:102270000F30002B07DA97F82020B979FB79184640
:10228000FFF76AFF0CE097F82030002B0CBF01230A
:102290000023DBB21A46B979FB791846FFF75CFFD9
:1022A000FB7B5B00FB73BB790133BB71BA793B7B72
:1022B000D21A3B799A4205D13B7BBB71FB79013342
:1022C000FB7105E07B7B01337B737B7B072BCED9D6
:1022D000BB7B0133BB73BA7B3B799A42ADD300BF62
:1022E00000BF1437BD4690BD589B0008CC9F000826
:1022F00080B584B002AF03463A60FB710B46BB71F8
:102300001FE0FB797A2B04D90023FB71BB791033D2
:10231000BB71BB793A2B05D90023FB71FB79BB71EB
:10232000FFF7F4FE3B681A78B979F8790123009336
:102330000C23FFF76BFFFB790833FB713B6801331C
:102340003B603B681B78002BDBD100BF00BF083728
:10235000BD4680BD80B500AF01F08CFC414B1B6FCA
:10236000404A23F0010313673E4B1B6F3D4A23F0A5
:102370000403136701F092FC002280213A4800F028
:102380004BFC642000F0E4F801228021364800F084
:1023900043FC0021AE20FFF76FFE0021D520FFF7A0
:1023A0006BFE00215020FFF767FE0021A820FFF7F9
:1023B00063FE00213F20FFF75FFE0021D320FFF7DF
:1023C0005BFE00210020FFF757FE00214020FFF7B1
:1023D00053FE00218D20FFF74FFE00211420FFF750
:1023E0004BFE00212020FFF747FE00210220FFF7CF
:1023F00043FE0021A120FFF73FFE0021C020FFF790
:102400003BFE0021DA20FFF737FE00211220FFF704
:1024100033FE00218120FFF72FFE0021EF20FFF780
:102420002BFE0021D920FFF727FE0021F120FFF726
:1024300023FE0021DB20FFF71FFE00213020FFF7E5
:102440001BFE0021A420FFF717FE0021A620FFF7A6
:1024500013FE0021AF20FFF70FFEFFF757FE00BF6E
:1024600080BD00BF003802400010024080B500AFC0
:102470000E4B1B680D4A43F4007313600B4B1B6833
:102480000A4A43F480631360084B1B68074A43F40D
:1024900080731360032000F04FF90F2000F008F85C
:1024A000FFF70EFB0023184680BD00BF003C024032
:1024B00080B582B000AF7860124B1A68124B1B785F
:1024C00019464FF47A73B3FBF1F3B2FBF3F31846FA
:1024D00000F067F90346002B01D001230EE07B6872
:1024E0000F2B0AD8002279684FF0FF3000F02FF947
:1024F000064A7B681360002300E001231846083772
:10250000BD4680BD08000020100000200C00002007
:1025100080B400AF064B1B781A46064B1B68134469
:10252000044A136000BFBD465DF8047B704700BFDE
:10253000100000208006002080B400AF034B1B6811
:102540001846BD465DF8047B704700BF800600203A
:1025500080B584B000AF7860FFF7EEFFB8607B68AD
:10256000FB60FB68B3F1FF3F05D00A4B1B781A46AE
:10257000FB681344FB6000BFFFF7DEFF0246BB6849
:10258000D31AFA689A42F7D800BF00BF1037BD4689
:1025900080BD00BF1000002080B485B000AF78601F
:1025A0007B6803F00703FB600C4BDB68BB60BA6819
:1025B0004FF6FF031340BB60FB681A02BB6813436E
:1025C00043F0BF6343F40033BB60044ABB68D3608D
:1025D00000BF1437BD465DF8047B704700ED00E096
:1025E00080B400AF044BDB681B0A03F007031846F6
:1025F000BD465DF8047B704700ED00E080B483B019
:1026000000AF0346FB7197F90730002B0BDBFB791A
:1026100003F01F02074997F907305B09012000FA10
:1026200002F241F8232000BF0C37BD465DF8047B61
:10263000704700BF00E100E080B483B000AF034604
:102640003960FB7197F90730002B0ADB3B68DAB27F
:102650000C4997F907301201D2B20B4483F80023DA
:102660000AE03B68DAB20849FB7903F00F03043B48
:102670001201D2B20B441A7600BF0C37BD465DF88A
:10268000047B704700E100E000ED00E080B489B019
:1026900000AFF860B9607A60FB6803F00703FB6184
:1026A000FB69C3F10703042B28BF0423BB61FB694B
:1026B0000433062B02D9FB69033B00E000237B6156
:1026C0004FF0FF32BB6902FA03F3DA43BB681A40EA
:1026D0007B699A404FF0FF317B6901FA03F3D943DC
:1026E0007B680B40134318462437BD465DF8047BD6
:1026F0007047000080B582B000AF78607B68013B16
:10270000B3F1807F01D301230FE00A4A7B68013BCC
:1027100053600F214FF0FF30FFF78EFF054B002273
:102720009A60044B07221A60002318460837BD46FA
:1027300080BD00BF10E000E080B582B000AF7860DF
:102740007868FFF729FF00BF0837BD4680BD80B518
:1027500086B000AF0346B9607A60FB7300237B61EB
:10276000FFF73EFF78617A68B9687869FFF78EFFF6
:10277000024697F90F3011461846FFF75DFF00BF7C
:102780001837BD4680BD80B582B000AF0346FB71EF
:1027900097F907301846FFF731FF00BF0837BD46ED
:1027A00080BD80B582B000AF78607868FFF7A2FF87
:1027B000034618460837BD4680BD80B584B000AFDB
:1027C00078607B689B6DFB60FFF7B6FEB8607B6846
:1027D00093F83530DBB2022B08D07B6880225A6533
:1027E0007B68002283F83420012352E07B681B6859
:1027F0001A687B681B6822F016021A607B681B68E7
:102800005A697B681B6822F080025A617B681B6CE6
:10281000002B03D17B689B6C002B07D07B681B6867
:102820001A687B681B6822F008021A607B681B68C4
:102830001A687B681B6822F001021A6013E0FFF738
:102840007BFE0246BB68D31A052B0CD97B6820227D
:102850005A657B68032283F835207B68002283F861
:102860003420032315E07B681B681B6803F0010319
:10287000002BE4D17B68DB6D3F229A40FB689A60B5
:102880007B68012283F835207B68002283F834209E
:10289000002318461037BD4680BD80B483B000AF1A
:1028A00078607B6893F83530DBB2022B04D07B680C
:1028B00080225A6501230CE07B68052283F83520CD
:1028C0007B681B681A687B681B6822F001021A602B
:1028D000002318460C37BD465DF8047B70470000A6
:1028E00080B489B000AF7860396000237B61002339
:1028F0003B610023BB610023FB616BE10122FB69AB
:1029000002FA03F37B613B681B687A6913403B6101
:102910003A697B699A4240F05A813B685B6803F0F0
:102920000303012B05D03B685B6803F00303022B14
:1029300030D17B689B68BB61FB695B00032202FAB4
:1029400003F3DB43BA691340BB613B68DA68FB6998
:102950005B0002FA03F3BA691343BB617B68BA698F
:102960009A607B685B68BB610122FB6902FA03F332
:10297000DB43BA691340BB613B685B681B0903F02A
:102980000102FB6902FA03F3BA691343BB617B6876
:10299000BA695A603B685B6803F00303032B17D0E6
:1029A0007B68DB68BB61FB695B00032202FA03F30F
:1029B000DB43BA691340BB613B689A68FB695B0003
:1029C00002FA03F3BA691343BB617B68BA69DA6040
:1029D0003B685B6803F00303022B23D1FB69DA0831
:1029E0007B68083253F82230BB61FB6903F00703B0
:1029F0009B000F2202FA03F3DB43BA691340BB6169
:102A00003B681A69FB6903F007039B0002FA03F3B2
:102A1000BA691343BB61FB69DA087B680832B9699C
:102A200043F822107B681B68BB61FB695B000322D3
:102A300002FA03F3DB43BA691340BB613B685B688E
:102A400003F00302FB695B0002FA03F3BA69134364
:102A5000BB617B68BA691A603B685B6803F440330A
:102A6000002B00F0B4800023FB60604B5B6C5F4A7E
:102A700043F4804353645D4B5B6C03F48043FB6021
:102A8000FB685B4AFB699B08023352F82330BB6149
:102A9000FB6903F003039B000F2202FA03F3DB43FD
:102AA000BA691340BB617B68524A93422BD07B6862
:102AB000514A934225D07B68504A93421FD07B688D
:102AC0004F4A934219D07B684E4A934213D07B6899
:102AD0004D4A93420DD07B684C4A934207D07B68A5
:102AE0004B4A934201D107230EE008230CE0062352
:102AF0000AE0052308E0042306E0032304E00223A0
:102B000002E0012300E00023FA6902F003029200D0
:102B10009340BA691343BB613549FB699B08023393
:102B2000BA6941F823203B4B9B68BB613B69DB439F
:102B3000BA691340BB613B685B6803F48013002BE8
:102B400003D0BA693B691343BB61324ABB699360E6
:102B5000304BDB68BB613B69DB43BA691340BB6147
:102B60003B685B6803F40013002B03D0BA693B6930
:102B70001343BB61274ABB69D360264B5B68BB61CB
:102B80003B69DB43BA691340BB613B685B6803F494
:102B90000033002B03D0BA693B691343BB611D4A64
:102BA000BB6953601B4B1B68BB613B69DB43BA6964
:102BB0001340BB613B685B6803F48033002B03D098
:102BC000BA693B691343BB61124ABB691360FB6975
:102BD0000133FB61FB690F2B7FF690AE00BF00BF96
:102BE0002437BD465DF8047B704700BF00380240C3
:102BF000003801400000024000040240000802408A
:102C0000000C024000100240001402400018024074
:102C1000001C0240003C014080B483B000AF7860EB
:102C20000B467B8013467B707B78002B03D07A8821
:102C30007B689A6103E07B881A047B689A6100BF15
:102C40000C37BD465DF8047B704780B485B000AF9B
:102C500078600B467B807B685B69FB607A88FB68E9
:102C600013401A04FB68D9437B880B401A437B68E6
:102C70009A6100BF1437BD465DF8047B70470000C1
:102C800080B584B000AF78607B68002B01D1012350
:102C90002BE17B6893F83D30DBB2002B06D17B68DB
:102CA000002283F83C207868FEF736FF7B682422F8
:102CB00083F83D207B681B681A687B681B6822F0DC
:102CC00001021A607B681B681A687B681B6842F403
:102CD00000421A607B681B681A687B681B6822F4D4
:102CE00000421A6001F01EFCF8607B685B68814A54
:102CF000934207D8FB68804A934294BF0123002384
:102D0000DBB206E0FB687D4A934294BF01230023B7
:102D1000DBB2002B01D00123E7E0FB68784AA2FB7D
:102D200003239B0CBB607B681B685B6823F03F013F
:102D30007B681B68BA680A435A607B681B681B6A19
:102D400023F03F017B685B686A4A934202D8BB6804
:102D5000013309E0BB684FF4967202FB03F3694A42
:102D6000A2FB03239B0901337A6812680B431362A9
:102D70007B681B68DB6923F44F4222F0FF027B680B
:102D80005B685C498B4219D8FB68591E7B685B689D
:102D90005B00B1FBF3F3591C40F6FC730B40002BB6
:102DA0000AD0FB68591E7B685B685B00B1FBF3F3DC
:102DB0000133C3F30B0351E004234FE07B689B68AE
:102DC000002B11D1FB68581E7B6859680B465B00CD
:102DD0000B44B0FBF3F30133C3F30B03002B0CBF25
:102DE00001230023DBB212E0FB68581E7B685968A0
:102DF0000B469B000B4499000B44B0FBF3F30133EB
:102E0000C3F30B03002B0CBF01230023DBB2002B09
:102E100001D0012322E07B689B68002B0ED1FB6868
:102E2000581E7B6859680B465B000B44B0FBF3F3FC
:102E30000133C3F30B0343F400430FE0FB68581E58
:102E40007B6859680B469B000B4499000B44B0FB10
:102E5000F3F30133C3F30B0343F440437968096888
:102E60001343CB617B681B681B6823F0C0017B6840
:102E7000DA697B681B6A1A437B681B680A431A601D
:102E80007B681B689B6823F4034323F0FF037A6885
:102E900011697A68D26811437A6812680B439360AB
:102EA0007B681B68DB6823F0FF017B685A697B68DD
:102EB0009B691A437B681B680A43DA607B681B685E
:102EC0001A687B681B6842F001021A607B68002266
:102ED0001A647B68202283F83D207B6800221A63F5
:102EE0007B68002283F83E20002318461037BD4639
:102EF00080BD00BFA08601007F841E00FF083D004A
:102F000083DE1B43D34D621080B588B002AFF860FA
:102F10007A601A460B467B8113463B81FFF70CFB18
:102F20007861FB6893F83D30DBB2202B40F0E08005
:102F30007B690093192301227049F86800F064FC52
:102F40000346002B01D00223D3E0FB6893F83C300A
:102F5000012B01D10223CCE0FB68012283F83C2045
:102F6000FB681B681B6803F00103012B07D0FB689B
:102F70001B681A68FB681B6842F001021A60FB6854
:102F80001B681A68FB681B6822F400621A60FB6801
:102F9000212283F83D20FB68102283F83E20FB6845
:102FA00000221A64FB687A685A62FB683A895A857B
:102FB000FB685B8D9AB2FB681A85FB68504ADA623F
:102FC00079897B693A6AF86800F0CEFA0346002BEB
:102FD00001D001238DE000233B61FB681B685B6926
:102FE0003B61FB681B689B693B613B6966E07A69F2
:102FF000396AF86800F022FD0346002B0DD0FB680B
:103000001B6C042B07D1FB681B681A68FB681B68E4
:1030100042F400721A6001236BE0FB685B6A1A7865
:10302000FB681B681A61FB685B6A5A1CFB685A6282
:10303000FB685B8D9BB2013B9AB2FB685A85FB68CB
:103040001B8D013B9AB2FB681A85FB681B685B69A4
:1030500003F00403042B1BD1FB681B8D002B17D03E
:10306000FB685B6A1A78FB681B681A61FB685B6A1D
:103070005A1CFB685A62FB685B8D9BB2013B9AB29B
:10308000FB685A85FB681B8D013B9AB2FB681A8569
:103090007A69396AF86800F019FD0346002B0DD0F3
:1030A000FB681B6C042B07D1FB681B681A68FB6864
:1030B0001B6842F400721A6001231AE0FB681B8D42
:1030C000002B94D1FB681B681A68FB681B6842F4EC
:1030D00000721A60FB68202283F83D20FB68002202
:1030E00083F83E20FB68002283F83C20002300E0A8
:1030F000022318461837BD4680BD00BF02001000ED
:103100000000FFFF80B58CB002AFF8607A601A460D
:103110000B467B8113463B81FFF70EFA7862FB6812
:1031200093F83D30DBB2202B40F017827B6A00938E
:10313000192301227C49F86800F066FB0346002B46
:1031400001D002230AE2FB6893F83C30012B01D145
:10315000022303E2FB68012283F83C20FB681B6822
:103160001B6803F00103012B07D0FB681B681A687A
:10317000FB681B6842F001021A60FB681B681A6852
:10318000FB681B6822F400621A60FB68222283F845
:103190003D20FB68102283F83E20FB6800221A6461
:1031A000FB687A685A62FB683A895A85FB685B8DCE
:1031B0009AB2FB681A85FB685C4ADA6279897B6A95
:1031C0003A6BF86800F052FA0346002B01D0012355
:1031D000C4E1FB681B8D002B13D100233B62FB680D
:1031E0001B685B693B62FB681B689B693B623B6ACF
:1031F000FB681B681A68FB681B6842F400721A605F
:1032000098E1FB681B8D012B1BD1FB681B681A68BA
:10321000FB681B6822F480621A600023FB61FB6874
:103220001B685B69FB61FB681B689B69FB61FB6951
:10323000FB681B681A68FB681B6842F400721A601E
:1032400078E1FB681B8D022B1BD1FB681B681A6899
:10325000FB681B6822F480621A60FB681B681A68AE
:10326000FB681B6842F400621A600023BB61FB68C4
:103270001B685B69BB61FB681B689B69BB61BB69C1
:1032800058E1FB681B681A68FB681B6842F480629F
:103290001A6000237B61FB681B685B697B61FB68CC
:1032A0001B689B697B617B6944E1FB681B8D032B79
:1032B00000F2F180FB681B8D012B23D17A6A396BF8
:1032C000F86800F04BFC0346002B01D0012345E1D8
:1032D000FB681B681A69FB685B6AD2B21A70FB68EC
:1032E0005B6A5A1CFB685A62FB681B8D013B9AB2F1
:1032F000FB681A85FB685B8D9BB2013B9AB2FB6849
:103300005A8517E1FB681B8D022B4ED17B6A009317
:103310003B6B00220649F86800F076FA0346002B62
:1033200008D001231AE100BF020010000000FFFFD7
:1033300004000100FB681B681A68FB681B6842F404
:1033400000721A60FB681B681A69FB685B6AD2B27C
:103350001A70FB685B6A5A1CFB685A62FB681B8D1B
:10336000013B9AB2FB681A85FB685B8D9BB2013BFF
:103370009AB2FB685A85FB681B681A69FB685B6A2E
:10338000D2B21A70FB685B6A5A1CFB685A62FB680F
:103390001B8D013B9AB2FB681A85FB685B8D9BB263
:1033A000013B9AB2FB685A85C4E07B6A00933B6B91
:1033B00000226C49F86800F027FA0346002B01D080
:1033C0000123CBE0FB681B681A68FB681B6822F4CA
:1033D00080621A60FB681B681A69FB685B6AD2B27C
:1033E0001A70FB685B6A5A1CFB685A62FB681B8D8B
:1033F000013B9AB2FB681A85FB685B8D9BB2013B6F
:103400009AB2FB685A857B6A00933B6B0022554950
:10341000F86800F0F9F90346002B01D001239DE084
:10342000FB681B681A68FB681B6842F400721A602C
:10343000FB681B681A69FB685B6AD2B21A70FB688A
:103440005B6A5A1CFB685A62FB681B8D013B9AB28F
:10345000FB681A85FB685B8D9BB2013B9AB2FB68E7
:103460005A85FB681B681A69FB685B6AD2B21A70DE
:10347000FB685B6A5A1CFB685A62FB681B8D013B48
:103480009AB2FB681A85FB685B8D9BB2013B9AB2CE
:10349000FB685A854EE07A6A396BF86800F05EFB8B
:1034A0000346002B01D0012358E0FB681B681A6912
:1034B000FB685B6AD2B21A70FB685B6A5A1CFB68D5
:1034C0005A62FB681B8D013B9AB2FB681A85FB6848
:1034D0005B8D9BB2013B9AB2FB685A85FB681B6807
:1034E0005B6903F00403042B24D1FB681B8D032BC1
:1034F00007D1FB681B681A68FB681B6822F48062AE
:103500001A60FB681B681A69FB685B6AD2B21A70A2
:10351000FB685B6A5A1CFB685A62FB681B8D013BA7
:103520009AB2FB681A85FB685B8D9BB2013B9AB22D
:10353000FB685A85FB681B8D002B7FF4B6AEFB68D9
:10354000202283F83D20FB68002283F83E20FB68A0
:10355000002283F83C20002300E00223184628378D
:10356000BD4680BD0400010080B588B002AFF860A0
:103570007A603B600B467B81FB68DB6A7B617B6921
:10358000082B06D07B69012B03D07B6913F5803FA4
:1035900008D1FB681B681A68FB681B6842F48072DC
:1035A0001A600BE0FB681B6B122B07D1FB681B68D2
:1035B0001A68FB681B6842F480721A603B680093CB
:1035C0007B6800224FF00111F86800F01DF90346F6
:1035D000002B0DD0FB681B681B6803F48073B3F5E8
:1035E000807F03D1FB684FF400721A64032335E037
:1035F000FB681B69B3F5804F08D17B89DBB21A46A3
:10360000FB681B6802F0FE021A611BE07B89DB117C
:10361000DBB203F00603DBB263F00F03DAB2FB6840
:103620001B681A613B687A680E49F86800F066F911
:103630000346002B01D0012310E07B89DAB2FB683E
:103640001B681A613B687A680749F86800F056F908
:103650000346002B01D0012300E000231846183751
:10366000BD4680BD080001000200010080B588B0A1
:1036700002AFF8607A603B600B467B81FB68DB6AD7
:103680007B61FB681B681A68FB681B6842F48062F8
:103690001A607B69082B06D07B69012B03D07B69FC
:1036A00013F5803F08D1FB681B681A68FB681B682C
:1036B00042F480721A600BE0FB681B6B112B07D180
:1036C000FB681B681A68FB681B6842F480721A600A
:1036D0003B6800937B6800224FF00111F86800F00E
:1036E00093F80346002B0DD0FB681B681B6803F49E
:1036F0008073B3F5807F03D1FB684FF400721A64C6
:10370000032379E0FB681B69B3F5804F08D17B89FF
:10371000DBB243F00103DAB2FB681B681A615FE0B9
:103720007B89DB11DBB203F00603DBB263F00F032E
:10373000DAB2FB681B681A613B687A683049F8683E
:1037400000F0DCF80346002B01D0012354E07B8914
:10375000DAB2FB681B681A613B687A682949F86825
:1037600000F0CCF80346002B01D0012344E00023F5
:103770003B61FB681B685B693B61FB681B689B697D
:103780003B613B69FB681B681A68FB681B6842F475
:1037900080721A603B6800937B6800224FF0011131
:1037A000F86800F031F80346002B0DD0FB681B6869
:1037B0001B6803F48073B3F5807F03D1FB684FF47B
:1037C00000721A64032317E07B89DB11DBB203F07C
:1037D0000603DBB263F00E03DAB2FB681B681A6102
:1037E0003B687A680749F86800F088F80346002BC0
:1037F00001D0012300E0002318461837BD4680BDE4
:10380000080001000200010080B584B000AFF8603C
:10381000B9603B601346FB7148E03B68B3F1FF3F82
:1038200044D0FEF789FE0246BB69D31A3A689A4231
:1038300002D33B68002B39D1BB681B0CDBB2012BD8
:103840000DD1FB681B685B69DA43BB6813409BB210
:10385000002B0CBF01230023DBB21A460CE0FB68EF
:103860001B689B69DA43BB6813409BB2002B0CBFFB
:1038700001230023DBB21A46FB799A4216D1FB687A
:1038800000221A63FB68202283F83D20FB68002297
:1038900083F83E20FB681B6C43F02002FB681A642F
:1038A000FB68002283F83C20012323E0BB681B0C4B
:1038B000DBB2012B0DD1FB681B685B69DA43BB6887
:1038C00013409BB2002B0CBF01230023DBB21A462E
:1038D0000CE0FB681B689B69DA43BB6813409BB232
:1038E000002B0CBF01230023DBB21A46FB799A425E
:1038F00093D0002318461037BD4680BD80B584B0F4
:1039000000AFF860B9607A603B6071E0FB681B68EB
:103910005B6903F48063B3F5806F23D1FB681B6898
:103920001A68FB681B6842F400721A60FB681B6827
:103930006FF480625A61FB6800221A63FB682022E0
:1039400083F83D20FB68002283F83E20FB681B6C57
:1039500043F00402FB681A64FB68002283F83C20F1
:10396000012367E07B68B3F1FF3F41D0FEF7E4FD40
:1039700002463B68D31A7A689A4202D37B68002BCE
:1039800036D1BB681B0CDBB2012B0CD1FB681B686A
:103990005B69DA43BB6813409BB2002B14BF012361
:1039A0000023DBB20BE0FB681B689B69DA43BB6852
:1039B00013409BB2002B14BF01230023DBB2002B6A
:1039C00016D0FB6800221A63FB68202283F83D2092
:1039D000FB68002283F83E20FB681B6C43F020024A
:1039E000FB681A64FB68002283F83C20012321E075
:1039F000BB681B0CDBB2012B0CD1FB681B685B693D
:103A0000DA43BB6813409BB2002B14BF0123002391
:103A1000DBB20BE0FB681B689B69DA43BB681340B1
:103A20009BB2002B14BF01230023DBB2002B7FF4D9
:103A30006DAF002318461037BD4680BD80B584B0F9
:103A400000AFF860B9607A6034E0F86800F0E3F83D
:103A50000346002B01D0012334E0BB68B3F1FF3FE4
:103A600028D0FEF769FD02467B68D31ABA689A42ED
:103A700002D3BB68002B1DD1FB681B685B6903F098
:103A80008003802B16D0FB6800221A63FB6820227B
:103A900083F83D20FB68002283F83E20FB681B6C06
:103AA00043F02002FB681A64FB68002283F83C2084
:103AB000012307E0FB681B685B6903F08003802B30
:103AC000C3D1002318461037BD4680BD80B584B0F1
:103AD00000AFF860B9607A6034E0F86800F09BF8F5
:103AE0000346002B01D0012334E0BB68B3F1FF3F54
:103AF00028D0FEF721FD02467B68D31ABA689A42A5
:103B000002D3BB68002B1DD1FB681B685B6903F007
:103B10000403042B16D0FB6800221A63FB682022E2
:103B200083F83D20FB68002283F83E20FB681B6C75
:103B300043F02002FB681A64FB68002283F83C20F3
:103B4000012307E0FB681B685B6903F00403042B97
:103B5000C3D1002318461037BD4680BD80B584B060
:103B600000AFF860B9607A6049E0FB681B685B6988
:103B700003F01003102B19D1FB681B686FF01002C3
:103B80005A61FB6800221A63FB68202283F83D20FB
:103B9000FB68002283F83E20FB681A6CFB681A64FD
:103BA000FB68002283F83C20012330E0FEF7C4FCD0
:103BB00002467B68D31ABA689A4202D3BB68002BCC
:103BC0001DD1FB681B685B6903F04003402B16D0D6
:103BD000FB6800221A63FB68202283F83D20FB6803
:103BE000002283F83E20FB681B6C43F02002FB6838
:103BF0001A64FB68002283F83C20012307E0FB687D
:103C00001B685B6903F04003402BAED100231846CC
:103C10001037BD4680BD80B483B000AF78607B684C
:103C20001B685B6903F48063B3F5806F1BD17B680D
:103C30001B686FF480625A617B6800221A637B689C
:103C4000202283F83D207B68002283F83E207B6899
:103C50001B6C43F004027B681A647B68002283F8C3
:103C60003C20012300E0002318460C37BD465DF8D8
:103C7000047B704780B483B000AF064B01221A600A
:103C8000054B1B687B607B6800BF0C37BD465DF849
:103C9000047B704720000E420070004080B483B067
:103CA00000AF064B00221A60054B1B687B607B68E7
:103CB00000BF0C37BD465DF8047B704720000E4204
:103CC0000070004080B586B000AF78607B68002B44
:103CD00001D1012367E27B681B6803F00103002B1D
:103CE00075D0884B9B6803F00C03042B0CD0854BDC
:103CF0009B6803F00C03082B12D1824B5B6803F422
:103D00008003B3F5800F0BD17E4B1B6803F40033A7
:103D1000002B5BD07B685B68002B57D1012342E20C
:103D20007B685B68B3F5803F06D1764B1B68754AAC
:103D300043F4803313601DE07B685B68B3F5A02F0C
:103D40000CD1704B1B686F4A43F4802313606D4B9A
:103D50001B686C4A43F4803313600BE0694B1B68AB
:103D6000684A23F480331360664B1B68654A23F46A
:103D7000802313607B685B68002B13D0FEF7DCFBAD
:103D8000386108E0FEF7D8FB02463B69D31A642B82
:103D900001D9032307E25B4B1B6803F40033002BBC
:103DA000F0D014E0FEF7C8FB386108E0FEF7C4FB72
:103DB00002463B69D31A642B01D90323F3E1514B2B
:103DC0001B6803F40033002BF0D100E000BF7B68D8
:103DD0001B6803F00203002B63D04A4B9B6803F07F
:103DE0000C03002B0BD0474B9B6803F00C03082BF4
:103DF0001CD1444B5B6803F48003002B16D1414B6C
:103E00001B6803F00203002B05D07B68DB68012BE5
:103E100001D00123C7E13B4B1B6823F0F8027B680C
:103E20001B69DB00374913430B603AE07B68DB68B2
:103E3000002B20D0344B01221A60FEF77DFB386145
:103E400008E0FEF779FB02463B69D31A022B01D941
:103E50000323A8E12B4B1B6803F00203002BF0D0D7
:103E6000284B1B6823F0F8027B681B69DB0025499F
:103E700013430B6015E0244B00221A60FEF75CFB35
:103E8000386108E0FEF758FB02463B69D31A022B63
:103E900001D9032387E11B4B1B6803F00203002BAE
:103EA000F0D17B681B6803F00803002B36D07B68D9
:103EB0005B69002B16D0154B01221A60FEF73CFB04
:103EC000386108E0FEF738FB02463B69D31A022B43
:103ED00001D9032367E10B4B5B6F03F00203002B57
:103EE000F0D01BE0094B00221A60FEF725FB386179
:103EF0000EE0FEF721FB02463B69D31A022B07D9DD
:103F0000032350E10038024000004742800E474240
:103F1000884B5B6F03F00203002BEAD17B681B68C0
:103F200003F00403002B00F097800023FB75814B06
:103F30001B6C03F08053002B0FD10023BB607D4B23
:103F40001B6C7C4A43F0805313647A4B1B6C03F068
:103F50008053BB60BB680123FB75774B1B6803F480
:103F60008073002B18D1744B1B68734A43F4807321
:103F70001360FEF7E1FA386108E0FEF7DDFA024669
:103F80003B69D31A022B01D903230CE16A4B1B684E
:103F900003F48073002BF0D07B689B68012B06D163
:103FA000644B1B6F634A43F0010313671CE07B689B
:103FB0009B68052B0CD15F4B1B6F5E4A43F00403DB
:103FC00013675C4B1B6F5B4A43F0010313670BE005
:103FD000584B1B6F574A23F001031367554B1B6F58
:103FE000544A23F0040313677B689B68002B15D0A9
:103FF000FEF7A2FA38610AE0FEF79EFA02463B6934
:10400000D31A41F28832934201D90323CBE0494BC2
:104010001B6F03F00203002BEED014E0FEF78CFAC6
:1040200038610AE0FEF788FA02463B69D31A41F28A
:104030008832934201D90323B5E03E4B1B6F03F056
:104040000203002BEED1FB7D012B05D1394B1B6CFC
:10405000384A23F0805313647B689B69002B00F07F
:10406000A180344B9B6803F00C03082B5CD07B6869
:104070009B69022B41D1314B00221A60FEF75CFA9A
:10408000386108E0FEF758FA02463B69D31A022B62
:1040900001D9032387E0274B1B6803F00073002B33
:1040A000F0D17B68DA697B681B6A1A437B685B6ABC
:1040B0009B011A437B689B6A5B08013B1B041A4304
:1040C0007B68DB6A1B061B4913434B601B4B0122B9
:1040D0001A60FEF731FA386108E0FEF72DFA024661
:1040E0003B69D31A022B01D903235CE0114B1B68F7
:1040F00003F00073002BF0D054E0104B00221A6044
:10410000FEF71AFA386108E0FEF716FA02463B6934
:10411000D31A022B01D9032345E0064B1B6803F099
:104120000073002BF0D13DE07B689B69012B07D128
:10413000012338E000380240007000406000474230
:104140001B4B5B68FB607B689B69012B28D0FB687D
:1041500003F480027B68DB699A4221D1FB6803F09B
:104160003F027B681B6A9A421AD1FA6847F6C0730D
:1041700013407A68526A9201934211D1FB6803F4AA
:1041800040327B689B6A5B08013B1B049A4207D163
:10419000FB6803F070627B68DB6A1B069A4201D001
:1041A000012300E0002318461837BD4680BD00BF3C
:1041B0000038024080B584B000AF786039607B6819
:1041C000002B01D10123CCE0684B1B6803F00703EF
:1041D0003A689A420CD9654B3A68D2B21A70634B6E
:1041E0001B6803F007033A689A4201D00123B8E044
:1041F0007B681B6803F00203002B20D07B681B68E0
:1042000003F00403002B05D0594B9B68584A43F434
:10421000E05393607B681B6803F00803002B05D014
:10422000534B9B68524A43F460439360504B9B68E6
:1042300023F0F0027B689B684D4913438B607B68D9
:104240001B6803F00103002B44D07B685B68012BE3
:1042500007D1474B1B6803F40033002B19D101230E
:104260007FE07B685B68022B03D07B685B68032B75
:1042700007D13F4B1B6803F00073002B09D10123CA
:104280006FE03B4B1B6803F00203002B01D10123BD
:1042900067E0374B9B6823F003027B685B68344917
:1042A00013438B60FEF748F9F8600AE0FEF744F923
:1042B0000246FB68D31A41F28832934201D90323A4
:1042C0004FE02B4B9B6803F00C027B685B689B0004
:1042D0009A42EBD1254B1B6803F007033A689A42D8
:1042E0000CD2224B3A68D2B21A70204B1B6803F0F2
:1042F00007033A689A4201D0012332E07B681B68C9
:1043000003F00403002B08D0194B9B6823F4E05200
:104310007B68DB68164913438B607B681B6803F07E
:104320000803002B09D0124B9B6823F460427B6882
:104330001B69DB000E4913438B6000F021F8024635
:104340000B4B9B681B0903F00F030A49CB5C22FA55
:1043500003F3094A1360094B1B681846FEF7A8F8D7
:10436000002318461037BD4680BD00BF003C024008
:1043700000380240409B0008080000200C0000208C
:104380002DE9B04F90B000AF00237B630023FB63A7
:1043900000233B630023BB63594B9B6803F00C0372
:1043A000082B0DD0082B00F2A180002B02D0042B8B
:1043B00003D09BE0534BBB639BE0534BBB6398E044
:1043C0004F4B5B6803F03F037B634D4B5B6803F42B
:1043D0008003002B28D04A4B5B689B0900223B627C
:1043E0007A623B6AC3F308000021474B03FB01F2EA
:1043F000002300FB03F31344434AA0FB0212FA62BA
:104400000A46BA62FA6A1344FB627B6B0022BB6104
:10441000FA61D7E90623D7E90A01FCF71FFB024638
:104420000B461346FB6353E0354B5B689B09002248
:104430003B617A613B69C3F3080A4FF0000B5246B7
:104440005B464FF000004FF00001590141EAD26194
:10445000500102460B46B2EB0A0863EB0B094FF022
:1044600000024FF000034FEA891343EA98634FEAD2
:104470008812B2EB080463EB09054FF000024FF01D
:104480000003EB0043EA5473E20014461D4614EBAC
:104490000A033B6045EB0B037B604FF000024FF0DB
:1044A0000003D7E9004529468B02214643EA915390
:1044B00021468A02104619467B6B0022BB60FA60D7
:1044C000D7E90223FCF7CAFA02460B461346FB6300
:1044D0000B4B5B681B0C03F0030301335B003B6376
:1044E000FA6B3B6BB2FBF3F3BB6302E0054BBB63C0
:1044F00000BFBB6B18464037BD46BDE8B08F00BF5C
:10450000003802400024F40040787D0180B400AF00
:10451000034B1B681846BD465DF8047B704700BF1F
:104520000800002080B500AFFFF7F0FF0246054B02
:104530009B689B0A03F007030349CB5C22FA03F351
:10454000184680BD00380240509B000880B500AF7F
:10455000FFF7DCFF0246054B9B685B0B03F007038C
:104560000349CB5C22FA03F3184680BD00380240B1
:10457000509B000880B582B000AF78607B68002B4C
:1045800001D1012341E07B6893F83D30DBB2002B81
:1045900006D17B68002283F83C207868FDF7C0FBD9
:1045A0007B68022283F83D207B681A687B680433AD
:1045B0001946104600F002FC7B68012283F8462071
:1045C0007B68012283F83E207B68012283F83F202C
:1045D0007B68012283F840207B68012283F8412018
:1045E0007B68012283F842207B68012283F8432004
:1045F0007B68012283F844207B68012283F84520F0
:104600007B68012283F83D20002318460837BD4609
:1046100080BD80B582B000AF78607B68002B01D18F
:10462000012341E07B6893F83D30DBB2002B06D1DB
:104630007B68002283F83C207868FDF7B5FA7B6838
:10464000022283F83D207B681A687B680433194690
:10465000104600F0B3FB7B68012283F846207B689C
:10466000012283F83E207B68012283F83F207B688B
:10467000012283F840207B68012283F841207B6877
:10468000012283F842207B68012283F843207B6863
:10469000012283F844207B68012283F845207B684F
:1046A000012283F83D20002318460837BD4680BD0F
:1046B00080B584B000AF786039603B68002B09D1C9
:1046C0007B6893F83E30DBB2012B14BF012300233B
:1046D000DBB222E03B68042B09D17B6893F83F30C2
:1046E000DBB2012B14BF01230023DBB215E03B68D2
:1046F000082B09D17B6893F84030DBB2012B14BF43
:1047000001230023DBB208E07B6893F84130DBB281
:10471000012B14BF01230023DBB2002B01D00123A6
:104720007CE03B68002B04D17B68022283F83E20AA
:1047300013E03B68042B04D17B68022283F83F20FE
:104740000BE03B68082B04D17B68022283F84020F1
:1047500003E07B68022283F841207B681B6801220A
:104760003968184600F020FE7B681B682D4A93428A
:1047700004D07B681B682C4A934201D1012300E0DE
:104780000023002B07D07B681B685A6C7B681B6872
:1047900042F400425A647B681B68224A934222D04A
:1047A0007B681B68B3F1804F1DD07B681B681F4A74
:1047B000934218D07B681B681D4A934213D07B68D4
:1047C0001B681C4A93420ED07B681B68164A9342B2
:1047D00009D07B681B68184A934204D07B681B6829
:1047E000164A934211D17B681B689B6803F007034C
:1047F000FB60FB68062B10D07B681B681A687B681F
:104800001B6842F001021A6007E07B681B681A68A7
:104810007B681B6842F001021A60002318461037BB
:10482000BD4680BD0000014000040140000400407E
:1048300000080040000C004000400140001800400B
:1048400080B586B000AF786039607B68002B01D1FD
:10485000012397E07B6893F83D30DBB2002B06D153
:104860007B68002283F83C207868FDF7BFF97B68FD
:10487000022283F83D207B681B689B687A68126877
:1048800023F4804323F0070393607B681A687B68F6
:1048900004331946104600F091FA7B681B689B6848
:1048A0007B617B681B689B693B617B681B681B6A3B
:1048B000FB603B681B687A6913437B613B6923F4A7
:1048C000407323F003033B613B689A683B689B6934
:1048D0001B0213433A6913433B613B6923F4406372
:1048E00023F00C033B613B6923F4704323F0F00396
:1048F0003B613B68DA683B68DB691B0213433A693A
:1049000013433B613B681B691A013B681B6A1B032D
:1049100013433A6913433B61FB6823F02203FB60B6
:10492000FB6823F08803FB603B685A683B685B695F
:104930001B011343FA681343FB607B681B687A69A9
:104940009A607B681B683A699A617B681B68FA68A1
:104950001A627B68012283F846207B68012283F873
:104960003E207B68012283F83F207B68012283F888
:1049700042207B68012283F843207B68012283F870
:104980003D20002318461837BD4680BD80B584B051
:1049900000AF786039607B6893F83E30FB737B68CA
:1049A00093F83F30BB737B6893F842307B737B682E
:1049B00093F843303B733B68002B10D1FB7B012BFA
:1049C00002D17B7B012B01D0012369E07B680222AD
:1049D00083F83E207B68022283F8422031E03B6866
:1049E000042B10D1BB7B012B02D13B7B012B01D0CF
:1049F000012355E07B68022283F83F207B68022276
:104A000083F843201DE0FB7B012B08D1BB7B012BEE
:104A100005D17B7B012B02D13B7B012B01D00123F4
:104A20003EE07B68022283F83E207B68022283F806
:104A30003F207B68022283F842207B68022283F8B1
:104A400043203B68002B03D03B68042B08D00FE0C9
:104A50007B681B6801220021184600F0A5FC16E0C7
:104A60007B681B6801220421184600F09DFC0EE0C3
:104A70007B681B6801220021184600F095FC7B68CA
:104A80001B6801220421184600F08EFC00BF7B68E1
:104A90001B681A687B681B6842F001021A600023D9
:104AA00018461037BD4680BD80B586B000AFF860AF
:104AB000B9607A600023FB75FB6893F83C30012BEA
:104AC00001D10223AEE0FB68012283F83C207B6821
:104AD0000C2B00F29F8001A252F823F0114B00082A
:104AE000154C0008154C0008154C0008514B0008E7
:104AF000154C0008154C0008154C0008934B000895
:104B0000154C0008154C0008154C0008D34B000844
:104B1000FB681B68B968184600F0FCF9FB681B6865
:104B20009A69FB681B6842F008029A61FB681B687F
:104B30009A69FB681B6822F004029A61FB681B6893
:104B40009969BB681A69FB681B680A439A6164E04B
:104B5000FB681B68B968184600F04CFAFB681B68D4
:104B60009A69FB681B6842F400629A61FB681B68E3
:104B70009A69FB681B6822F480629A61FB681B6873
:104B80009969BB681B691A02FB681B680A439A6132
:104B900043E0FB681B68B968184600F0A1FAFB689F
:104BA0001B68DA69FB681B6842F00802DA61FB687F
:104BB0001B68DA69FB681B6822F00402DA61FB6893
:104BC0001B68D969BB681A69FB681B680A43DA610C
:104BD00023E0FB681B68B968184600F0F5FAFB682B
:104BE0001B68DA69FB681B6842F40062DA61FB68E3
:104BF0001B68DA69FB681B6822F48062DA61FB6873
:104C00001B68D969BB681B691A02FB681B680A43E9
:104C1000DA6102E00123FB7500BFFB68002283F824
:104C20003C20FB7D18461837BD4680BD80B584B05A
:104C300000AF786039600023FB737B6893F83C30E9
:104C4000012B01D10223B4E07B68012283F83C20D0
:104C50007B68022283F83D207B681B689B68BB60F1
:104C6000BB6823F07703BB60BB6823F47F43BB6062
:104C70007B681B68BA689A603B681B68B3F5005F85
:104C80003ED0B3F5005F00F28780B3F5805F00F09F
:104C90008680B3F5805F7FD8702B1AD0702B7BD8BD
:104CA000602B50D0602B77D8502B3CD0502B73D832
:104CB000402B58D0402B6FD8302B64D0302B6BD882
:104CC000202B60D0202B67D8002B5CD0102B5AD023
:104CD00062E07B6818683B6899683B685A683B6883
:104CE000DB6800F041FB7B681B689B68BB60BB68AE
:104CF00043F07703BB607B681B68BA689A604FE03B
:104D00007B6818683B6899683B685A683B68DB6851
:104D100000F02AFB7B681B689A687B681B6842F47A
:104D200080429A603CE07B6818683B6859683B6841
:104D3000DB681A4600F09EFA7B681B685021184613
:104D400000F0F7FA2CE07B6818683B6859683B680C
:104D5000DB681A4600F0BDFA7B681B6860211846C4
:104D600000F0E7FA1CE07B6818683B6859683B680C
:104D7000DB681A4600F07EFA7B681B684021184603
:104D800000F0D7FA0CE07B681A683B681B6819468C
:104D9000104600F0CEFA03E00123FB7300E000BFF1
:104DA0007B68012283F83D207B68002283F83C2049
:104DB000FB7B18461037BD4680BD000080B485B02F
:104DC00000AF786039607B681B68FB607B68464A8F
:104DD000934213D07B68B3F1804F0FD07B68434A76
:104DE00093420BD07B68424A934207D07B68414A8A
:104DF000934203D07B68404A934208D1FB6823F07A
:104E00007003FB603B685B68FA681343FB607B6878
:104E1000354A93422BD07B68B3F1804F27D07B6813
:104E2000324A934223D07B68314A93421FD07B6839
:104E3000304A93421BD07B682F4A934217D07B683D
:104E40002E4A934213D07B682D4A93420FD07B6841
:104E50002C4A93420BD07B682B4A934207D07B6845
:104E60002A4A934203D07B68294A934208D1FB68BF
:104E700023F44073FB603B68DB68FA681343FB6014
:104E8000FB6823F080023B685B691343FB607B682F
:104E9000FA681A603B689A687B68DA623B681A684D
:104EA0007B689A627B68104A934203D07B68124AFF
:104EB000934203D13B681A697B681A637B680122BD
:104EC0005A617B681B6903F00103012B05D17B68E4
:104ED0001B6923F001027B681A6100BF1437BD46CD
:104EE0005DF8047B704700BF0000014000040040F3
:104EF00000080040000C0040000401400040014058
:104F0000004401400048014000180040001C0040DF
:104F10000020004080B487B000AF786039607B68C3
:104F20001B6A7B617B681B6A23F001027B681A6243
:104F30007B685B683B617B689B69FB60FB6823F077
:104F40007003FB60FB6823F00303FB603B681B6896
:104F5000FA681343FB607B6923F002037B613B68C3
:104F60009B687A6913437B617B68204A934203D034
:104F70007B681F4A93420CD17B6923F008037B6155
:104F80003B68DB687A6913437B617B6923F0040328
:104F90007B617B68154A934203D07B68144A934235
:104FA00011D13B6923F480733B613B6923F40073A7
:104FB0003B613B685B693A6913433B613B689B69B2
:104FC0003A6913433B617B683A695A607B68FA68C7
:104FD0009A613B685A687B685A637B687A691A628F
:104FE00000BF1C37BD465DF8047B704700000140E0
:104FF0000004014080B487B000AF786039607B68FE
:105000001B6A7B617B681B6A23F010027B681A6253
:105010007B685B683B617B689B69FB60FB6823F492
:10502000E043FB60FB6823F44073FB603B681B6854
:105030001B02FA681343FB607B6923F020037B614A
:105040003B689B681B017A6913437B617B68224A3A
:10505000934203D07B68214A93420DD17B6923F0B0
:1050600080037B613B68DB681B017A6913437B61CA
:105070007B6923F040037B617B68174A934203D02E
:105080007B68164A934213D13B6923F480633B61EA
:105090003B6923F400633B613B685B699B003A69B1
:1050A00013433B613B689B699B003A6913433B6137
:1050B0007B683A695A607B68FA689A613B685A680B
:1050C0007B689A637B687A691A6200BF1C37BD46A9
:1050D0005DF8047B704700BF000001400004014000
:1050E00080B487B000AF786039607B681B6A7B61F1
:1050F0007B681B6A23F480727B681A627B685B683A
:105100003B617B68DB69FB60FB6823F07003FB603D
:10511000FB6823F00303FB603B681B68FA681343DA
:10512000FB607B6923F400737B613B689B681B0217
:105130007A6913437B617B68214A934203D07B6881
:10514000204A93420DD17B6923F400637B613B6865
:10515000DB681B027A6913437B617B6923F48063FC
:105160007B617B68164A934203D07B68154A934261
:1051700013D13B6923F480533B613B6923F4005313
:105180003B613B685B691B013A6913433B613B68C8
:105190009B691B013A6913433B617B683A695A601A
:1051A0007B68FA68DA613B685A687B68DA637B6817
:1051B0007A691A6200BF1C37BD465DF8047B7047F0
:1051C000000001400004014080B487B000AF786067
:1051D00039607B681B6A3B617B681B6A23F48052E1
:1051E0007B681A627B685B687B617B68DB69FB605C
:1051F000FB6823F4E043FB60FB6823F44073FB602F
:105200003B681B681B02FA681343FB603B6923F48D
:1052100000533B613B689B681B033A6913433B6146
:105220007B68124A934203D07B68114A934209D1AA
:105230007B6923F480437B613B685B699B017A69EE
:1052400013437B617B687A695A607B68FA68DA612C
:105250003B685A687B681A647B683A691A6200BFC7
:105260001C37BD465DF8047B704700BF000001405D
:105270000004014080B487B000AFF860B9607A6084
:10528000FB681B6A7B61FB681B6A23F00102FB68F9
:105290001A62FB689B693B613B6923F0F0033B6149
:1052A0007B681B013A6913433B617B6923F00A0366
:1052B0007B617A69BB6813437B61FB683A699A61D9
:1052C000FB687A691A6200BF1C37BD465DF8047B33
:1052D000704780B487B000AFF860B9607A60FB684F
:1052E0001B6A7B61FB681B6A23F01002FB681A6271
:1052F000FB689B693B613B6923F470433B617B68BE
:105300001B033A6913433B617B6923F0A0037B6174
:10531000BB681B017A6913437B61FB683A699A6138
:10532000FB687A691A6200BF1C37BD465DF8047BD2
:10533000704780B485B000AF786039607B689B6847
:10534000FB60FB6823F07003FB603A68FB68134363
:1053500043F00703FB607B68FA689A6000BF14376C
:10536000BD465DF8047B704780B487B000AFF8603D
:10537000B9607A603B60FB689B687B617B6923F462
:105380007F437B613B681A027B681A43BB68134307
:105390007A6913437B61FB687A699A6000BF1C37A6
:1053A000BD465DF8047B704780B487B000AFF860FD
:1053B000B9607A60BB6803F01F03012202FA03F3AD
:1053C0007B61FB681A6A7B69DB431A40FB681A62DF
:1053D000FB681A6ABB6803F01F03796801FA03F3DC
:1053E0001A43FB681A6200BF1C37BD465DF8047B98
:1053F0007047000080B485B000AF786039607B688A
:1054000093F83C30012B01D102235AE07B68012242
:1054100083F83C207B68022283F83D207B681B6870
:105420005B68FB607B681B689B68BB60FB6823F064
:105430007003FB603B681B68FA681343FB607B6882
:105440001B68FA685A607B681B68214A934222D025
:105450007B681B68B3F1804F1DD07B681B681D4AB9
:10546000934218D07B681B681B4A934213D07B6819
:105470001B681A4A93420ED07B681B68184A9342F5
:1054800009D07B681B68174A934204D07B681B686D
:10549000154A93420CD1BB6823F08003BB603B6884
:1054A0005B68BA681343BB607B681B68BA689A6024
:1054B0007B68012283F83D207B68002283F83C2032
:1054C000002318461437BD465DF8047B704700BFC3
:1054D000000001400004004000080040000C0040B3
:1054E00000040140004001400018004080B485B035
:1054F00000AF786039600023FB607B6893F83C3034
:10550000012B01D102233DE07B68012283F83C207E
:10551000FB6823F0FF023B68DB681343FB60FB681A
:1055200023F440723B689B681343FB60FB6823F4E1
:1055300080623B685B681343FB60FB6823F4006296
:105540003B681B681343FB60FB6823F480523B6895
:105550001B691343FB60FB6823F400523B685B69E3
:105560001343FB60FB6823F480423B68DB69134311
:10557000FB607B681B68FA685A647B68002283F8CA
:105580003C20002318461437BD465DF8047B704765
:1055900080B582B000AF78607B68002B01D1012319
:1055A00042E07B6893F84130DBB2002B06D17B6888
:1055B000002283F840207868FCF736FC7B682422C0
:1055C00083F841207B681B68DA687B681B6822F4DB
:1055D0000052DA60786800F069FD7B681B681A6920
:1055E0007B681B6822F490421A617B681B685A69C9
:1055F0007B681B6822F02A025A617B681B68DA68A4
:105600007B681B6842F40052DA607B6800225A64AF
:105610007B68202283F841207B68202283F8422087
:105620007B6800225A63002318460837BD4680BDB8
:1056300080B58AB002AFF860B9603B601346FB806A
:1056400000237B61FB6893F84130DBB2202B75D1DE
:10565000BB68002B02D0FB88002B01D101236EE038
:10566000FB6800225A64FB68212283F84120FCF782
:1056700063FF7861FB68FA889A84FB68FA88DA84A9
:10568000FB689B68B3F5805F08D1FB681B69002B42
:1056900004D10023FB61BB68BB6103E0BB68FB6115
:1056A0000023BB612EE03B6800937B6900228021D0
:1056B000F86800F005FB0346002B05D0FB682022AC
:1056C00083F8412003233AE0FB69002B0BD1BB692F
:1056D0001B881A46FB681B68C2F308025A60BB6944
:1056E0000233BB6107E0FB691A78FB681B685A60EC
:1056F000FB690133FB61FB68DB8C9BB2013B9AB217
:10570000FB68DA84FB68DB8C9BB2002BCBD13B6857
:1057100000937B6900224021F86800F0D1FA03462B
:10572000002B05D0FB68202283F84120032306E0EC
:10573000FB68202283F84120002300E00223184662
:105740002037BD4680BD000080B5BAB000AF78609C
:105750007B681B681B68C7F8E4307B681B68DB68E4
:10576000C7F8E0307B681B685B69C7F8DC30002352
:10577000C7F8D8300023C7F8D430D7F8E43003F0A6
:105780000F03C7F8D830D7F8D830002B0FD1D7F88F
:10579000E43003F02003002B09D0D7F8E03003F009
:1057A0002003002B03D0786800F0C2FB5BE2D7F83F
:1057B000D830002B00F0DE80D7F8DC3003F0010396
:1057C000002B06D1D7F8E03003F49073002B00F0E3
:1057D000D180D7F8E43003F00103002B0BD0D7F8C9
:1057E000E03003F48073002B05D07B685B6C43F0E2
:1057F00001027B685A64D7F8E43003F00403002BFD
:105800000BD0D7F8DC3003F00103002B05D07B6808
:105810005B6C43F002027B685A64D7F8E43003F013
:105820000203002B0BD0D7F8DC3003F00103002B70
:1058300005D07B685B6C43F004027B685A64D7F840
:10584000E43003F00803002B11D0D7F8E03003F068
:105850002003002B05D1D7F8DC3003F00103002B27
:1058600005D07B685B6C43F008027B685A647B68F8
:105870005B6C002B00F0F281D7F8E43003F02003DA
:10588000002B08D0D7F8E03003F02003002B02D023
:10589000786800F04DFB7B681B685B6903F0400390
:1058A000402B0CBF01230023DBB2C7F8D4307B6848
:1058B0005B6C03F00803002B03D1D7F8D430002B26
:1058C0004FD0786800F055FA7B681B685B6903F07D
:1058D0004003402B41D17B681B681433C7F89C30D0
:1058E000D7F89C3053E8003FC7F89830D7F8983085
:1058F00023F04003C7F8D0307B681B681433D7F817
:10590000D020C7F8A820C7F8A430D7F8A410D7F83B
:10591000A82041E80023C7F8A030D7F8A030002B1A
:10592000D9D17B68DB6B002B13D07B68DB6B7E4AA5
:105930001A657B68DB6B1846FCF7AFFF0346002B4C
:1059400016D07B68DB6B1B6D7A68D26B104698476C
:105950000EE0786800F09EF90AE0786800F09AF9A5
:1059600006E0786800F096F97B6800225A6475E1D9
:1059700000BF73E17B681B6B012B40F04F81D7F8B0
:10598000E43003F01003002B00F04881D7F8E0303A
:1059900003F01003002B00F041810023BB607B6803
:1059A0001B681B68BB607B681B685B68BB60BB686F
:1059B0007B681B685B6903F04003402B40F0B680B6
:1059C0007B68DB6B1B685B68A7F8BE30B7F8BE303E
:1059D000002B00F045817B689B8DB7F8BE209A4272
:1059E00080F03E817B68B7F8BE20DA857B68DB6B90
:1059F000DB69B3F5807F00F088807B681B680C331F
:105A0000C7F88830D7F8883053E8003FC7F88430AB
:105A1000D7F8843023F48073C7F8B8307B681B68EC
:105A20000C33D7F8B820C7F89420C7F89030D7F8CF
:105A30009010D7F8942041E80023C7F88C30D7F8AD
:105A40008C30002BD9D17B681B6814337B677B6F4C
:105A500053E8003F3B673B6F23F00103C7F8B430C6
:105A60007B681B681433D7F8B420C7F88020FB6725
:105A7000F96FD7F8802041E80023BB67BB6F002B8C
:105A8000E1D17B681B6814333B663B6E53E8003FF3
:105A9000FB65FB6D23F04003C7F8B0307B681B68E3
:105AA0001433D7F8B020FA66BB66B96EFA6E41E8D7
:105AB00000237B667B6E002BE3D17B68202283F87A
:105AC00042207B6800221A637B681B680C33FB64EE
:105AD000FB6C53E8003FBB64BB6C23F01003C7F8BA
