:020000040800F2
:1000000000000220A1120008C9110008CF11000849
:10001000D5110008DB110008E11100080000000004
:10002000000000000000000000000000F15F000878
:10003000E71100080000000041620008F511000807
:10004000F1120008F1120008F1120008F112000884
:10005000F1120008F1120008F1120008F112000874
:10006000F1120008F1120008F1120008F112000864
:10007000F1120008F1120008F1120008F112000854
:10008000F1120008F1120008F1120008F112000844
:10009000F1120008F1120008F1120008F112000834
:1000A000F1120008F1120008F1120008F112000824
:1000B000F1120008F1120008F1120008F112000814
:1000C000F1120008F1120008F1120008F112000804
:1000D000F1120008F1120008F1120008F1120008F4
:1000E000F1120008F1120008F1120008F1120008E4
:1000F000F1120008F1120008F1120008F1120008D4
:10010000F1120008F1120008F1120008F1120008C3
:10011000F1120008F1120008F1120008F1120008B3
:10012000F1120008F1120008F1120008F1120008A3
:10013000F1120008F1120008F1120008F112000893
:10014000F1120008F1120008F1120008F112000883
:10015000F1120008F1120008F1120008F112000873
:10016000F1120008F1120008F1120008F112000863
:10017000F1120008F1120008F1120008000000005E
:08018000F1120008F112000861
:1001900010B5054C237833B9044B13B10448AFF3C1
:1001A00000800123237010BD6000002000000000CB
:1001B000E470000808B5034B1BB103490348AFF3D3
:1001C000008008BD0000000064000020E47000080A
:1001D00001F0FF01102A2BDB10F0070F08D010F8F8
:1001E000013B013A8B422DD010F0070F42B3F6D1FC
:1001F000F0B441EA012141EA014122F007047FF015
:1002000000070023F0E80256083C85EA010586EA6B
:10021000010685FA47F5A3FA87F586FA47F6A5FAA7
:1002200087F68EB9EED1F0BC01F0FF0102F00702B3
:1002300032B110F8013B013A83EA010313B1F8D15E
:100240000020704701387047002D06BF354603383F
:10025000073815F0010F07D1013015F4807F02BF78
:10026000013015F4C03F0130F0BC0138704700BFC9
:1002700053B94AB9002908BF00281CBF4FF0FF310D
:100280004FF0FF3000F070B9ADF1080C6DE904CE0D
:1002900000F006F8DDF804E0DDE9022304B0704761
:1002A0002DE9F047089E0D4604460F46002B4AD123
:1002B0008A42944665D9B2FA82F343B102FA03FC4A
:1002C000C3F120029F4020FA02F217439C404FEAFC
:1002D0001C4E1FFA8CF5B7FBFEF1220C0EFB1177BA
:1002E00042EA074201FB05F090420AD91CEB0202E8
:1002F00001F1FF3780F01C81904240F219810239F0
:100300006244121AA4B2B2FBFEF00EFB102244EAC1
:10031000024400FB05F5A5420AD91CEB040400F1D8
:10032000FF3280F00781A54240F204816444023824
:1003300040EA0140641B00211EB1DC400023C6E9F5
:100340000043BDE8F0878B4208D9002E00F0ED8015
:100350000021C6E900050846BDE8F087B3FA83F13D
:10036000002949D1AB4202D3824200F2F880841ABC
:1003700065EB030201201746002EE2D0C6E90047D4
:10038000DFE702B9FFDEB2FA82F3002B40F0908083
:100390008A1A4FEA1C471FFA8CFE0121B2FBF7F5BF
:1003A00007FB1520220C42EA00420EFB05F09042AA
:1003B00008D91CEB020205F1FF3802D2904200F28C
:1003C000CB804546121AA4B2B2FBF7F007FB10220D
:1003D00044EA02440EFB00FEA64508D91CEB0404C7
:1003E00000F1FF3202D2A64500F2BB801046A4EB1A
:1003F0000E0440EA05409FE7C1F120078B4022FA36
:1004000007FC4CEA030C05FA01F420FA07F3FD405F
:100410004FEA1C492343B5FBF9F81FFA8CFE09FB90
:1004200018551C0C44EA054408FB0EF5A54202FAD7
:1004300001F200FA01F00BD91CEB040408F1FF3AB9
:1004400080F08880A54240F28580A8F102086444CB
:10045000641B9DB2B4FBF9F309FB134445EA044461
:1004600003FB0EFEA64508D91CEB040403F1FF357F
:100470006CD2A6456AD9023B644443EA0843A3FB15
:100480000295A4EB0E04AC42C846AE4656D353D0F8
:1004900056B1B0EB080264EB0E0404FA07F7CA4049
:1004A000CC401743C6E9007418460021BDE8F08728
:1004B000C3F1200102FA03FC20FA01F225FA01F14E
:1004C0009D402A434FEA1C471FFA8CFEB1FBF7F010
:1004D00007FB1015110C41EA054100FB0EF58D429A
:1004E00004FA03F408D91CEB010100F1FF382FD204
:1004F0008D422DD902386144491B92B2B1FBF7F508
:1005000007FB151142EA014205FB0EF1914208D9A1
:100510001CEB020205F1FF3816D2914214D9023DBC
:100520006244521A45EA004138E73146304608E74E
:100530003946E6E61046FBE64845A9D2B9EB020883
:1005400065EB0C0E013BA3E74546EAE72B4694E733
:100550004046D1E7D0467BE7023D624432E7084699
:100560000AE76444023842E7704700BF80B500AF35
:1005700001F0F2F800F05AF800F0B6FA00F036F99F
:1005800000F0DCF900F086FA00F0AEF800F082F935
:1005900001F056F803F0B2FB154A0021154803F0AC
:1005A000F7FB0346144A1360144A0021144803F071
:1005B000EFFB0346134A1360134A0021134803F06C
:1005C000E7FB0346124A1360124A0021124803F067
:1005D000DFFB0346114A1360114A0021114803F062
:1005E000D7FB0346104A136003F0ACFBFEE700BFE5
:1005F00074710008D50B0008E40100209871000810
:10060000F50B0008E8010020BC7100087D0C000813
:10061000EC010020E0710008450D0008F001002009
:1006200004720008CD0D0008F401002080B594B0DC
:1006300000AF07F1200330220021184606F0CEF863
:1006400007F10C0300221A605A609A60DA601A619E
:100650000023BB60224B1B6C214A43F08053136480
:100660001F4B1B6C03F08053BB60BB6800237B6097
:100670001C4B1B681B4A43F480431360194B1B68D7
:1006800003F480437B607B6802233B620123FB62AF
:1006900010233B630023BB6307F12003184601F0DE
:1006A000CFFB0346002B01D000F0D4FB0F23FB60EF
:1006B00000233B6100237B610023BB610023FB61BE
:1006C00007F10C030021184601F032FE0346002B0F
:1006D00001D000F0BFFB00BF5037BD4680BD00BF5A
:1006E000003802400070004080B592B000AF07F1C2
:1006F000400300221A605A6007F1240300221A60A6
:100700005A609A60DA601A615A619A613B1D202230
:100710000021184606F062F8324B334A1A60314B1A
:10072000A0225A602F4B00229A602E4B4FF47A720F
:10073000DA602C4B00221A612A4B00225A61294BA5
:1007400000229A61274802F022F80346002B01D0CC
:1007500000F080FB00233B6400237B6407F140032F
:100760001946204802F004FF0346002B01D000F098
:1007700071FB60237B620023BB620023FB620023CA
:100780007B630023BB630023FB6307F124030C227C
:100790001946144802F046FA0346002B01D000F037
:1007A00059FB00237B600023BB600023FB60002318
:1007B0003B6100237B614FF40053BB6100233B622C
:1007C0003B1D1946074802F04FFF0346002B01D09E
:1007D00000F040FB034800F04DFC00BF4837BD4629
:1007E00080BD00BF7C0000200000014080B58CB0BF
:1007F00000AF07F10C0324220021184605F0EEFF9C
:100800003B1D00221A605A60214B4FF080421A6053
:100810001F4B00225A601E4B00229A601C4B4FF661
:10082000FF72DA601A4B00221A61194B00229A619A
:100830000323FB6000233B6101237B610023BB6139
:100840000A23FB6100233B6201237B620023BB621E
:100850000A23FB6207F10C0319460D4802F0AEF8BB
:100860000346002B01D000F0F5FA00237B60002343
:10087000BB603B1D1946064802F07AFE0346002B7A
:1008800001D000F0E7FA00BF3037BD4680BD00BFA1
:10089000C400002080B58CB000AF07F10C03242207
:1008A0000021184605F09AFF3B1D00221A605A608D
:1008B000204B214A1A601F4B00225A601D4B002218
:1008C0009A601C4B4FF6FF72DA601A4B00221A61D5
:1008D000184B00229A610323FB6000233B61012334
:1008E0007B610023BB610A23FB6100233B62012380
:1008F0007B620023BB620A23FB6207F10C031946EB
:100900000C4802F05BF80346002B01D000F0A2FA7D
:1009100000237B600023BB603B1D1946054802F0A5
:1009200027FE0346002B01D000F094FA00BF3037B9
:10093000BD4680BD0C0100200004004080B596B08B
:1009400000AF07F1480300221A605A609A60DA602B
:1009500007F1400300221A605A6007F124030022C5
:100960001A605A609A60DA601A615A619A613B1D96
:1009700020220021184605F031FF444B444A1A60FA
:10098000424B00225A60414B00229A603F4B41F695
:100990001F42DA603D4B00221A613C4B00225A6133
:1009A0003A4B00229A61394801F0A2FE0346002B1F
:1009B00001D000F04FFA4FF48053BB6407F14803B5
:1009C0001946324802F0F0F90346002B01D000F03E
:1009D00041FA2E4801F0DBFE0346002B01D000F067
:1009E00039FA00233B6400237B6407F14003194676
:1009F000264802F0BDFD0346002B01D000F02AFA84
:100A000060237B620023BB620023FB6200233B6305
:100A100000237B630023BB630023FB6307F12403F4
:100A200000221946194802F0FDF80346002B01D0B8
:100A300000F010FA07F1240304221946134802F0CB
:100A4000F1F80346002B01D000F004FA00237B608C
:100A50000023BB600023FB6000233B6100237B611C
:100A60004FF40053BB6100233B623B1D194607480E
:100A700002F0FAFD0346002B01D000F0EBF9034829
:100A800000F0F8FA00BF5837BD4680BD5401002081
:100A90000004014080B500AF114B124A1A60104BA0
:100AA0004FF4E1325A600E4B00229A600C4B002248
:100AB000DA600B4B00221A61094B0C225A61084B79
:100AC00000229A61064B0022DA61054802F01EFE00
:100AD0000346002B01D000F0BDF900BF80BD00BF70
:100AE0009C0100200048004080B58AB000AF07F1AB
:100AF000140300221A605A609A60DA601A610023B7
:100B00003B61314B1B6B304A43F0100313632E4B98
:100B10001B6B03F010033B613B690023FB602A4B16
:100B20001B6B294A43F001031363274B1B6B03F034
:100B30000103FB60FB680023BB60234B1B6B224A55
:100B400043F004031363204B1B6B03F00403BB60EF
:100B5000BB6800237B601C4B1B6B1B4A43F00203EA
:100B60001363194B1B6B03F002037B607B6800224D
:100B70004FF4BC61154801F007F900223C211448EC
:100B800001F002F94FF4BC637B610123BB610023D8
:100B9000FB6100233B6207F1140319460B4800F088
:100BA00057FF3C237B610123BB610023FB610223D0
:100BB0003B6207F114031946054800F049FF00BFE6
:100BC0002837BD4680BD00BF0038024000100240FB
:100BD0000000024080B582B000AF78604FF48061C1
:100BE000034801F0EAF841F2883003F063F9F5E7D1
:100BF0000010024090B593B000AF78601A4B07F137
:100C000034040FCB07C4238007F1420300221A608B
:100C10009A8007F134031A460A210A2000F0DEFC0C
:100C2000124B1A6807F120031149184605F0B6FD6A
:100C300007F120031A461E210A2000F0CFFC0D4BBD
:100C40001A6807F10C030C49184605F0A7FD07F1D7
:100C50000C031A4632210A2000F0C0FC00F04AFBC7
:100C6000012003F027F9D4E748710008F8010020BB
:100C700030710008FC0100203C71000880B584B090
:100C800000AF78600023FB8100212C4801F0CEFDED
:100C900004212A4801F0CAFD21E00122042128484C
:100CA00001F072F800220821254801F06DF80122B8
:100CB0002021234801F068F800221021204801F08B
:100CC00063F8FB890133FB811C4B1B68FA895A636B
:100CD0001A4B1B68FA899A630A2003F0EBF8FB8928
:100CE000B3F57A6FD9D321E000220421144801F032
:100CF0004BF801220821124801F046F80022202179
:100D00000F4801F041F8012210210D4801F03CF894
:100D1000FB89013BFB81094B1B68FA895A63074B2E
:100D20001B68FA899A630A2003F0C4F8FB89002B38
:100D3000DAD1012003F0BEF8D1E700BF5401002052
:100D40000000024080B586B000AF78603C211D48AD
:100D500001F0DAFE01237B6100F064FDF86000F031
:100D600061FD0246FB68D31A0A2BF8D9154B1B68A4
:100D70005B6ABB60BB68B3F5FA4F06DD01237B619C
:100D8000BB68C3F580333B6104E04FF0FF337B6108
:100D9000BB683B617B69012B06D10B4B1A683B6931
:100DA0001344094A136005E0074B1A683B69D31ADC
:100DB000054A1360034B1B6800225A6200F032FDA3
:100DC000F860CCE7C4000020F801002080B586B0B0
:100DD00000AF78603C211D4801F096FE01237B6145
:100DE00000F020FDF86000F01DFD0246FB68D31AFC
:100DF0000A2BF8D9154B1B685B6ABB60BB68B3F55F
:100E0000FA4F06DD01237B61BB68C3F580333B618C
:100E100004E04FF0FF337B61BB683B617B69012BD2
:100E200006D10B4B1A683B69D31A094A136005E0D7
:100E3000074B1A683B691344054A1360034B1B6850
:100E400000225A6200F0EEFCF860CCE70C010020B2
:100E5000FC01002080B400AF72B600BFFEE70000C6
:100E600080B582B000AF00237B60124B5B6C114AEF
:100E700043F4804353640F4B5B6C03F480437B600B
:100E80007B6800233B600B4B1B6C0A4A43F080538A
:100E90001364084B1B6C03F080533B603B680022DB
:100EA0000F216FF0010000F0AAFD00BF0837BD461A
:100EB00080BD00BF0038024080B485B000AF7860CC
:100EC0007B681B680B4A93420DD10023FB600A4BE1
:100ED0005B6C094A43F001035364074B5B6C03F0FE
:100EE0000103FB60FB6800BF1437BD465DF8047B5F
:100EF000704700BF000001400038024080B58CB050
:100F000000AF786007F11C0300221A605A609A60F3
:100F1000DA601A617B681B68B3F1804F4BD1002304
:100F2000BB613F4B1B6C3E4A43F0010313643C4BD7
:100F30001B6C03F00103BB61BB6900237B61384B71
:100F40001B6B374A43F001031363354B1B6B03F0F4
:100F500001037B617B6900233B61314B1B6B304A92
:100F600043F0020313632E4B1B6B03F002033B6140
:100F70003B694FF40043FB6102233B6200237B6229
:100F80000023BB620123FB6207F11C0319462548BD
:100F900000F05EFD0823FB6102233B6200237B62BD
:100FA0000023BB620123FB6207F11C0319461E48A4
:100FB00000F04EFD30E07B681B681C4A93422BD149
:100FC0000023FB60164B1B6C154A43F002031364AD
:100FD000134B1B6C03F00203FB60FB680023BB6038
:100FE0000F4B1B6B0E4A43F0010313630C4B1B6B3F
:100FF00003F00103BB60BB68C023FB6102233B62BB
:1010000000237B620023BB620223FB6207F11C0307
:101010001946044800F01CFD00BF3037BD4680BDB6
:10102000003802400000024000040240000400407A
:1010300080B485B000AF78607B681B680B4A934230
:101040000DD10023FB600A4B5B6C094A43F002039D
:101050005364074B5B6C03F00203FB60FB6800BF4B
:101060001437BD465DF8047B704700BF00040140A3
:101070000038024080B58AB000AF786007F11403F1
:1010800000221A605A609A60DA601A617B681B68F5
:10109000244A93421FD100233B61234B1B6B224AFE
:1010A00043F010031363204B1B6B03F010033B61F1
:1010B0003B694FF480437B610223BB610023FB61EA
:1010C00000233B6201237B6207F114031946174892
:1010D00000F0BEFC22E07B681B68154A93421DD1DC
:1010E0000023FB60104B1B6B0F4A43F00403136398
:1010F0000D4B1B6B03F00403FB60FB68C0237B619B
:101100000223BB610023FB6100233B6203237B625C
:1011100007F114031946074800F09AFC00BF28376E
:10112000BD4680BD00000140003802400010024072
:10113000000401400008024080B58AB000AF78602A
:1011400007F1140300221A605A609A60DA601A618B
:101150007B681B68194A93422CD100233B61184BD2
:101160001B6C174A43F480231364154B1B6C03F468
:1011700080233B613B690023FB60114B1B6B104AD2
:1011800043F0040313630E4B1B6B03F00403FB607B
:10119000FB684FF440637B610223BB610023FB616A
:1011A00003233B6207237B6207F1140319460548BA
:1011B00000F04EFC00BF2837BD4680BD004800400F
:1011C000003802400008024080B400AFFEE780B45F
:1011D00000AFFEE780B400AFFEE780B400AFFEE7EB
:1011E00080B400AFFEE780B400AF00BFBD465DF83D
:1011F000047B704780B500AF00F000FB04F068FA94
:101200000346012B01D005F04FF800BF80BD000060
:1012100080B586B000AF7860144A154BD31A7B6155
:101220007B693B61134B1B68002B02D1114B124AA7
:101230001A60104B1A687B6813443A699A4207D2C5
:1012400005F0D4FA03460C221A604FF0FF3309E090
:10125000084B1B68FB60074B1A687B681344054A00
:101260001360FB6818461837BD4680BD0000022099
:101270000004000000020020A050002080B400AF55
:10128000064BD3F88830054A43F47003C2F888301F
:1012900000BFBD465DF8047B704700BF00ED00E075
:1012A000DFF834D0FFF7EAFF0C480D490D4A002360
:1012B00002E0D458C4500433C4188C42F9D30A4A0B
:1012C0000A4C002301E013600432A242FBD305F074
:1012D00093FAFFF74BF9704700000220000000204E
:1012E00060000020E87C000860000020A050002082
:1012F000FEE7000080B582B000AF0023FB7126E05E
:10130000FB79503BDBB20021184600F02BF800219E
:10131000002000F027F80021102000F023F800231F
:10132000BB710DE0BA79FB790D49D2000A44134430
:101330001B780121184600F015F8BB790133BB7109
:1013400097F90630002BEDDAFB790133FB71FB795D
:10135000072BD5D900BF00BF0837BD4680BD00BFF1
:101360000402002080B584B000AF03460A46FB713A
:101370001346BB71BB79002B06D001224FF480715C
:101380001C4800F001FD05E000224FF4807119486F
:1013900000F0FAFC0023FB731EE000222021154818
:1013A00000F0F2FC97F90730002B05DA012240210A
:1013B000104800F0E9FC04E0002240210D4800F054
:1013C000E3FC012220210B4800F0DEFCFB795B00EE
:1013D000FB71FB7B0133FB73FB7B072BDDD9012208
:1013E0004FF48071034800F0CFFC00BF1037BD46BA
:1013F00080BD00BF0010024080B582B000AF002366
:10140000FB7114E00023BB710AE0BA79FB790C4947
:10141000D2000A44134400221A70BB790133BB7115
:1014200097F90630002BF0DAFB790133FB71FB7979
:10143000072BE7D9FFF75EFF00BF0837BD4680BD29
:101440000402002080B485B000AF0346FB710B4658
:10145000BB7113467B710023FB7397F90730002B98
:1014600041DBBB793F2B3ED8BB79DB08DBB2C3F154
:101470000703BB73BB7903F007037B737B7BC3F16B
:101480000703012202FA03F3FB737B79002B12D0CE
:10149000FA79BB7B1749D2000A4413441878FA79C9
:1014A000BB7BF97B0143C8B21249D2000A44134402
:1014B00002461A7018E0FA79BB7B0E49D2000A4442
:1014C00013441B785AB297F90F30DB435BB21340D9
:1014D00059B2FA79BB7BC8B20649D2000A44134418
:1014E00002461A7000E000BF1437BD465DF8047B69
:1014F000704700BF0402002090B585B000AF0446DD
:10150000084611461A462346FB710346BB710B463B
:101510007B7113463B71BB793B737B79203B7B71BD
:101520000023BB734DE03B790C2B0BD17A79B97B4F
:10153000284813465B0013449B0003440B441B786C
:10154000FB7307E07A79BB7B234912010A441344F9
:101550001B78FB7300237B732DE097F90F30002B72
:1015600007DA97F82020B979FB791846FFF76AFF68
:101570000CE097F82030002B0CBF01230023DBB2D6
:101580001A46B979FB791846FFF75CFFFB7B5B00D5
:10159000FB73BB790133BB71BA793B7BD21A3B79C0
:1015A0009A4205D13B7BBB71FB790133FB7105E0AE
:1015B0007B7B01337B737B7B072BCED9BB7B0133DA
:1015C000BB73BA7B3B799A42ADD300BF00BF1437DF
:1015D000BD4690BD40720008B476000880B584B066
:1015E00002AF03463A60FB710B46BB711FE0FB790B
:1015F0007A2B04D90023FB71BB791033BB71BB7903
:101600003A2B05D90023FB71FB79BB71FFF7F4FE80
:101610003B681A78B979F879012300930C23FFF716
:101620006BFFFB790833FB713B6801333B603B6820
:101630001B78002BDBD100BF00BF0837BD4680BD43
:1016400080B500AF00F0D4FB414B1B6F404A23F044
:10165000010313673E4B1B6F3D4A23F004031367DE
:1016600000F0DAFB002280213A4800F08DFB642074
:1016700000F0E4F801228021364800F085FB0021CB
:10168000AE20FFF76FFE0021D520FFF76BFE002193
:101690005020FFF767FE0021A820FFF763FE00211E
:1016A0003F20FFF75FFE0021D320FFF75BFE002104
:1016B0000020FFF757FE00214020FFF753FE0021D6
:1016C0008D20FFF74FFE00211420FFF74BFE002175
:1016D0002020FFF747FE00210220FFF743FE0021F4
:1016E000A120FFF73FFE0021C020FFF73BFE0021B5
:1016F000DA20FFF737FE00211220FFF733FE00212A
:101700008120FFF72FFE0021EF20FFF72BFE0021A5
:10171000D920FFF727FE0021F120FFF723FE00214B
:10172000DB20FFF71FFE00213020FFF71BFE00210A
:10173000A420FFF717FE0021A620FFF713FE0021CB
:10174000AF20FFF70FFEFFF757FE00BF80BD00BFC1
:10175000003802400010024080B500AF0E4B1B68FD
:101760000D4A43F4007313600B4B1B680A4A43F4A1
:1017700080631360084B1B68074A43F4807313604F
:10178000032000F031F90F2000F008F8FFF768FBA4
:101790000023184680BD00BF003C024080B582B0E7
:1017A00000AF7860124B1A68124B1B7819464FF441
:1017B0007A73B3FBF1F3B2FBF3F3184600F03BF995
:1017C0000346002B01D001230EE07B680F2B0AD8C3
:1017D000002279684FF0FF3000F011F9064A7B686B
:1017E0001360002300E0012318460837BD4680BD82
:1017F00000000020080000200400002080B400AF9A
:10180000064B1B781A46064B1B681344044A1360A8
:1018100000BFBD465DF8047B704700BF0800002094
:101820000406002080B400AF034B1B681846BD4679
:101830005DF8047B704700BF0406002080B584B0CB
:1018400000AF7860FFF7EEFFB8607B68FB60FB6875
:10185000B3F1FF3F05D00A4B1B781A46FB681344CF
:10186000FB6000BFFFF7DEFF0246BB68D31AFA68D1
:101870009A42F7D800BF00BF1037BD4680BD00BFF9
:101880000800002080B485B000AF78607B6803F06A
:101890000703FB600C4BDB68BB60BA684FF6FF03C5
:1018A0001340BB60FB681A02BB68134343F0BF637D
:1018B00043F40033BB60044ABB68D36000BF1437F5
:1018C000BD465DF8047B704700ED00E080B400AFDA
:1018D000044BDB681B0A03F007031846BD465DF89E
:1018E000047B704700ED00E080B483B000AF034696
:1018F0003960FB7197F90730002B0ADB3B68DAB2DD
:101900000C4997F907301201D2B20B4483F8002337
:101910000AE03B68DAB20849FB7903F00F03043BA5
:101920001201D2B20B441A7600BF0C37BD465DF8E7
:10193000047B704700E100E000ED00E080B489B076
:1019400000AFF860B9607A60FB6803F00703FB61E1
:10195000FB69C3F10703042B28BF0423BB61FB69A8
:101960000433062B02D9FB69033B00E000237B61B3
:101970004FF0FF32BB6902FA03F3DA43BB681A4047
:101980007B699A404FF0FF317B6901FA03F3D94339
:101990007B680B40134318462437BD465DF8047B33
:1019A0007047000080B582B000AF78607B68013B73
:1019B000B3F1807F01D301230FE00A4A7B68013B2A
:1019C00053600F214FF0FF30FFF78EFF054B0022D1
:1019D0009A60044B07221A60002318460837BD4658
:1019E00080BD00BF10E000E080B582B000AF78603D
:1019F0007868FFF747FF00BF0837BD4680BD80B558
:101A000086B000AF0346B9607A60FB7300237B6148
:101A1000FFF75CFF78617A68B9687869FFF78EFF35
:101A2000024697F90F3011461846FFF75DFF00BFD9
:101A30001837BD4680BD80B582B000AF7860786849
:101A4000FFF7B0FF034618460837BD4680BD0000CB
:101A500080B489B000AF7860396000237B610023D7
:101A60003B610023BB610023FB616BE10122FB6949
:101A700002FA03F37B613B681B687A6913403B61A0
:101A80003A697B699A4240F05A813B685B6803F08F
:101A90000303012B05D03B685B6803F00303022BB3
:101AA00030D17B689B68BB61FB695B00032202FA53
:101AB00003F3DB43BA691340BB613B68DA68FB6937
:101AC0005B0002FA03F3BA691343BB617B68BA692E
:101AD0009A607B685B68BB610122FB6902FA03F3D1
:101AE000DB43BA691340BB613B685B681B0903F0C9
:101AF0000102FB6902FA03F3BA691343BB617B6815
:101B0000BA695A603B685B6803F00303032B17D084
:101B10007B68DB68BB61FB695B00032202FA03F3AD
:101B2000DB43BA691340BB613B689A68FB695B00A1
:101B300002FA03F3BA691343BB617B68BA69DA60DE
:101B40003B685B6803F00303022B23D1FB69DA08CF
:101B50007B68083253F82230BB61FB6903F007034E
:101B60009B000F2202FA03F3DB43BA691340BB6107
:101B70003B681A69FB6903F007039B0002FA03F351
:101B8000BA691343BB61FB69DA087B680832B9693B
:101B900043F822107B681B68BB61FB695B00032272
:101BA00002FA03F3DB43BA691340BB613B685B682D
:101BB00003F00302FB695B0002FA03F3BA69134303
:101BC000BB617B68BA691A603B685B6803F44033A9
:101BD000002B00F0B4800023FB60604B5B6C5F4A1D
:101BE00043F4804353645D4B5B6C03F48043FB60C0
:101BF000FB685B4AFB699B08023352F82330BB61E8
:101C0000FB6903F003039B000F2202FA03F3DB439B
:101C1000BA691340BB617B68524A93422BD07B6800
:101C2000514A934225D07B68504A93421FD07B682B
:101C30004F4A934219D07B684E4A934213D07B6837
:101C40004D4A93420DD07B684C4A934207D07B6843
:101C50004B4A934201D107230EE008230CE00623F0
:101C60000AE0052308E0042306E0032304E002233E
:101C700002E0012300E00023FA6902F0030292006F
:101C80009340BA691343BB613549FB699B08023332
:101C9000BA6941F823203B4B9B68BB613B69DB433E
:101CA000BA691340BB613B685B6803F48013002B87
:101CB00003D0BA693B691343BB61324ABB69936085
:101CC000304BDB68BB613B69DB43BA691340BB61E6
:101CD0003B685B6803F40013002B03D0BA693B69CF
:101CE0001343BB61274ABB69D360264B5B68BB616A
:101CF0003B69DB43BA691340BB613B685B6803F433
:101D00000033002B03D0BA693B691343BB611D4A02
:101D1000BB6953601B4B1B68BB613B69DB43BA6902
:101D20001340BB613B685B6803F48033002B03D036
:101D3000BA693B691343BB61124ABB691360FB6913
:101D40000133FB61FB690F2B7FF690AE00BF00BF34
:101D50002437BD465DF8047B704700BF0038024061
:101D60000038014000000240000402400008024028
:101D7000000C024000100240001402400018024013
:101D8000001C0240003C014080B483B000AF78608A
:101D90000B467B8013467B707B78002B03D07A88C0
:101DA0007B689A6103E07B881A047B689A6100BFB4
:101DB0000C37BD465DF8047B704780B485B000AF3A
:101DC00078600B467B807B685B69FB607A88FB6888
:101DD00013401A04FB68D9437B880B401A437B6885
:101DE0009A6100BF1437BD465DF8047B7047000060
:101DF00080B483B000AF064B01221A60054B1B680C
:101E00007B607B6800BF0C37BD465DF8047B704784
:101E100020000E420070004080B483B000AF064B3B
:101E200000221A60054B1B687B607B6800BF0C3783
:101E3000BD465DF8047B704720000E4200700040F4
:101E400080B586B000AF78607B68002B01D101239C
:101E500067E27B681B6803F00103002B75D0884B99
:101E60009B6803F00C03042B0CD0854B9B6803F09C
:101E70000C03082B12D1824B5B6803F48003B3F58B
:101E8000800F0BD17E4B1B6803F40033002B5BD01B
:101E90007B685B68002B57D1012342E27B685B685B
:101EA000B3F5803F06D1764B1B68754A43F4803307
:101EB00013601DE07B685B68B3F5A02F0CD1704BFD
:101EC0001B686F4A43F4802313606D4B1B686C4A98
:101ED00043F4803313600BE0694B1B68684A23F4BA
:101EE00080331360664B1B68654A23F480231360BC
:101EF0007B685B68002B13D0FFF794FC386108E027
:101F0000FFF790FC02463B69D31A642B01D90323E7
:101F100007E25B4B1B6803F40033002BF0D014E0A6
:101F2000FFF780FC386108E0FFF77CFC02463B6964
:101F3000D31A642B01D90323F3E1514B1B6803F43B
:101F40000033002BF0D100E000BF7B681B6803F07A
:101F50000203002B63D04A4B9B6803F00C03002B59
:101F60000BD0474B9B6803F00C03082B1CD1444B50
:101F70005B6803F48003002B16D1414B1B6803F010
:101F80000203002B05D07B68DB68012B01D0012305
:101F9000C7E13B4B1B6823F0F8027B681B69DB0041
:101FA000374913430B603AE07B68DB68002B20D095
:101FB000344B01221A60FFF735FC386108E0FFF767
:101FC00031FC02463B69D31A022B01D90323A8E155
:101FD0002B4B1B6803F00203002BF0D0284B1B682F
:101FE00023F0F8027B681B69DB00254913430B6073
:101FF00015E0244B00221A60FFF714FC386108E05A
:10200000FFF710FC02463B69D31A022B01D90323C8
:1020100087E11B4B1B6803F00203002BF0D17B68A8
:102020001B6803F00803002B36D07B685B69002B2C
:1020300016D0154B01221A60FFF7F4FB386108E057
:10204000FFF7F0FB02463B69D31A022B01D90323A9
:1020500067E10B4B5B6F03F00203002BF0D01BE03A
:10206000094B00221A60FFF7DDFB38610EE0FFF735
:10207000D9FB02463B69D31A022B07D9032350E14F
:102080000038024000004742800E4742884B5B6F99
:1020900003F00203002BEAD17B681B6803F0040302
:1020A000002B00F097800023FB75814B1B6C03F025
:1020B0008053002B0FD10023BB607D4B1B6C7C4AEF
:1020C00043F0805313647A4B1B6C03F08053BB6066
:1020D000BB680123FB75774B1B6803F48073002BEF
:1020E00018D1744B1B68734A43F480731360FFF775
:1020F00099FB386108E0FFF795FB02463B69D31A6C
:10210000022B01D903230CE16A4B1B6803F4807393
:10211000002BF0D07B689B68012B06D1644B1B6FB2
:10212000634A43F0010313671CE07B689B68052B3F
:102130000CD15F4B1B6F5E4A43F0040313675C4B8B
:102140001B6F5B4A43F0010313670BE0584B1B6F97
:10215000574A23F001031367554B1B6F544A23F072
:10216000040313677B689B68002B15D0FFF75AFBAD
:1021700038610AE0FFF756FB02463B69D31A41F289
:102180008832934201D90323CBE0494B1B6F03F004
:102190000203002BEED014E0FFF744FB38610AE0A5
:1021A000FFF740FB02463B69D31A41F28832934263
:1021B00001D90323B5E03E4B1B6F03F00203002B54
:1021C000EED1FB7D012B05D1394B1B6C384A23F036
:1021D000805313647B689B69002B00F0A180344B13
:1021E0009B6803F00C03082B5CD07B689B69022B77
:1021F00041D1314B00221A60FFF714FB386108E02F
:10220000FFF710FB02463B69D31A022B01D90323C7
:1022100087E0274B1B6803F00073002BF0D17B682D
:10222000DA697B681B6A1A437B685B6A9B011A4305
:102230007B689B6A5B08013B1B041A437B68DB6A73
:102240001B061B4913434B601B4B01221A60FFF70F
:10225000E9FA386108E0FFF7E5FA02463B69D31A6C
:10226000022B01D903235CE0114B1B6803F00073C0
:10227000002BF0D054E0104B00221A60FFF7D2FA86
:10228000386108E0FFF7CEFA02463B69D31A022B09
:1022900001D9032345E0064B1B6803F00073002BB4
:1022A000F0D13DE07B689B69012B07D1012338E029
:1022B0000038024000700040600047421B4B5B68E2
:1022C000FB607B689B69012B28D0FB6803F48002CC
:1022D0007B68DB699A4221D1FB6803F03F027B688F
:1022E0001B6A9A421AD1FA6847F6C07313407A689B
:1022F000526A9201934211D1FB6803F440327B6829
:102300009B6A5B08013B1B049A4207D1FB6803F000
:1023100070627B68DB6A1B069A4201D0012300E0F1
:10232000002318461837BD4680BD00BF0038024064
:1023300080B584B000AF786039607B68002B01D134
:102340000123CCE0684B1B6803F007033A689A420C
:102350000CD9654B3A68D2B21A70634B1B6803F014
:1023600007033A689A4201D00123B8E07B681B68F2
:1023700003F00203002B20D07B681B6803F00403EA
:10238000002B05D0594B9B68584A43F4E0539360A7
:102390007B681B6803F00803002B05D0534B9B6838
:1023A000524A43F460439360504B9B6823F0F00221
:1023B0007B689B684D4913438B607B681B6803F007
:1023C0000103002B44D07B685B68012B07D1474B8E
:1023D0001B6803F40033002B19D101237FE07B68D5
:1023E0005B68022B03D07B685B68032B07D13F4BF4
:1023F0001B6803F00073002B09D101236FE03B4BF6
:102400001B6803F00203002B01D1012367E0374B67
:102410009B6823F003027B685B68344913438B603D
:10242000FFF700FAF8600AE0FFF7FCF90246FB68E4
:10243000D31A41F28832934201D903234FE02B4B48
:102440009B6803F00C027B685B689B009A42EBD1AF
:10245000254B1B6803F007033A689A420CD2224BC3
:102460003A68D2B21A70204B1B6803F007033A682F
:102470009A4201D0012332E07B681B6803F0040319
:10248000002B08D0194B9B6823F4E0527B68DB6873
:10249000164913438B607B681B6803F00803002B0D
:1024A00009D0124B9B6823F460427B681B69DB00F8
:1024B0000E4913438B6000F021F802460B4B9B68DA
:1024C0001B0903F00F030A49CB5C22FA03F3094A04
:1024D0001360094B1B681846FFF760F90023184684
:1024E0001037BD4680BD00BF003C024000380240AE
:1024F0002872000800000020040000202DE9B04FE1
:1025000090B000AF00237B630023FB6300233B6399
:102510000023BB63594B9B6803F00C03082B0DD0C1
:10252000082B00F2A180002B02D0042B03D09BE0EB
:10253000534BBB639BE0534BBB6398E04F4B5B68D3
:1025400003F03F037B634D4B5B6803F48003002B78
:1025500028D04A4B5B689B0900223B627A623B6A47
:10256000C3F308000021474B03FB01F2002300FBEB
:1025700003F31344434AA0FB0212FA620A46BA620A
:10258000FA6A1344FB627B6B0022BB61FA61D7E9F4
:102590000623D7E90A01FDF76BFE02460B461346F8
:1025A000FB6353E0354B5B689B0900223B617A611A
:1025B0003B69C3F3080A4FF0000B52465B464FF0ED
:1025C00000004FF00001590141EAD261500102467A
:1025D0000B46B2EB0A0863EB0B094FF000024FF019
:1025E00000034FEA891343EA98634FEA8812B2EB7B
:1025F000080463EB09054FF000024FF00003EB0005
:1026000043EA5473E20014461D4614EB0A033B6090
:1026100045EB0B037B604FF000024FF00003D7E95E
:10262000004529468B02214643EA915321468A02FE
:10263000104619467B6B0022BB60FA60D7E9022383
:10264000FDF716FE02460B461346FB630B4B5B6819
:102650001B0C03F0030301335B003B63FA6B3B6B22
:10266000B2FBF3F3BB6302E0054BBB6300BFBB6B84
:1026700018464037BD46BDE8B08F00BF0038024065
:102680000024F40040787D0180B400AF034B1B6848
:102690001846BD465DF8047B704700BF000000206F
:1026A00080B500AFFFF7F0FF0246054B9B689B0A21
:1026B00003F007030349CB5C22FA03F3184680BDFD
:1026C000003802403872000880B500AFFFF7DCFF29
:1026D0000246054B9B685B0B03F007030349CB5C89
:1026E00022FA03F3184680BD003802403872000811
:1026F00080B582B000AF78607B68002B01D10123E8
:1027000041E07B6893F83D30DBB2002B06D17B685B
:10271000002283F83C207868FEF78AFC7B6802225E
:1027200083F83D207B681A687B680433194610469D
:1027300000F002FC7B68012283F846207B680122BE
:1027400083F83E207B68012283F83F207B680122CA
:1027500083F840207B68012283F841207B680122B6
:1027600083F842207B68012283F843207B680122A2
:1027700083F844207B68012283F845207B6801228E
:1027800083F83D20002318460837BD4680BD80B53C
:1027900082B000AF78607B68002B01D1012341E05B
:1027A0007B6893F83D30DBB2002B06D17B680022BA
:1027B00083F83C207868FEF77FFB7B68022283F871
:1027C0003D207B681A687B6804331946104600F088
:1027D000B3FB7B68012283F846207B68012283F8E3
:1027E0003E207B68012283F83F207B68012283F82A
:1027F00040207B68012283F841207B68012283F816
:1028000042207B68012283F843207B68012283F801
:1028100044207B68012283F845207B68012283F8ED
:102820003D20002318460837BD4680BD80B584B0E2
:1028300000AF786039603B68002B09D17B6893F862
:102840003E30DBB2012B14BF01230023DBB222E0B8
:102850003B68042B09D17B6893F83F30DBB2012B36
:1028600014BF01230023DBB215E03B68082B09D11C
:102870007B6893F84030DBB2012B14BF01230023A7
:10288000DBB208E07B6893F84130DBB2012B14BF68
:1028900001230023DBB2002B01D001237CE03B6845
:1028A000002B04D17B68022283F83E2013E03B68B2
:1028B000042B04D17B68022283F83F200BE03B68A5
:1028C000082B04D17B68022283F8402003E07B6858
:1028D000022283F841207B681B6801223968184670
:1028E00000F020FE7B681B682D4A934204D07B6871
:1028F0001B682C4A934201D1012300E00023002BE6
:1029000007D07B681B685A6C7B681B6842F40042E6
:102910005A647B681B68224A934222D07B681B68FA
:10292000B3F1804F1DD07B681B681F4A934218D0BB
:102930007B681B681D4A934213D07B681B681C4A46
:1029400093420ED07B681B68164A934209D07B687D
:102950001B68184A934204D07B681B68164A93424E
:1029600011D17B681B689B6803F00703FB60FB6861
:10297000062B10D07B681B681A687B681B6842F0C6
:1029800001021A6007E07B681B681A687B681B6895
:1029900042F001021A60002318461037BD4680BD80
:1029A0000000014000040140000400400008004015
:1029B000000C0040004001400018004080B586B087
:1029C00000AF786039607B68002B01D1012397E06C
:1029D0007B6893F83D30DBB2002B06D17B68002288
:1029E00083F83C207868FEF789FA7B68022283F836
:1029F0003D207B681B689B687A68126823F48043DB
:102A000023F0070393607B681A687B6804331946D8
:102A1000104600F091FA7B681B689B687B617B68BD
:102A20001B689B693B617B681B681B6AFB603B689A
:102A30001B687A6913437B613B6923F4407323F07D
:102A400003033B613B689A683B689B691B02134325
:102A50003A6913433B613B6923F4406323F00C0361
:102A60003B613B6923F4704323F0F0033B613B6817
:102A7000DA683B68DB691B0213433A6913433B6125
:102A80003B681B691A013B681B6A1B0313433A69C5
:102A900013433B61FB6823F02203FB60FB6823F0D8
:102AA0008803FB603B685A683B685B691B01134302
:102AB000FA681343FB607B681B687A699A607B68DD
:102AC0001B683A699A617B681B68FA681A627B68BE
:102AD000012283F846207B68012283F83E207B6830
:102AE000012283F83F207B68012283F842207B6823
:102AF000012283F843207B68012283F83D200023D4
:102B000018461837BD4680BD80B584B000AF7860E8
:102B100039607B6893F83E30FB737B6893F83F30F5
:102B2000BB737B6893F842307B737B6893F84330C8
:102B30003B733B68002B10D1FB7B012B02D17B7BCD
:102B4000012B01D0012369E07B68022283F83E203B
:102B50007B68022283F8422031E03B68042B10D1CD
:102B6000BB7B012B02D13B7B012B01D0012355E024
:102B70007B68022283F83F207B68022283F843208F
:102B80001DE0FB7B012B08D1BB7B012B05D17B7B9F
:102B9000012B02D13B7B012B01D001233EE07B685E
:102BA000022283F83E207B68022283F83F207B6864
:102BB000022283F842207B68022283F843203B688C
:102BC000002B03D03B68042B08D00FE07B681B6808
:102BD00001220021184600F0A5FC16E07B681B6866
:102BE00001220421184600F09DFC0EE07B681B6862
:102BF00001220021184600F095FC7B681B68012229
:102C00000421184600F08EFC00BF7B681B681A6820
:102C10007B681B6842F001021A60002318461037D7
:102C2000BD4680BD80B586B000AFF860B9607A60FF
:102C30000023FB75FB6893F83C30012B01D1022384
:102C4000AEE0FB68012283F83C207B680C2B00F28D
:102C50009F8001A252F823F08D2C0008912D0008CE
:102C6000912D0008912D0008CD2C0008912D000811
:102C7000912D0008912D00080F2D0008912D0008BE
:102C8000912D0008912D00084F2D0008FB681B684E
:102C9000B968184600F0FCF9FB681B689A69FB6884
:102CA0001B6842F008029A61FB681B689A69FB681E
:102CB0001B6822F004029A61FB681B689969BB6873
:102CC0001A69FB681B680A439A6164E0FB681B6829
:102CD000B968184600F04CFAFB681B689A69FB68F3
:102CE0001B6842F400629A61FB681B689A69FB6882
:102CF0001B6822F480629A61FB681B689969BB6853
:102D00001B691A02FB681B680A439A6143E0FB686F
:102D10001B68B968184600F0A1FAFB681B68DA69FD
:102D2000FB681B6842F00802DA61FB681B68DA691D
:102D3000FB681B6822F00402DA61FB681B68D96932
:102D4000BB681A69FB681B680A43DA6123E0FB6809
:102D50001B68B968184600F0F5FAFB681B68DA6969
:102D6000FB681B6842F40062DA61FB681B68DA6981
:102D7000FB681B6822F48062DA61FB681B68D96912
:102D8000BB681B691A02FB681B680A43DA6102E030
:102D90000123FB7500BFFB68002283F83C20FB7D0C
:102DA00018461837BD4680BD80B584B000AF786046
:102DB00039600023FB737B6893F83C30012B01D111
:102DC0000223B4E07B68012283F83C207B68022266
:102DD00083F83D207B681B689B68BB60BB6823F061
:102DE0007703BB60BB6823F47F43BB607B681B68D1
:102DF000BA689A603B681B68B3F5005F3ED0B3F5D4
:102E0000005F00F28780B3F5805F00F08680B3F545
:102E1000805F7FD8702B1AD0702B7BD8602B50D05E
:102E2000602B77D8502B3CD0502B73D8402B58D0E8
:102E3000402B6FD8302B64D0302B6BD8202B60D038
:102E4000202B67D8002B5CD0102B5AD062E07B6817
:102E500018683B6899683B685A683B68DB6800F013
:102E600041FB7B681B689B68BB60BB6843F07703D2
:102E7000BB607B681B68BA689A604FE07B68186823
:102E80003B6899683B685A683B68DB6800F02AFB3E
:102E90007B681B689A687B681B6842F480429A6072
:102EA0003CE07B6818683B6859683B68DB681A46F9
:102EB00000F09EFA7B681B685021184600F0F7FA74
:102EC0002CE07B6818683B6859683B68DB681A46E9
:102ED00000F0BDFA7B681B686021184600F0E7FA35
:102EE0001CE07B6818683B6859683B68DB681A46D9
:102EF00000F07EFA7B681B684021184600F0D7FA84
:102F00000CE07B681A683B681B681946104600F0A5
:102F1000CEFA03E00123FB7300E000BF7B680122CF
:102F200083F83D207B68002283F83C20FB7B184619
:102F30001037BD4680BD000080B485B000AF78601A
:102F400039607B681B68FB607B68464A934213D0FC
:102F50007B68B3F1804F0FD07B68434A93420BD01C
:102F60007B68424A934207D07B68414A934203D030
:102F70007B68404A934208D1FB6823F07003FB60F2
:102F80003B685B68FA681343FB607B68354A934291
:102F90002BD07B68B3F1804F27D07B68324A9342B5
:102FA00023D07B68314A93421FD07B68304A9342DA
:102FB0001BD07B682F4A934217D07B682E4A9342DE
:102FC00013D07B682D4A93420FD07B682C4A9342E2
:102FD0000BD07B682B4A934207D07B682A4A9342E6
:102FE00003D07B68294A934208D1FB6823F44073DD
:102FF000FB603B68DB68FA681343FB60FB6823F007
:1030000080023B685B691343FB607B68FA681A6067
:103010003B689A687B68DA623B681A687B689A62E8
:103020007B68104A934203D07B68124A934203D1D3
:103030003B681A697B681A637B6801225A617B6866
:103040001B6903F00103012B05D17B681B6923F089
:1030500001027B681A6100BF1437BD465DF8047B2E
:10306000704700BF0000014000040040000800401D
:10307000000C0040000401400040014000440140B9
:103080000048014000180040001C004000200040A3
:1030900080B487B000AF786039607B681B6A7B6161
:1030A0007B681B6A23F001027B681A627B685B689D
:1030B0003B617B689B69FB60FB6823F07003FB60EE
:1030C000FB6823F00303FB603B681B68FA6813434B
:1030D000FB607B6923F002037B613B689B687A6934
:1030E00013437B617B68204A934203D07B681F4A6D
:1030F00093420CD17B6923F008037B613B68DB685A
:103100007A6913437B617B6923F004037B617B68ED
:10311000154A934203D07B68144A934211D13B690C
:1031200023F480733B613B6923F400733B613B688C
:103130005B693A6913433B613B689B693A69134396
:103140003B617B683A695A607B68FA689A613B68C0
:103150005A687B685A637B687A691A6200BF1C37B9
:10316000BD465DF8047B704700000140000401404B
:1031700080B487B000AF786039607B681B6A7B6180
:103180007B681B6A23F010027B681A627B685B68AD
:103190003B617B689B69FB60FB6823F4E043FB6059
:1031A000FB6823F44073FB603B681B681B02FA68F2
:1031B0001343FB607B6923F020037B613B689B68C2
:1031C0001B017A6913437B617B68224A934203D0D7
:1031D0007B68214A93420DD17B6923F080037B6198
:1031E0003B68DB681B017A6913437B617B6923F0D1
:1031F00040037B617B68174A934203D07B68164A81
:10320000934213D13B6923F480633B613B6923F410
:1032100000633B613B685B699B003A6913433B6118
:103220003B689B699B003A6913433B617B683A6941
:103230005A607B68FA689A613B685A687B689A634F
:103240007B687A691A6200BF1C37BD465DF8047B53
:10325000704700BF000001400004014080B487B007
:1032600000AF786039607B681B6A7B617B681B6A92
:1032700023F480727B681A627B685B683B617B68C1
:10328000DB69FB60FB6823F07003FB60FB6823F0E5
:103290000303FB603B681B68FA681343FB607B69B0
:1032A00023F400737B613B689B681B027A691343BC
:1032B0007B617B68214A934203D07B68204A93421A
:1032C0000DD17B6923F400637B613B68DB681B02E3
:1032D0007A6913437B617B6923F480637B617B683C
:1032E000164A934203D07B68154A934213D13B6937
:1032F00023F480533B613B6923F400533B613B68FB
:103300005B691B013A6913433B613B689B691B0185
:103310003A6913433B617B683A695A607B68FA6893
:10332000DA613B685A687B68DA637B687A691A629B
:1033300000BF1C37BD465DF8047B704700000140AC
:103340000004014080B487B000AF786039607B68CA
:103350001B6A3B617B681B6A23F480527B681A629C
:103360007B685B687B617B68DB69FB60FB6823F4DF
:10337000E043FB60FB6823F44073FB603B681B6821
:103380001B02FA681343FB603B6923F400533B6163
:103390003B689B681B033A6913433B617B68124A95
:1033A000934203D07B68114A934209D17B6923F48D
:1033B00080437B613B685B699B017A6913437B6156
:1033C0007B687A695A607B68FA68DA613B685A6898
:1033D0007B681A647B683A691A6200BF1C37BD4675
:1033E0005DF8047B704700BF00000140000401400D
:1033F00080B487B000AFF860B9607A60FB681B6A80
:103400007B61FB681B6A23F00102FB681A62FB68A0
:103410009B693B613B6923F0F0033B617B681B01C7
:103420003A6913433B617B6923F00A037B617A6944
:10343000BB6813437B61FB683A699A61FB687A69F0
:103440001A6200BF1C37BD465DF8047B704780B42C
:1034500087B000AFF860B9607A60FB681B6A7B6177
:10346000FB681B6A23F01002FB681A62FB689B6909
:103470003B613B6923F470433B617B681B033A6902
:1034800013433B617B6923F0A0037B61BB681B0195
:103490007A6913437B61FB683A699A61FB687A69D0
:1034A0001A6200BF1C37BD465DF8047B704780B4CC
:1034B00085B000AF786039607B689B68FB60FB6813
:1034C00023F07003FB603A68FB68134343F0070383
:1034D000FB607B68FA689A6000BF1437BD465DF8F0
:1034E000047B704780B487B000AFF860B9607A6041
:1034F0003B60FB689B687B617B6923F47F437B6156
:103500003B681A027B681A43BB6813437A6913430A
:103510007B61FB687A699A6000BF1C37BD465DF825
:10352000047B704780B487B000AFF860B9607A6000
:10353000BB6803F01F03012202FA03F37B61FB68FF
:103540001A6A7B69DB431A40FB681A62FB681A6AD5
:10355000BB6803F01F03796801FA03F31A43FB68A1
:103560001A6200BF1C37BD465DF8047B704700003F
:1035700080B485B000AF786039607B6893F83C30E8
:10358000012B01D102235AE07B68012283F83C2001
:103590007B68022283F83D207B681B685B68FB60C8
:1035A0007B681B689B68BB60FB6823F07003FB6053
:1035B0003B681B68FA681343FB607B681B68FA680A
:1035C0005A607B681B68214A934222D07B681B6843
:1035D000B3F1804F1DD07B681B681D4A934218D001
:1035E0007B681B681B4A934213D07B681B681A4A8E
:1035F00093420ED07B681B68184A934209D07B68BF
:103600001B68174A934204D07B681B68154A934293
:103610000CD1BB6823F08003BB603B685B68BA6871
:103620001343BB607B681B68BA689A607B680122A1
:1036300083F83D207B68002283F83C200023184655
:103640001437BD465DF8047B704700BF00000140A1
:103650000004004000080040000C0040000401404D
:10366000004001400018004080B485B000AF786091
:1036700039600023FB607B6893F83C30012B01D15B
:1036800002233DE07B68012283F83C20FB6823F0A5
:10369000FF023B68DB681343FB60FB6823F4407266
:1036A0003B689B681343FB60FB6823F480623B68C4
:1036B0005B681343FB60FB6823F400623B681B6894
:1036C0001343FB60FB6823F480523B681B69134380
:1036D000FB60FB6823F400523B685B691343FB60AB
:1036E000FB6823F480423B68DB691343FB607B6823
:1036F0001B68FA685A647B68002283F83C20002328
:1037000018461437BD465DF8047B704780B582B01B
:1037100000AF78607B68002B01D1012342E07B6819
:1037200093F84130DBB2002B06D17B68002283F88E
:1037300040207868FDF700FD7B68242283F8412053
:103740007B681B68DA687B681B6822F40052DA60C9
:10375000786800F02BF87B681B681A697B681B6827
:1037600022F490421A617B681B685A697B681B6867
:1037700022F02A025A617B681B68DA687B681B6842
:1037800042F40052DA607B6800225A647B6820228F
:1037900083F841207B68202283F842207B68002246
:1037A0005A63002318460837BD4680BD2DE9B04F47
:1037B000C0B000AFC7F8F400D7F8F4301B681B693D
:1037C00023F44050D7F8F430D968D7F8F4301A68A9
:1037D00040EA01031361D7F8F4309A68D7F8F4305F
:1037E0001B691A43D7F8F4305B691A43D7F8F430F1
:1037F000DB691343C7F8F830D7F8F4301B68DB688F
:1038000023F4164121F00C01D7F8F4301A68D7F8E8
:10381000F8300B43D360D7F8F4301B685B6923F4AE
:103820004070D7F8F4309969D7F8F4301A6840EA54
:1038300001035361D7F8F4301A688F4B9A4205D0D0
:10384000D7F8F4301A688D4B9A4204D1FEF73CFF4A
:10385000C7F8FC0003E0FEF723FFC7F8FC00D7F829
:10386000F430DB69B3F5004F40F00C81D7F8FC3041
:103870000022C7F8E830C7F8EC20D7E93A452246DD
:103880002B469118B9655B41FB65D7E916232146A4
:1038900012EB0108294643EB01094FF000024FF0FB
:1038A00000034FEAC90343EA58734FEAC80290463F
:1038B0009946234618EB0303C7F8E0302B4649EB43
:1038C0000303C7F8E430D7F8F4305B680022C7F888
:1038D000D830C7F8DC20D7E936120B46DB183B6539
:1038E000134642EB03037B65D7E91423D7E938017C
:1038F000FCF7BEFC02460B46614BA3FB02235B09AF
:103900001C01D7F8FC300022C7F8D030C7F8D4200B
:10391000D7E9348942464B469118B9645B41FB6450
:10392000D7E91223414612EB010A494643EB010B4A
:103930004FF000024FF000034FEACB0343EA5A7303
:103940004FEACA0292469B4643461AEB0303C7F866
:10395000C8304B464BEB0303C7F8CC30D7F8F430F4
:103960005B680022C7F8C030C7F8C420D7E930121E
:103970000B46DB183B64134642EB03037B64D7E939
:103980001023D7E93201FCF773FC02460B461146BF
:103990003B4BA3FB01235B09642202FB03F3CB1A1D
:1039A000DB0003F13202364BA3FB02235B095B0011
:1039B00003F4F8731C44D7F8FC300022C7F8B83081
:1039C000C7F8BC20D7E92E8942464B469118B96307
:1039D0005B41FB63D7E90E234146511839634946E1
:1039E0004B417B634FF000024FF00003D7E90CAB73
:1039F0005946CB00514643EA51735146CA0010461E
:103A00001946034642469B18C7F8B0304B460A4653
:103A100042EB0303C7F8B430D7F8F4305B680022F8
:103A2000C7F8A830C7F8AC20D7E92A120B46DB1834
:103A3000BB62134642EB0303FB62D7E90A23D7E9D3
:103A40002C01FCF715FC02460B460D4BA3FB0213A1
:103A50005B09642101FB03F3D31ADB003233084A0C
:103A6000A2FB03235B0903F00702D7F8F4301B68BD
:103A700022449A6006E100BF00100140001401409A
:103A80001F85EB51D7F8FC300022C7F8A030C7F8EB
:103A9000A420D7E9288942464B46911839625B41F8
:103AA0007B62D7E9082341465418494643EB010598
:103AB0004FF000024FF00003EB0043EA5473E200C2
:103AC00014461D464346E318C7F898304B4645EB6D
:103AD0000303C7F89C30D7F8F4305B680022C7F8BE
:103AE0009030C7F894204FF000024FF00003D7E960
:103AF000244529468B00214643EA917321468A00DA
:103B0000D7E92601FCF7B4FB02460B46604BA3FB4A
:103B100002235B091C01D7F8FC300022C7F888306B
:103B2000C7F88C20D7E9228942464B469118B961E3
:103B30005B41FB61D7E9062341465118396149468B
:103B40004B417B614FF000024FF00003D7E904AB1B
:103B50005946CB00514643EA51735146CA001046BC
:103B60001946034642469B18C7F880304B460A4622
:103B700042EB0303C7F88430D7F8F4305B680022C7
:103B8000BB67FA674FF000024FF00003D7E91E89C8
:103B900049468B00414643EA917341468A00D7E982
:103BA0002001FCF765FB02460B461146384BA3FB90
:103BB00001235B09642202FB03F3CB1A1B0132339E
:103BC000334AA2FB03235B0903F0F0031C44D7F83C
:103BD000FC3000223B677A67D7E91C8942464B4696
:103BE0009118B9605B41FB60D7E902234146511847
:103BF000396049464B417B604FF000024FF00003B3
:103C0000D7E900AB5946CB00514643EA51735146C0
:103C1000CA0010461946034642469B18BB664B46EF
:103C20000A4642EB0303FB66D7F8F4305B680022D8
:103C30003B667A664FF000024FF00003D7E918891F
:103C400049468B00414643EA917341468A00D7E9D1
:103C50001A01FCF70DFB02460B460D4BA3FB0213AA
:103C60005B09642101FB03F3D31A1B013233084AB9
:103C7000A2FB03235B0903F00F02D7F8F4301B68A3
:103C800022449A6000BF07F58077BD46BDE8B08F3B
:103C90001F85EB5180B483B000AF03463960FB71E0
:103CA00097F90730002B0ADB3B68DAB20C4997F929
:103CB00007301201D2B20B4483F800230AE03B68BC
:103CC000DAB20849FB7903F00F03043B1201D2B2C8
:103CD0000B441A7600BF0C37BD465DF8047B704775
:103CE00000E100E000ED00E080B500AF00216FF0E2
:103CF0000400FFF7CFFF00BF80BD000080B483B099
:103D000000AFEFF305833B603B68002B03D06FF0FF
:103D100005037B600CE00A4B1B68002B05D1084BA8
:103D200001221A6000237B6002E04FF0FF337B60CA
:103D30007B6818460C37BD465DF8047B704700BFB2
:103D40000806002080B582B000AFEFF305833B602A
:103D50003B68002B03D06FF005037B6010E00B4B3A
:103D60001B68012B09D1FFF7BFFF084B02221A6025
:103D700001F066F800237B6002E04FF0FF337B60C8
:103D80007B6818460837BD4680BD00BF0806002086
:103D900080B58EB004AFF860B9607A6000233B61F3
:103DA000EFF305837B617B69002B7ED1FB68002BE1
:103DB0007BD080233B621823FB6100237B624FF0A2
:103DC000FF33BB617B68002B45D07B681B68002BF1
:103DD00002D07B681B687B627B689B69002B02D0EA
:103DE0007B689B69FB61FB69002B08D0FB69382B62
:103DF00005D87B685B6803F00103002B01D000232A
:103E000054E07B685B69002B03D07B685B699B088F
:103E10003B627B689B68002B0ED07B68DB685B2B6A
:103E20000AD97B681B69002B06D07B685B69002B75
:103E300002D00123BB6110E07B689B68002B0CD192
:103E40007B68DB68002B08D17B681B69002B04D1E1
:103E50000023BB6101E00023BB61BB69012B10D1D2
:103E60007B681B697A68926802920193FB690093F0
:103E7000BB683A6A796AF86800F00CFE03463B6159
:103E800013E0BB69002B10D13B6A9AB207F1100313
:103E90000193FB690093BB68796AF86800F057FEEC
:103EA0000346012B01D000233B613B6918462837AC
:103EB000BD4680BD80B584B000AF7860EFF3058368
:103EC000BB60BB68002B03D06FF00503FB6007E00D
:103ED0000023FB607B68002B02D0786800F07CFF39
:103EE000FB6818461037BD4680BD000080B485B021
:103EF00000AFF860B9607A60FB68074A1A60BB6877
:103F0000064A1A607B6880221A6000BF1437BD46DB
:103F10005DF8047B704700BF0C0600206806002097
:103F200080B485B000AFF860B9607A60FB68074A7A
:103F30001A60BB68064A1A607B684FF480721A6088
:103F400000BF1437BD465DF8047B70476808002049
:103F5000C408002080B483B000AF78607B6803F1B0
:103F600008027B685A607B684FF0FF329A607B687A
:103F700003F108027B68DA607B6803F108027B6862
:103F80001A617B6800221A6000BF0C37BD465DF8DD
:103F9000047B704780B483B000AF78607B680022F8
:103FA0001A6100BF0C37BD465DF8047B704780B4D2
:103FB00085B000AF786039607B685B68FB603B6808
:103FC000FA685A60FB689A683B689A60FB689B686D
:103FD0003A685A60FB683A689A603B687A681A6186
:103FE0007B681B685A1C7B681A6000BF1437BD468B
:103FF0005DF8047B704780B485B000AF78603960AD
:104000003B681B68BB60BB68B3F1FF3F03D17B68B3
:104010001B69FB600CE07B680833FB6002E0FB6817
:104020005B68FB60FB685B681B68BA689A42F6D203
:10403000FB685A683B685A603B685B683A689A60FC
:104040003B68FA689A60FB683A685A603B687A682D
:104050001A617B681B685A1C7B681A6000BF1437A2
:10406000BD465DF8047B704780B485B000AF7860D2
:104070007B681B69FB607B685B687A6892689A6002
:104080007B689B687A6852685A60FB685B687A68EC
:104090009A4203D17B689A68FB685A607B68002269
:1040A0001A61FB681B685A1EFB681A60FB681B6874
:1040B00018461437BD465DF8047B704780B584B060
:1040C00000AF786039607B68FB60FB68002B0AD129
:1040D0004FF0500383F31188BFF36F8FBFF34F8FFF
:1040E000BB6000BFFEE702F04DF8FB681A68FB6892
:1040F000DB6BF968096C01FB03F31A44FB689A60F7
:10410000FB6800229A63FB681A68FB685A60FB68C8
:104110001A68FB68DB6B013BF968096C01FB03F370
:104120001A44FB68DA60FB68FF2283F84420FB68CE
:10413000FF2283F845203B68002B14D1FB681B69E4
:10414000002B1AD0FB681033184601F003F9034620
:10415000002B12D00C4B4FF080521A60BFF34F8FE0
:10416000BFF36F8F09E0FB6810331846FFF7F2FECC
:10417000FB6824331846FFF7EDFE02F033F8012305
:1041800018461037BD4680BD04ED00E080B58EB006
:1041900002AFF860B9607A603B60FB68002B0AD11F
:1041A0004FF0500383F31188BFF36F8FBFF34F8F2E
:1041B000BB6200BFFEE73B68002B0AD14FF0500303
:1041C00083F31188BFF36F8FBFF34F8F7B6200BF04
:1041D000FEE77B68002B02D0BB68002B01D00123D7
:1041E00000E00023002B0AD14FF0500383F3118825
:1041F000BFF36F8FBFF34F8F3B6200BFFEE77B685B
:10420000002B02D1BB68002B01D1012300E0002369
:10421000002B0AD14FF0500383F31188BFF36F8F47
:10422000BFF34F8FFB6100BFFEE750237B617B69CB
:10423000502B0AD04FF0500383F31188BFF36F8FD8
:10424000BFF34F8FBB6100BFFEE77B693B68FB623A
:10425000FB6A002B0DD0FB6A012283F8462097F8F9
:104260003820FB6A009313467A68B968F86800F052
:1042700005F8FB6A18463037BD4680BD80B584B06E
:1042800000AFF860B9607A60FB70BB68002B03D1A7
:10429000BB69BA691A6002E0BB697A681A60BB69D7
:1042A000FA68DA63BB69BA681A640121B869FFF772
:1042B00005FFBB69FA7883F84C2000BF1037BD4674
:1042C00080BD000080B58EB000AFF860B9607A6044
:1042D0003B6000237B63FB683B633B6B002B0AD195
:1042E0004FF0500383F31188BFF36F8FBFF34F8FED
:1042F000BB6200BFFEE7BB68002B03D13B6B1B6CAE
:10430000002B01D1012300E00023002B0AD14FF044
:10431000500383F31188BFF36F8FBFF34F8F7B621E
:1043200000BFFEE73B68022B03D13B6BDB6B012B2D
:1043300001D1012300E00023002B0AD14FF05003EC
:1043400083F31188BFF36F8FBFF34F8F3B6200BFC2
:10435000FEE701F0BDF90346002B02D17B68002B7C
:1043600001D1012300E00023002B0AD14FF05003BC
:1043700083F31188BFF36F8FBFF34F8FFB6100BFD3
:10438000FEE701F0FFFE3B6B9A6B3B6BDB6B9A42E7
:1043900002D33B68022B29D13A68B968386B00F028
:1043A0000BFAF8623B6B5B6A002B10D03B6B24333B
:1043B000184600F0CFFF0346002B13D03F4B4FF0C1
:1043C00080521A60BFF34F8FBFF36F8F0AE0FB6A12
:1043D000002B07D0394B4FF080521A60BFF34F8F3C
:1043E000BFF36F8F01F0FEFE012363E07B68002BBB
:1043F00003D101F0F7FE00235CE07B6B002B06D1BC
:1044000007F11403184601F009F801237B6301F05A
:10441000E9FE00F07BFD01F0B5FE3B6B93F8443004
:104420005BB2B3F1FF3F03D13B6B002283F8442022
:104430003B6B93F845305BB2B3F1FF3F03D13B6B6D
:10444000002283F8452001F0CDFE3A1D07F1140348
:104450001146184600F0F8FF0346002B24D1386BB4
:1044600000F0A2FA0346002B18D03B6B10337A6899
:104470001146184600F01EFF386B00F02DFA00F0D0
:1044800053FD0346002B7FF47CAF0C4B4FF0805262
:104490001A60BFF34F8FBFF36F8F72E7386B00F076
:1044A0001BFA00F041FD6CE7386B00F015FA00F0E4
:1044B0003BFD002318463837BD4680BD04ED00E0C3
:1044C00080B590B000AFF860B9607A603B60FB687F
:1044D000BB63BB6B002B0AD14FF0500383F31188F1
:1044E000BFF36F8FBFF34F8FBB6200BFFEE7BB68A8
:1044F000002B03D1BB6B1B6C002B01D1012300E00F
:104500000023002B0AD14FF0500383F31188BFF32F
:104510006F8FBFF34F8F7B6200BFFEE73B68022BBC
:1045200003D1BB6BDB6B012B01D1012300E0002326
:10453000002B0AD14FF0500383F31188BFF36F8F24
:10454000BFF34F8F3B6200BFFEE701F0FDFEEFF3CC
:1045500011824FF0500383F31188BFF36F8FBFF3C5
:104560004F8FFA61BB61FB697B63BB6B9A6BBB6B63
:10457000DB6B9A4202D33B68022B2FD1BB6B93F8C3
:10458000453087F83330BB6B9B6BFB623A68B96888
:10459000B86B00F011F997F93330B3F1FF3F12D146
:1045A000BB6B5B6A002B16D0BB6B2433184600F044
:1045B000D1FE0346002B0ED07B68002B0BD07B680E
:1045C00001221A6007E097F833300133DBB25AB2A8
:1045D000BB6B83F845200123FB6301E00023FB63F1
:1045E0007B6B7B617B6983F3118800BFFB6B184693
:1045F0004037BD4680BD000080B58CB000AFF8608C
:10460000B9607A600023FB62FB68BB62BB6A002B67
:104610000AD14FF0500383F31188BFF36F8FBFF3BC
:104620004F8F3B6200BFFEE7BB68002B03D1BB6A24
:104630001B6C002B01D1012300E00023002B0AD1C9
:104640004FF0500383F31188BFF36F8FBFF34F8F89
:10465000FB6100BFFEE701F03BF80346002B02D1EF
:104660007B68002B01D1012300E00023002B0AD13D
:104670004FF0500383F31188BFF36F8FBFF34F8F59
:10468000BB6100BFFEE701F07DFDBB6A9B6B7B62F7
:104690007B6A002B1FD0B968B86A00F0F7F87B6A14
:1046A0005A1EBB6A9A63BB6A1B69002B0FD0BB6A98
:1046B0001033184600F04EFE0346002B07D03D4B4A
:1046C0004FF080521A60BFF34F8FBFF36F8F01F02E
:1046D00089FD012369E07B68002B03D101F082FD95
:1046E000002362E0FB6A002B06D107F11003184695
:1046F00000F094FE0123FB6201F074FD00F006FC63
:1047000001F040FDBB6A93F844305BB2B3F1FF3F68
:1047100003D1BB6A002283F84420BB6A93F845307A
:104720005BB2B3F1FF3F03D1BB6A002283F845209F
:1047300001F058FD3A1D07F110031146184600F02C
:1047400083FE0346002B23D1B86A00F017F9034615
:10475000002B17D0BB6A24337A681146184600F044
:10476000A9FDB86A00F0B8F800F0DEFB0346002BA4
:1047700089D1104B4FF080521A60BFF34F8FBFF3B7
:104780006F8F80E7B86A00F0A7F800F0CDFB7AE7FA
:10479000B86A00F0A1F800F0C7FBB86A00F0EEF8C4
:1047A0000346002B3FF46FAF002318463037BD4659
:1047B00080BD00BF04ED00E080B586B000AFF860BA
:1047C000B9607A6000237B61FB689B6B3B61FB688F
:1047D0001B6C002B0DD1FB681B68002B4DD1FB68B7
:1047E0009B68184600F092FF7861FB6800229A608F
:1047F00043E07B68002B19D1FB685868FB681B6C91
:104800001A46B96802F01EF8FB685A68FB681B6C10
:104810001A44FB685A60FB685A68FB689B689A42B6
:104820002BD3FB681A68FB685A6026E0FB68D868DF
:10483000FB681B6C1A46B96802F004F8FB68DA687A
:10484000FB681B6C5B421A44FB68DA60FB68DA6841
:10485000FB681B689A4207D2FB689A68FB681B6C6E
:104860005B421A44FB68DA607B68022B05D13B6926
:10487000002B02D03B69013B3B613B695A1CFB6842
:104880009A637B6918461837BD4680BD80B582B0F3
:1048900000AF786039607B681B6C002B18D07B6898
:1048A000DA687B681B6C1A447B68DA607B68DA68BC
:1048B0007B689B689A4203D37B681A687B68DA60DE
:1048C0007B68D9687B681B6C1A46386801F0BAFFB0
:1048D00000BF0837BD4680BD80B584B000AF7860AA
:1048E00001F050FC7B6893F84530FB7311E07B6866
:1048F0005B6A002B12D07B682433184600F02AFD37
:104900000346002B01D000F001FEFB7B013BDBB234
:10491000FB7397F90F30002BE9DC00E000BF7B68E8
:10492000FF2283F8452001F05DFC01F02BFC7B6841
:1049300093F84430BB7311E07B681B69002B12D0E5
:104940007B681033184600F005FD0346002B01D0AC
:1049500000F0DCFDBB7B013BDBB2BB7397F90E3093
:10496000002BE9DC00E000BF7B68FF2283F84420D5
:1049700001F038FC00BF1037BD4680BD80B584B063
:1049800000AF786001F0FEFB7B689B6B002B02D1CF
:104990000123FB6001E00023FB6001F023FCFB68C6
:1049A00018461037BD4680BD80B584B000AF786032
:1049B00001F0E8FB7B689A6B7B68DB6B9A4202D163
:1049C0000123FB6001E00023FB6001F00BFCFB68AE
:1049D00018461037BD4680BD80B485B000AF786002
:1049E00039600023FB6014E00F4AFB6852F8333053
:1049F000002B0BD10C49FB683A6841F833200A4A76
:104A0000FB68DB0013447A685A6006E0FB680133F8
:104A1000FB60FB68072BE7D900BF00BF1437BD461A
:104A20005DF8047B704700BFC40C002080B586B0E1
:104A300000AFF860B9607A60FB687B6101F0A2FBAF
:104A40007B6993F844305BB2B3F1FF3F03D17B69DC
:104A5000002283F844207B6993F845305BB2B3F1C0
:104A6000FF3F03D17B69002283F8452001F0BAFBA8
:104A70007B699B6B002B06D17B6924337A68B9680C
:104A8000184600F03BFC7869FFF726FF00BF183797
:104A9000BD4680BD80B58EB004AFF860B9607A6065
:104AA0003B607B6B002B0AD14FF0500383F31188DE
:104AB000BFF36F8FBFF34F8F3B6200BFFEE7BB6B4F
:104AC000002B0AD14FF0500383F31188BFF36F8F8F
:104AD000BFF34F8FFB6100BFFEE75C233B613B6987
:104AE0005C2B0AD04FF0500383F31188BFF36F8F14
:104AF000BFF34F8FBB6100BFFEE73B69BB6B002B71
:104B00001ED07B6B002B1BD0BB6B7B627B6A7A6BEE
:104B10001A637B6A022283F85920002303937B6A7D
:104B2000029307F1140301933B6B00933B687A688F
:104B3000B968F86800F050F8786A00F0DDF801E034
:104B400000237B617B6918462837BD4680BD80B550
:104B50008CB004AFF860B9603B601346FB80FB8803
:104B60009B00184601F030FC78617B69002B0ED069
:104B70005C2001F029FCF861FB69002B03D0FB6984
:104B80007A691A6305E0786901F0EAFC01E0002324
:104B9000FB61FB69002B17D0FB69002283F85920C9
:104BA000FA8800230393FB690293FB6A0193BB6AB3
:104BB00000933B68B968F86800F00EF8F86900F0F7
:104BC0009BF80123BB6102E04FF0FF33BB61BB697F
:104BD00018462037BD4680BD80B588B000AFF8606C
:104BE000B9607A603B603B6B186B7B689B001A4630
:104BF000A52101F0F3FD3B6B1A6B7B6803F1804349
:104C0000013B9B001344BB61BB6923F00703BB61FD
:104C1000BB6903F00703002B0AD04FF0500383F366
:104C20001188BFF36F8FBFF34F8F7B6100BFFEE72B
:104C3000BB68002B1FD00023FB6112E0BA68FB6940
:104C4000134419783A6BFB69134434330A461A70DB
:104C5000BA68FB6913441B78002B06D0FB6901334B
:104C6000FB61FB690F2BE9D900E000BF3B6B002221
:104C700083F8432003E03B6B002283F83420BB6AB7
:104C8000372B01D93723BB623B6BBA6ADA623B6BC5
:104C9000BA6ADA643B6B00221A653B6B0433184630
:104CA000FFF778F93B6B18331846FFF773F93B6B46
:104CB0003A6B1A61BB6AC3F138023B6B9A613B6B7A
:104CC0003A6B5A623B6B00225A653B6B002283F8B9
:104CD00058203A68F968B86901F028F902463B6B38
:104CE0001A60FB6A002B02D0FB6A3A6B1A6000BFA5
:104CF0002037BD4680BD000080B582B000AF78602F
:104D000001F040FA2D4B1B6801332C4A13602C4BE9
:104D10001B68002B09D12A4A7B681360274B1B684C
:104D2000012B10D100F016FC0DE0264B1B68002B68
:104D300009D1234B1B68DA6A7B68DB6A9A4202D886
:104D40001F4A7B681360204B1B6801331E4A1360A7
:104D50001D4B1A687B685A647B68DA6A1B4B1B68B8
:104D60009A4203D97B68DB6A184A13607B68DA6A67
:104D700013469B0013449B00154A1A447B68043376
:104D800019461046FFF713F901F02CFA0D4B1B687A
:104D9000002B0ED00A4B1B68DA6A7B68DB6A9A42EA
:104DA00007D20C4B4FF080521A60BFF34F8FBFF306
:104DB0006F8F00BF0837BD4680BD00BFD8110020EF
:104DC000040D0020E4110020F4110020E011002067
:104DD000080D002004ED00E080B584B000AF7860DD
:104DE0000023FB607B68002B17D0134B1B68002B44
:104DF0000AD04FF0500383F31188BFF36F8FBFF3D6
:104E00004F8FBB6000BFFEE700F080F8002178689C
:104E100000F0EAFC00F088F8F860FB68002B07D18E
:104E2000064B4FF080521A60BFF34F8FBFF36F8F66
:104E300000BF1037BD4680BD0012002004ED00E029
:104E400080B58AB004AF0023BB6000237B603A4684
:104E5000391D07F108031846FFF748F839687B68E1
:104E6000BA68029201930023009300230A46214965
:104E70002148FFF70FFE0346204A13601F4B1B68B3
:104E8000002B02D001237B6101E000237B617B6961
:104E9000012B02D100F0FCFC78617B69012B16D15B
:104EA0004FF0500383F31188BFF36F8FBFF34F8F21
:104EB0003B6100BF124B4FF0FF321A60114B0122D1
:104EC0001A60114B00221A6001F0BAF80EE07B69FB
:104ED000B3F1FF3F0AD14FF0500383F31188BFF3C2
:104EE0006F8FBFF34F8FFB6000BFFEE700BF183727
:104EF000BD4680BD5C71000825550008FC110020EE
:104F0000F8110020E4110020DC11002080B400AF73
:104F1000044B1B680133034A136000BFBD465DF8B4
:104F2000047B70470012002080B584B000AF0023DE
:104F3000FB600023BB60424B1B68002B0AD14FF083
:104F4000500383F31188BFF36F8FBFF34F8F3B6024
:104F500000BFFEE701F016F9394B1B68013B384AE8
:104F60001360374B1B68002B62D1364B1B68002B3C
:104F70005ED02FE0344BDB68DB68FB60FB681833E6
:104F80001846FFF771F8FB6804331846FFF76CF812
:104F9000FB68DA6A2D4B1B689A4203D9FB68DB6A0F
:104FA0002A4A1360FB68DA6A13469B0013449B008D
:104FB000274A1A44FB68043319461046FEF7F7FFE8
:104FC000FB68DA6A234B1B68DB6A9A4202D3224BE6
:104FD00001221A601C4B1B68002BCBD1FB68002BF5
:104FE00001D000F055FB1D4B1B687B607B68002BDC
:104FF00010D000F047F80346002B02D0164B0122D8
:105000001A607B68013B7B607B68002BF1D1134BFE
:1050100000221A60104B1B68002B09D00123BB60D3
:105020000F4B4FF080521A60BFF34F8FBFF36F8F5B
:1050300001F0D8F8BB6818461037BD4680BD00BFE8
:1050400000120020D811002098110020E01100204B
:10505000080D0020040D0020EC110020E8110020B4
:1050600004ED00E080B483B000AF054B1B687B60AB
:105070007B6818460C37BD465DF8047B704700BF5F
:10508000DC11002080B586B000AF00237B614F4B60
:105090001B68002B40F08F804D4B1B6801333B6138
:1050A0004B4A3B6913603B69002B20D1494B1B687D
:1050B0001B68002B0AD04FF0500383F31188BFF315
:1050C0006F8FBFF34F8F3B6000BFFEE7414B1B6804
:1050D000FB60414B1B683F4A13603F4AFB6813600B
:1050E0003E4B1B6801333D4A136000F0D1FA3C4B44
:1050F0001B683A699A4249D3364B1B681B68002BE0
:1051000004D1374B4FF0FF321A603FE0314B1B6840
:10511000DB68DB68BB60BB685B687B603A697B68A7
:105120009A4203D22E4A7B6813602FE0BB68043397
:105130001846FEF799FFBB689B6A002B04D0BB683A
:1051400018331846FEF790FFBB68DA6A254B1B68D8
:105150009A4203D9BB68DB6A224A1360BB68DA6AE9
:1051600013469B0013449B001F4A1A44BB68043338
:1051700019461046FEF71BFFBB68DA6A1B4B1B681B
:10518000DB6A9A42B8D301237B61B5E7174B1B68F2
:10519000DA6A154913469B0013449B000B441B68B5
:1051A000012B01D901237B61114B1B68002B07D018
:1051B00001237B6104E00F4B1B6801330D4A136030
:1051C0007B6918461837BD4680BD00BF001200201D
:1051D000DC1100209011002094110020F01100201B
:1051E000F8110020E0110020080D0020040D00201F
:1051F000EC110020E811002080B485B000AF284BEE
:105200001B68002B03D0274B01221A6041E0254B7D
:1052100000221A60244B1B68FB6010E0FB68002B27
:105220000AD14FF0500383F31188BFF36F8FBFF3A0
:105230004F8F7B6000BFFEE7FB68013BFB601B49B3
:10524000FA6813469B0013449B000B441B68002B19
:10525000E4D0FA6813469B0013449B00134A13449E
:10526000BB60BB685B685A68BB685A60BB685A68B9
:10527000BB6808339A4204D1BB685B685A68BB6854
:105280005A60BB685B68DB68094A1360064AFB68C2
:10529000136000BF1437BD465DF8047B704700BF44
:1052A00000120020EC110020E0110020080D002069
:1052B000040D002080B584B000AF786039607B6851
:1052C000002B0AD14FF0500383F31188BFF36F8F87
:1052D000BFF34F8FFB6000BFFEE7074B1B6818331F
:1052E00019467868FEF787FE0121386800F07CFADD
:1052F00000BF1037BD4680BD040D002080B586B0CC
:1053000000AFF860B9607A60FB68002B0AD14FF0FB
:10531000500383F31188BFF36F8FBFF34F8F7B610F
:1053200000BFFEE70A4B1B6818331946F868FEF702
:105330003EFE7B68002B02D04FF0FF33BB607968E4
:10534000B86800F051FA00BF1837BD4680BD00BFF5
:10535000040D002080B586B000AF78607B68DB6804
:10536000DB683B613B69002B0AD14FF0500383F3AC
:105370001188BFF36F8FBFF34F8FFB6000BFFEE755
:105380003B6918331846FEF76FFE1E4B1B68002B57
:105390001DD13B6904331846FEF766FE3B69DA6AA5
:1053A000194B1B689A4203D93B69DB6A164A1360A2
:1053B0003B69DA6A13469B0013449B00134A1A4464
:1053C0003B69043319461046FEF7F1FD05E03B69E1
:1053D000183319460E48FEF7EAFD3B69DA6A0D4BB1
:1053E0001B68DB6A9A4205D901237B610A4B0122C3
:1053F0001A6001E000237B617B6918461837BD46BF
:1054000080BD00BF00120020E0110020080D002028
:1054100098110020040D0020EC11002080B483B00E
:1054200000AF7860064B1A687B681A60054B1A68F3
:105430007B685A6000BF0C37BD465DF8047B70473F
:10544000F0110020DC11002080B588B000AF78603A
:1054500039607B68002B0AD14FF0500383F3118829
:10546000BFF36F8FBFF34F8F3B6100BFFEE73B6819
:10547000002B0AD14FF0500383F31188BFF36F8FD5
:10548000BFF34F8FFB6000BFFEE700F07BFE1D4BBC
:105490001B68BB617B685B68BA69D31A7B613B6838
:1054A0001B68B3F1FF3F02D10023FB6123E07B685F
:1054B0001A68154B1B689A4207D07B685B68BA690B
:1054C0009A4202D30123FB6115E03B681B687A69AD
:1054D0009A420BD23B681A687B69D21A3B681A6001
:1054E0007868FFF79BFF0023FB6104E03B68002224
:1054F0001A600123FB6100F075FEFB691846203736
:10550000BD4680BDDC110020F011002080B400AF4A
:10551000034B01221A6000BFBD465DF8047B704753
:10552000EC11002080B582B000AF786000F052F836
:10553000064B1B68012BF9D9054B4FF080521A60BE
:10554000BFF34F8FBFF36F8FF0E700BF080D002050
:1055500004ED00E080B582B000AF00237B600CE07A
:105560007A6813469B0013449B00124A1344184662
:10557000FEF7F0FC7B6801337B607B68372BEFD94B
:105580000D48FEF7E7FC0D48FEF7E4FC0C48FEF77B
:10559000E1FC0C48FEF7DEFC0B48FEF7DBFC0B4B96
:1055A000054A1A600A4B054A1A6000BF0837BD4613
:1055B00080BD00BF080D0020681100207C11002074
:1055C00098110020AC110020C4110020901100207F
:1055D0009411002080B582B000AF19E000F0D2FD38
:1055E000104BDB68DB687B607B6804331846FEF792
:1055F0003BFD0D4B1B68013B0B4A13600B4B1B68BB
:10560000013B0A4A136000F0EDFD786800F010F8E5
:10561000064B1B68002BE1D100BF00BF0837BD4619
:1056200080BD00BFAC110020D8110020C0110020A7
:1056300080B584B000AF78607B6893F85930002B58
:1056400008D17B681B6B184600F08AFF786800F071
:1056500087FF18E07B6893F85930012B03D17868F5
:1056600000F07EFF0FE07B6893F85930022B0AD0E0
:105670004FF0500383F31188BFF36F8FBFF34F8F49
:10568000FB6000BFFEE700BF1037BD4680BD0000D5
:1056900080B483B000AF0C4B1B681B68002B04D197
:1056A0000A4B4FF0FF321A6008E0074B1B68DB68BB
:1056B000DB687B607B685B68044A136000BF0C3763
:1056C000BD465DF8047B704790110020F811002062
:1056D00080B483B000AF0B4B1B68002B02D10123B9
:1056E0007B6008E0084B1B68002B02D102237B6023
:1056F00001E000237B607B6818460C37BD465DF8EF
:10570000047B7047E41100200012002080B586B0B1
:1057100000AF78607B683B6100237B617B68002B76
:1057200056D02E4B1B683A699A420AD04FF050036C
:1057300083F31188BFF36F8FBFF34F8FFB6000BF00
:10574000FEE73B691B6D002B0AD14FF0500383F33A
:105750001188BFF36F8FBFF34F8FBB6000BFFEE7B1
:105760003B691B6D5A1E3B691A653B69DA6A3B69E6
:10577000DB6C9A422CD03B691B6D002B28D13B6916
:1057800004331846FEF770FC3B69DA6C3B69DA6259
:105790003B69DB6AC3F138023B699A613B69DA6AAB
:1057A0000F4B1B689A4203D93B69DB6A0C4A1360B2
:1057B0003B69DA6A13469B0013449B00094A1A446A
:1057C0003B69043319461046FEF7F1FB01237B6168
:1057D0007B6918461837BD4680BD00BF040D002008
:1057E000E0110020080D002080B584B000AF786083
:1057F0003960214B1B68FB60204B1B680433184643
:10580000FEF732FC7B68B3F1FF3F0AD13B68002B07
:1058100007D01A4B1B68043319461948FEF7C7FB1B
:1058200026E0FA687B681344BB60144B1B68BA68B7
:105830005A60BA68FB689A4209D2124B1A680F4B39
:105840001B68043319461046FEF7D5FB10E00E4BDB
:105850001A680A4B1B68043319461046FEF7CBFB47
:105860000A4B1B68BA689A4202D2084ABB681360A6
:1058700000BF1037BD4680BDDC110020040D0020A4
:10588000C41100209411002090110020F811002074
:1058900080B58AB004AF00237B6100F007FB1C4B8E
:1058A0001B68002B21D00023FB600023BB603A1D46
:1058B00007F1080107F10C031846FEF731FB796880
:1058C000BB68FA68029201930223009300230A4600
:1058D00010491148FFF7DEF80346104A13600F4BDA
:1058E0001B68002B01D001237B617B69002B0AD14F
:1058F0004FF0500383F31188BFF36F8FBFF34F8FC7
:105900003B6100BFFEE77B6918461837BD4680BD86
:105910003412002064710008555A00083812002023
:1059200080B58AB000AFF860B9607A603B60002350
:105930007B62FB68002B0AD14FF0500383F3118880
:10594000BFF36F8FBFF34F8F3B6200BFFEE71A4B71
:105950001B68002B2AD0BB683B617B687B61FB68BE
:10596000BB61BB68052B18DCFFF7B2FE0346022BB8
:1059700009D1114B186807F1100100233A6BFEF7AB
:10598000A1FC786212E00C4B186807F110010023AB
:105990000022FEF797FC786208E0074B186807F1D1
:1059A000100100233A68FEF78BFD78627B6A184687
:1059B0002837BD4680BD00BF3412002080B588B0B6
:1059C00002AF78603960224B1B68DB68DB687B6163
:1059D0007B6904331846FEF747FB7B6993F8283050
:1059E00003F00403002B22D07B699A697B68D118ED
:1059F0007B683A68786900F0D1F80346002B1FD025
:105A00000023009300237A6800217869FFF788FF5C
:105A100038613B69002B13D14FF0500383F3118899
:105A2000BFF36F8FBFF34F8FFB6000BFFEE77B6953
:105A300093F8283023F00103DAB27B6983F8282039
:105A40007B691B6A7869984700BF1837BD4680BDDF
:105A50002C12002080B584B000AF786007F10803F5
:105A6000184600F057F8F860BB681946F86800F06F
:105A700003F800F0D5F8F1E780B584B000AF7860A6
:105A80003960FFF743FA07F10803184600F066F89B
:105A9000F860BB68002B30D13B68002B0AD17A68D4
:105AA000FB689A4206D8FFF73FFAF9687868FFF773
:105AB00085FF24E03B68002B08D0134B1B681B6854
:105AC000002B01D1012300E000233B600F4B18683D
:105AD0007A68FB68D31A3A681946FEF7A7FFFFF702
