:020000040800F2
:10000000000002203D180008491700084B1700089F
:100010004D1700084F170008511700080000000096
:10002000000000000000000000000000A1480008DF
:100030005317000800000000314900085517000858
:100040008D1800088D1800088D1800088D180008FC
:100050008D1800088D1800088D1800088D180008EC
:100060008D1800088D1800088D1800088D180008DC
:100070008D1800088D1800088D1800088D180008CC
:100080008D1800088D1800088D1800088D180008BC
:100090008D1800088D1800088D1800088D180008AC
:1000A0008D1800088D1800088D1800088D1800089C
:1000B0008D1800088D1800088D1800088D1800088C
:1000C0008D1800088D1800088D1800088D1800087C
:1000D0008D1800088D1800088D1800086D1700088D
:1000E0008D1800088D1800088D1800088D1800085C
:1000F0008D1800088D1800088D1800088D1800084C
:100100008D1800088D1800088D1800088D1800083B
:100110008D1800088D1800088D1800088D1800082B
:100120008D1800088D1800088D1800088D1800081B
:100130008D1800088D1800088D1800088D1800080B
:100140008D1800088D1800088D1800088D180008FB
:100150008D1800088D1800088D1800088D180008EB
:100160008D1800088D1800088D1800088D180008DB
:100170008D1800088D1800088D1800080000000078
:080180008D1800088D1800081D
:1001900010B5054C237833B9044B13B10448AFF3C1
:1001A00000800123237010BDD80100200000000052
:1001B000CC76000808B5034B1BB103490348AFF3E5
:1001C000008008BD00000000DC010020CC760008A3
:1001D00001F0FF01102A2BDB10F0070F08D010F8F8
:1001E000013B013A8B422DD010F0070F42B3F6D1FC
:1001F000F0B441EA012141EA014122F007047FF015
:1002000000070023F0E80256083C85EA010586EA6B
:10021000010685FA47F5A3FA87F586FA47F6A5FAA7
:1002200087F68EB9EED1F0BC01F0FF0102F00702B3
:1002300032B110F8013B013A83EA010313B1F8D15E
:100240000020704701387047002D06BF354603383F
:10025000073815F0010F07D1013015F4807F02BF78
:10026000013015F4C03F0130F0BC0138704700BFC9
:10027000034613F8012B002AFBD1181A01387047E6
:1002800081F0004102E000BF83F0004330B54FEA47
:1002900041044FEA430594EA050F08BF90EA020FB4
:1002A0001FBF54EA000C55EA020C7FEA645C7FEA47
:1002B000655C00F0E2804FEA5454D4EB5555B8BF6A
:1002C0006D420CDD2C4480EA020281EA030382EADB
:1002D000000083EA010180EA020281EA0303362D6D
:1002E00088BF30BD11F0004F4FEA01314FF4801C40
:1002F0004CEA113102D0404261EB410113F0004F52
:100300004FEA03334CEA133302D0524263EB430308
:1003100094EA050F00F0A780A4F10104D5F1200EA6
:100320000DDB02FA0EFC22FA05F2801841F1000101
:1003300003FA0EF2801843FA05F359410EE0A5F1D5
:1003400020050EF1200E012A03FA0EFC28BF4CF006
:10035000020C43FA05F3C01851EBE37101F00045BC
:1003600007D54FF0000EDCF1000C7EEB00006EEBC9
:100370000101B1F5801F1BD3B1F5001F0CD3490853
:100380005FEA30004FEA3C0C04F101044FEA4452AA
:1003900012F5800F80F09A80BCF1004F08BF5FEA31
:1003A000500C50F1000041EB045141EA050130BD11
:1003B0005FEA4C0C404141EB0101013C28BFB1F523
:1003C000801FE9D291F0000F04BF01460020B1FA6E
:1003D00081F308BF2033A3F10B03B3F120020CDA41
:1003E0000C3208DD02F1140CC2F10C0201FA0CF01F
:1003F00021FA02F10CE002F11402D8BFC2F1200C84
:1004000001FA02F120FA0CFCDCBF41EA0C01904039
:10041000E41AA2BF01EB0451294330BD6FEA040482
:100420001F3C1CDA0C340EDC04F11404C4F120026D
:1004300020FA04F001FA02F340EA030021FA04F37F
:1004400045EA030130BDC4F10C04C4F1200220FAD6
:1004500002F001FA04F340EA0300294630BD21FA14
:1004600004F0294630BD94F0000F83F4801306BFDA
:1004700081F480110134013D4EE77FEA645C18BFCE
:100480007FEA655C29D094EA050F08BF90EA020F65
:1004900005D054EA000C04BF1946104630BD91EA5D
:1004A000030F1EBF0021002030BD5FEA545C05D160
:1004B0004000494128BF41F0004130BD14F580049F
:1004C0003CBF01F5801130BD01F0004545F0FE4113
:1004D00041F470014FF0000030BD7FEA645C1ABF48
:1004E000194610467FEA655C1CBF0B46024650EA7F
:1004F000013406BF52EA033591EA030F41F40021AB
:1005000030BD00BF90F0000F04BF0021704730B530
:100510004FF4806404F132044FF000054FF0000105
:1005200050E700BF90F0000F04BF0021704730B5C6
:100530004FF4806404F1320410F0004548BF40429B
:100540004FF000013EE700BF42004FEAE2014FEAF0
:1005500031014FEA02701FBF12F07F4393F07F4FCB
:1005600081F06051704732F07F4208BF704793F0CE
:100570007F4F04BF41F40021704730B54FF46074E1
:1005800001F0004521F000411CE700BF50EA0102E4
:1005900008BF704730B54FF000050AE050EA01028D
:1005A00008BF704730B511F0004502D5404261EBFD
:1005B00041014FF4806404F132045FEA915C3FF43E
:1005C000D8AE4FF003025FEADC0C18BF03325FEADB
:1005D000DC0C18BF033202EBDC02C2F1200300FA8C
:1005E00003FC20FA02F001FA03FE40EA0E0021FAB1
:1005F00002F11444BDE600BF70B54FF0FF0C4CF49F
:10060000E06C1CEA11541DBF1CEA135594EA0C0F50
:1006100095EA0C0F00F0DEF82C4481EA030621EA8B
:100620004C5123EA4C5350EA013518BF52EA0335C6
:1006300041F4801143F4801338D0A0FB02CE4FF078
:100640000005E1FB02E506F00042E0FB03E54FF0A8
:100650000006E1FB03569CF0000F18BF4EF0010EA0
:10066000A4F1FF04B6F5007F64F5407404D25FEA9C
:100670004E0E6D4146EB060642EAC62141EA55514F
:100680004FEAC52040EA5E504FEACE2EB4F1FD0C91
:1006900088BFBCF5E06F1ED8BEF1004F08BF5FEA0F
:1006A000500E50F1000041EB045170BD06F00046C1
:1006B00046EA010140EA020081EA0301B4EB5C046E
:1006C000C2BFD4EB0C0541EA045170BD41F4801166
:1006D0004FF0000E013C00F3AB8014F1360FDEBF8B
:1006E000002001F0004170BDC4F10004203C35DA67
:1006F0000C341BDC04F11404C4F1200500FA05F3EA
:1007000020FA04F001FA05F240EA020001F000428A
:1007100021F0004110EBD37021FA04F642EB060100
:100720005EEA430E08BF20EAD37070BDC4F10C042A
:10073000C4F1200500FA04F320FA05F001FA04F2EE
:1007400040EA020001F0004110EBD37041F10001DA
:100750005EEA430E08BF20EAD37070BDC4F12005E5
:1007600000FA05F24EEA020E20FA04F301FA05F24D
:1007700043EA020321FA04F001F0004121FA04F2F5
:1007800020EA020000EBD3705EEA430E08BF20EAC5
:10079000D37070BD94F0000F0FD101F000464000FF
:1007A00041EB010111F4801F08BF013CF7D041EA81
:1007B000060195F0000F18BF704703F00046520085
:1007C00043EB030313F4801F08BF013DF7D043EA56
:1007D0000603704794EA0C0F0CEA135518BF95EA0C
:1007E0000C0F0CD050EA410618BF52EA4306D1D193
:1007F00081EA030101F000414FF0000070BD50EAB2
:10080000410606BF1046194652EA430619D094EA3B
:100810000C0F02D150EA013613D195EA0C0F05D125
:1008200052EA03361CBF104619460AD181EA030179
:1008300001F0004141F0FE4141F470014FF0000031
:1008400070BD41F0FE4141F4780170BD70B54FF0CC
:10085000FF0C4CF4E06C1CEA11541DBF1CEA13554C
:1008600094EA0C0F95EA0C0F00F0A7F8A4EB05042E
:1008700081EA030E52EA03354FEA013100F0888025
:100880004FEA03334FF0805545EA131343EA1263EE
:100890004FEA022245EA111545EA10654FEA0026A3
:1008A0000EF000419D4208BF964244F1FD0404F55C
:1008B000407402D25B084FEA3202B61A65EB0305B8
:1008C0005B084FEA32024FF480104FF4002CB6EB75
:1008D000020E75EB030E22BFB61A754640EA0C00F5
:1008E0005B084FEA3202B6EB020E75EB030E22BF35
:1008F000B61A754640EA5C005B084FEA3202B6EB76
:10090000020E75EB030E22BFB61A754640EA9C0034
:100910005B084FEA3202B6EB020E75EB030E22BF04
:10092000B61A754640EADC0055EA060E18D04FEAC2
:10093000051545EA16754FEA06164FEAC30343EA62
:1009400052734FEAC2025FEA1C1CC0D111F4801F2F
:100950000BD141EA00014FF000004FF0004CB6E728
:1009600011F4801F04BF01430020B4F1FD0C88BFC7
:10097000BCF5E06F3FF6AFAEB5EB030C04BFB6EBD2
:10098000020C5FEA500C50F1000041EB045170BDC5
:100990000EF0004E4EEA113114EB5C04C2BFD4EBF2
:1009A0000C0541EA045170BD41F480114FF0000E76
:1009B000013C90E645EA060E8DE60CEA135594EAF2
:1009C0000C0F08BF95EA0C0F3FF43BAF94EA0C0FF5
:1009D0000AD150EA01347FF434AF95EA0C0F7FF46A
:1009E00025AF104619462CE795EA0C0F06D152EABE
:1009F00003353FF4FDAE1046194622E750EA4106A2
:100A000018BF52EA43067FF4C5AE50EA41047FF4B2
:100A10000DAF52EA43057FF4EBAE12E74FF0FF3C17
:100A200006E000BF4FF0010C02E000BF4FF0010CE8
:100A30004DF804CD4FEA410C7FEA6C5C4FEA430C61
:100A400018BF7FEA6C5C1BD001B050EA410C0CBFB0
:100A500052EA430C91EA030F02BF90EA020F002012
:100A6000704710F1000F91EA030F58BF994208BF79
:100A700090422CBFD8176FEAE37040F00100704736
:100A80004FEA410C7FEA6C5C02D150EA013C07D18D
:100A90004FEA430C7FEA6C5CD6D152EA033CD3D0D8
:100AA0005DF8040B704700BF8446104662468C46D2
:100AB0001946634600E000BF01B5FFF7B7FF002805
:100AC00048BF10F1000F01BD4DF808EDFFF7F4FF2E
:100AD0000CBF012000205DF808FB00BF4DF808EDB9
:100AE000FFF7EAFF34BF012000205DF808FB00BFDC
:100AF0004DF808EDFFF7E0FF94BF012000205DF8FE
:100B000008FB00BF4DF808EDFFF7CEFF94BF0120B2
:100B100000205DF808FB00BF4DF808EDFFF7C4FFAB
:100B200034BF012000205DF808FB00BF4FEA410CF4
:100B30007FEA6C5C02D150EA013C0AD14FEA430CD7
:100B40007FEA6C5C02D152EA033C02D14FF0000014
:100B500070474FF0010070474FEA410212F5001252
:100B600015D211D56FF47873B3EB625212D94FEAF4
:100B7000C12343F0004343EA505311F0004F23FADE
:100B800002F018BF404270474FF00000704750EA33
:100B9000013005D111F0004008BF6FF000407047F0
:100BA0004FF00000704700BF53B94AB9002908BF91
:100BB00000281CBF4FF0FF314FF0FF3000F070B93C
:100BC000ADF1080C6DE904CE00F006F8DDF804E0A4
:100BD000DDE9022304B070472DE9F047089E0D4679
:100BE00004460F46002B4AD18A42944665D9B2FA90
:100BF00082F343B102FA03FCC3F120029F4020FAC2
:100C000002F217439C404FEA1C4E1FFA8CF5B7FBCB
:100C1000FEF1220C0EFB117742EA074201FB05F0C0
:100C200090420AD91CEB020201F1FF3780F01C81CF
:100C3000904240F2198102396244121AA4B2B2FB06
:100C4000FEF00EFB102244EA024400FB05F5A5422B
:100C50000AD91CEB040400F1FF3280F00781A542A1
:100C600040F204816444023840EA0140641B0021E0
:100C70001EB1DC400023C6E90043BDE8F0878B428B
:100C800008D9002E00F0ED800021C6E900050846D5
:100C9000BDE8F087B3FA83F1002949D1AB4202D312
:100CA000824200F2F880841A65EB030201201746A5
:100CB000002EE2D0C6E90047DFE702B9FFDEB2FA54
:100CC00082F3002B40F090808A1A4FEA1C471FFAEB
:100CD0008CFE0121B2FBF7F507FB1520220C42EA3E
:100CE00000420EFB05F0904208D91CEB020205F110
:100CF000FF3802D2904200F2CB804546121AA4B2CD
:100D0000B2FBF7F007FB102244EA02440EFB00FEA0
:100D1000A64508D91CEB040400F1FF3202D2A64517
:100D200000F2BB801046A4EB0E0440EA05409FE7AA
:100D3000C1F120078B4022FA07FC4CEA030C05FAAC
:100D400001F420FA07F3FD404FEA1C492343B5FBA9
:100D5000F9F81FFA8CFE09FB18551C0C44EA0544EF
:100D600008FB0EF5A54202FA01F200FA01F00BD9D8
:100D70001CEB040408F1FF3A80F08880A54240F2A1
:100D80008580A8F102086444641B9DB2B4FBF9F3AA
:100D900009FB134445EA044403FB0EFEA64508D9AB
:100DA0001CEB040403F1FF356CD2A6456AD9023B63
:100DB000644443EA0843A3FB0295A4EB0E04AC424F
:100DC000C846AE4656D353D056B1B0EB080264EBDA
:100DD0000E0404FA07F7CA40CC401743C6E9007472
:100DE00018460021BDE8F087C3F1200102FA03FC98
:100DF00020FA01F225FA01F19D402A434FEA1C47EF
:100E00001FFA8CFEB1FBF7F007FB1015110C41EA3D
:100E1000054100FB0EF58D4204FA03F408D91CEBE2
:100E2000010100F1FF382FD28D422DD902386144E3
:100E3000491B92B2B1FBF7F507FB151142EA0142DB
:100E400005FB0EF1914208D91CEB020205F1FF38B7
:100E500016D2914214D9023D6244521A45EA004129
:100E600038E73146304608E73946E6E61046FBE605
:100E70004845A9D2B9EB020865EB0C0E013BA3E78C
:100E80004546EAE72B4694E74046D1E7D0467BE764
:100E9000023D624432E708460AE76444023842E70A
:100EA000704700BF07B541230F4D104C8DF8073038
:100EB00001220DF107014FF6FF73284602F003F8F7
:100EC0009DF80730592B9ABF0133DBB241232046EE
:100ED0004FF480618DF8073001F043F841F288301B
:100EE00002F08DFAE4E700BF380300200010024052
:100EF0007FB5124B01AC03F1080226461868596809
:100F0000254603C5083393422C46F7D118681B7950
:100F10002B710B4C28600023CDF81130059321462E
:100F2000304604F0FAFC0A210846324600F076FD0D
:100F300000F0DCFC012002F062FAF0E7E87600083D
:100F4000F80100202DE9F04100212248224E214FD6
:100F5000DFF8888001F064FE04211E4801F060FE85
:100F60001E480C2101F05CFE002440F2F1339C424B
:100F700004D9012002F043FA254629E00022042189
:100F8000304600F0E9FF01220821304600F0E4FF7E
:100F9000651C00222021304600F0DEFFADB20122A8
:100FA0001021304600F0D8FFB5F57A7F07D3D8F886
:100FB000003093221A644FF4FA6002F020FA3B6882
:100FC00004F22134A4B25D630A209C6302F017FA94
:100FD0002C46CAE7F0020020000002401802002060
:100FE00070B53C210E480E4E0E4D01F001FB00F095
:100FF00007FE044600F004FE001B0A28FAD93168F7
:101000002B684A6AB2F5FA4FC6BFC2F580329B1A06
:101010009B182B6000234B6200F0F2FD0446E9E7C9
:10102000600200208003002070B53C210E480E4E67
:101030000E4D01F0DDFA00F0E3FD044600F0E0FDA6
:10104000001B0A28FAD931682B684A6AB2F5FA4FB0
:10105000C6BFC2F580329B189B1A2B6000234B62DF
:1010600000F0CEFD0446E9E7A80200208803002036
:1010700000B595B02C22002109A804F0CEFB142263
:10108000002103A804F0C9FB0023194A0193116C45
:1010900041F080511164126C02F080520192019A69
:1010A000144A0293116841F48041116012680E9352
:1010B00002F480420292029A022208920120102237
:1010C000CDE90B0208A800F071FF014608B172B625
:1010D000FEE70F23CDE90330CDE90500079003A813
:1010E00001F03EF908B172B6FEE715B05DF804FBF9
:1010F000003802400070004000B59BB000F05AFD7F
:10110000FFF7B6FF1422002111A804F086FB00248B
:10111000AB4B00941A6BAB48AB4D42F010021A6314
:101120001A6B02F010020092009A01941A6B42F0BE
:1011300001021A631A6B02F001020192019A0294F1
:101140001A6B42F004021A631A6B02F00402029254
:10115000029A03941A6B42F002021A631B6B03F0AB
:101160000203039322464FF4BC61039B00F0F4FE9C
:10117000224696483C2100F0EFFE01264FF4BC6366
:10118000904811A9CDE91136CDE9134400F00AFECB
:101190003C23CDE911368D481394022311A91493F1
:1011A00000F000FE21461C2212A804F036FB4FF08E
:1011B0008043C5E900344FF6FF73C5E903340323C8
:1011C000119311A90A232846CDE90A44AC60AC6109
:1011D000139615931796199301F028FB08B172B670
:1011E000FEE7CDE90A000AA9284601F01BFD0546E5
:1011F00008B172B6FEE70146102206A804F00DFB06
:101200001C2229460AA8CDE9045504F006FB202239
:10121000294611A804F001FB6D4C6E4BA560C4E992
:101220000035204641F61F43C4E90335C4E905559E
:1012300001F0A4FA08B172B6FEE74FF4805306A994
:101240002046069301F0DFFB08B172B6FEE72046A8
:1012500001F0C0FA08B172B6FEE7CDE9040004A9B6
:10126000204601F0DFFC024608B172B6FEE76023BB
:10127000CDE90A30CDE90C00CDE90E0010900AA9A5
:10128000204601F05DFB08B172B6FEE704220AA910
:10129000204601F055FB08B172B6FEE7CDE911001A
:1012A000CDE9130015904FF40053189011A9204672
:1012B000169301F0F5FC054608B172B6FEE720462C
:1012C00000F0BCF9444C45484FF4E133C0E9004319
:1012D0000C23C0E90255C0E905350561C56101F07F
:1012E000C3FD08B172B6FEE700251C2229460AA8F4
:1012F000CDE9065504F091FA2946202211A804F000
:101300008CFA374C3749A560A023C4E90013204666
:101310004FF47A73C4E90335C4E9055501F05AFA6C
:1013200008B172B6FEE7CDE9060006A9204601F035
:1013300079FC08B172B6FEE76023CDE90A30CDE949
:101340000E000C9010900C220AA9204601F0F8FA29
:1013500008B172B6FEE7CDE91100CDE91300159092
:101360004FF40053189011A92046169301F098FCF1
:10137000054608B172B6FEE7204600F05FF929463F
:101380001C2212A804F049FA174C184BA560C4E9B6
:1013900000354FF6FF73C4E903350323CDE90A5541
:1013A000A56111930A25012311A9204613931595D0
:1013B0001793199501F03AFAD0B172B6FEE700BF63
:1013C000003802400010024060020020000002408D
:1013D000F0020020000401400048004038030020D3
:1013E0001802002000000140A80200200004004074
:1013F000CDE90A000AA9204601F014FC044608B110
:1014000072B6FEE700F02AFB164917482A4601F09B
:1014100072FF01F081FF154A1548214601F0A8FF2F
:10142000144B154A18602146144801F0A1FF144BD3
:10143000144A18602146144801F09AFF134B144ACD
:1014400018602146134801F093FF134B134A1860AC
:101450002146134801F08CFF124B186001F06EFF1B
:10146000FEE700BFF8010020380300204C77000899
:10147000A50E00080C020020B8770008F10E000845
:101480008403002028770008450F0008F40100209D
:1014900070770008E10F0008100200209477000820
:1014A0002910000814020020034904484FF6FF7376
:1014B0000A2201F008BD00BFF80100203803002017
:1014C00082B00E4B00220092596C41F48041596465
:1014D000596C01F48041009100990192196C41F01E
:1014E000805119641B6C03F080530193019B0F2101
:1014F0006FF0010002B000F0AFBB00BF0038024047
:101500000268094B9A4282B00BD100230193074B2A
:101510005A6C42F001025A645B6C03F001030193C0
:10152000019B02B0704700BF00000140003802403C
:1015300070B514228AB0044600210DEB020004F0BD
:101540006CF92368B3F1804F37D103F50E330024D3
:1015500000941A6C294842F001021A641A6C02F0D5
:1015600001020092009A01941A6B42F001021A6380
:101570001A6B02F001020192019A02941A6B42F076
:1015800002021A631B6B03F002030293029B022602
:101590004FF40043012505A9CDE90536099500F072
:1015A00001FC0823CDE90536CDE907441448099527
:1015B00005A900F0F7FB0AB070BD124A9342FAD1B8
:1015C000114B0E48002103911A6C42F002021A647A
:1015D0001A6C02F002020392039A04911A6B42F011
:1015E00001021A631B6B03F001030493049BC022E6
:1015F0000223CDE90523099305A9DAE7000002409B
:101600000004024000040040003802400268094B18
:101610009A4282B00BD100230193074B5A6C42F0DF
:1016200002025A645B6C03F002030193019B02B057
:10163000704700BF000401400038024010B5044666
:1016400088B01422002103A804F0E7F823681A4A9E
:10165000934218D100230193184B19481A6B42F09A
:1016600010021A631B6B03F0100301934FF48041C7
:10167000019B0223CDE903130123079303A900F083
:1016800091FB08B010BD0F4A9342FAD10023029398
:101690000A4B0D481A6B42F004021A631B6B03F0ED
:1016A00004030293029BC0220223CDE903230323F8
:1016B000079303A9E3E700BF0000014000380240A0
:1016C00000100240000401400008024010B504462A
:1016D00088B01422002103A804F09FF82268184B58
:1016E0009A422BD103F5F833002401941A6C154863
:1016F00042F480221A641A6C02F480220192019A48
:1017000002941A6B42F004021A631B6B03F0040389
:1017100002934FF44062029B0223CDE9032303218D
:101720000723CDE9061303A900F03CFB272022463E
:10173000052100F091FA272000F0C0FA08B010BD92
:101740000048004000080240FEE7FEE7FEE7FEE733
:10175000FEE7704708B500F047FA02F009FE0128DD
:1017600003D0BDE8084003F015B908BD014801F0F9
:101770005FBC00BF380300200120704708B504F0AB
:101780009FF8162303604FF0FF3008BD08B504F042
:1017900097F816230360FEE770B50D4614460E4613
:1017A000731B9C4201DC204670BDAFF3008006F83D
:1017B000010BF5E770B50D4614460E46731B9C42AF
:1017C00001DC204670BD16F8010BAFF30080F5E791
:1017D0004FF0FF3070474FF400534B6000207047CC
:1017E00001207047002070470B4A116810B503466E
:1017F00009B90A491160106809490A4C0344091BD8
:101800008B4206D904F05CF80C2303604FF0FF30E4
:1018100010BD1360FCE700BF8C0300203052002095
:101820000000022000040000034AD2F8883043F48C
:101830007003C2F88830704700ED00E0DFF834D064
:10184000FFF7F2FF0C480D490D4A002302E0D4587F
:10185000C4500433C4188C42F9D30A4A0A4C0023FA
:1018600001E013600432A242FBD304F02FF8FFF72B
:1018700043FC70470000022000000020D801002037
:10188000EC850008D80100202C520020FEE7000063
:1018900070B50A46044601B101221348124E4FF4B6
:1018A000807100F059FB082500222021304600F00D
:1018B00053FB23064CBF012200224021304600F09A
:1018C0004BFB013D01222021304600F045FB640026
:1018D00015F0FF05E4B2E7D1BDE8704002480122EF
:1018E0004FF4807100F038BB0010024070B50F4E0D
:1018F000B02400212046FFF7CBFF00210846FFF768
:10190000C7FF00211020FFF7C3FF002516F83500A0
:1019100001210135FFF7BCFF802DF7D10134E4B27E
:10192000B82C06F10106E4D170BD00BF9003002081
:101930000023084810B41C460022C11801F83240A8
:101940000132802AFAD10133082BF5D15DF8044B1E
:10195000FFF7CCBF90030020030610B512D43F2937
:1019600010D801F00703C3F1070301249C40C90804
:10197000064BC1F10701C9B203EBC000435C12B1D1
:101980002343435410BD23EA0403FAE790030020E5
:101990002DE9F74F1F46203A1E4B9DF830B0D2B2CA
:1019A00003EB021301931C4B02EB420203EB820395
:1019B0008146884600930C460026B74202D103B008
:1019C000BDE8F08F0C2F0CBF009B019B9D5D04F1C7
:1019D00008035FFA83FA2B0658BFBBFA8BF2214645
:1019E00004F101044CBF5A4652094846E4B2FFF7DD
:1019F000B3FFA4EB08026D00BA42EDB207D109F1C2
:101A000001005FFA80F9C24601365446D5E7A24587
:101A1000E1D1F9E7687C0008F4770008F7B50446DF
:101A20000D46561E012716F8013F0BB903B0F0BD55
:101A30007A2C82BF1035EDB200243A2D03D9FFF77E
:101A400077FF00252C460097204632780C23294644
:101A50000834FFF79DFFE4B2E5E7000010B500F0A1
:101A600089FA404B404C1A6F22F001021A671A6F34
:101A700022F004021A6700F08BFA0022802120462F
:101A800000F06AFA642000F0C1F8012220468021AB
:101A900000F062FA0021AE20FFF7FAFE0021D52007
:101AA000FFF7F6FE00215020FFF7F2FE0021A820EC
:101AB000FFF7EEFE00213F20FFF7EAFE0021D320D2
:101AC000FFF7E6FE00210846FFF7E2FE0021402076
:101AD000FFF7DEFE00218D20FFF7DAFE0021142043
:101AE000FFF7D6FE00212020FFF7D2FE00210220C2
:101AF000FFF7CEFE0021A120FFF7CAFE0021C02083
:101B0000FFF7C6FE0021DA20FFF7C2FE00211220F7
:101B1000FFF7BEFE00218120FFF7BAFE0021EF2073
:101B2000FFF7B6FE0021D920FFF7B2FE0021F12019
:101B3000FFF7AEFE0021DB20FFF7AAFE00213020D8
:101B4000FFF7A6FE0021A420FFF7A2FE0021A62099
:101B5000FFF79EFE0021AF20FFF79AFEBDE8104080
:101B6000FFF7E6BE003802400010024038B50E4BC9
:101B70001A784FF47A73B3FBF2F30C4A05461068F7
:101B8000B0FBF3F000F0A8F8044658B90F2D09D8BF
:101B9000024629464FF0FF3000F05EF8044B204625
:101BA0001D6038BD0120FCE704000020000000207B
:101BB0000800002008B50B4B1A6842F400721A6046
:101BC0001A6842F480621A601A6842F480721A60DD
:101BD000032000F02FF80F20FFF7C8FFFFF770FC7D
:101BE000002008BD003C0240034A044B11681B78EA
:101BF0000B441360704700BF9007002004000020D2
:101C0000014B1868704700BF9007002038B50446A4
:101C1000FFF7F6FF631C1CBF054B1B78054618BF7A
:101C2000E418FFF7EDFF431BA342FAD338BD00BF12
:101C3000040000200749CA6822F4E062030212048B
:101C400003F4E063120C134343F0BF6343F4003327
:101C5000CB60704700ED00E0164B30B5DC68C4F394
:101C60000224C4F10703251D042B28BF0423062DDD
:101C70004FF0FF358CBF033C002405FA03F321EA43
:101C80000303A54022EA0502A340002843EA020319
:101C9000ACBF00F16040084A4FEA0313B8BF00F040
:101CA0000F00DBB2AABF00F56140135480F8003387
:101CB00030BD00BF00ED00E014ED00E0002807DBC0
:101CC000044A4109012300F01F00834042F82130FB
:101CD000704700BF00E100E00138B0F1807F0BD217
:101CE0004FF0E023054A5861F02182F823100020CC
:101CF000072298611A6170470120704700ED00E0EB
:101D000070B50446866DFFF77BFF94F83530022BE3
:101D1000054606D0802363650120002384F8343013
:101D200070BD23681A6822F016021A605A6922F000
:101D300080025A61226C0AB9A26C1AB11A6822F0A8
:101D400008021A601A6822F001021A6023681B68F0
:101D500013F0010308D1E16D3F228A40B2600122F5
:101D600084F835201846D8E7FFF74AFF401B0528BE
:101D7000ECD920230320636584F83500CDE790F883
:101D80003530022B03D08023436501207047026861
:101D9000052380F83530136823F001031360002019
:101DA000704700002DE9F74FDFF8A891674A00233C
:101DB0000D6801249C4004EA050CAC4340F0B1805E
:101DC0004D6805F003044FEA43080326671E06FA30
:101DD00008F6012F6FEA060634D8876807EA060E70
:101DE000CF6807FA08F747EA0E078760476827EACF
:101DF0000C0EC5F300179F4047EA0E074760C768FF
:101E000007EA060E8F6807FA08F747EA0E07022C62
:101E1000C76019D14FEAD30A00EB8A0A03F0070B17
:101E2000DAF820704FEA8B0B4FF00F0E0EFA0BFE14
:101E300027EA0E0E0F6907FA0BF747EA0E07CAF8F2
:101E4000207001E0032CDAD1076804FA08F4374067
:101E50003C4315F4403F046063D04FF0000ACDF8D6
:101E600004A0D9F844603A4C46F48046C9F844606E
:101E7000D9F8446006F480460196019E23F00306DB
:101E800006F1804606F59C3603F0030ED6F808806E
:101E90004FEA8E0E0F2707FA0EF7A04228EA07072F
:101EA00046D004F58064A04244D004F58064A0428A
:101EB00042D004F58064A04240D004F58064A04282
:101EC0003ED004F58064A0423CD004F58064A0427A
:101ED0003AD004F58064A0420CBF0724082404FA19
:101EE0000EF43C43B46094686FEA0C06EF0254BFF2
:101EF00034404CEA04049460D468AF0254BF3440C8
:101F00004CEA0404D4605468AF0354BF34404CEA34
:101F1000040454601468ED0354BF34404CEA0404D4
:101F200014600133102B7FF443AF03B0BDE8F08F92
:101F30005446D4E70124D2E70224D0E70324CEE7B5
:101F40000424CCE70524CAE70624C8E7003C014086
:101F500000000240003802400AB181617047090464
:101F6000FBE7436901EA030221EA030141EA024176
:101F700081617047044B01221A62044B82B01B68D6
:101F80000193019B02B0704700000E4200700040B8
:101F9000044B00221A62044B82B01B680193019B20
:101FA00002B0704700000E42007000402DE9F3417E
:101FB000044640B30368DD0710D4236898075BD458
:101FC00023681A0700F19D8023685B0700F1BD803C
:101FD000A069002840F0248100202CE08D4B9A68F5
:101FE00002F00C02042A07D09A6802F00C02082AB8
:101FF0000BD15B68590208D5864B1B689A03DCD568
:102000006368002BD9D1012015E06368814DB3F5D9
:10201000803F13D12B6843F480332B60FFF7F0FD32
:102020007C4E054633689B03C7D4FFF7E9FD401B90
:102030006428F7D9032002B0BDE8F081B3F5A02FE2
:1020400004D12B6843F480232B60E3E72A6822F451
:1020500080322A602A6822F480222A60002BDDD197
:10206000FFF7CEFD06462B689F03A6D5FFF7C8FDF8
:10207000801B6428F7D9DDE7664B9A6812F00C0FD5
:1020800007D09A6802F00C02082A11D15B685E0240
:102090000ED4604A13689D0702D5E368012BB2D1C4
:1020A0001368216923F0F80343EAC103136087E74B
:1020B000E268594BB2B101221A60FFF7A1FD554DFC
:1020C00006462B68980707D52B68226923F0F8038A
:1020D00043EAC2032B6073E7FFF792FD801B0228DF
:1020E000EFD9A7E71A60FFF78BFD4A4E0546336824
:1020F00099077FF565AFFFF783FD401B0228F6D9EE
:1021000098E76269444B82B10122C3F8802EFFF741
:1021100077FD404E0546736F9F073FF555AFFFF7BC
:102120006FFD401B0228F6D984E7C3F8802EFFF725
:1021300067FD384E0546736F98077FF545AFFFF78B
:102140005FFD401B0228F6D974E7324B1A6C12F07F
:10215000805228D101921A6C42F080521A641B6C92
:1021600003F080530193019B01272C4D2B68D90567
:102170001BD5A368274D012B27D12B6F43F00103FB
:102180002B67FFF73DFD234E054641F28838336F3C
:102190009B0739D5002F3FF41BAF1E4A136C23F069
:1021A0008053136414E70027DFE72B6843F4807340
:1021B0002B60FFF725FD06462B68DA05D9D4FFF71B
:1021C0001FFD801B0228F7D934E7052B04D12B6FA4
:1021D00043F004032B67D0E72A6F22F001022A673D
:1021E0002A6F22F004022A67002BCAD1FFF708FDEC
:1021F00041F2883806462B6F9807CBD5FFF700FDD4
:10220000801B4045F7D915E7FFF7FAFC401B404516
:10221000BDD90FE70038024000004742007000407F
:10222000364DAB6803F00C03082B3DD0344B002235
:1022300002281A662BD1FFF7E3FC06462B689901AA
:102240001FD4D4E907321343626A43EA8213E26A75
:1022500043EA0263A26A5208013A43EA02436B600E
:10226000274B264D01221A66FFF7CAFC04462B684D
:102270009A013FF5B1AEFFF7C3FC001B0228F6D967
:10228000D8E6FFF7BDFC801B0228D7D9D2E6FFF7BE
:10229000B7FC04462B689B017FF59EAEFFF7B0FCB0
:1022A000001B0228F6D9C5E601283FF4C4AE6B68CE
:1022B000E26903F4800191427FF4A5AE216A03F044
:1022C0003F028A427FF49FAE616A47F6C0721A40AD
:1022D000B2EB811F7FF497AEA26A520803F440313B
:1022E000013AB1EB024F7FF48EAEE26A03F0706305
:1022F000B3EB026F3FF470AE85E600BF00380240DA
:1023000000004742134908B58B6803F00C03042B07
:102310001CD0082B1CD14A684B68496813F4800311
:1023200014BF0D480D48C1F3881118BF002302F0F7
:102330003F02A1FB0001FEF737FC064B5B68C3F3CD
:10234000014301335B00B0FBF3F008BD0248FCE73A
:102350000248FAE70038024040787D010024F4008A
:102360002DE9F0410D46044610B90120BDE8F08189
:10237000434B1A6802F007028A4228D321688F076C
:102380002DD4C80740D43E4B1A6802F00702AA4277
:1023900065D8226851076BD4130707D5394A2169DC
:1023A000936823F4604343EAC1039360FFF7AAFFF5
:1023B000344B354A9B68C3F30313D35CD840334B8B
:1023C0001860334B1868FFF7D1FB0020CEE7CAB284
:1023D0001A701B6803F007038B42C6D1CEE7294B66
:1023E00011F0040F1EBF9A6842F4E0529A600E0783
:1023F00042BF9A6842F460429A609A68A06822F0EC
:10240000F00202439A60BCE762681E4B012A1CD1AD
:102410001B6813F4003FA8D01A4EB36823F00303DF
:102420001343B360FFF7ECFB41F288380746B3680B
:10243000626803F00C03B3EB820FA4D0FFF7E0FB5C
:10244000C01B4045F3D9032090E7911E01291B686A
:1024500002D813F0007FDEE713F0020FDBE7EAB2E9
:102460001A701B6803F00703AB427FF47EAF90E75E
:102470000449E0688B6823F4E05303438B608BE7E7
:10248000003C024000380240DC77000800000020D9
:1024900008000020044B054A9B68C3F38223D35CE9
:1024A000034A1068D840704700380240EC770008B3
:1024B00000000020044B054A9B68C3F34233D35C01
:1024C000034A1068D840704700380240EC77000893
:1024D00000000020036A026A22F00102026270B565
:1024E000446882690D6822F073022A438D6823F0E4
:1024F00002032B430E4DA84202D00E4EB04210D123
:10250000CE6823F008033343A84223F0040302D02B
:10251000084DA84205D1D1E9055624F4407435434D
:102520002C43446082614A684263036270BD00BF0D
:102530000000014000040140036A026A22F4807234
:10254000026270B54468C2690D6822F073022A43C2
:102550008D6823F4007343EA0523114DA84203D08C
:1025600005F58065A84214D1CD6823F4006343EAE1
:1025700005230B4DA84223F4806303D005F5806545
:10258000A84206D1D1E9055624F44054354344EA23
:1025900005144460C2614A68C263036270BD00BF33
:1025A00000000140036A026A22F48052026230B5E0
:1025B0004468C2690D6822F4E64242EA05228D6849
:1025C00023F4005343EA0533084DA84203D005F530
:1025D0008065A84204D14D6924F4804444EA8514FE
:1025E0004460C2614A680264036230BD0000014079
:1025F00030B5034690F83E0093F83F2093F84250E0
:1026000093F84340C0B2D2B2EDB2E4B2C1B90128EE
:1026100045D1012D13D1022283F83E2083F84220B8
:102620001A68116A21F001011162116A41F0010179
:1026300011621A68136843F001031360002030BD73
:10264000042911D1012A2AD1012C28D1022283F890
:102650003F2083F843201A68116A21F010011162AB
:10266000116A41F01001E3E7012818D1012AE6D1EF
:10267000012DE4D1012CE2D1022283F83E2083F81F
:102680003F2083F8422083F843201A68116A21F022
:1026900001011162116A41F001011162DCE70120C0
:1026A000CDE70000334A0368904212D0B0F1804F6A
:1026B0000FD0A2F57C4290420BD002F5806290428E
:1026C00007D002F58062904203D002F57842904232
:1026D00019D14A6823F070031343264A904229D047
:1026E000B0F1804F26D0A2F57C42904222D002F574
:1026F000806290421ED002F5806290421AD002F5AC
:102700007842904216D01C4A904213D002F5806263
:1027100090420FD002F5806290420BD0A2F5983221
:10272000904207D002F58062904203D002F58062A9
:10273000904203D1CA6823F4407313434A6923F0DB
:102740008003134303608B68C3620B688362094B89
:10275000984203D003F58063984201D10B6903636B
:10276000012343610369DB0742BF036923F00103CF
:1027700003617047000001400040014010B504466D
:1027800030B390F83D3003F0FF021BB980F83C20D5
:10279000FEF73CFF0223206884F83D30211DFFF73F
:1027A00081FF012384F84630002084F83E3084F80D
:1027B0003F3084F8403084F8413084F8423084F867
:1027C000433084F8443084F8453084F83D3010BDFF
:1027D0000120FCE710B5044630B390F83D3003F01B
:1027E000FF021BB980F83C20FEF78AFE0223206816
:1027F00084F83D30211DFFF755FF012384F8463052
:10280000002084F83E3084F83F3084F8403084F86B
:10281000413084F8423084F8433084F8443084F8FE
:10282000453084F83D3010BD0120FCE7F8B50D4679
:10283000044600284CD090F83D3003F0FF021BB94D
:1028400080F83C20FEF774FE2146022384F83D30D8
:1028500051F8040B836823F4804323F0070383605B
:10286000FFF720FF81682A688369AE69076A114310
:10287000AA6823F4407323F0030342EA06221A43B2
:102880002B69EE691B0143EA0623EE6833432E6A87
:1028900022F47C4222F0FC0243EA063313436E69C1
:1028A0006A68816027F0AA0742EA0612836117432B
:1028B0000123076284F84630002084F83E3084F813
:1028C0003F3084F8423084F8433084F83D30F8BD1E
:1028D0000120FCE7036A026A22F01002026270B56E
:1028E000446882690D6822F4E64242EA05228D6856
:1028F00023F0200343EA0513104DA84203D005F549
:102900008065A84214D1CD6823F0800343EA051303
:102910000A4DA84223F0400303D005F58065A84284
:1029200006D1D1E9055624F44064354344EA8504D0
:10293000446082614A688263036270BD00000140A6
:1029400070B590F83C30012B054650D00123082A81
:1029500080F83C303BD007D8C2B1042A27D01846B3
:10296000002385F83C3070BD0C2AF8D10068FFF7D1
:1029700019FEC3690A6943F40063C361C36923F4A0
:102980008063C361C36943EA02232EE00068FFF756
:10299000A1FD83690A6943F008038361836923F019
:1029A000040383618369134383610020D8E70068CF
:1029B000FFF790FF83690A6943F4006383618369C9
:1029C00023F480638361836943EA0223ECE70068B0
:1029D000FFF7B2FDC3690A6943F00803C361C36925
:1029E00023F00403C361C3691343C361DDE702201D
:1029F000B9E710B58468114324F47F4441EA032306
:102A00002343836010BD38B590F83C30012B044659
:102A10004FF0020300F08E80012280F83D3080F8F4
:102A20003C200068836823F47F4323F077038360AE
:102A30000B68602B4FD032D8402B64D016D8202B97
:102A40000DD00AD833F0100109D0012384F83D30AD
:102A5000002384F83C30104638BD302BF5D1826815
:102A600022F07002134343F0070328E0502BECD10F
:102A70004A68CD68016A036A23F00103036283692F
:102A800021F00A0123F0F00343EA05130A438361AE
:102A90000262836823F0700343F057030FE0B3F53D
:102AA000805F0DD0B3F5005F0CD0702BCDD1CB681B
:102AB000D1E90121FFF79DFF836843F0770383602D
:102AC0000022C2E7CB68D1E90121FFF792FF8368BA
:102AD00043F48043F3E7036A026A4D68C96822F051
:102AE00010020262826923F0A00322F4704243EADA
:102AF000051342EA013282610362836823F07003A6
:102B000043F06703DBE74A68CD68016A036A23F094
:102B100001030362836921F00A0123F0F00343EA11
:102B200005130A4383610262836823F0700343F054
:102B30004703C4E71A468EE7036A01F01F0110B588
:102B400001248C4023EA04030362036A8A401A4387
:102B5000026210BD08B529B990F83E30012B18D09B
:102B600001202CE004290DD190F83F30013B18BF23
:102B70000123002BF4D104294FF0020320D180F867
:102B80003F3009E008290CBF90F8403090F8413000
:102B9000ECE7022380F83E3000680122FFF7CCFF0B
:102BA0001C4A904213D01C4B984210D0B0F1804F79
:102BB00014D1836803F00703062B26D1002008BD3B
:102BC00008290CBF80F8403080F84130E4E7436CBE
:102BD000904243F400434364EBD0E7E70F4B984245
:102BE000E7D003F580639842E3D003F58063984211
:102BF000DFD003F578439842DBD003F57053984259
:102C0000D7D0A3F594339842D3D0036843F001039F
:102C10000360D3E7000001400004014000040040CD
:102C2000FFF798BF30B590F83C30012B4FF002030E
:102C300032D080F83D3003680D685C689A6824F0F3
:102C400070042C435C60154CA3421AD0B3F1804F42
:102C500017D0A4F57C44A34213D004F58064A342AA
:102C60000FD004F58064A3420BD004F57844A3424E
:102C700007D004F57054A34203D0A4F59434A342C2
:102C800004D1496822F080020A439A60012380F847
:102C90003D30002380F83C30184630BD0000014034
:102CA00090F83C30012B1FD0CB688A6823F4407326
:102CB00013434A6823F4806313430A6823F40063D0
:102CC00013430A6923F4805313434A6923F40053DE
:102CD0001343CA6923F480431343026853640023F7
:102CE00080F83C301846704702207047026802F1B5
:102CF0000C0353E8003F23F490730C3242E8003198
:102D000002680029F2D102F1140353E8003F23F0D6
:102D1000010302F1140C4CE800310029F3D1036BDC
:102D2000012B0BD102F10C0353E8003F23F01003F9
:102D300002F10C0C4CE800310029F3D1202380F87B
:102D400042300023036370470268C168136923F4AB
:102D500040530B4370B51361054683680069D16821
:102D6000034368690343E86921F4164121F00C012B
:102D700003430B43D3605369A96923F440730B43A6
:102D800053611F4B9A4203D003F580639A4223D1CB
:102D9000FFF790FBEB691921B3F5004FD5E9004629
:102DA000A0FB01011BD1B2194FF000035B41FDF7FD
:102DB000FBFE6422B0FBF2F102FB1103DB003233B5
:102DC000B3FBF2F303F007025B0002EB011203F422
:102DD000F8731344A36070BDFFF75CFBDAE7B20041
:102DE000B30FFDF7E1FE6422B0FBF2F102FB110329
:102DF0001B013233B3FBF2F303EB0113EAE700BF2D
:102E000000100140F7B505460C4617461E462A68D5
:102E1000136834EA030301D1002021E0701CF7D0CD
:102E2000FEF7EEFEC01B86421CD3DEB12B68DA68CB
:102E30005107ECD5802CEAD0402CE8D01A68120754
:102E4000E5D5002401941A6801925B680193284635
:102E5000019BFFF74BFF08236B6485F8404001207E
:102E600003B0F0BD0320FBE710B5044648B390F86B
:102E7000413003F0FF021BB980F84020FEF726FC2A
:102E80002268242384F84130D36823F40053D360AC
:102E90002046FFF759FF23681A6922F490421A610D
:102EA0005A6922F02A025A61DA6842F40052DA6062
:102EB00000202023606484F8413084F8423060634D
:102EC00010BD0120FCE7F7B5174690F841200093AC
:102ED000202A04460E4640D1002940D0002F3ED083
:102EE00021220025456480F84120FEF789FEA16873
:102EF000009BA784B1F5805F0246E78403D1216976
:102F000009B935460E46E18C89B249B940212046BF
:102F1000FFF778FF202384F8413068B903B0F0BD93
:102F200080212046CDE90023FFF76CFFDDE9002377
:102F300020B1202384F841300320EFE720684EB908
:102F400035F8021BC1F308014160E18C013989B2F7
:102F5000E184D8E716F8011BF6E70220DEE701203E
:102F6000DCE77047704708B5806B0023C385C384D6
:102F7000FFF7F8FF08BD704790F84230222B07B5E5
:102F800042D18168836A0268B1F5805F3FD10169EF
:102F900000293FD15268C2F3080223F8022B836252
:102FA000C38D013B9BB2C385002B2DD10268D16834
:102FB00021F02001D160D16821F48071D160516984
:102FC00021F001015161202280F842204363026B0D
:102FD000012A026828D1036302F10C0353E8003F81
:102FE00023F0100302F10C0C4CE800310029F3D15E
:102FF0001368DB0605D501911368019353680193AB
:10300000019B818DFFF7B7FF03B05DF804FB39B971
:10301000016929B95268D2B21A70836A0133BEE7D6
:10302000526802F07F02F7E7FEF73EFAECE7000095
:1030300003681A6873B51607D9685D69044608D134
:10304000960668D58D0666D502B0BDE87040FFF7DC
:1030500093BF05F0010001F4907505435BD0D607DE
:1030600005D5CD0542BF636C43F00103636453078C
:1030700004D518B1636C43F002036364960704D56A
:1030800018B1636C43F004036364150707D501F0BE
:10309000200303431EBF636C43F008036364636C47
:1030A000002B32D0920604D58B0602D52046FFF7BE
:1030B00063FF26687369626C03F0400302F0080244
:1030C00053EA0205204622D0FFF710FE73695E0620
:1030D00018D5226802F1140353E8003F23F040039F
:1030E000143242E800310029F3D1E06B50B1744B47
:1030F0000365FEF744FE40B1E06B036D02B0BDE82E
:10310000704018472046FFF72DFF02B070BDFFF753
:1031100029FF6564F9E7206B012840F09580D5060A
:1031200040F19280C80640F18F80002201921A6817
:1031300001925A680192019A5A6952064ED5E16B82
:103140000A68526892B2002ADFD0A08D9042DCD982
:10315000E285CA69B2F5807F36D003F10C0252E8ED
:10316000002F22F4807203F10C0040E800210029B6
:10317000F3D103F1140252E8002F22F0010203F10F
:10318000140040E800210029F3D103F1140252E8B1
:10319000002F22F0400203F1140040E80021002932
:1031A000F3D1202284F84220216303F10C0252E87B
:1031B000002F22F0100203F10C0040E8002100294A
:1031C000F3D1E06BFEF79CFD02236363E38DA18DD9
:1031D000C91A89B22046FFF7CEFE96E7E28DE08D50
:1031E000A18D80B292B200288FD0891A89B20029AD
:1031F0008BD003F10C0252E8002F22F4907203F1FD
:103200000C0545E800200028F3D103F1140252E830
:10321000002F22F0010203F1140545E800200028E8
:10322000F3D1202284F84220206303F10C0252E8FB
:10323000002F22F0100203F10C0545E800200028C1
:10324000F3D102236363C5E7160628D50D0626D5FC
:1032500094F84120212A7FF458AFA168226AB1F581
:10326000805F17D12169A9B932F8021BC1F30801A7
:1032700059602262E28C013A92B2E284002A7FF421
:1032800044AFDA6822F08002DA60DA6842F0400285
:10329000DA603AE7511C216212785A60EAE7500678
:1032A0007FF533AF4A067FF530AFDA6822F040028F
:1032B000DA60202384F841302046FFF752FE24E7ED
:1032C000672F0008C2850023828502694364222398
:1032D00080F84230816203681AB1DA6842F4807281
:1032E000DA605A6942F001025A61DA6842F020025B
:1032F000DA600020704770B490F84260202E06D14A
:1033000041B13AB10024046370BCFFF7DBBF022077
:1033100070BC70470120FBE7EFF305832BB9064B28
:10332000186828B901221A6070476FF005007047CD
:103330004FF0FF30704700BFF009002010B5EFF3E9
:1033400005845CB9084B1A68012A0AD1074AD47768
:1033500002221A6000F086FD204610BD6FF00500C5
:10336000FBE74FF0FF30F8E7F009002000ED00E048
:10337000F0B587B00B4600210591EFF30584CCB979
:10338000C0B16AB395698D4208BF1825691E3729F7
:10339000AC462AD85168C90727D456696EB1B4081B
:1033A000D2E9027E116857B1BEF15B0F02D91269F2
:1033B00002B1E6B9059807B0F0BD8024F0E7BEF190
:1033C000000FF7D11269002AF4D105AACDE900C295
:1033D000A2B200F01AFD01281CBF00230593E9E703
:1033E00011464FF0180C8024EFE72046E3E7CDE9C3
:1033F00001270095224600F0D0FC0590DAE710B5D1
:10340000EFF3058424B910B100F08AFE204610BD08
:103410006FF00500FBE70000034B0360034B0B60FC
:1034200080231360704700BF940900209407002098
:10343000034B0360034B0B604FF4807313607047C2
:10344000F40D0020F409002000F108034FF0FF32D2
:10345000C0E9022343600361002303607047002337
:103460000361704743684B609A688A609A6851604C
:1034700099600368086101330360704730B50C68D8
:10348000631C0AD103695A684A6091608B60596075
:10349000036808610133036030BD00F10802134680
:1034A00052681568A542FAD9EDE7D0E9011203691F
:1034B0008A6051605968814208BF5A6000220261E7
:1034C0001A68013A1A601868704710B5044601F08E
:1034D000F9F9A46B01F016FAB4FA84F0400910BDB2
:1034E000F8B51546026C866B044652B9076847BBAF
:1034F000806800F04DFFA76005460136A6632846A8
:10350000F8BD65B9406802F010FA6368226C134494
:10351000A26863609342F0D323686360EDE7C068FC
:1035200002F003FA226CE36851429B1A2268E360BE
:1035300093423EBFA3685B18E360022D01D116B130
:10354000013E0025D9E73546D7E7034610B41A6C8B
:1035500008466AB1DC68996814448C4228BF19682F
:10356000DC6028BFD960D9685DF8044B02F0DDB992
:103570005DF8044B704770B5044601F0A3F994F868
:10358000455004F124066DB2002D14DCFF2384F8AD
:10359000453001F0B7F901F095F994F8445004F181
:1035A00010066DB2002D12DCFF2384F84430BDE814
:1035B000704001F0A7B9636A002BE7D0304600F0F5
:1035C00045FE08B100F0CEFE013D6DB2DCE7236997
:1035D000002BE9D0304600F039FE08B100F0C2FE01
:1035E000013D6DB2DEE738B50D46044640B94FF0F7
:1035F000500383F31188BFF36F8FBFF34F8FFEE744
:1036000001F060F9D4E90F31226862604B43D018B1
:103610005B1A1A44A060FF230020A063E26084F8D4
:10362000443084F84530A5B9236973B104F1100022
:1036300000F00CFE48B14FF0E0234FF08052C3F889
:10364000042DBFF34F8FBFF36F8F01F05BF90120A3
:1036500038BD04F11000FFF7F7FE04F12400FFF776
:10366000F3FEF2E713B51C4640B94FF0500383F365
:103670001188BFF36F8FBFF34F8FFEE743B94FF051
:10368000500383F31188BFF36F8FBFF34F8FFEE7B3
:103690004AB191B94FF0500383F31188BFF36F8F94
:1036A000BFF34F8FFEE741B14FF0500383F3118812
:1036B000BFF36F8FBFF34F8FFEE750230193019B42
:1036C000502B08D04FF0500383F31188BFF36F8F56
:1036D000BFF34F8FFEE7002908BF2246019B2260FF
:1036E0000123C4E90F0184F8463019462046FFF74C
:1036F0007AFF9DF8103084F84C30204602B010BD9F
:103700002DE9F04385B0884601921F46044640B932
:103710004FF0500383F31188BFF36F8FBFF34F8FC8
:10372000FEE751B9036C43B14FF0500383F31188A6
:10373000BFF36F8FBFF34F8FFEE7022F0BD1E36B09
:10374000012B08D04FF0500383F31188BFF36F8F24
:10375000BFF34F8FFEE700F00BFE064650B9019B0A
:103760004BB14FF0500383F31188BFF36F8FBFF35A
:103770004F8FFEE700264FF0000937E0019D1DB98D
:1037800001F0C0F8002052E016B902A800F0A2FD36
:1037900001F0B8F800F0ACFB01F094F894F8443074
:1037A000FF2B08BF84F8449094F84530FF2B08BFE6
:1037B00084F8459001F0A6F801A902A800F096FD52
:1037C00000284AD101F07EF8A26BE36B9A4231D116
:1037D00001F098F8019904F1100000F0FFFC204678
:1037E000FFF7C9FE00F028FC60B3012601F06AF87B
:1037F000A26BE36B9A4201D3022FBFD13A464146F6
:103800002046FFF76DFE636A1BB104F1240000F04F
:103810001DFD48B14FF0E0234FF08052C3F8042D56
:10382000BFF34F8FBFF36F8F01F06CF8012005B02D
:10383000BDE8F08301F066F82046FFF79CFE00F03B
:10384000FBFBD2E74FF0E0234FF08052C3F8042D8A
:10385000BFF34F8FBFF36F8FC7E72046FFF78BFE95
:1038600000F0EAFB8EE72DE9F843894690461F46B3
:10387000044640B94FF0500383F31188BFF36F8FB4
:10388000BFF34F8FFEE751B9036C43B14FF05003C4
:1038900083F31188BFF36F8FBFF34F8FFEE7022FC3
:1038A0000BD1E36B012B08D04FF0500383F3118849
:1038B000BFF36F8FBFF34F8FFEE701F019F9EFF3FE
:1038C00011864FF0500383F31188BFF36F8FBFF35E
:1038D0004F8FA26BE36B9A4201D3022F23D194F84E
:1038E0004550A36B6DB23A4649462046FFF7F8FDB6
:1038F0006B1C13D1636A0BB901200BE004F12400A7
:1039000000F0A4FC0028F7D0B8F1000FF4D001209B
:10391000C8F8000086F31188BDE8F88301356DB260
:1039200084F84550E8E70020F4E72DE9FF410F4611
:103930000192044640B94FF0500383F31188BFF35E
:103940006F8FBFF34F8FFEE751B9036C43B14FF058
:10395000500383F31188BFF36F8FBFF34F8FFEE7E0
:1039600000F006FD064650B9019B4BB14FF05003E5
:1039700083F31188BFF36F8FBFF34F8FFEE70026ED
:103980004FF000083DE0019D1DB900F0BBFF002095
:1039900056E016B902A800F09DFC00F0B3FF00F05D
:1039A000A7FA00F08FFF94F84430FF2B08BF84F88B
:1039B000448094F84530FF2B08BF84F8458000F020
:1039C000A1FF01A902A800F091FC002841D12046E6
:1039D000FFF77BFDB8B3019904F1240000F0FEFB72
:1039E0002046FFF7C8FD00F027FB48B94FF0E02361
:1039F0004FF08052C3F8042DBFF34F8FBFF36F8F8A
:103A0000012600F05FFFA56B002DBCD03946204693
:103A1000013DFFF79AFDA563236973B104F110001E
:103A200000F014FC48B14FF0E0234FF08052C3F88F
:103A3000042DBFF34F8FBFF36F8F00F063FF0120A2
:103A400004B0BDE8F0812046FFF795FD00F0F4FAE0
:103A5000D6E72046FFF78FFD00F0EEFA2046FFF78D
:103A600034FD0028CCD092E710B5074A002352F865
:103A700033402CB942F8331002EBC302506010BD42
:103A80000133082BF3D1FAE7500E002070B504463D
:103A90000D46164600F016FF94F84430FF2B04BF85
:103AA000002384F8443094F84530FF2B04BF0023F2
:103AB00084F8453000F026FFA36B2BB93246294627
:103AC00004F1240000F0A4FB2046BDE87040FFF79D
:103AD00052BD00002DE9F041044600F0F3FE304BEA
:103AE000304E1A68304F01321A603568002D4BD1C4
:103AF00034601B68012B1FD1B84640460135FFF7E3
:103B0000A3FC382D08F11408F7D1DFF8C480274D45
:103B10004046FFF799FC2846FFF796FC2448FFF73C
:103B200093FC2448FFF790FC2348FFF78DFC234BC0
:103B3000C3F80080224B1D60224A136801331360D2
:103B4000214A63641168E36A14208B4200FB03700E
:103B500004F1040188BF1360FFF784FC00F0D2FE7B
:103B60001A4B1B6873B13368DA6AE36A9A4209D266
:103B70004FF0E0234FF08052C3F8042DBFF34F8F76
:103B8000BFF36F8FBDE8F081104B1A68E36A002A1B
:103B9000D2D13268D26A9A4298BF3460CCE700BF73
:103BA000FC120020900E00209C0E00202413002008
:103BB00044130020701300205C130020940E00209A
:103BC000980E0020081300200C130020581300202A
:103BD00010130020F8B5154B154D1C6806462868D3
:103BE00004300F46FFF761FC731C07D137B1296819
:103BF0001048BDE8F8400431FFF734BC2B68A41925
:103C00005C6007D30C4B18682968BDE8F8400431A4
:103C1000FFF734BC094B186829680431FFF72EFC04
:103C2000074B1A68A24288BF1C60F8BD84130020AD
:103C3000900E00205C130020980E0020940E0020AF
:103C400038130020064A13681968064B19B94FF05B
:103C5000FF321A6070471268D268D2685268F8E77B
:103C6000940E00203813002010B590F85930044607
:103C70003BB9006B01F028F82046BDE8104001F088
:103C800023B8012BF9D0022B08D04FF0500383F357
:103C90001188BFF36F8FBFF34F8FFEE710BD000099
:103CA00080B5134C134F144D236873B9134B1B6825
:103CB000012BF8D94FF0E0234FF08052C3F8042DC8
:103CC000BFF34F8FBFF36F8FEDE700F0FBFDFB6895
:103CD000DE68301DFFF7E9FB2B68013B2B60236892
:103CE000013B236000F00EFE3046FFF7BDFFDBE72F
:103CF0000013002070130020FC1200209C0E0020F6
:103D00002DE9F047DDE909844FEA82094A46064673
:103D10000D46206BA5211F4601F07FFD236BA9F105
:103D200004094B4423F00709A5B36B1E04F13302C9
:103D30000F3513F8011F02F8011F09B1AB42F8D18A
:103D4000002384F84330089D372D28BF37254FF0D6
:103D5000000AE562E564201DC4F850A0FFF77FFB70
:103D6000C5F1380504F11800FFF779FBC4F854A039
:103D70002461A561646284F858A03A4631464846F9
:103D800000F074FD2060B8F1000F01D0C8F80040C9
:103D9000BDE8F08784F83450D5E770B586B0DDE92A
:103DA0000B5445B94FF0500383F31188BFF36F8F65
:103DB000BFF34F8FFEE744B94FF0500383F31188F0
:103DC000BFF36F8FBFF34F8FFEE75C260596059E0E
:103DD0005C2E08D04FF0500383F31188BFF36F8F30
:103DE000BFF34F8FFEE72563022584F8595004ADD9
:103DF00001950A9D02940095059EFFF781FF2046DC
:103E0000FFF768FE049806B070BD2DE9F043074641
:103E100085B0900088461646994600F0BDFE0546DE
:103E2000E8B15C2000F0B8FE0446A8B1002380F899
:103E300059300D9B056301930C9B02900093324611
:103E40004B4641463846FFF75BFF2046FFF742FEF0
:103E5000012005B0BDE8F083284600F035FF4FF0A3
:103E6000FF30F6E710B588B0002407AA06A905A818
:103E7000CDE90544FFF7D0FA059B0293069B079A0C
:103E800016491748CDE900432346FFF786FF18B3CC
:103E900000F014FB012814D14FF0500383F3118874
:103EA000BFF36F8FBFF34F8F0E4B4FF0FF321A608F
:103EB0000D4B18600D4B1C6008B0BDE8104000F0C1
:103EC00091BD013008D14FF0500383F31188BFF347
:103ED0006F8FBFF34F8FFEE708B010BD5882000808
:103EE000A13C000838130020581300208413002040
:103EF000024A136801331360704700BF04130020A7
:103F0000014B1868704700BF841300203F4B1B68AB
:103F10002DE9F74F002B73D13D4B1D6801351D6016
:103F2000BDB93C4B1A68126842B14FF0500383F39D
:103F30001188BFF36F8FBFF34F8FFEE7364A1968C2
:103F4000106818601160354A136801331360FFF779
:103F500079FE334E334F3368DFF8D4809D424FF003
:103F6000000411D2D8F80030DB6A14225343FB5806
:103F7000022B2D4B1B6828BF0124002B18BF0124E6
:103F8000204603B0BDE8F08FDFF88890DFF8A4A0EA
:103F9000D9F800301B681BB94FF0FF333360E1E7FD
:103FA000D9F80030DB68D3F80CB0DBF80420954278
:103FB00001D23260D6E70BF1040108460191FFF708
:103FC00074FADBF82820019922B10BF11800FFF7F1
:103FD0006CFA0199DBF82C00DAF8002014239042E7
:103FE00088BFCAF8000003FB0070FFF73BFAD8F85F
:103FF0000010DBF82C20CB6A9A4228BF0124C7E7C7
:104000000A4A1368013313600024B9E7041300203F
:1040100084130020940E0020980E00203C130020F2
:10402000381300209C0E002088130020401300202D
:10403000900E00200C130020F7B5314C236843B9D3
:104040004FF0500383F31188BFF36F8FBFF34F8F8F
:10405000FEE700F037FC2368013B236024682CB1A5
:10406000002400F04FFC204603B0F0BD254B1B6838
:10407000002BF5D0244D254E254F1EE0EB68DC6863
:1040800004F11800FFF711FA211D08460191FFF70E
:104090000CFAE36A326801991420934200FB037022
:1040A00088BF3360FFF7DEF91A4BE26A1B68DB6AF0
:1040B0009A4202D3184B01221A602B68002BDDD1E3
:1040C0000CB1FFF7BFFD154D2C6844B1124E01270E
:1040D000FFF71CFF00B13760013CF9D12C600E4B9B
:1040E0001B68002BBCD04FF0E0234FF08052C3F888
:1040F000042DBFF34F8FBFF36F8F0124B1E700BFD3
:1041000004130020FC120020441300200C13002094
:104110009C0E0020900E00208813002040130020E9
:1041200008B550B94FF0E0234FF08052C3F8042D8A
:10413000BFF34F8FBFF36F8F08BD0A4B196841B1B2
:104140004FF0500383F31188BFF36F8FBFF34F8F8E
:10415000FEE7FFF7CDFEFFF73DFDFFF76DFF0028FF
:10416000E0D0E9E704130020174B1A68174B70B52D
:1041700012B101221A6070BD154D1A602A681549E6
:10418000142606FB02F3C818CC588CB144680833D7
:10419000646844600B449C4204BF6368436014231A
:1041A00003FB02114B68D9680B4B19602A60E2E7E8
:1041B00042B94FF0500383F31188BFF36F8FBFF301
:1041C0004F8FFEE7013ADCE704130020881300203C
:1041D0000C1300209C0E0020900E002010B50C4601
:1041E00040B94FF0500383F31188BFF36F8FBFF3D3
:1041F0004F8FFEE7054B19681831FFF73FF920464E
:104200000121BDE81040FFF7E5BC00BF900E002083
:1042100038B50D46144640B94FF0500383F311886A
:10422000BFF36F8FBFF34F8FFEE7074B196818314D
:10423000FFF718F9002C21460CBF28464FF0FF303D
:10424000BDE83840FFF7C6BC900E0020C36813B528
:10425000DC6844B94FF0500383F31188BFF36F8FCC
:10426000BFF34F8FFEE704F1180108460191FFF7F5
:104270001CF9124B01991B68EBB9211D08460191ED
:10428000FFF713F90E4AE36A10680199834288BF69
:1042900013600C4A142000FB0320FFF7E3F80A4BDD
:1042A000E26A1B68DB6A9A4285BF084B0120002046
:1042B000186002B010BD0648EFE700BF04130020ED
:1042C0000C1300209C0E0020900E0020881300206C
:1042D00044130020034B1B680360034B1B684360BF
:1042E000704700BF3C1300208413002070B50C46BB
:1042F000054640B94FF0500383F31188BFF36F8F29
:10430000BFF34F8FFEE741B94FF0500383F311889D
:10431000BFF36F8FBFF34F8FFEE700F0D3FA0F4B61
:10432000196823685A1C10D00D482E6800686A6806
:10433000864201D08A420FD9881A83420AD95B1A71
:10434000134423602846FFF7C5FF002400F0DAFA83
:10435000204670BD002323600124F7E7841300206A
:104360003C130020014B01221A6070478813002083
:10437000054B1B6833B1054B1868B0FA80F0400953
:10438000400070470120704758130020041300209C
:1043900013B510B9002002B010BD1C4B1C6884423C
:1043A00008D04FF0500383F31188BFF36F8FBFF332
:1043B0004F8FFEE7236D43B94FF0500383F311880D
:1043C000BFF36F8FBFF34F8FFEE7E16AE26C013BF3
:1043D00091422365DED0002BDCD1211D08460191DE
:1043E000FFF763F8E36C0199E362C3F13802A2615D
:1043F000074A1068834288BF1360064A142000FBF6
:104400000320FFF72FF80120C5E700BF900E002022
:104410000C1300209C0E0020F7B5114C00F052FA4E
:104420002568BDB90F4F104E3846FFF70DF83046DE
:10443000FFF70AF80D4B0E4A1F600E4B10211E604D
:104440000A200D4B0095FFF70DF9206010B10B49C4
:10445000FFF70AFB03B0BDE8F04000F053BA00BF1D
:10446000B014002034140020481400208C130020C5
:104470009413002090130020601400205D82000837
:10448000914208B5416000610AD8D31A826993420B
:104490000DD2084B011D1868FEF7F0FF002008BD83
:1044A0009A4201D2994202D2034B011DF3E7012047
:1044B000F5E700BF901300208C13002010B588B0E2
:1044C000FFF7AAFF124B1B68B3B1002407AA06A985
:1044D00005A8CDE90544FEF7ABFF059B0293069BBB
:1044E000019302230093079A0A490B482346FFF7DA
:1044F00054FC0A4B186040B94FF0500383F3118805
:10450000BFF36F8FBFF34F8FFEE7012008B010BDE0
:10451000B01400206282000825460008B414002070
:104520007FB5164604461A4640B94FF0500383F350
:104530001188BFF36F8FBFF34F8FFEE70D4D2868D3
:1045400080B10529CDE9001602940DDCFFF710FFBC
:104550000023022808BF089A286818BF1A4669462F
:10456000FFF7CEF804B070BD00236946FFF77BF972
:10457000F8E700BFB01400202DE9FF47DFF8A08066
:104580000646FFF7BDFCD8F80030834205460BD93C
:10459000214F4FF000093B681A686AB91F4A116839
:1045A00039601360012300E0002328463360C8F817
:1045B000005004B0BDE8F087DB68DC68D3F800A0E9
:1045C000211D08460391FEF770FF236A2046984795
:1045D00094F82830039913F0040FDCD0A3695344F6
:1045E0009A4505D2386863602461FEF747FFD2E739
:1045F0000023CDF80090524619462046FFF790FF61
:104600000028C8D14FF0500383F31188BFF36F8F98
:10461000BFF34F8FFEE700BF8C13002090130020E4
:104620005C1400202DE9F0436E4D6F4E89B02B686D
:10463000D3F80080B8F1000F35D0DB68D3F80080E4
:104640000024FFF755FC04A8FFF796FF049B814662
:10465000002B69D1002C4CD1404550D3FFF7ECFC26
:104660002B68DB68DF68381DFEF71FFF97F82830DE
:1046700058071AD5B96943464A4641443846FFF7B8
:10468000FFFEB0B100942346424621463846FFF76C
:1046900047FF70B94FF0500383F31188BFF36F8F5A
:1046A000BFF34F8FFEE70124CBE723F0010387F828
:1046B00028303B6A384698473068002204A9FFF743
:1046C00034F90028B3D0049B0698002B2FDB069CFE
:1046D0006369002B32D103A8FFF74EFF049B02460B
:1046E000092BE9D8DFE803F02E2E2E575E762E2E0A
:1046F000575E3E4B1B681C68B4FA84F4640930684A
:104700002246A8EB0901FFF7C1F9FFF795FC002845
:10471000D2D14FF0E0234FF08052C3F8042DBFF305
:104720004F8FBFF36F8FC7E7FFF786FCC4E7059B8A
:1047300007999847049B002BBEDBC8E7201DFEF7B6
:10474000B4FEC8E794F82830A16943F0010384F867
:104750002830059B20461944FFF792FE0028ABD075
:10476000236A2046984794F828305907A4D5A269AF
:10477000059900230A44009319462046FFF7D0FE0E
:10478000002899D14FF0500383F31188BFF36F8F46
:10479000BFF34F8FFEE794F8283023F0010384F82D
:1047A000283089E794F8283043F0010384F8283052
:1047B0000599A16141B94FF0500383F31188BFF30C
:1047C0006F8FBFF34F8FFEE7034601442046FFF78C
:1047D00057FE71E794F828309A07DED4204600F09F
:1047E00073FA69E78C130020B014002090130020A6
:1047F00008480068006880F308884FF0000080F3E4
:10480000148862B661B6BFF34F8FBFF36F8F00DFBE
:1048100000BF000008ED00E0DFF80C00016841F483
:10482000700101607047000088ED00E082B0002355
:1048300001930D4B1B68013308D04FF0500383F3F5
:104840001188BFF36F8FBFF34F8FFEE74FF0500318
:1048500083F31188BFF36F8FBFF34F8F019B002B42
:10486000FCD002B0704700BF0C0000204FF08073F6
:1048700040F8043C074B40F80C3C21F001016FF07C
:10488000020340F8081C40F8202C40F8243C44382F
:10489000704700BF2D480008000000000000000025
:1048A000074B19680868B0E8F04F80F30988BFF338
:1048B0006F8F4FF0000080F311887047AFF30080D6
:1048C000900E00204FF0500383F31188BFF36F8FD9
:1048D000BFF34F8F0A4A13680133012B13600ED1C7
:1048E0004FF0E023D3F8043DDBB243B14FF0500367
:1048F00083F31188BFF36F8FBFF34F8FFEE77047CD
:104900000C000020084A136843B94FF0500383F3AA
:104910001188BFF36F8FBFF34F8FFEE7013B13602A
:104920000BB983F3118870470C00002000000000D1
:10493000EFF30980BFF36F8F154B1A681EF0100F4D
:1049400008BF20ED108A20E9F04F10602DE9090022
:104950004FF0500080F31188BFF34F8FBFF36F8F7C
:10496000FFF702FC4FF0000080F3118809BC1968C2
:104970000868B0E8F04F1EF0100F08BFB0EC108AC6
:1049800080F30988BFF36F8F704700BFAFF30080DB
:10499000900E002008B54FF0500383F31188BFF349
:1049A0006F8FBFF34F8FFFF7B1FA28B14FF0E023BD
:1049B0004FF08052C3F8042D002383F3118808BD03
:1049C0004FF0E022002313619361054B4FF47A719D
:1049D0001B68B3FBF1F3013B53610723136170477D
:1049E000000000204FF0E02337B5D3F8001D3A4A0D
:1049F000914208D14FF0500383F31188BFF36F8FBA
:104A0000BFF34F8FFEE7D3F8002D344B9A4208D105
:104A10004FF0500383F31188BFF36F8FBFF34F8FB5
:104A2000FEE72F4B1A78D2B20192FF221A701B7840
:104A30002C4ADBB28DF803309DF8033003F05003AD
:104A40001370294A0723136000219DF80300000614
:104A500003F1FF340CD411B1032B136011D04FF0CC
:104A6000500383F31188BFF36F8FBFF34F8FFEE7BF
:104A70009DF803305B00DBB28DF803300121234643
:104A8000E3E74FF440731360019B154A4FF0E024B5
:104A9000DBB21370D4F8203D43F47003C4F8203D1A
:104AA000D4F8203D43F07043C4F8203DFFF788FF61
:104AB0000E4B00251D60FFF7AFFED4F8343F43F0E6
:104AC0004043C4F8343FFFF793FEFFF74DFBFFF779
:104AD000ADFE284603B030BD71C20F4170C20F4118
:104AE00000E400E0B8140020BC1400200C000020FA
:104AF000EFF305830F2B0ED9114A9B5C114A1278F4
:104B00009A4208D94FF0500383F31188BFF36F8F97
:104B1000BFF34F8FFEE74FF0E0230B4AD3F80C3D75
:104B2000126803F4E063934208D94FF0500383F313
:104B30001188BFF36F8FBFF34F8FFEE7704700BF41
:104B4000F0E300E0B8140020BC14002010B5104BB6
:104B50001A461B688342FBD354681119884201BF6F
:104B60004168104609195160446801198B420CD103
:104B7000084909688B4203D059682144416019688B
:104B80000160904218BF106010BD1946F8E700BFE1
:104B9000D8500020C01400202DE9F0410446FFF752
:104BA000A7F94249424D0B680BBB424A56071FBF4B
:104BB000D01D20F0070002F57052131A0CBF4FF4FD
:104BC0007053024613443C4E083B23F00703002079
:104BD00070603260C3E90000981AC2E900300B60CF
:104BE000364B1860364B18604FF000432B602E6830
:104BF000264255D1002C46D004F1080360071CBFA3
:104C000023F007030833002B4AD02D4F3C689C4209
:104C100046D3294A15686868984204D2D5F800C07E
:104C2000BCF1000F15D10968A94239D02968D2F822
:104C300000801160C21A102A12D9E81841070BD05F
:104C40004FF0500383F31188BFF36F8FBFF34F8F83
:104C5000FEE72A466546DEE742606B60FFF776FFB7
:104C60006A681649A41A1643164A08683C6000236D
:104C70002B6013686E60844203F1010338BF0C603F
:104C8000136008F10804FFF7D7F963070AD04FF063
:104C9000500383F31188BFF36F8FBFF34F8FFEE78D
:104CA0000024F0E72046BDE8F08100BFC0140020DA
:104CB000C4500020C4140020D8500020CC50002044
:104CC000C8500020D050002010B5044690B31A4AB6
:104CD00050F8043C1268134208D14FF0500383F39C
:104CE0001188BFF36F8FBFF34F8FFEE750F8081C9A
:104CF00041B14FF0500383F31188BFF36F8FBFF3BF
:104D00004F8FFEE723EA020340F8043CFFF7F0F878
:104D10000A4A54F8043C1168A4F108000B441360DB
:104D2000FFF714FF064A1368BDE810400133136013
:104D3000FFF782B910BD00BFC4500020C85000204A
:104D4000D45000202DE9FF4755EC104B002D0E46A6
:104D500019462B46BBBF05F100431D4600232D23FA
:104D60000B700D9BDDF830A0914623F02008BCBFEE
:104D700022461446B8F1460F05D0B8F1450F00D1D0
:104D80000136022100E0032103AB019302AB009343
:104D900045EC104B5346324600F05EFEB8F1470F2B
:104DA000074602D119F0010F22D0B8F1460F07EBE8
:104DB000060910D13B78302B0AD10022002320466F
:104DC0002946FBF781FE18B9C6F10106CAF8006052
:104DD000DAF8003099440022002320462946FBF7E8
:104DE00073FE08B1CDF80C903022039B4B4507D3DE
:104DF000039B0E9ADB1B3846136004B0BDE8F087B6
:104E0000591C03911A70F0E7F7B503460029B8BFA3
:104E1000494203F8022BB4BF2D222B2209294270EC
:104E20002ADD0DF1070217460A26944691FBF6F596
:104E300006FB151430340CF8014C0C46632C02F1BF
:104E4000FF322946F1DC3031ACF1020402F8011CDA
:104E5000411C2246BA420AD30DF10902A2EB0C0210
:104E6000BC4288BF00221344181A03B0F0BD12F8E8
:104E7000015B01F8015FEDE7302330318370C170D1
:104E8000031DF1E72DE9F04F2DED028B8DB00C469F
:104E9000DDF8608016461F46054600F0C7FCD0F8D6
:104EA00000A05046FBF7E4F900230A93236805931A
:104EB000D8F8003094F818B0073323F0070303F153
:104EC0000802C8F80020D3E9008929F000430793BD
:104ED000CDF8188008EE100AC4E91289DDE9060150
:104EE0009E4B4FF0FF32FBF721FE88BBDDE9060148
:104EF0009A4B4FF0FF32FBF7FBFD48BB002200232B
:104F000040464946FBF7EAFD10B12D2384F84330B3
:104F1000934A944BBBF1470F94BF904698460323A6
:104F20002361059B23F0040323604FF000090097E1
:104F300033460BAA2146284600F0DAF9013040F04A
:104F400090804FF0FF300DB0BDEC028BBDE8F08FCC
:104F500042464B4640464946FBF7E8FD40B14B46CA
:104F6000002BBCBF2D2384F843307F4A7F4BD1E711
:104F700063680BF0DF0206925A1C3FD10623636080
:104F8000059B616843F48062002303930AABCDE97B
:104F900001B309AB49EC108B009322600DF12303A0
:104FA0002846FFF7CFFE069B0999472B804608D17C
:104FB000C81C02DB6368994241DDABF102035FFA72
:104FC00083FBBBF1650F20D801395A4604F150002C
:104FD0000991FFF719FF0A9A1318012A81462361E4
:104FE00002DC2268D20701D5013323619DF823300A
:104FF000002B9CD02D2384F8433098E7069A472A4B
:10500000BED1002BBCD10123B9E7BBF1660F18D18B
:10501000002963680BDD216113B92268D00702D52E
:1050200001330B442361A1654FF00009DEE713B99A
:105030002268D20701D50233F4E70123F2E74FF0EB
:10504000670B0A9B994205DB23682161D807EAD5E3
:105050004B1CE7E70029D4BFC1F10202012213442F
:10506000E0E723685A0507D42369424631462846BB
:10507000B84701302CD164E7BBF1650F40F2E08006
:10508000D4E9120100220023FBF71EFD002834D0D2
:10509000374A012331462846B84701303FF451AF23
:1050A000DDE909239A4202DB2368D80710D518EE00
:1050B000103A524631462846B84701303FF441AFD6
:1050C0004FF0000804F11A090A9B013B434509DC33
:1050D00023689B0700F10781E0680B9B9842B8BFEB
:1050E000184630E701234A4631462846B847013082
:1050F0003FF427AF08F10108E6E7099B002B39DCF4
:105100001B4A012331462846B84701303FF419AF06
:10511000DDE90932134302D12368D907D8D518EE47
:10512000103A524631462846B84701303FF409AF9D
:105130004FF0000904F11A0A099B5B424B4501DC60
:105140000A9B92E70123524631462846B847013070
:105150003FF4F7AE09F10109EEE700BFFFFFEF7F73
:105160006A8200086E820008728200087682000857
:105170007A8200080A9AA36D9A42A8BF1A46002AAA
:10518000914637DC4FF0000B29EAE97904F11A0265
:10519000A36D0593A3EB09035B4533DCDDE909232C
:1051A0009A423BDB2368DA0738D4DDE90932A2EB07
:1051B0000309059BD21A9145A8BF9146B9F1000F8A
:1051C00035DC4FF0000829EAE97904F11A0ADDE933
:1051D00009239B1AA3EB090343457FF779AF01230A
:1051E000524631462846B84701303FF4AAAE08F18E
:1051F0000108ECE71346314642462846B8470130DD
:10520000C0D19EE60123314628460592B8470130B9
:105210003FF497AE059A0BF1010BB9E718EE103A7F
:10522000524631462846B8470130BED189E6059A34
:105230004B46424431462846B8470130C1D180E64A
:105240000A9A012A01DCDB073AD50123424631469E
:105250002846B84701303FF474AE18EE103A524673
:1052600031462846B84701303FF46BAED4E912010D
:1052700000220023DDF828A0FBF726FCD8B90AF1AC
:10528000FF3308F1010231462846B84701300ED1FC
:1052900057E60123524631462846B84701303FF4CD
:1052A00050AE08F101080A9B013B4345F1DC4B4637
:1052B00004F15002DAE64FF0000804F11A0AF2E7AE
:1052C00001234246DFE701234A4631462846B847D4
:1052D00001303FF436AE08F10108E3680B995B1A20
:1052E0004345F0DCF8E64FF0000804F11909F4E753
:1052F0002DE9F047164699468A680B69DDF820804B
:105300009342B8BF1346336091F8432007460C46DA
:105310000AB1013333602368990642BF3368023310
:105320003360256815F0060506D104F1190AE36813
:1053300032689B1AAB4226DC94F84320131E226885
:1053400018BF012392062BD404F143024946384684
:10535000C04701301ED02368226903F00603042BE6
:1053600002BFE5683368ED1AA3680CBF25EAE5754E
:1053700000259342C4BF9B1AED1800261A34B5428B
:105380001AD1002008E00123524649463846C0475A
:10539000013003D14FF0FF30BDE8F0870135C6E79B
:1053A000E1185A1C302081F84300224494F845103B
:1053B00082F843100233C7E70123224649463846A4
:1053C000C0470130E6D00136D9E700002DE9FF479C
:1053D0000F7E0C9D782F914680460C469A4601F12F
:1053E000430207D8622F0AD8002F00F0D480582F2C
:1053F00000F0C08004F1420584F842703AE0A7F161
:105400006303152BF6D801A151F823F06554000869
:1054100079540008F5530008F5530008F5530008C7
:10542000F553000879540008F5530008F5530008B7
:10543000F5530008F55300087D550008A5540008F1
:1054400037550008F5530008F55300089F5500082C
:10545000F5530008A5540008F5530008F55300085B
:105460003F5500082B681A1D1B682A6004F142058D
:1054700084F8423001239FE020682B68070603F17F
:105480000401296001D51E6803E04606FBD5B3F987
:105490000060002E03DA2D23764284F843305A4808
:1054A0000A2312E02B682068191D2960050601D522
:1054B0001E6802E04106FBD51E8853486F2F0CBFC3
:1054C00008230A23002184F843106568A560002D95
:1054D000A2BF216821F0040121600EB9002D4BD03C
:1054E0001546B6FBF3F103FB1167C75D05F8017DB7
:1054F0003746BB420E46F4D9082B0BD12368DE0792
:1055000008D5236961689942DEBF302305F8013C64
:1055100005F1FF35521B2261CDF800A04B4603AACE
:1055200021464046FFF7E4FE01304AD14FF0FF30FC
:1055300004B0BDE8F087236843F0200323603348BC
:10554000782784F84570236829681F0651F8046B92
:1055500002D45F0648BFB6B2DF0748BF43F020035E
:10556000296048BF23601EB9236823F0200323600D
:105570001023A7E72448E4E71546BDE72B68266813
:105580006169181D286035061B6801D5196002E0A5
:105590007006FBD51980002323611546BCE72B68F4
:1055A0001A1D2A601D68626800212846FAF710FE5D
:1055B00008B1401B606063682361002384F84330B6
:1055C000AAE723692A4649464046D0470130ADD074
:1055D00023689B0713D4E068039B9842B8BF184622
:1055E000A6E70123324649464046D04701309DD0C8
:1055F0000135E36803995B1AAB42F2DCEBE7002567
:1056000004F11906F5E700BF7C8200088D820008CE
:10561000002310B50446C0E90033C0E904338360B9
:1056200081814366C2818361194608225C3000F0A3
:10563000F4F80D4B63620D4BA3620D4BE3620D4B0F
:1056400023630D4B24629C4206D003F1680294420E
:1056500002D0D0339C4205D104F15800BDE810407F
:1056600000F058B910BD00BF95570008B7570008A3
:10567000EF57000813580008E0500020024A034981
:10568000034800F069B800BF100000204170000816
:105690001C00002041680C4B994210B5044601D013
:1056A00001F0CEFCA168094B994202D0204601F0DE
:1056B000C7FCE168064B994204D02046BDE8104083
:1056C00001F0BEBC10BD00BFE050002048510020DA
:1056D000B051002010B50B4B0B4C0C4A1A60204601
:1056E00000220421FFF794FF04F168000122092140
:1056F000FFF78EFF04F1D0000222BDE81040122116
:10570000FFF786BF18520020E05000207D560008A9
:10571000014800F000B900BF21520020014800F00C
:10572000FBB800BF2152002010B50446FFF7F0FF80
:10573000236A1BB1BDE81040FFF7F0BF044B2362A2
:10574000044B1B68002BF5D1FFF7C4FFF2E700BF45
:1057500095560008185200202DE9F8430746884660
:1057600014460026D4E90195B9F1010905D524684C
:10577000002CF7D13046BDE8F883AB89012B07D95F
:10578000B5F90E30013303D029463846C0470643E9
:105790006835E9E710B50C46B1F90E1000F06CF869
:1057A0000028ABBF636DA3891B1823F48053ACBFE3
:1057B0006365A38110BD2DE9F0411F468B89DB0590
:1057C00005460C46164605D5B1F90E1002230022F7
:1057D00000F040F8A389B4F90E1023F48053A3819C
:1057E00032463B462846BDE8F04100F057B810B5B8
:1057F0000C46B1F90E1000F02DF8431CA38915BF1B
:10580000606523F4805343F48053A38118BFA381C0
:1058100010BDB1F90E1000F00DB8024403469342DA
:1058200000D1704703F8011BF9E7000000487047FA
:105830005C01002038B5064D0023044608462B6065
:10584000FBF7C6FF431C02D12B6803B1236038BDB0
:105850001C52002038B5074D044608461146002268
:105860002A601A46FBF7BEFF431C02D12B6803B126
:10587000236038BD1C52002038B5074D0446084649
:10588000114600222A601A46FBF786FF431C02D10C
:105890002B6803B1236038BD1C52002038B5074D7A
:1058A00004460846114600222A601A46FBF782FF8A
:1058B000431C02D12B6803B1236038BD1C52002069
:1058C000014B1868704700BF6800002070B50D4D8F
:1058D0000D4C641BA4100026A64209D10B4D0C4CA4
:1058E00001F0F4FE641BA4100026A64205D170BD91
:1058F00055F8043B98470136EEE755F8043B9847C6
:105900000136F2E7E4850008E4850008E485000834
:10591000E8850008704770477047034611F8012B6F
:1059200003F8012B002AF9D170470A44914200F193
:10593000FF3300D1704710B511F8014B03F8014F48
:105940009142F9D110BD2DE9F74F03690C69A342CB
:1059500007467EDB013C01F1140800F1140505EB5C
:105960008403019358F8243055F8242001339A42D7
:105970004FEA840B08EB8409B2FBF3F631D34FF006
:10598000000E4046AC46F24650F8042B93B206FB9C
:1059900003E34FEA124E1A0C9BB2AAEB0303DCF8A6
:1059A00000A013FA8AF306FB0E220093009B4FEA35
:1059B000124E92B2C2EB1A4202EB2342BDF8003003
:1059C000814543EA02434CF8043B4FEA224ADBD2CA
:1059D00055F80B302BB9019B043B9D421A462CD342
:1059E0003C61384601F0A6F9002822DB0136294641
:1059F000002058F8042BD1F800C093B2C31A120C3F
:105A000013FA8CF3C2EB1C4202EB23429BB243EA33
:105A10000243C14541F8043B4FEA2240E9D255F820
:105A2000242005EB840322B9043B9D421A460AD385
:105A30003C61304603B0BDE8F08F1268043B002A99
:105A4000CED1013CC9E71268043B002AF0D1013CE9
:105A5000EBE70020EEE700002DE9F04F2DED048B81
:105A6000C56993B08DED020B57EC106BDDF88080AB
:105A7000079104460A920D9375B9102000F02AFE92
:105A80000246E06120B9AE4BEF21AE4801F010FBB9
:105A9000C0E901550560C560E369196851B15A68EC
:105AA0004A60012393408B60204600F007FFE369C2
:105AB00000221A603B1EBBBF23F000430393002368
:105AC0000122ACBFC8F80030C8F800209E4BDDF8BA
:105AD0000C8033EA08031BD10D9A42F20F73136056
