:020000040800F2
:1000000000000220D523000825230008272300082C
:10001000292300082B2300082D23000800000000DE
:10002000000000000000000000000000E15F000888
:100030002F23000800000000716000083123000831
:10004000252400082524000825240008252400086C
:100050002524000849230008252400082524000839
:10006000252400082524000825240008252400084C
:10007000252400082524000825240008252400083C
:10008000252400082524000825240008252400082C
:10009000252400082524000825240008252400081C
:1000A0004D230008592300082524000825240008B2
:1000B00025240008252400085D23000825240008C5
:1000C00025240008252400082524000825240008EC
:1000D0002524000825240008252400086923000899
:1000E00025240008252400082524000825240008CC
:1000F000252400087523000825240008252400086D
:1001000025240008252400082524000825240008AB
:10011000252400082524000825240008252400089B
:10012000252400082524000825240008252400088B
:10013000252400082524000825240008252400087B
:10014000252400082524000825240008252400086B
:10015000252400082524000825240008252400085B
:10016000252400082524000825240008252400084B
:10017000252400082524000825240008000000008C
:080180002524000825240008D5
:1001900010B5054C237833B9044B13B10448AFF3C1
:1001A00000800123237010BD6800002000000000C3
:1001B000786E000808B5034B1BB103490348AFF341
:1001C000008008BD000000006C000020786E000870
:1001D00001F0FF01102A2BDB10F0070F08D010F8F8
:1001E000013B013A8B422DD010F0070F42B3F6D1FC
:1001F000F0B441EA012141EA014122F007047FF015
:1002000000070023F0E80256083C85EA010586EA6B
:10021000010685FA47F5A3FA87F586FA47F6A5FAA7
:1002200087F68EB9EED1F0BC01F0FF0102F00702B3
:1002300032B110F8013B013A83EA010313B1F8D15E
:100240000020704701387047002D06BF354603383F
:10025000073815F0010F07D1013015F4807F02BF78
:10026000013015F4C03F0130F0BC0138704700BFC9
:1002700081F0004102E000BF83F0004330B54FEA57
:1002800041044FEA430594EA050F08BF90EA020FC4
:100290001FBF54EA000C55EA020C7FEA645C7FEA57
:1002A000655C00F0E2804FEA5454D4EB5555B8BF7A
:1002B0006D420CDD2C4480EA020281EA030382EAEB
:1002C000000083EA010180EA020281EA0303362D7D
:1002D00088BF30BD11F0004F4FEA01314FF4801C50
:1002E0004CEA113102D0404261EB410113F0004F62
:1002F0004FEA03334CEA133302D0524263EB430319
:1003000094EA050F00F0A780A4F10104D5F1200EB6
:100310000DDB02FA0EFC22FA05F2801841F1000111
:1003200003FA0EF2801843FA05F359410EE0A5F1E5
:1003300020050EF1200E012A03FA0EFC28BF4CF016
:10034000020C43FA05F3C01851EBE37101F00045CC
:1003500007D54FF0000EDCF1000C7EEB00006EEBD9
:100360000101B1F5801F1BD3B1F5001F0CD3490863
:100370005FEA30004FEA3C0C04F101044FEA4452BA
:1003800012F5800F80F09A80BCF1004F08BF5FEA41
:10039000500C50F1000041EB045141EA050130BD21
:1003A0005FEA4C0C404141EB0101013C28BFB1F533
:1003B000801FE9D291F0000F04BF01460020B1FA7E
:1003C00081F308BF2033A3F10B03B3F120020CDA51
:1003D0000C3208DD02F1140CC2F10C0201FA0CF02F
:1003E00021FA02F10CE002F11402D8BFC2F1200C94
:1003F00001FA02F120FA0CFCDCBF41EA0C0190404A
:10040000E41AA2BF01EB0451294330BD6FEA040492
:100410001F3C1CDA0C340EDC04F11404C4F120027D
:1004200020FA04F001FA02F340EA030021FA04F38F
:1004300045EA030130BDC4F10C04C4F1200220FAE6
:1004400002F001FA04F340EA0300294630BD21FA24
:1004500004F0294630BD94F0000F83F4801306BFEA
:1004600081F480110134013D4EE77FEA645C18BFDE
:100470007FEA655C29D094EA050F08BF90EA020F75
:1004800005D054EA000C04BF1946104630BD91EA6D
:10049000030F1EBF0021002030BD5FEA545C05D170
:1004A0004000494128BF41F0004130BD14F58004AF
:1004B0003CBF01F5801130BD01F0004545F0FE4123
:1004C00041F470014FF0000030BD7FEA645C1ABF58
:1004D000194610467FEA655C1CBF0B46024650EA8F
:1004E000013406BF52EA033591EA030F41F40021BB
:1004F00030BD00BF90F0000F04BF0021704730B541
:100500004FF4806404F132044FF000054FF0000115
:1005100050E700BF90F0000F04BF0021704730B5D6
:100520004FF4806404F1320410F0004548BF4042AB
:100530004FF000013EE700BF42004FEAE2014FEA00
:1005400031014FEA02701FBF12F07F4393F07F4FDB
:1005500081F06051704732F07F4208BF704793F0DE
:100560007F4F04BF41F40021704730B54FF46074F1
:1005700001F0004521F000411CE700BF50EA0102F4
:1005800008BF704730B54FF000050AE050EA01029D
:1005900008BF704730B511F0004502D5404261EB0D
:1005A00041014FF4806404F132045FEA915C3FF44E
:1005B000D8AE4FF003025FEADC0C18BF03325FEAEB
:1005C000DC0C18BF033202EBDC02C2F1200300FA9C
:1005D00003FC20FA02F001FA03FE40EA0E0021FAC1
:1005E00002F11444BDE600BF70B54FF0FF0C4CF4AF
:1005F000E06C1CEA11541DBF1CEA135594EA0C0F61
:1006000095EA0C0F00F0DEF82C4481EA030621EA9B
:100610004C5123EA4C5350EA013518BF52EA0335D6
:1006200041F4801143F4801338D0A0FB02CE4FF088
:100630000005E1FB02E506F00042E0FB03E54FF0B8
:100640000006E1FB03569CF0000F18BF4EF0010EB0
:10065000A4F1FF04B6F5007F64F5407404D25FEAAC
:100660004E0E6D4146EB060642EAC62141EA55515F
:100670004FEAC52040EA5E504FEACE2EB4F1FD0CA1
:1006800088BFBCF5E06F1ED8BEF1004F08BF5FEA1F
:10069000500E50F1000041EB045170BD06F00046D1
:1006A00046EA010140EA020081EA0301B4EB5C047E
:1006B000C2BFD4EB0C0541EA045170BD41F4801176
:1006C0004FF0000E013C00F3AB8014F1360FDEBF9B
:1006D000002001F0004170BDC4F10004203C35DA77
:1006E0000C341BDC04F11404C4F1200500FA05F3FA
:1006F00020FA04F001FA05F240EA020001F000429B
:1007000021F0004110EBD37021FA04F642EB060110
:100710005EEA430E08BF20EAD37070BDC4F10C043A
:10072000C4F1200500FA04F320FA05F001FA04F2FE
:1007300040EA020001F0004110EBD37041F10001EA
:100740005EEA430E08BF20EAD37070BDC4F12005F5
:1007500000FA05F24EEA020E20FA04F301FA05F25D
:1007600043EA020321FA04F001F0004121FA04F205
:1007700020EA020000EBD3705EEA430E08BF20EAD5
:10078000D37070BD94F0000F0FD101F0004640000F
:1007900041EB010111F4801F08BF013CF7D041EA91
:1007A000060195F0000F18BF704703F00046520095
:1007B00043EB030313F4801F08BF013DF7D043EA66
:1007C0000603704794EA0C0F0CEA135518BF95EA1C
:1007D0000C0F0CD050EA410618BF52EA4306D1D1A3
:1007E00081EA030101F000414FF0000070BD50EAC2
:1007F000410606BF1046194652EA430619D094EA4C
:100800000C0F02D150EA013613D195EA0C0F05D135
:1008100052EA03361CBF104619460AD181EA030189
:1008200001F0004141F0FE4141F470014FF0000041
:1008300070BD41F0FE4141F4780170BD70B54FF0DC
:10084000FF0C4CF4E06C1CEA11541DBF1CEA13555C
:1008500094EA0C0F95EA0C0F00F0A7F8A4EB05043E
:1008600081EA030E52EA03354FEA013100F0888035
:100870004FEA03334FF0805545EA131343EA1263FE
:100880004FEA022245EA111545EA10654FEA0026B3
:100890000EF000419D4208BF964244F1FD0404F56C
:1008A000407402D25B084FEA3202B61A65EB0305C8
:1008B0005B084FEA32024FF480104FF4002CB6EB85
:1008C000020E75EB030E22BFB61A754640EA0C0005
:1008D0005B084FEA3202B6EB020E75EB030E22BF45
:1008E000B61A754640EA5C005B084FEA3202B6EB86
:1008F000020E75EB030E22BFB61A754640EA9C0045
:100900005B084FEA3202B6EB020E75EB030E22BF14
:10091000B61A754640EADC0055EA060E18D04FEAD2
:10092000051545EA16754FEA06164FEAC30343EA72
:1009300052734FEAC2025FEA1C1CC0D111F4801F3F
:100940000BD141EA00014FF000004FF0004CB6E738
:1009500011F4801F04BF01430020B4F1FD0C88BFD7
:10096000BCF5E06F3FF6AFAEB5EB030C04BFB6EBE2
:10097000020C5FEA500C50F1000041EB045170BDD5
:100980000EF0004E4EEA113114EB5C04C2BFD4EB02
:100990000C0541EA045170BD41F480114FF0000E86
:1009A000013C90E645EA060E8DE60CEA135594EA02
:1009B0000C0F08BF95EA0C0F3FF43BAF94EA0C0F05
:1009C0000AD150EA01347FF434AF95EA0C0F7FF47A
:1009D00025AF104619462CE795EA0C0F06D152EACE
:1009E00003353FF4FDAE1046194622E750EA4106B2
:1009F00018BF52EA43067FF4C5AE50EA41047FF4C3
:100A00000DAF52EA43057FF4EBAE12E74FF0FF3C27
:100A100006E000BF4FF0010C02E000BF4FF0010CF8
:100A20004DF804CD4FEA410C7FEA6C5C4FEA430C71
:100A300018BF7FEA6C5C1BD001B050EA410C0CBFC0
:100A400052EA430C91EA030F02BF90EA020F002022
:100A5000704710F1000F91EA030F58BF994208BF89
:100A600090422CBFD8176FEAE37040F00100704746
:100A70004FEA410C7FEA6C5C02D150EA013C07D19D
:100A80004FEA430C7FEA6C5CD6D152EA033CD3D0E8
:100A90005DF8040B704700BF8446104662468C46E2
:100AA0001946634600E000BF01B5FFF7B7FF002815
:100AB00048BF10F1000F01BD4DF808EDFFF7F4FF3E
:100AC0000CBF012000205DF808FB00BF4DF808EDC9
:100AD000FFF7EAFF34BF012000205DF808FB00BFEC
:100AE0004DF808EDFFF7E0FF94BF012000205DF80E
:100AF00008FB00BF4DF808EDFFF7CEFF94BF0120C3
:100B000000205DF808FB00BF4DF808EDFFF7C4FFBB
:100B100034BF012000205DF808FB00BF4FEA41020E
:100B200012F5001215D211D56FF47873B3EB62523F
:100B300012D94FEAC12343F0004343EA505311F066
:100B4000004F23FA02F018BF404270474FF00000F8
:100B5000704750EA013005D111F0004008BF6FF036
:100B6000004070474FF00000704700BF4A0011D2AC
:100B700012F5001211D20DD56FF47873B3EB6252F7
:100B80000ED44FEAC12343F0004343EA505323FA03
:100B900002F070474FF00000704750EA013002D178
:100BA0004FF0FF3070474FF00000704753B94AB91B
:100BB000002908BF00281CBF4FF0FF314FF0FF3065
:100BC00000F070B9ADF1080C6DE904CE00F006F844
:100BD000DDF804E0DDE9022304B070472DE9F047B9
:100BE000089E0D4604460F46002B4AD18A42944681
:100BF00065D9B2FA82F343B102FA03FCC3F12002D1
:100C00009F4020FA02F217439C404FEA1C4E1FFA05
:100C10008CF5B7FBFEF1220C0EFB117742EA07427E
:100C200001FB05F090420AD91CEB020201F1FF37EB
:100C300080F01C81904240F2198102396244121AFC
:100C4000A4B2B2FBFEF00EFB102244EA024400FB09
:100C500005F5A5420AD91CEB040400F1FF3280F02F
:100C60000781A54240F204816444023840EA014011
:100C7000641B00211EB1DC400023C6E90043BDE82F
:100C8000F0878B4208D9002E00F0ED800021C6E9E4
:100C900000050846BDE8F087B3FA83F1002949D181
:100CA000AB4202D3824200F2F880841A65EB030261
:100CB00001201746002EE2D0C6E90047DFE702B95F
:100CC000FFDEB2FA82F3002B40F090808A1A4FEADE
:100CD0001C471FFA8CFE0121B2FBF7F507FB15201C
:100CE000220C42EA00420EFB05F0904208D91CEBB0
:100CF000020205F1FF3802D2904200F2CB80454655
:100D0000121AA4B2B2FBF7F007FB102244EA024425
:100D10000EFB00FEA64508D91CEB040400F1FF32CF
:100D200002D2A64500F2BB801046A4EB0E0440EAB6
:100D300005409FE7C1F120078B4022FA07FC4CEAEF
:100D4000030C05FA01F420FA07F3FD404FEA1C49B1
:100D50002343B5FBF9F81FFA8CFE09FB18551C0C50
:100D600044EA054408FB0EF5A54202FA01F200FA36
:100D700001F00BD91CEB040408F1FF3A80F08880E5
:100D8000A54240F28580A8F102086444641B9DB22C
:100D9000B4FBF9F309FB134445EA044403FB0EFEDC
:100DA000A64508D91CEB040403F1FF356CD2A64517
:100DB0006AD9023B644443EA0843A3FB0295A4EBCF
:100DC0000E04AC42C846AE4656D353D056B1B0EB33
:100DD000080264EB0E0404FA07F7CA40CC4017433C
:100DE000C6E9007418460021BDE8F087C3F1200170
:100DF00002FA03FC20FA01F225FA01F19D402A4390
:100E00004FEA1C471FFA8CFEB1FBF7F007FB1015E9
:100E1000110C41EA054100FB0EF58D4204FA03F482
:100E200008D91CEB010100F1FF382FD28D422DD9DA
:100E300002386144491B92B2B1FBF7F507FB15116B
:100E400042EA014205FB0EF1914208D91CEB020275
:100E500005F1FF3816D2914214D9023D6244521A6C
:100E600045EA004138E73146304608E73946E6E6CC
:100E70001046FBE64845A9D2B9EB020865EB0C0E1B
:100E8000013BA3E74546EAE72B4694E74046D1E716
:100E9000D0467BE7023D624432E708460AE76444F5
:100EA000023842E7704700BF08B5054C20464FF4B2
:100EB000806101F022FE4FF4FA6003F020FEF5E7B6
:100EC000001002402DE9F04700248EB01022214688
:100ED00005A8049405F0F6FA102221460AA8099400
:100EE00005F0F0FADFF88CA01E4F1F4D0026DAE95E
:100EF000008949464046FFF711FE0446FFF70AFB0A
:100F000002460B4640464946FFF7B6F932463B4695
:100F1000FFF76AFBFFF702FE80EAE073A3EBE073E2
:100F20002246294604A805F0ADFA04AA0A210020A9
:100F300001F040FB0D4A0E4913790293D3780193D7
:100F4000937800935378127809A805F09BFA09AAC0
:100F50001421002001F02EFB01F094FA642003F02C
:100F6000CEFDC4E700408F40906E0008980000203E
:100F70009E6E00080003002070B53C210E480E4E06
:100F80000E4D02F0F4FC01F007FC044601F004FCF5
:100F9000001B0A28FAD931682B684A6AB2F5FA4F61
:100FA000C6BFC2F580329B1A9B182B6000234B6290
:100FB00001F0F2FB0446E9E7B4010020E80200205A
:100FC00070B53C210E480E4E0E4D02F0D0FC01F0E3
:100FD000E3FB044601F0E0FB001B0A28FAD9316864
:100FE0002B684A6AB2F5FA4FC6BFC2F580329B1829
:100FF0009B1A2B6000234B6201F0CEFB0446E9E70D
:101000006C010020D002002000B595B02C220021F8
:1010100009A805F057FA1422002103A805F052FA96
:101020000023194A0193116C41F080511164126C34
:1010300002F080520192019A144A0293116841F41D
:101040008041116012680E9302F480420292029A6B
:101050000222089201201022CDE90B0208A802F01A
:1010600063F9014608B172B6FEE70F23CDE90330FC
:10107000CDE90500079003A802F030FB08B172B675
:10108000FEE715B05DF804FB003802400070004038
:1010900080B59CB001F05AFBFFF7B6FF1422002187
:1010A00013A805F00FFA0024A64B00941A6BA6486B
:1010B00042F010021A631A6B02F010020092009ABA
:1010C00001941A6B42F080021A631A6B02F08002DC
:1010D0000192019A02941A6B42F001021A631A6B90
:1010E00002F001020292029A03941A6B42F0020289
:1010F0001A631A6B02F002020392039A04941A6BA9
:1011000042F008021A631A6B02F008020492049A71
:1011100005941A6B42F004021A631B6B03F004037C
:10112000059322464FF4BC61059B01F0E1FC874822
:1011300022463C2101F0DCFC854822464FF48061C8
:1011400001F0D6FC224683484FF4005101F0D0FC58
:1011500001264FF4BC637C4813A9CDE91336CDE9D1
:10116000154401F0EBFB3C23CDE913367748159489
:10117000022313A9169301F0E1FB4FF48063744836
:1011800013A9CDE913364FF48075CDE9154401F06C
:10119000D5FB4FF488136F48159413A9CDE9135369
:1011A0004FF4005701F0CAFB6A4813A9CDE9137642
:1011B000CDE9154401F0C2FB6748DFF8B8C1674BC1
:1011C0000462C0E900C34FF48043C0E90244C0E9AF
:1011D0000434C0E9064401F09BFD054608B172B62F
:1011E000FEE70146102208A805F06CF91C222946EA
:1011F0000CA8CDE9065505F065F92022294613A86B
:1012000005F060F9564C5748A560A023C4E90003D7
:101210004FF47A73C4E90335204680236561A361E6
:1012200002F020FD08B172B6FEE74FF4805308A922
:101230002046089302F057FF08B172B6FEE7204639
:1012400002F03CFD08B172B6FEE7CDE9060006A942
:10125000204603F057F808B172B6FEE76023CDE9E7
:101260000C30CDE910000E9012900C220CA92046F3
:1012700002F006FE08B172B6FEE7CDE91300CDE933
:101280001500CDE917071A9013A9204603F078F846
:10129000054608B172B6FEE7204600F0D9FF324C91
:1012A00029461C2214A805F00DF94FF6FF774FF0E0
:1012B0008043CDE90C55C4E90035C4E90375A56048
:1012C000A5614FF003080A2513A92046CDF84C80EC
:1012D0001596179519961B9502F048FD08B172B640
:1012E000FEE7CDE90C000CA9204603F00BF80446FC
:1012F00008B172B6FEE701461C2214A805F0E2F818
:101300001A481B4B046113A9CDE90C44C0E9003411
:10131000C0E902478461CDF84C801596179519965F
:101320001B9502F023FD08B172B6FEE700230F48BB
:101330000CA9CDE90C3302F0E5FF0546E0B172B629
:10134000FEE700BF003802400010024000000240EB
:1013500000040240000C0240D0000020A0860100E2
:1013600024010020000001406C010020B401002095
:1013700000040040005400400146CDE90C0010225A
:1013800013A805F09FF86E4C6E49A5600F23C4E9C1
:10139000001320464FF6FF73C4E90335A56102F040
:1013A000B9FC08B172B6FEE7CDE90C000CA92046E5
:1013B00002F0A8FF024608B172B6FEE70123CDE9AC
:1013C00014301390169013A9204602F0EDFD054647
:1013D00008B172B6FEE70146102208A805F072F8BF
:1013E0001C2229460CA8CDE9065505F06BF82022F1
:1013F000294613A805F066F8534C544BA560C4E980
:101400000035204641F61F43C4E90335C4E90555BC
:1014100002F028FC08B172B6FEE74FF4805308A929
:101420002046089302F05FFE08B172B6FEE7204640
:1014300002F044FC08B172B6FEE7CDE9060006A949
:10144000204602F05FFF024608B172B6FEE7602355
:10145000CDE90C30CDE90E00CDE9100012900CA9B9
:10146000204602F00DFD08B172B6FEE704220CA979
:10147000204602F005FD08B172B6FEE700234FF4E6
:1014800000523148179313A9CDE91333CDE9153331
:1014900018921A9302F074FF08B172B6FEE72C4D51
:1014A0002C4A28614FF4E133C5E900230C23C5E938
:1014B0000200C5E90530E861284603F04BF8044610
:1014C00008B172B6FEE701F095F8234905222846D7
:1014D00003F089FA03F0A0FA204A2148214603F0DC
:1014E000C7FA204B204A18602146204803F0C0FA72
:1014F0001F4B204A186021461F4803F0B9FA1F4BC2
:101500001F4A186021461F4803F0B2FA1E4B1F4ABB
:10151000186021461E4803F0ABFA1E4B1E4A1860A5
:1015200021461E4803F0A4FA1D4B1E4A18602146AE
:101530001D4803F09DFA1D4B186003F07FFAFEE78B
:10154000FC0100200008004044020020000401408B
:101550008C0200200048004098000020586F0008CE
:10156000A90E0008A4000020E86F0008F917000881
:10157000DC020020106F0008C50E00089400002057
:10158000C46F0008A11E0008CC000020346F0008C2
:10159000511C0008A0000020A06F0008790F00086F
:1015A000B00000207C6F0008C10F0008AC000020D4
:1015B00008B505220349044803F015FA034B01223C
:1015C0001A6008BD980000208C020020E402002070
:1015D00070B5067F012E044610D1254D296871B9DA
:1015E00002F01EFA234B2E60186023681A6A22F05C
:1015F0000A021A621A6A42F002021A6270BD0129D6
:10160000FCD1002102F00CFA1B4B24681860002367
:101610006362184B1A68194B904220DD801A1880BB
:101620001888FEF777FF10A3D3E90023FEF7DCFF4D
:10163000134B0022FEF7D8FFFFF798FA114B1880E2
:1016400000232B60236A23F00A032362236A2362A8
:101650000D4B1A68D36823F00203D360CEE7DFDABC
:10166000801A0138DBE700BF006F8104C58FA13FFE
:1016700090000020880000208C00002084000020C2
:101680000000E03F08030020FC01002038B50446BC
:101690000D4659B3002822DD01222548102101F012
:1016A00027FA00222021224801F022FA84EAE4727B
:1016B000A2EBE472B2F5FA6F2DDCB2F5FA7F2DDC05
:1016C000C82A2EDC642A2FDC1A490B68022A03F18F
:1016D00001030B601BDD4FF4FA74204638BD002275
:1016E0001348102101F004FA0122DBE7002807DD8E
:1016F00001220F48082101F0FBF92A460421D2E714
:101700000A460B48082101F0F3F90122F6E7002C04
:10171000E3D00024E1E740F6B834DEE74FF4FA64A2
:10172000DBE74FF4AF64D8E74FF47A74D5E700BF36
:1017300000000240F802002038B500222B4B05467D
:1017400051EC100BFEF750FFFFF7E8F9044665B3C4
:10175000002823DD01222648102101F0C9F90022CA
:101760002021234801F0C4F984EAE470A0EBE4707E
:10177000B0F5967F2ADCC8282BDC96282CDC642860
:101780002DDC0A282EDC1B4A1368012803F1010313
:101790001360CCBF4FF41670002038BD00221448EF
:1017A000102101F0A5F90122DAE7002807DA012269
:1017B0000F48082101F09CF92A460421D1E72A4666
:1017C0000B48082101F094F90122F6E740F6B83001
:1017D000E3E74FF4FA60E0E74FF4C860DDE74FF469
:1017E000AF60DAE74FF47A70D7E700BF000024401B
:1017F00000000240F80200202DE9F84F0024DFF835
:10180000C882DFF8C892DFF8C8B29F48A8F8004045
:101810002146A9F8004002F073FD04219A4802F025
:101820006FFD0C21584602F06BFDDBF80030974845
:1018300092221A641021012201F05AF9934822469B
:10184000202101F055F991480122082101F050F9B9
:101850008E482246042101F04BF94FF47A7003F0D0
:101860004EF98B4DDBF80030B5F800A0C3F840A06E
:101870008849894BD1E90001D3E90023FEF7FCFC3C
:10188000BAF17E0F06460F4658D847EC106B012080
:10189000FFF752FFFEF73EFE77A3D3E90023FEF7E2
:1018A000A3FEFFF763F980B2A8F80000FEF732FE4E
:1018B00073A3D3E90023FEF797FEFFF757F9002241
:1018C000A9F80000002330463946FFF71DF902460B
:1018D00000282DD001226D48082101F009F90022CD
:1018E00004216A4801F004F96C4B1B6863B10023C2
:1018F000A8F80030A9F80030694B1A68694B1A60E3
:10190000694B1A68694B1A605F4BB9F800201B6875
:101910005A63B8F800209A63012003F0F0F8644B92
:101920001A68B2F57A7F9CDD40F2E9321A6098E7D6
:101930005648082101F0DCF80122D1E7BAF1BD0FC9
:1019400028D947EC106B0020FFF7F6FEA9F800003D
:1019500080B2FEF7DFFD4AA3D3E90023FEF744FE81
:10196000FFF704F90022A8F80000002330463946AA
:10197000FFF7ACF8024638B101224448102101F0CB
:10198000B7F800222021ACE74048102101F0B0F860
:101990000122F7E7DFF808A1424B1868DAF80030B7
:1019A0000021C01AFFF772FEFEF7B4FD32A3D3E99F
:1019B0000023FEF719FEFFF7D9F83A4BDAF80020BA
:1019C0001B68A8F800009B1A384A1068364A12684B
:1019D000801A83EAE37180EAE072A1EBE371A2EB83
:1019E000E072914203F16303CCBF013404F1FF3490
:1019F0000121C62B98BF0024FFF748FE294B1A6827
:101A0000DAF8003020449A42A9F80000294B4FF040
:101A100000023046394620DAFFF776F808B1A523F0
:101A200007E0254B002230463946FFF74FF810B14A
:101A30007F232B8058E7214B002230463946FEF7A2
:101A4000D3FD1C4B0022FEF7F9FE1D4B0022FEF7D2
:101A500015FCFFF78BF8288046E7FFF755F80028BC
:101A6000E6D1154B002230463946FFF72FF8002803
:101A7000D5D1144B0022E0E7F4FDD478E926F13FFC
:101A8000E17A14AE47E1E23F440200200000024048
:101A900002000020F002002000030020A800002027
:101AA000D0020020D4020020E8020020EC02002036
:101AB000F802002000001440000014C00000334071
:101AC00000406240000033C0E2020020E00200203B
:101AD000240100200E4B1A68142A10B54FF00100A3
:101AE00014DD0C4A10600C4A002414800B4A1C6060
:101AF00014800B4A11680B4A11600B4A11680B4A9B
:101B00004FF49670116002F0FAFF204610BD00BF3E
:101B1000F8020020A8000020E2020020E0020020DD
:101B2000D0020020D4020020E8020020EC020020B5
:101B300038B5194B92224FF4E17055EC104B1A80D6
:101B400002F0DDFF154A00231360154A1360154AA1
:101B5000154B1360154A2046136029460AA3D3E9A2
:101B60000023FEF741FD0AA3D3E90023FEF786FB1D
:101B7000FEF7D4FF0E4B18600E4B1860FFF7AAFF5C
:101B80000028FBD138BD00BF0000000000C052405B
:101B900000000000804FF24002000020A80000205A
:101BA000F8020020E8020020F8240100D002002002
:101BB000EC020020D40200200E4B70B5FA224FF444
:101BC000E17055EC104B1A8002F099FF0A4A0B4E57
:101BD000002313600A4AD6E90001136022462B460F
:101BE000FEF74AFBC6E90001FFF774FF0028FBD1AE
:101BF00070BD00BF02000020A8000020F0020020FD
:101C0000F80200200E4B70B55F224FF4E17055ECE6
:101C1000104B1A8002F073FF0A4A0B4E0023136028
:101C20000A4AD6E90001136022462B46FEF726FB3E
:101C3000C6E90001FFF74EFF0028FBD170BD00BFD1
:101C400002000020A8000020F0020020F80200207E
:101C500083B5504C504E514D41238DF807304523EC
:101C600023704D2363705023A3705423E3705923D2
:101C700023713368012B2FD100232B602378472B4E
:101C800045D16378592B27D1A378522B24D1E378FF
:101C90004F2B21D12379522B1ED1E378A2780A2130
:101CA000303B303A4B43642101FB02332279303A16
:101CB000134462782B60422A08BF5B424FF00A004F
:101CC00008BF2B6002F01BFF2378522B44D029D889
:101CD000472B51D04C2B47D0314FD7F80090B9F15A
:101CE000010F10D14FF000080A20C6F8008002F062
:101CF00006FF2C484FF6FF734A460DF1070102F02C
:101D000057FCC7F800800A2002F0F9FEB1E7A3F102
:101D10005202012A01D94C2BDED1637803F0FB0378
:101D2000422BB9E7532BD7D12868FEF7F3FB41ECE0
:101D3000100BFFF7FDFE1A4B01221A60442323709B
:101D40004F2363704E23A3704523E3700A202123A1
:101D5000237102F0D4FEBFE72868FEF7DBFB41ECFD
:101D6000100BFFF729FFE6E72868FEF7D3FB41ECED
:101D7000100BFFF747FFDEE7BFF34F8F0A490B4B0E
:101D8000CA6802F4E0621343CB60BFF34F8F00BF19
:101D9000FDE700BF98000020E4020020D8020020E8
:101DA000B40000208C02002000ED00E00400FA05E1
:101DB00073B50C4E0C4A0D4D10700C460A23317849
:101DC000009301239940284601F04AF83178142302
:101DD0000093224602234900284601F019F902B077
:101DE00070BD00BF00000020B8000020D00000201F
:101DF00007B5074B074A51701978107014230093E8
:101E000049000223044801F02BF803B05DF804FBFD
:101E100000000020B8000020D000002008B50021FC
:101E20000620FFF7E5FF0A2002F069FE802103206B
:101E3000FFF7DEFF0A2002F062FE07210846FFF7E7
:101E4000D7FF0A2002F05BFE01210620FFF7D0FF3A
:101E50000A2002F054FE20217F20FFF7C9FF0A204C
:101E600002F04DFE2F210120FFF7C2FF0A2002F0F1
:101E700046FE00210846FFF7BBFF0A2002F03FFEA6
:101E800000217F20FFF7B4FF0A2002F038FE072070
:101E90000021FFF7ADFFBDE808400A2002F02FBE89
:101EA0002DE9F04F85B0FFF7B9FF00233220ADF8E0
:101EB0000C3002F024FE4FF47A7600240025012035
:101EC00002F01DFE03A93720FFF772FFBDF80C00DA
:101ED000C0BAFEF71FFB0B460246CDE9002300F017
:101EE0005BFCDDE9002320462946FEF7C7F90446DE
:101EF0000D4600F051FC013EE1D11F4BDFF87CB0F4
:101F0000002220462946FEF799FC06460F4600F0BF
:101F100043FC0FF25C09D9E900898246642002F093
:101F2000EEFD03A93720FFF743FFBDF80C00C0BA50
:101F3000FEF7F0FA32463B46FEF79EF90D460446A0
:101F400000F02AFCA0EB0A00FEF7D4FA42464B460A
:101F5000FEF774FC22462B46FEF746FBDBE9002326
:101F6000FEF78CF9CBE9000100F016FC8246D5E7BC
:101F7000000000000004D04000408F40000300201B
:101F800013B5134B002400945A6C42F480425A64F7
:101F90005A6C02F480420092009A01941A6C42F04A
:101FA00080521A641B6C03F08053019322460F2168
:101FB0006FF00100019B00F01BFC05210846224642
:101FC00000F016FC052002B0BDE8104000F042BC55
:101FD0000038024030B5044689B01422002103A81D
:101FE00004F070FA2268144B9A4222D1134C144820
:101FF00000250195236B43F002032363236B03F059
:1020000002030193019B4FF440721223CDE9032395
:1020100003210423CDE9061303A900F08FFC0295E8
:10202000236C43F400132364236C03F40013029322
:10203000029B09B030BD00BF005400400038024090
:102040000004024010B5044688B01422002103A801
:1020500004F038FA2368254A93421CD10022244B0D
:102060000092596C41F0010159645B6C03F001036B
:10207000114600931820009B00F0BAFB182000F0D6
:10208000E9FB00221920114600F0B2FB192000F0F4
:10209000E1FB08B010BD174A9342FAD1144B164821
:1020A000002401945A6C42F002025A645A6C02F005
:1020B00002020192019A02941A6B42F004021A631E
:1020C0001B6B03F004030293C022029B0223CDE9A1
:1020D000032303A90323079300F030FC2D2022469D
:1020E000214600F085FB2D20D1E700BF0000014014
:1020F00000380240000401400008024070B514227C
:102100008AB0044600210DEB020004F0DBF92368DD
:10211000B3F1804F37D103F50E33002400941A6CCD
:10212000294842F001021A641A6C02F0010200927E
:10213000009A01941A6B42F001021A631A6B02F0C2
:1021400001020192019A02941A6B42F002021A6390
:102150001B6B03F002030293029B02264FF4004321
:10216000012505A9CDE90536099500F0E7FB08230F
:10217000CDE90536CDE907441448099505A900F0D5
:10218000DDFB0AB070BD124A9342FAD1114B0E48E2
:10219000002103911A6C42F002021A641A6C02F0D8
:1021A00002020392039A04911A6B42F001021A632D
:1021B0001B6B03F001030493049BC0220223CDE9AF
:1021C0000523099305A9DAE7000002400004024054
:1021D000000400400038024010B5044688B01422C4
:1021E000002103A804F06EF92268174B9A4228D107
:1021F00003F50C33002401941A6C144842F00402D5
:102200001A641A6C02F004020192019A02941A6B89
:1022100042F008021A631B6B03F0080302934FF4A9
:102220008052029B03A90223CDE90323079300F008
:1022300085FB1E202246052100F0DAFA1E2000F060
:1022400009FB08B010BD00BF00080040000C0240B0
:1022500010B5044686B01422002101A804F032F91A
:1022600022680E4B9A4216D1002300930C4B0D4866
:102270001A6B42F010021A631B6B03F010030093F9
:10228000009B4FF480420223CDE9012301A90123E1
:10229000059300F053FB06B010BD00BF00000140E5
:1022A000003802400010024010B5044688B01422E5
:1022B000002103A804F006F92268184B9A422BD19A
:1022C00003F5F833002401941A6C154842F4802277
:1022D0001A641A6C02F480220192019A02941A6B19
:1022E00042F004021A631B6B03F0040302934FF4E1
:1022F0004062029B0223CDE9032303210723CDE99A
:10230000061303A900F01AFB27202246052100F03E
:102310006FFA272000F09EFA08B010BD0048004078
:1023200000080240FEE7FEE7FEE7FEE7FEE7704733
:1023300008B500F025FA03F0BFFB012803D0BDE883
:10234000084003F0C7BE08BD70470000014801F017
:1023500081BB00BF24010020FFF7F8BF014801F056
:1023600079BB00BFFC010020014802F0DBB900BFCF
:102370008C020020014801F06DBB00BF4402002028
:102380000B4A116810B5034609B90A491160106873
:1023900009490A4C0344091B8B4206D904F0F0F8A2
:1023A0000C2303604FF0FF3010BD1360FCE700BF4B
:1023B0000C03002040520020000002200004000016
:1023C000034AD2F8883043F47003C2F8883070476B
:1023D00000ED00E0DFF834D00D480E490E4A00232E
:1023E00002E0D458C4500433C4188C42F9D30B4AC9
:1023F0000B4C002301E013600432A242FBD3FFF731
:10240000DFFF04F0C3F8FEF743FE70470000022030
:102410000000002064000020E07A0008680000202E
:1024200040520020FEE7000070B50A46044601B1A4
:1024300001221348124E4FF4807100F059FB082519
:1024400000222021304600F053FB23064CBF01221E
:1024500000224021304600F04BFB013D01222021AB
:10246000304600F045FB640015F0FF05E4B2E7D10B
:10247000BDE87040024801224FF4807100F038BB83
:102480000010024070B50F4EB02400212046FFF727
:10249000CBFF00210846FFF7C7FF00211020FFF700
:1024A000C3FF002516F8350001210135FFF7BCFFF9
:1024B000802DF7D10134E4B2B82C06F10106E4D145
:1024C00070BD00BF100300200023084810B41C4654
:1024D0000022C11801F832400132802AFAD10133BA
:1024E000082BF5D15DF8044BFFF7CCBF100300209B
:1024F000030610B512D43F2910D801F00703C3F129
:10250000070301249C40C908064BC1F10701C9B269
:1025100003EBC000435C12B12343435410BD23EAD4
:102520000403FAE7100300202DE9F74F1F46203A75
:102530001E4B9DF830B0D2B203EB021301931C4B3B
:1025400002EB420203EB82038146884600930C466D
:102550000026B74202D103B0BDE8F08F0C2F0CBFAC
:10256000009B019B9D5D04F108035FFA83FA2B0633
:1025700058BFBBFA8BF2214604F101044CBF5A4606
:1025800052094846E4B2FFF7B3FFA4EB08026D001E
:10259000BA42EDB207D109F101005FFA80F9C246F3
:1025A00001365446D5E7A245E1D1F9E79874000811
:1025B00024700008F7B504460D46561E012716F88C
:1025C000013F0BB903B0F0BD7A2C82BF1035EDB2DC
:1025D00000243A2D03D9FFF777FF00252C460097FA
:1025E000204632780C2329460834FFF79DFFE4B2D9
:1025F000E5E7000010B500F07BFE404B404C1A6F41
:1026000022F001021A671A6F22F004021A6700F022
:102610007DFE00228021204600F06AFA642000F04E
:10262000C1F801222046802100F062FA0021AE208C
:10263000FFF7FAFE0021D520FFF7F6FE002150201B
:10264000FFF7F2FE0021A820FFF7EEFE00213F2059
:10265000FFF7EAFE0021D320FFF7E6FE002108463F
:10266000FFF7E2FE00214020FFF7DEFE00218D2073
:10267000FFF7DAFE00211420FFF7D6FE002120200C
:10268000FFF7D2FE00210220FFF7CEFE0021A1209D
:10269000FFF7CAFE0021C020FFF7C6FE0021DA20A6
:1026A000FFF7C2FE00211220FFF7BEFE00218120AD
:1026B000FFF7BAFE0021EF20FFF7B6FE0021D92078
:1026C000FFF7B2FE0021F120FFF7AEFE0021DB2074
:1026D000FFF7AAFE00213020FFF7A6FE0021A4206C
:1026E000FFF7A2FE0021A620FFF79EFE0021AF20EB
:1026F000FFF79AFEBDE81040FFF7E6BE0038024043
:102700000010024038B50E4B1A784FF47A73B3FBC1
:10271000F2F30C4A05461068B0FBF3F000F0A8F89D
:10272000044658B90F2D09D8024629464FF0FF300C
:1027300000F05EF8044B20461D6038BD0120FCE728
:1027400008000020040000200C00002008B50B4BFE
:102750001A6842F400721A601A6842F480621A60C1
:102760001A6842F480721A60032000F02FF80F20DC
:10277000FFF7C8FFFFF704FC002008BD003C024043
:10278000034A044B11681B780B441360704700BF69
:102790001007002008000020014B1868704700BF98
:1027A0001007002038B50446FFF7F6FF631C1CBF76
:1027B000054B1B78054618BFE418FFF7EDFF431BD8
:1027C000A342FAD338BD00BF080000200749CA68F9
:1027D00022F4E0620302120403F4E063120C1343D8
:1027E00043F0BF6343F40033CB60704700ED00E07B
:1027F000164B30B5DC68C4F30224C4F10703251D71
:10280000042B28BF0423062D4FF0FF358CBF033C5B
:10281000002405FA03F321EA0303A54022EA050296
:10282000A340002843EA0203ACBF00F16040084A1D
:102830004FEA0313B8BF00F00F00DBB2AABF00F5E8
:102840006140135480F8003330BD00BF00ED00E05C
:1028500014ED00E0002807DB4109044A00F01F00E6
:102860000123834042F82130704700BF00E100E0BF
:102870000138B0F1807F0BD24FF0E023054A586158
:10288000F02182F823100020072298611A61704716
:102890000120704700ED00E070B50446866DFFF73B
:1028A0007BFF94F83530022B054606D08023636504
:1028B0000120002384F8343070BD23681A6822F0A8
:1028C00016021A605A6922F080025A61226C0AB913
:1028D000A26C1AB11A6822F008021A601A6822F073
:1028E00001021A6023681B6813F0010308D1E16D2F
:1028F0003F228A40B260012284F835201846D8E78A
:10290000FFF74AFF401B0528ECD92023032063650D
:1029100084F83500CDE790F83530022B03D08023C2
:102920004365012070470268052380F8353013683D
:1029300023F0010313600020704700002DE9F74FDA
:10294000DFF8A891674A00230D6801249C4004EA3F
:10295000050CAC4340F0B1804D6805F003044FEA2C
:1029600043080326671E06FA08F6012F6FEA0606DB
:1029700034D8876807EA060ECF6807FA08F747EAEF
:102980000E078760476827EA0C0EC5F300179F40C3
:1029900047EA0E074760C76807EA060E8F6807FA1E
:1029A00008F747EA0E07022CC76019D14FEAD30A8D
:1029B00000EB8A0A03F0070BDAF820704FEA8B0B62
:1029C0004FF00F0E0EFA0BFE27EA0E0E0F6907FAF4
:1029D0000BF747EA0E07CAF8207001E0032CDAD1A2
:1029E000076804FA08F437403C4315F4403F04609C
:1029F00063D04FF0000ACDF804A0D9F844603A4CF7
:102A000046F48046C9F84460D9F8446006F480462C
:102A10000196019E23F0030606F1804606F59C36DA
:102A200003F0030ED6F808804FEA8E0E0F2707FA40
:102A30000EF7A04228EA070746D004F58064A042BA
:102A400044D004F58064A04242D004F58064A042E2
:102A500040D004F58064A0423ED004F58064A042DA
:102A60003CD004F58064A0423AD004F58064A042D2
:102A70000CBF0724082404FA0EF43C43B4609468A5
:102A80006FEA0C06EF0254BF34404CEA0404946031
:102A9000D468AF0254BF34404CEA0404D460546894
:102AA000AF0354BF34404CEA040454601468ED038F
:102AB00054BF34404CEA040414600133102B7FF4FB
:102AC00043AF03B0BDE8F08F5446D4E70124D2E70A
:102AD0000224D0E70324CEE70424CCE70524CAE788
:102AE0000624C8E7003C01400000024000380240D4
:102AF0000AB1816170470904FBE7436901EA0302F7
:102B000021EA030141EA02418161704701684B6992
:102B100013F480634FF0000210D06FF480634B61B8
:102B20002023026380F83D3080F83E20036C80F85B
:102B30003C2043F0040303640120704718467047AB
:102B40002DE9F84606460F4691461D464FEA114AC2
:102B50003368BAF1010F0CBF5C699C6927EA040471
:102B6000A4B2B4FA84F46409A14501D0002017E0AE
:102B70006A1CEED0FFF710FE089BC01AA84201D8CD
:102B8000002DE5D100232022336386F83D2086F80E
:102B90003E30326C86F83C3042F020023264012034
:102BA000BDE8F8862DE9F04104460F4616469846E2
:102BB0002568686927EA000080B2B8B16B695A05D8
:102BC00016D52B6843F400732B606FF480636B6140
:102BD00020220023236384F83D2084F83E30226CB9
:102BE00042F00402226484F83C300120BDE8F08108
:102BF000731CDED0FFF7D0FDA0EB0800B04201D877
:102C0000002ED5D100232022236384F83D2084F8B0
:102C10003E30226C42F02002E4E770B504460D46D7
:102C2000164621684B6913F0400301D0002010E0E4
:102C30004A69D2060ED56FF010024A612022236342
:102C400084F83D2084F83E30226C226484F83C30C5
:102C5000012070BDFFF7A0FD801BA84201D8002D08
:102C6000DFD100232022236384F83D2084F83E3006
:102C7000226C42F02002E8E770B504460D46164685
:102C800023685B691B0601D5002070BD2046FFF755
:102C90003DFFA8B96A1CF3D0FFF77EFD801BA84258
:102CA00001D8002DECD100232022236384F83D209D
:102CB00084F83E30226C84F83C3042F020022264DA
:102CC0000120E2E770B504460D46164623685B69AD
:102CD0005B0701D5002070BD2046FFF717FFA8B99C
:102CE0006A1CF3D0FFF758FD801BA84201D8002DC5
:102CF000ECD100232022236384F83D2084F83E3069
:102D0000226C84F83C3042F0200222640120E2E789
:102D100070B5044608B9012070BD90F83D3003F04D
:102D2000FF021BB980F83C20FFF754F9242384F8F4
:102D30003D3023681A6822F001021A601A6842F4D2
:102D400000421A601A6822F400421A6000F060FD26
:102D50003F4B65689D4294BF3E4B3F4B98428CBFB2
:102D600000230123002BD6D12268394E51683B4BFA
:102D7000B0FBF3F321F03F011943B542516088BF26
:102D80004FF49676116A88BF734321F03F0184BFE8
:102D90004FF47A76B3FBF6F301330B431362D16938
:102DA000431E2B4821F44F41854221F0FF0132D8C8
:102DB0006D0040F6FC70B3FBF5F30133034242D0E3
:102DC000C3F30B031943D161D4E9073011680343FE
:102DD00021F0C0010B4313609168D4E9030321F48F
:102DE0000341034321F0FF010B439360D4E9053015
:102DF000D168034321F0FF010B43D360136843F014
:102E00000103136000202023206484F83D302063F8
:102E100084F83E0080E7A06850B905EB4505B3FB98
:102E2000F5F30133C3F30B037BB143F40043C9E76C
:102E300019206843B3FBF0F30133C3F30B0323B151
:102E400043F44043BEE70423BCE70123BAE700BFD5
:102E5000A08601007F841E00FF083D0040420F0055
:102E60002DE9F043044685B098460C9F0D469146E7
:102E7000FFF792FC94F83D30202B064604D0022543
:102E8000284605B0BDE8F08300905D491923012272
:102E90002046FFF755FE0028F1D194F83C30012B75
:102EA000EDD02168012384F83C300B68DA075EBF5F
:102EB0000B6843F001030B600B6823F400630B60A5
:102EC000212384F83D30102384F83E30002323640E
:102ED000A4F82A80638D23854A4BE362E36AC4F831
:102EE0002490082B04D0012B02D013F5803F04D18D
:102EF0000B6843F480730B6002E0236B122BF7D056
:102F0000002200963B464FF001112046FFF718FEC5
:102F1000226838B11368DB0544BF4FF400732364A3
:102F20000125ADE72369B3F5804F21D105F0FE05FA
:102F30001561354933463A462046FFF733FE0546CC
:102F40000028EDD1236803905A6903929B6903938B
:102F5000039B238DF3B921680A6842F400720A606A
:102F6000202284F83D2084F83C3084F83E3087E706
:102F7000EB1103F0060343F0F003136123493346DA
:102F80003A462046FFF70EFE0028C9D12368EDB26D
:102F90001D61CEE7324639462046FFF76DFE40B14F
:102FA000236C042BBCD12268136843F400731360B4
:102FB000B6E7636A20681A4612F8011B0161626273
:102FC000628D013A92B26285228DD0F814C0511EF2
:102FD00089B21CF0040F21850AD049B159780161EA
:102FE00002336362638D013B9BB2023A63852285A3
:102FF000324639462046FFF765FE0028A9D0CFE7C4
:10300000020010000000FFFF0200010008000100A4
:103010002DE9F043044689B09846109F0E4691462C
:10302000FFF7BAFB94F83D30202B054604D002266A
:10303000304609B0BDE8F08300909A491923012277
:103040002046FFF77DFD0028F1D194F83C30012B9C
:10305000EDD02168012384F83C300B68DB075EBFAC
:103060000B6843F001030B600B6823F400630B60F3
:10307000222384F83D30102384F83E30002323645B
:10308000A4F82A80638D2385874BE362E36A0A688C
:10309000C4F8249042F48062082B0A6004D0012B0B
:1030A00002D013F5803F04D10B6843F480730B60AA
:1030B00002E0236B112BF7D03B46009500224FF026
:1030C00001112046FFF73CFD236838B11B68D80585
:1030D00044BF4FF4007323640126A9E72269B2F5C7
:1030E000804F27D146F00106F6B21E616F492B468C
:1030F0003A462046FFF756FD06460028ECD1238DC0
:103100002168002B4BD103904B6903938B69039388
:10311000039B0B6843F400730B60DFF89881238DE9
:10312000002B64D1202284F83D2084F83C3084F8C0
:103130003E307DE74FEAE61808F0060848F0F00256
:103140001A615B492B463A462046FFF72BFD0028C3
:10315000C2D123685549F6B21E613A462B46204635
:10316000FFF720FD02460028B6D123680790596971
:103170000791996907910799196841F4807119605D
:10318000204600953B464FF00111FFF7D9FC22681D
:1031900008B113689BE748F0F1031361A6E7012B20
:1031A0000AD10B6823F480630B6004904B6904938D
:1031B0008B690493049BACE7022B0B680DD123F4BD
:1031C00080630B600B6843F400630B6005904B69F0
:1031D00005938B690593059B9FE743F480630B6020
:1031E00006904B6906938B690693069B95E7032B24
:1031F00062D8012B16D12A4639462046FFF70DFD2D
:1032000000287FF469AF23681A69636A1A70636AD9
:1032100001336362238D013B2385638D013B9BB2A8
:1032200063857CE7022B00953B464FF00002414648
:1032300020461AD1FFF784FC00287FF44DAF2368A5
:103240001A6842F400721A601A69636A1A70626A34
:10325000531C6362238D013B2385638D013B9BB22D
:10326000638523681B695370D1E7FFF769FC024649
:1032700000287FF431AF2368196821F48061196058
:103280001969636A1970636A009501336362238D5B
:10329000013B2385638D013B9BB2638541463B46E1
:1032A0002046C7E7020010000000FFFF02000100F7
:1032B00008000100040001002A4639462046FFF7B5
:1032C000ACFC00287FF408AF23681A69636A1A709F
:1032D000626A531C6362238D013B2385638D013B2E
:1032E0009BB263852368596949077FF518AFB9E731
:1032F000044B01221A62044B82B01B680193019BAC
:1033000002B0704700000E4200700040044B0022E3
:103310001A62044B82B01B680193019B02B0704794
:1033200000000E42007000402DE9F341044640B316
:103330000368DD0710D4236898075BD423681A0755
:1033400000F19D8023685B0700F1BD80A069002823
:1033500040F0248100202CE08D4B9A6802F00C0292
:10336000042A07D09A6802F00C02082A0BD15B6885
:10337000590208D5864B1B689A03DCD56368002B7D
:10338000D9D1012015E06368814DB3F5803F13D199
:103390002B6843F480332B60FFF7FEF97C4E054623
:1033A00033689B03C7D4FFF7F7F9401B6428F7D9AC
:1033B000032002B0BDE8F081B3F5A02F04D12B6843
:1033C00043F480232B60E3E72A6822F480322A60EA
:1033D0002A6822F480222A60002BDDD1FFF7DCF975
:1033E00006462B689F03A6D5FFF7D6F9801B6428F5
:1033F000F7D9DDE7664B9A6812F00C0F07D09A6890
:1034000002F00C02082A11D15B685E020ED4604AF9
:1034100013689D0702D5E368012BB2D113682169B7
:1034200023F0F80343EAC103136087E7E268594BCE
:10343000B2B101221A60FFF7AFF9554D06462B686D
:10344000980707D52B68226923F0F80343EAC203E3
:103450002B6073E7FFF7A0F9801B0228EFD9A7E7DD
:103460001A60FFF799F94A4E0546336899077FF5C8
:1034700065AFFFF791F9401B0228F6D998E762691A
:10348000444B82B10122C3F8802EFFF785F9404EEC
:103490000546736F9F073FF555AFFFF77DF9401B5A
:1034A0000228F6D984E7C3F8802EFFF775F9384E65
:1034B0000546736F98077FF545AFFFF76DF9401B21
:1034C0000228F6D974E7324B1A6C12F0805228D1D8
:1034D00001921A6C42F080521A641B6C03F0805304
:1034E0000193019B01272C4D2B68D9051BD5A3689F
:1034F000274D012B27D12B6F43F001032B67FFF7DB
:103500004BF9234E054641F28838336F9B0739D576
:10351000002F3FF41BAF1E4A136C23F0805313643B
:1035200014E70027DFE72B6843F480732B60FFF775
:1035300033F906462B68DA05D9D4FFF72DF9801B3D
:103540000228F7D934E7052B04D12B6F43F004038D
:103550002B67D0E72A6F22F001022A672A6F22F038
:1035600004022A67002BCAD1FFF716F941F2883806
:1035700006462B6F9807CBD5FFF70EF9801B404509
:10358000F7D915E7FFF708F9401B4045BDD90FE70C
:10359000003802400000474200700040364DAB68E2
:1035A00003F00C03082B3DD0344B002202281A668E
:1035B0002BD1FFF7F1F806462B6899011FD4D4E907
:1035C00007321343626A43EA8213E26A43EA026300
:1035D000A26A5208013A43EA02436B60274B264D28
:1035E00001221A66FFF7D8F804462B689A013FF5C6
:1035F000B1AEFFF7D1F8001B0228F6D9D8E6FFF7E5
:10360000CBF8801B0228D7D9D2E6FFF7C5F80446CD
:103610002B689B017FF59EAEFFF7BEF8001B0228CA
:10362000F6D9C5E601283FF4C4AE6B68E26903F43D
:10363000800191427FF4A5AE216A03F03F028A42E5
:103640007FF49FAE616A47F6C0721A40B2EB811FE9
:103650007FF497AEA26A520803F44031013AB1EB0D
:10366000024F7FF48EAEE26A03F07063B3EB026F39
:103670003FF470AE85E600BF0038024000004742CC
:10368000134908B58B6803F00C03042B1CD0082BDE
:103690001CD14A684B68496813F4800314BF0D4875
:1036A0000D48C1F3881118BF002302F03F02A1FBAF
:1036B0000001FDF77BFA064B5B68C3F3014301335E
:1036C0005B00B0FBF3F008BD0248FCE70248FAE7F4
:1036D0000038024040787D010024F4002DE9F041DB
:1036E0000D46044610B90120BDE8F081434B1A682D
:1036F00002F007028A4228D321688F072DD4C80719
:1037000040D43E4B1A6802F00702AA4265D82268EC
:1037100051076BD4130707D5394A2169936823F4FD
:10372000604343EAC1039360FFF7AAFF344B354A75
:103730009B68C3F30313D35CD840334B1860334BFF
:103740001868FEF7DFFF0020CEE7CAB21A701B68C8
:1037500003F007038B42C6D1CEE7294B11F0040FCB
:103760001EBF9A6842F4E0529A600E0742BF9A6800
:1037700042F460429A609A68A06822F0F002024324
:103780009A60BCE762681E4B012A1CD11B6813F4C7
:10379000003FA8D01A4EB36823F003031343B3606D
:1037A000FEF7FAFF41F288380746B368626803F013
:1037B0000C03B3EB820FA4D0FEF7EEFFC01B404515
:1037C000F3D9032090E7911E01291B6802D813F05A
:1037D000007FDEE713F0020FDBE7EAB21A701B6826
:1037E00003F00703AB427FF47EAF90E70449E06843
:1037F0008B6823F4E05303438B608BE7003C02406B
:10380000003802400C700008040000200C0000206A
:10381000044B054A9B68C3F38223D35C034A1068B8
:10382000D8407047003802401C7000080400002097
:10383000044B054A9B68C3F34233D35C034A1068C8
:10384000D8407047003802401C7000080400002077
:10385000036A23F001030362036A70B54468826956
:103860000D6822F073022A438D6823F002032B4374
:103870000E4DA84202D00E4EB04210D1CE6823F0B9
:1038800008033343A84223F0040302D0084DA842A2
:1038900005D1D1E9055624F4407435432C434460E6
:1038A00082614A684263036270BD00BF000001404C
:1038B00000040140036A23F480730362036A70B555
:1038C0004468C2690D6822F073022A438D6823F4AC
:1038D000007343EA0523114DA84203D005F5806526
:1038E000A84214D1CD6823F4006343EA05230B4DAD
:1038F000A84223F4806303D005F58065A84206D171
:10390000D1E9055624F44054354344EA0514446093
:10391000C2614A68C263036270BD00BF000001401B
:10392000036A23F480530362036A30B54468C269B2
:103930000D6822F4E64242EA05228D6823F4005322
:1039400043EA0533084DA84203D005F58065A84237
:1039500004D14D6924F4804444EA85144460C26172
:103960004A680264036230BD00000140704730B510
:10397000034690F83E0093F83F2093F8425093F8A6
:103980004340C0B2D2B2EDB2E4B2C1B9012845D1D0
:10399000012D13D1022283F83E2083F842201A68B9
:1039A000116A21F001011162116A41F001011162F5
:1039B0001A68136843F001031360002030BD042926
:1039C00011D1012A2AD1012C28D1022283F83F20CB
:1039D00083F843201A68116A21F010011162116AFC
:1039E00041F01001E3E7012818D1012AE6D1012DA9
:1039F000E4D1012CE2D1022283F83E2083F83F205B
:103A000083F8422083F843201A68116A21F00101EB
:103A10001162116A41F001011162DCE70120CDE77A
:103A2000082910D004D841B1042909D000207047DA
:103A30000C29FBD10368186C70470368586B7047FA
:103A40000368986B70470368D86B7047704770477E
:103A50007047704703681A69910710B504460ED580
:103A6000DA6892070BD56FF002021A610122027721
:103A70009B699B0777D0FDF7ABFD00232377236875
:103A80001A69500710D5DA6851070DD56FF0040296
:103A90001A61022222779B6913F4407F204668D086
:103AA000FDF796FD0023237723681A6912070FD5C7
:103AB000DA6810070CD56FF008021A610422227729
:103AC000DB69990720465AD0FDF782FD0023237752
:103AD00023681A69D20610D5DA68D0060DD56FF0C2
:103AE00010021A6108222277DB6913F4407F204616
:103AF0004BD0FDF76DFD0023237723681A69D107AA
:103B000008D5DA68D20705D56FF001021A612046A0
:103B1000FFF79CFF23681A69100608D5DA681106BA
:103B200005D56FF080021A61204600F050FC236832
:103B30001A69520608D5DA68500605D56FF04002BA
:103B40001A612046FFF785FF23681A69910622D57E
:103B5000DA6892061FD56FF0200220461A61BDE890
:103B6000104000F033BCFFF772FF2046FFF770FFF4
:103B700083E7FFF76CFF2046FFF76AFF92E7FFF746
:103B800066FF2046FFF764FFA0E7FFF760FF2046CF
:103B9000FFF75EFFAFE710BD304A0368904212D0D6
:103BA000B0F1804F0FD0A2F57C4290420BD002F5CD
:103BB0008062904207D002F58062904203D002F505
:103BC0007842904219D14A6823F070031343234A84
:103BD000904229D0B0F1804F26D0A2F57C4290428D
:103BE00022D002F5806290421ED002F5806290429F
:103BF0001AD002F57842904216D0194A904213D05A
:103C000002F5806290420FD002F5806290420BD0A4
:103C1000A2F59832904207D002F58062904203D01C
:103C200002F58062904203D1CA6823F440731343C3
:103C30004A6923F08003134303608B68C3620B68F7
:103C40008362064B984203D003F58063984201D10A
:103C50000B69036301234361704700BF000001400B
:103C60000040014010B5044630B390F83D3003F0F9
:103C7000FF021BB980F83C20FEF7E4F9022320681C
:103C800084F83D30211DFFF787FF012384F846307B
:103C9000002084F83E3084F83F3084F8403084F8C7
:103CA000413084F8423084F8433084F8443084F85A
:103CB000453084F83D3010BD0120FCE710B50446C6
:103CC00030B390F83D3003F0FF021BB980F83C2080
:103CD000FFF74CFE0223206884F83D30211DFFF7DA
:103CE0005BFF012384F84630002084F83E3084F8DE
:103CF0003F3084F8403084F8413084F8423084F812
:103D0000433084F8443084F8453084F83D3010BDA9
:103D10000120FCE710B5044630B390F83D3003F0C5
:103D2000FF021BB980F83C20FEF756FA02232068F8
:103D300084F83D30211DFFF72FFF012384F8463022
:103D4000002084F83E3084F83F3084F8403084F816
:103D5000413084F8423084F8433084F8443084F8A9
:103D6000453084F83D3010BD0120FCE7F8B50D4624
:103D7000044600284CD090F83D3003F0FF021BB9F8
:103D800080F83C20FEF7BAF92146022384F83D3042
:103D900051F8040B836823F4804323F00703836006
:103DA000FFF7FAFE81682A688369AE69076A1143E2
:103DB000AA6823F4407323F0030342EA06221A435D
:103DC0002B69EE691B0143EA0623EE6833432E6A32
:103DD00022F47C4222F0FC0243EA063313436E696C
:103DE0006A68816027F0AA0742EA061283611743D6
:103DF0000123076284F84630002084F83E3084F8BE
:103E00003F3084F8423084F8433084F83D30F8BDC8
:103E10000120FCE7036A23F010030362036A70B514
:103E2000446882690D6822F4E64242EA05228D6800
:103E300023F0200343EA0513104DA84203D005F5F3
:103E40008065A84214D1CD6823F0800343EA0513AE
:103E50000A4DA84223F0400303D005F58065A8422F
:103E600006D1D1E9055624F44064354344EA85047B
:103E7000446082614A688263036270BD0000014051
:103E800070B590F83C30012B054650D00123082A2C
:103E900080F83C303BD007D8C2B1042A27D018465E
:103EA000002385F83C3070BD0C2AF8D10068FFF77C
:103EB00037FDC3690A6943F40063C361C36923F42E
:103EC0008063C361C36943EA02232EE00068FFF701
:103ED000BFFC83690A6943F008038361836923F0A7
:103EE000040383618369134383610020D8E700687A
:103EF000FFF790FF83690A6943F400638361836974
:103F000023F480638361836943EA0223ECE700685A
:103F1000FFF7D0FCC3690A6943F00803C361C369B2
:103F200023F00403C361C3691343C361DDE70220C7
:103F3000B9E7000070B5046A1A4E24F00104046267
:103F4000B0428469056A29D0B0F1804F26D0A6F529
:103F50007C46B04222D006F58066B0421ED006F5FF
:103F60008066B0421AD006F57846B04216D006F503
:103F70007056B04212D0A6F59436B0420ED044F03E
:103F800001021B0122F0F002DBB2134301F00A012F
:103F900025F00A0211438361016270BD24F003041D
:103FA0002243EEE700000140F8B590F83C30012BC9
:103FB00005460C4600F08B80012380F83C3092B916
:103FC0000068CB68D1E90012FFF7B4FF8369A268EB
:103FD00023F00C0383618369134383610020002372
:103FE00085F83C30F8BD042A24D10368186A20F013
:103FF0001000D1E90027C968186298691E6A20F488
:10400000407040EA0720090320F4704089B2120191
:10401000014302F0A00226F0A000024399611A6257
:104020009A69A16822F440629A619A6942EA01227F
:104030009A61D3E7082A22D103681E6A26F48076A3
:10404000D1E90020C9681E62DF691E6A27F00307F4
:104050003843090120F0F000C9B21202014302F412
:10406000206226F420600243D9611A62DA69A168ED
:1040700022F00C02DA61DA690A43DA61AEE70C2A4F
:1040800023D10368186A20F48050D1E90027C96859
:104090001862D8691E6A20F4407040EA07200903BC
:1040A00020F4704089B21203014302F4204226F446
:1040B00020400243D9611A62DA69A16822F44062A1
:1040C000DA61DA6942EA0122D7E7184687E7022077
:1040D00088E710B58468114324F47F4441EA032340
:1040E0002343836010BD38B590F83C30012B044663
:1040F0004FF0020300F08E80012280F83D3080F8FE
:104100003C200068836823F47F4323F077038360B7
:104110000B68602B4FD032D8402B64D016D8202BA0
:104120000DD00AD833F0100109D0012384F83D30B6
:10413000002384F83C30104638BD302BF5D182681E
:1041400022F07002134343F0070328E0502BECD118
:104150004A68CD68016A036A23F001030362836938
:1041600021F00A0123F0F00343EA05130A438361B7
:104170000262836823F0700343F057030FE0B3F546
:10418000805F0DD0B3F5005F0CD0702BCDD1CB6824
:10419000D1E90121FFF79DFF836843F07703836036
:1041A0000022C2E7CB68D1E90121FFF792FF8368C3
:1041B00043F48043F3E7036A4D68C96823F01003B2
:1041C00003628269036A22F4704223F0A00343EA87
:1041D000051342EA013282610362836823F07003AF
:1041E00043F06703DBE74A68CD68016A036A23F09E
:1041F00001030362836921F00A0123F0F00343EA1B
:1042000005130A4383610262836823F0700343F05D
:104210004703C4E71A468EE7036A01F01F0110B591
:1042200001248C4023EA04030362036A8A401A4390
:10423000026210BD08B529B990F83E30012B18D0A4
:1042400001202CE004290DD190F83F30013B18BF2C
:104250000123002BF4D104294FF0020320D180F870
:104260003F3009E008290CBF90F8403090F8413009
:10427000ECE7022380F83E3000680122FFF7CCFF14
:104280001C4A904213D01C4B984210D0B0F1804F82
:1042900014D1836803F00703062B26D1002008BD44
:1042A00008290CBF80F8403080F84130E4E7436CC7
:1042B000904243F400434364EBD0E7E70F4B98424E
:1042C000E7D003F580639842E3D003F5806398421A
:1042D000DFD003F578439842DBD003F57053984262
:1042E000D7D0A3F594339842D3D0036843F00103A9
:1042F0000360D3E7000001400004014000040040D7
:10430000FFF798BF30B590F83C30012B4FF0020317
:1043100032D080F83D3003680D685C689A6824F0FC
:1043200070042C435C60154CA3421AD0B3F1804F4B
:1043300017D0A4F57C44A34213D004F58064A342B3
:104340000FD004F58064A3420BD004F57844A34257
:1043500007D004F57054A34203D0A4F59434A342CB
:1043600004D1496822F080020A439A60012380F850
:104370003D30002380F83C30184630BD000001403D
:1043800090F83C30012B1FD0CB688A6823F440732F
:1043900013434A6823F4806313430A6823F40063D9
:1043A00013430A6923F4805313434A6923F40053E7
:1043B0001343CA6923F48043134302685364002300
:1043C00080F83C30184670470220704770477047AD
:1043D000026802F10C0353E8003F23F490730C329F
:1043E00042E8003102680029F2D102F1140353E8D7
:1043F000003F23F0010302F1140C4CE800310029C6
:10440000F3D1036B012B0BD102F10C0353E8003FF6
:1044100023F0100302F10C0C4CE800310029F3D119
:10442000202380F83E300023036370470268C16890
:10443000136923F440530B4370B513610546836839
:104440000069D168034368690343E86921F41641B0
:1044500021F00C0103430B43D3605369A96923F492
:1044600040730B4353611F4B9A4203D003F58063A3
:104470009A4223D1FFF7DCF9EB691921B3F5004F1C
:10448000D5E90046A0FB01011BD1B2194FF0000392
:104490005B41FCF78BFB6422B0FBF2F102FB1103E2
:1044A000DB003233B3FBF2F303F007025B0002EBF5
:1044B000011203F4F8731344A36070BDFFF7A8F969
:1044C000DAE7B200B30FFCF771FB6422B0FBF2F144
:1044D00002FB11031B013233B3FBF2F303EB0113B5
:1044E000EAE700BF00100140F8B504460E46174643
:1044F0001D462268136836EA030301D1002028E034
:104500006B1CF7D025B1FEF747F9C01B8542F0D2EE
:10451000226802F10C0353E8003F23F4D0730C32FD
:1045200042E8003021680028F2D101F1140353E879
:10453000003F23F0010301F1140040E80032002A9B
:10454000F3D1202384F83D3084F83C2084F83E30B9
:104550000320F8BD10B5044640B390F83D3003F099
:10456000FF021BB980F83C20FDF79EFE2268242341
:1045700084F83D30D36823F40053D3602046FFF71E
:1045800055FF23681A6922F490421A615A6922F091
:104590002A025A61DA6842F40052DA6000202023CD
:1045A000206484F83D3084F83E3010BD0120FCE7E3
:1045B000F7B5174690F83D200093202A04460E4692
:1045C00049D1002945D0002F43D090F83C20012A42
:1045D00041D0012280F83C2000252122056480F88A
:1045E0003D20FEF7D9F8A168009BA784B1F5805F54
:1045F0000246E78403D1216909B935460E460021F8
:1046000084F83C10E18C89B241B940212046FFF783
:104610006BFF60B9202384F83D3009E080212046FB
:10462000CDE90023FFF760FFDDE9002310B103208F
:1046300003B0F0BD20684EB935F8021BC1F3080184
:104640004160E18C013989B2E184DBE716F8011B96
:10465000F6E70120ECE70220EAE77047704708B56B
:10466000806B0023C385C384FFF7F8FF08BD704744
:1046700090F83E30222B07B541D18168836A0268E9
:10468000B1F5805F3ED1016900293ED15268C2F385
:10469000080223F8022B8362C38D013B9BB2C385C2
:1046A000002B2CD10268D16821F02001D160D168A3
:1046B00021F48071D160516921F001015161202202
:1046C00080F83E20026B012A026828D1036302F1C0
:1046D0000C0353E8003F23F0100302F10C0C4CE8EC
:1046E00000310029F3D11368DB0605D50191136869
:1046F000019353680193019B818DFFF7B8FF03B0CD
:104700005DF804FB39B9016929B95268D2B21A704F
:10471000836A0133BFE7526802F07F02F7E7FCF7D4
:1047200047FFECE703681A6873B51607D9685D6937
:10473000044608D1960668D58D0666D502B0BDE858
:104740007040FFF795BF05F0010001F49075054337
:104750005BD0D60705D5CD0542BF236C43F00103DE
:104760002364530704D518B1236C43F00203236478
:10477000960704D518B1236C43F00403236415078E
:1047800007D501F0200303431EBF236C43F0080349
:104790002364236C002B32D0920604D58B0602D5FD
:1047A0002046FFF765FF26687369226C03F040031B
:1047B00002F0080253EA0205204622D0FFF708FE65
:1047C00073695E0618D5226802F1140353E8003FAE
:1047D00023F04003143242E800310029F3D1A06BEA
:1047E00050B1724B0365FEF796F840B1A06B036DB4
:1047F00002B0BDE8704018472046FFF72FFF02B017
:1048000070BDFFF72BFF2564F9E7206B012840F00E
:104810009180D50640F18E80C80640F18B80002241
:1048200001921A6801925A680192019A5A695206D5
:104830004CD5A16B0A68526892B2002ADFD0A08DD5
:104840009042DCD9E285CA69B2F5807F36D003F1A7
:104850000C0252E8002F22F4807203F10C0040E8B1
:1048600000210029F3D103F1140252E8002F22F0B5
:10487000010203F1140040E800210029F3D103F103
:10488000140252E8002F22F0400203F1140040E825
:1048900000210029F3D1202284F83E20216303F176
:1048A0000C0252E8002F22F0100203F10C0040E845
:1048B00000210029F3D1A06BFDF7EEFFE38DA18D60
:1048C000C91A89B22046FFF7D2FE98E7E28DE08D43
:1048D000A18D80B292B2002891D0891A89B20029A4
:1048E0008DD003F10C0252E8002F22F4907203F1F4
:1048F0000C0545E800200028F3D103F1140252E82A
:10490000002F22F0010203F1140545E800200028E1
:10491000F3D1202284F83E20206303F10C0252E8F8
:10492000002F22F0100203F10C0545E800200028BA
:10493000F3D1C7E7160628D50D0626D594F83D20F5
:10494000212A7FF45CAFA168226AB1F5805F17D19C
:104950002169A9B932F8021BC1F30801596022622A
:10496000E28C013A92B2E284002A7FF448AFDA681E
:1049700022F08002DA60DA6842F04002DA603EE754
:10498000511C216212785A60EAE750067FF537AF72
:104990004A067FF534AFDA6822F04002DA6020235D
:1049A00084F83D302046FFF758FE28E75F460008B0
:1049B000C285002382852222036480F83E2002699A
:1049C00080F83C30816203681AB1DA6842F4807280
:1049D000DA605A6942F001025A61DA6842F0200254
:1049E000DA600020704770B490F83E60202E10D13D
:1049F00061B15AB190F83C40012C0AD0012480F8F2
:104A00003C400024046370BCFFF7D2BF012070BC9F
:104A100070470220FBE70000EFF305832BB9064B3C
:104A2000186828B901221A6070476FF005007047B6
:104A30004FF0FF30704700BFBC09002010B5EFF306
:104A400005845CB9084B1A68012A0AD1074AD47751
:104A500002221A6000F09AFD204610BD6FF005009A
:104A6000FBE74FF0FF30F8E7BC09002000ED00E065
:104A7000F0B587B00B4600210591EFF30584CCB962
:104A8000C0B16AB395698D4208BF1825691E3729E0
:104A9000AC462AD85168C90727D456696EB1B40804
:104AA000D2E9027E116857B1BEF1A70F02D912698F
:104AB00002B1E6B9059807B0F0BD8024F0E7BEF179
:104AC000000FF7D11269002AF4D105AACDE900C27E
:104AD000A2B200F02DFD01281CBF00230593E9E7D9
:104AE00011464FF0180C8024EFE72046E3E7CDE9AC
:104AF00001270095224600F0E3FC0590DAE710B5A7
:104B0000EFF3058424B910B100F0A8FE204610BDD3
:104B10006FF00500FBE70000034B0360034B0B60E5
:104B200080231360704700BF140900201407002081
:104B3000034B0360034B0B604FF4807313607047AB
:104B4000C00D0020C009002000F108034FF0FF3223
:104B5000C0E9022343600361002303607047002320
:104B60000361704743684B609A688A609A68516035
:104B700099600368086101330360704730B50C68C1
:104B8000631C0AD103695A684A6091608B6059605E
:104B9000036808610133036030BD00F10802134669
:104BA00052681568A542FAD9EDE7D0E90112036908
:104BB0008A6051605968814208BF5A6000220261D0
:104BC0001A68013A1A601868704710B5044601F077
:104BD00019FAA46B01F036FAB4FA84F0400910BD5A
:104BE000F8B51546026C866B044652B9076847BB98
:104BF000806800F071FFA76005460136A66328466D
:104C0000F8BD65B9406801F0E7FC6368226C1344A5
:104C1000A26863609342F0D323686360EDE7C068E5
:104C200001F0DAFC226CE36851429B1A2268E360CF
:104C300093423EBFA3685B18E360022D01D116B119
:104C4000013E0025D9E73546D7E7034610B41A6C74
:104C500008466AB1DC68996814448C4228BF196818
:104C6000DC6028BFD960D9685DF8044B01F0B4BCA2
:104C70005DF8044B704770B5044601F0C3F994F831
:104C8000455004F124066DB2002D14DCFF2384F896
:104C9000453001F0D7F901F0B5F994F8445004F12A
:104CA00010066DB2002D12DCFF2384F84430BDE8FD
:104CB000704001F0C7B9636A002BE7D0304600F0BE
:104CC00069FE08B100F0F2FE013D6DB2DCE7236938
:104CD000002BE9D0304600F05DFE08B100F0E6FEA2
:104CE000013D6DB2DEE738B50D46044640B94FF0E0
:104CF000500383F31188BFF36F8FBFF34F8FFEE72D
:104D000001F080F9D4E90F31226862604B43D0187A
:104D10005B1A1A44A060FF230020A063E26084F8BD
:104D2000443084F84530A5B9236973B104F110000B
:104D300000F030FE48B14FF0E0234FF08052C3F84E
:104D4000042DBFF34F8FBFF36F8F01F07BF901206C
:104D500038BD04F11000FFF7F7FE04F12400FFF75F
:104D6000F3FEF2E713B51C4640B94FF0500383F34E
:104D70001188BFF36F8FBFF34F8FFEE743B94FF03A
:104D8000500383F31188BFF36F8FBFF34F8FFEE79C
:104D90004AB191B94FF0500383F31188BFF36F8F7D
:104DA000BFF34F8FFEE741B14FF0500383F31188FB
:104DB000BFF36F8FBFF34F8FFEE750230193019B2B
:104DC000502B08D04FF0500383F31188BFF36F8F3F
:104DD000BFF34F8FFEE7002908BF2246019B2260E8
:104DE0000123C4E90F0184F8463019462046FFF735
:104DF0007AFF9DF8103084F84C30204602B010BD88
:104E00002DE9F04385B0884601921F46044640B91B
:104E10004FF0500383F31188BFF36F8FBFF34F8FB1
:104E2000FEE751B9036C43B14FF0500383F311888F
:104E3000BFF36F8FBFF34F8FFEE7022F0BD1E36BF2
:104E4000012B08D04FF0500383F31188BFF36F8F0D
:104E5000BFF34F8FFEE700F02FFE064650B9019BCF
:104E60004BB14FF0500383F31188BFF36F8FBFF343
:104E70004F8FFEE700264FF0000937E0019D1DB976
:104E800001F0E0F8002052E016B902A800F0C6FDDB
:104E900001F0D8F800F0CAFB01F0B4F894F84430FF
:104EA000FF2B08BF84F8449094F84530FF2B08BFCF
:104EB00084F8459001F0C6F801A902A800F0BAFDF7
:104EC00000284AD101F09EF8A26BE36B9A4231D1DF
:104ED00001F0B8F8019904F1100000F023FD20461C
:104EE000FFF7C9FE00F046FC60B3012601F08AF826
:104EF000A26BE36B9A4201D3022FBFD13A464146DF
:104F00002046FFF76DFE636A1BB104F1240000F038
:104F100041FD48B14FF0E0234FF08052C3F8042D1B
:104F2000BFF34F8FBFF36F8F01F08CF8012005B0F6
:104F3000BDE8F08301F086F82046FFF79CFE00F004
:104F400019FCD2E74FF0E0234FF08052C3F8042D54
:104F5000BFF34F8FBFF36F8FC7E72046FFF78BFE7E
:104F600000F008FC8EE72DE9F843894690461F467D
:104F7000044640B94FF0500383F31188BFF36F8F9D
:104F8000BFF34F8FFEE751B9036C43B14FF05003AD
:104F900083F31188BFF36F8FBFF34F8FFEE7022FAC
:104FA0000BD1E36B012B08D04FF0500383F3118832
:104FB000BFF36F8FBFF34F8FFEE701F039F9EFF3C7
:104FC00011864FF0500383F31188BFF36F8FBFF347
:104FD0004F8FA26BE36B9A4201D3022F23D194F837
:104FE0004550A36B6DB23A4649462046FFF7F8FD9F
:104FF0006B1C13D1636A0BB901200BE004F1240090
:1050000000F0C8FC0028F7D0B8F1000FF4D0012060
:10501000C8F8000086F31188BDE8F88301356DB249
:1050200084F84550E8E70020F4E72DE9FF410F46FA
:105030000192044640B94FF0500383F31188BFF347
:105040006F8FBFF34F8FFEE751B9036C43B14FF041
:10505000500383F31188BFF36F8FBFF34F8FFEE7C9
:1050600000F02AFD064650B9019B4BB14FF05003AA
:1050700083F31188BFF36F8FBFF34F8FFEE70026D6
:105080004FF000083DE0019D1DB900F0DBFF00205E
:1050900056E016B902A800F0C1FC00F0D3FF00F002
:1050A000C5FA00F0AFFF94F84430FF2B08BF84F836
:1050B000448094F84530FF2B08BF84F8458000F009
:1050C000C1FF01A902A800F0B5FC002841D120468B
:1050D000FFF77BFDB8B3019904F1240000F022FC36
:1050E0002046FFF7C8FD00F045FB48B94FF0E0232C
:1050F0004FF08052C3F8042DBFF34F8FBFF36F8F73
:10510000012600F07FFFA56B002DBCD0394620465C
:10511000013DFFF79AFDA563236973B104F1100007
:1051200000F038FC48B14FF0E0234FF08052C3F854
:10513000042DBFF34F8FBFF36F8F00F083FF01206B
:1051400004B0BDE8F0812046FFF795FD00F012FBAA
:10515000D6E72046FFF78FFD00F00CFB2046FFF757
:1051600034FD0028CCD092E710B5074A002352F84E
:1051700033402CB942F8331002EBC302506010BD2B
:105180000133082BF3D1FAE7680E002070B504460E
:105190000D46164600F036FF94F84430FF2B04BF4E
:1051A000002384F8443094F84530FF2B04BF0023DB
:1051B00084F8453000F046FFA36B2BB932462946F0
:1051C00004F1240000F0C8FB2046BDE87040FFF762
:1051D00052BD00002DE9F041044600F013FF304BB2
:1051E000304E1A68304F01321A603568002D4BD1AD
:1051F00034601B68012B1FD1B84640460135FFF7CC
:10520000A3FC382D08F11408F7D1DFF8C480274D2E
:105210004046FFF799FC2846FFF796FC2448FFF725
:1052200093FC2448FFF790FC2348FFF78DFC234BA9
:10523000C3F80080224B1D60224A136801331360BB
:10524000214A63641168E36A14208B4200FB0370F7
:1052500004F1040188BF1360FFF784FC00F0F2FE44
:105260001A4B1B6873B13368DA6AE36A9A4209D24F
:105270004FF0E0234FF08052C3F8042DBFF34F8F5F
:10528000BFF36F8FBDE8F081104B1A68E36A002A04
:10529000D2D13268D26A9A4298BF3460CCE700BF5C
:1052A00014130020A80E0020B40E00203C13002090
:1052B0005C1300208813002074130020AC0E002023
:1052C000B00E0020201300202413002070130020B3
:1052D00028130020F8B5154B154D1C6806462868A4
:1052E00004300F46FFF761FC731C07D137B1296802
:1052F0001048BDE8F8400431FFF734BC2B68A4190E
:105300005C6007D30C4B18682968BDE8F84004318D
:10531000FFF734BC094B186829680431FFF72EFCED
:10532000074B1A68A24288BF1C60F8BD9C1300207E
:10533000A80E002074130020B00E0020AC0E002038
:1053400050130020064A13681968064B19B94FF02C
:10535000FF321A6070471268D268D2685268F8E764
:10536000AC0E00205013002010B50446543001F05C
:10537000B1F894F8A5303BB9206B01F045F8204610
:10538000BDE8104001F040B8012BF8D0022B08D046
:105390004FF0500383F31188BFF36F8FBFF34F8F2C
:1053A000FEE710BD80B5134C134F144D236873B93D
:1053B000134B1B68012BF8D94FF0E0234FF08052BC
:1053C000C3F8042DBFF34F8FBFF36F8FEDE700F0ED
:1053D00019FEFB68DE68301DFFF7E7FB2B68013B19
:1053E0002B602368013B236000F02CFE3046FFF762
:1053F000BBFFDBE7181300208813002014130020E4
:10540000B40E00202DE9F047DDE909844FEA820956
:105410004A4606460D46206BA5211F4601F052F86C
:10542000236BA9F104094B4423F00709002D41D057
:105430006B1E04F133020F3513F8011F02F8011F30
:1054400009B1AB42F8D1002384F84330089D372DD1
:1054500028BF37254FF0000AE562E564201DC4F837
:1054600050A0FFF77CFBC5F1380504F11800FFF7E9
:1054700076FBC4F8A0A04C2251462461A561646269
:1054800084F8A4A004F1540001F01CF80B4BA365B0
:1054900003F16802D033E26523663A463146484656
:1054A00000F088FD2060B8F1000F01D0C8F800407E
:1054B000BDE8F08784F83450C8E700BFF8500020FA
:1054C00070B586B0DDE90B5445B94FF0500383F356
:1054D0001188BFF36F8FBFF34F8FFEE744B94FF0D2
:1054E000500383F31188BFF36F8FBFF34F8FFEE735
:1054F000A8260596059EA82E08D04FF0500383F3EA
:105500001188BFF36F8FBFF34F8FFEE7256302252E
:1055100084F8A55004AD01950A9D02940095059E5E
:10552000FFF770FF2046FFF755FE049806B070BDE8
:105530002DE9F043074685B0900088461646994607
:1055400000F0CAFE0546E8B1A82000F0C5FE0446FA
:10555000A8B1002380F8A5300D9B056301930C9B37
:105560000290009332464B4641463846FFF74AFFC9
:105570002046FFF72FFE012005B0BDE8F083284646
:1055800000F042FF4FF0FF30F6E7000010B588B0A2
:10559000002407AA06A905A8CDE90544FFF7BCFA2F
:1055A000059B0293069B079A19491A48CDE90043C7
:1055B0002346FFF785FF40B300F024FB012819D1F3
:1055C0004FF0500383F31188BFF36F8FBFF34F8FFA
:1055D000114B124A1B6854331360114B4FF0FF32CA
:1055E0001A60104B1860104B1C6008B0BDE81040EA
:1055F00000F098BD013008D14FF0500383F31188BB
:10560000BFF36F8FBFF34F8FFEE708B010BD00BF31
:10561000887A0008A5530008A80E0020600000202A
:1056200050130020701300209C130020024A1368BE
:1056300001331360704700BF1C130020014B186832
:10564000704700BF9C1300203F4B1B682DE9F74FAC
:10565000002B73D13D4B1D6801351D60BDB93C4B1E
:105660001A68126842B14FF0500383F31188BFF3F8
:105670006F8FBFF34F8FFEE7364A196810681860C6
:105680001160354A136801331360FFF75BFE334E38
:10569000334F3368DFF8D4809D424FF0000411D2BD
:1056A000D8F80030DB6A14225343FB58022B2D4BF1
:1056B0001B6828BF0124002B18BF0124204603B01B
:1056C000BDE8F08FDFF88890DFF8A4A0D9F80030AB
:1056D0001B681BB94FF0FF333360E1E7D9F80030A6
:1056E000DB68D3F80CB0DBF80420954201D23260BD
:1056F000D6E70BF1040108460191FFF756FADBF8F3
:105700002820019922B10BF11800FFF74EFA0199F8
:10571000DBF82C00DAF800201423904288BFCAF886
:10572000000003FB0070FFF71DFAD8F80010DBF84B
:105730002C20CB6A9A4228BF0124C7E70A4A136883
:10574000013313600024B9E71C1300209C130020D0
:10575000AC0E0020B00E0020541300205013002087
:10576000B40E0020A013002058130020A80E002023
:1057700024130020F7B5314C236843B94FF0500390
:1057800083F31188BFF36F8FBFF34F8FFEE700F0F5
:1057900039FC2368013B236024682CB1002400F00D
:1057A00051FC204603B0F0BD254B1B68002BF5D003
:1057B000244D254E254F1EE0EB68DC6804F11800EF
:1057C000FFF7F3F9211D08460191FFF7EEF9E36AAF
:1057D000326801991420934200FB037088BF336044
:1057E000FFF7C0F91A4BE26A1B68DB6A9A4202D3E0
:1057F000184B01221A602B68002BDDD10CB1FFF78A
:10580000A1FD154D2C6844B1124E0127FFF71CFF76
:1058100000B13760013CF9D12C600E4B1B68002BA6
:10582000BCD04FF0E0234FF08052C3F8042DBFF3FB
:105830004F8FBFF36F8F0124B1E700BF1C1300200F
:10584000141300205C13002024130020B40E002049
:10585000A80E0020A01300205813002008B550B94E
:105860004FF0E0234FF08052C3F8042DBFF34F8F69
:10587000BFF36F8F08BD0A4B196841B14FF0500359
:1058800083F31188BFF36F8FBFF34F8FFEE7FFF7EE
:10589000CDFEFFF71FFDFFF76DFF0028E0D0E9E721
:1058A0001C130020194B1A68194B70B512B1012254
:1058B0001A6070BD174D1A602A681749142606FB36
:1058C00002F3C818CC58ACB144680833646844602B
:1058D0000B449C4204BF63684360142303FB021122
:1058E0004B68D9680D4B19602A601B680C4A543309
:1058F0001360DEE742B94FF0500383F31188BFF322
:105900006F8FBFF34F8FFEE7013AD8E71C130020DB
:10591000A013002024130020B40E0020A80E0020A5
:105920006000002010B50C4640B94FF0500383F3DF
:105930001188BFF36F8FBFF34F8FFEE7054B1968D8
:105940001831FFF71BF920460121BDE81040FFF791
:10595000C1BC00BFA80E002038B50D46144640B9A2
:105960004FF0500383F31188BFF36F8FBFF34F8F56
:10597000FEE7074B19681831FFF7F4F8002C2146B1
:105980000CBF28464FF0FF30BDE83840FFF7A2BCFF
:10599000A80E0020C36813B5DC6844B94FF050036B
:1059A00083F31188BFF36F8FBFF34F8FFEE704F1CE
:1059B000180108460191FFF7F8F8124B01991B688E
:1059C000EBB9211D08460191FFF7EFF80E4AE36A93
:1059D00010680199834288BF13600C4A142000FBB1
:1059E0000320FFF7BFF80A4BE26A1B68DB6A9A42A2
:1059F00085BF084B01200020186002B010BD06488A
:105A0000EFE700BF1C13002024130020B40E002079
:105A1000A80E0020A01300205C130020034B1B687D
:105A20000360034B1B684360704700BF54130020A2
:105A30009C13002070B50C46054640B94FF050034A
:105A400083F31188BFF36F8FBFF34F8FFEE741B928
:105A50004FF0500383F31188BFF36F8FBFF34F8F65
:105A6000FEE700F0CFFA0F4B196823685A1C10D0DC
:105A70000D482E6800686A68864201D08A420FD9B4
:105A8000881A83420AD95B1A134423602846FFF719
:105A9000C5FF002400F0D6FA204670BD0023236025
:105AA0000124F7E79C13002054130020014B01222E
:105AB0001A607047A0130020054B1B6833B1054BDB
:105AC0001868B0FA80F04009400070470120704724
:105AD000701300201C13002013B510B9002002B071
